:020000040000FA
:100000000C94C9200C94F1200C94F1200C94F12054
:100010000C94F1200C94F1200C94F1200C94F1201C
:100020000C94F1200C94F1200C94F1200C94282EC7
:100030000C94F1200C94DF300C9411310C94F120CD
:100040000C94F1200C94F1200C94F1200C94102DC0
:100050000C94F1205923EF205A0000C3CB1100C3A8
:10006000B6110103010E8A210800B06F106FB06F46
:10007000106F1F0000008A2195213411050020B364
:100080007C21B06FB06F0000212C017EB9C23F010E
:10009000237EB8C23F010000000A036FC34B01007A
:1000A000D5E50A036F0A03675E2356EBE9834C49E3
:1000B000D400005B010A036F0A0367C34701874549
:1000C0005845435554C553017001E1C34E01864262
:1000D00052414E43C864017F0160695E23562B196B
:1000E0004D44C3480187304252414E43C874019782
:1000F00001E17DB4CA7F010303C3480186284C4F48
:100100004F50A98B01AD012A2A015E235613722B91
:100110007323237B967A239EFA7F0123222A0103ED
:1001200003C3480187282B4C4F4F50A9A201D60189
:10013000D12A2A017E83775F237E8A77231415577D
:10014000FAF1017B967A239EC3F6017E93237E9A71
:10015000FA7F0123222A010303C348018428444F64
:10016000A9CA010B022A2A012B2B2B2B222A01D1EF
:10017000732372D123732372C3480181C9020227FA
:10018000022A2A015E2356D5C348018249A72102CB
:1001900038022A2A012323C32A0281CA31024602D5
:1001A0002A2A0123232323C32A028544494749D409
:1001B00021025A02E12600D17BD630FE0ADA6D0216
:1001C000D607FE0ADA7402BD5F2E01DA46016CC35F
:1001D0004701862846494E44A950028302D1E1E5F1
:1001E0001AAEE63FC2AF0223131AAECA8D0287C20F
:1001F000AC0221050019E31B1AB7F29D025F16003D
:10020000210100C34601DAB502131AB7F2AF021397
:10021000EB5E23567AB3C28402E1D5C34801874519
:100220004E434C4F53C57802D002D1E1E57B11FF1C
:10023000FF2B2313BECAD802D5577EA77AD1D5C2C9
:10024000EF0213D51BD5C34801C54723137EB8CA97
:100250000203A7C2F102C1D5D5C34801C1D513D548
:10026000C3480184454D49D4C402E0060C19670710
:100270003B084106B004834B45D909032403C3EF6F
:1002800018893F5445524D494E41CC1C033503213A
:100290000000C3E9188243D227034203C35B1985D8
:1002A000434D4F56C53B034F036960C1D1E3C35C67
:1002B000037E2312130B78B1C25703C1C3480186D2
:1002C0003E434D4F56C5450370036960C1D1E309F4
:1002D0002BEB092BEBC383037E2B121B0B78B1C2D4
:1002E0007E03C1C348018255AA65039303D1E1C5CA
:1002F000447DCDAF03E5677844CDAF03D14A09CE45
:1003000000556C67C1D5C347012100000E042917B1
:10031000D2BC0319CE002917D2C40319CE000DC2D6
:10032000B403C98255AF8C03D0036069C1D1E3EB3C
:100330007D917C98D214047C656A1608D5CD03049F
:10034000D1E56BCD0304575CC161C1C346015F7C3D
:1003500091677B98D20E047C81677B15C82917D2E0
:10036000F4035F7C91677B982C15C20304C921FFBD
:10037000FFC1E5C3470185552F4D4FC4C903D003C5
:1003800083414EC41C042E04D1E17BA56F7AA4677F
:10039000C34701824FD226044004D1E17BB56F7A76
:1003A000B467C3470183584FD239045304D1E17B6A
:1003B000AD6F7AAC67C34701835350C04B046604EA
:1003C00021000039C34701835350A15E0475042AFC
:1003D0002801110600195E2356EBF9C34801835228
:1003E00050C06D048C042A2A01C34701835250A1D6
:1003F00084049A042A2801110800195E2356EB226E
:100400002A01C34801823BD39204B2042A2A014E36
:10041000234623222A01C3480184455849D4AB040A
:10042000B204854C454156C5BF04D2042A2A015E58
:10043000235623732372C34801823ED2C804E604C4
:10044000D12A2A012B2B222A01732372C34801824D
:1004500052BEDF04FC042A2A015E235623222A010D
:10046000D5C3480181D2F50427028252C00A05276C
:10047000028230BD10051E05E17DB4210000C228B6
:100480000523C34701834E4FD417051E058230BC98
:100490002B053A05F1B7210000F247012CC34701B3
:1004A00081AB33054C05D1E119C347018244AB460A
:1004B000055905210600395E71235670C1E119EB1B
:1004C000E17D896F7C8867C1D5C34701854D494E61
:1004D00055D352057C05E17D2F6F7C2F6723C347E1
:1004E00001864E45474154C572057C0586444D49F9
:1004F0004E55D387059D05E1D197935F3E009A57EE
:100500003E009D6F3E009C67D5C34701844F564512
:10051000D29205BB05D1E1E5C346018444524FD0D8
:10052000B205CA05E1C3480184535741D0C105D77C
:1005300005E1E3C34701834455D0CE05E405E1E579
:10054000C3470184324455D0DC05F205E1D1D5E53D
:10055000C34601853244524FD0E9050306E1E1C3A9
:1005600048018532535741D0F9051206E1D1E3EB3A
:100570003333E33B3BEBC3460185324F5645D2084C
:1005800006290633333333E1E53333D1D53B3B3BE7
:100590003B3B3BC34601822BA11F064306E1D17EB4
:1005A0008377237E8A77C3480186544F47474CC5DB
:1005B0003C065A06D1E17EAB77C3480181C04F06A5
:1005C0006806E15E2356D5C348018243C0620677C0
:1005D00006E16E2600C347018232C070068506E13F
:1005E000110200195E2356D511FDFF195E2356D561
:1005F000C3480181A17E069F06E1D1732372C348DF
:10060000018243A19906AE06E1D173C3480182324B
:10061000A1A706BB06E1D173237223D1732372C352
:100620004801C1BAB406E006F50AB00A6A086606CF
:100630005D089D06BB0F7A0BE20B2A2A012B2B22A9
:100640002A01712370134B42C34801C1BBC806E0A5
:10065000061F0B560BB0048F0B6C0BB004844E4F6F
:100660004FD0F106E006B00488434F4E5354414E3C
:10067000D40307E006BB0F8F0B2909E20B13EB5ED7
:100680002356D5C34801885641524941424CC50EB4
:1006900007E0061907E20B13D5C3480184555345FB
:1006A000D22C07E0061907E20B13EB5E16002A288E
:1006B0000119C3470181B042072307000081B15BE4
:1006C000072307010081B263072307020081B36B90
:1006D00007230703008242CC7307230720008343CC
:1006E0002FCC7B07230740008546495253D484070B
:1006F0002307F06F854C494D49D48E07230700A08E
:1007000085422F4255C69A072307000485422F537E
:1007100043D2A60723070100872B4F52494749CEF2
:10072000B207E006590100014A05B0048253B0BE89
:10073000074F07068252B0D2074F0708835449C2B9
:10074000DA074F070A8557494454C8E2074F070C98
:10075000875741524E494EC7EB074F070E85464516
:100760004E43C5F6074F07108244D003084F0712C7
:1007700088564F432D4C494ECB0E084F07148342E9
:100780004CCB16084F07168249CE24084F07188312
:100790004F55D42D084F071A835343D235084F07BE
:1007A0001C864F46465345D43E084F071E87434F8D
:1007B0004E544558D447084F072087435552524559
:1007C0004ED453084F07228553544154C560084FF7
:1007D000072484424153C56D084F0726834450CCFB
:1007E00078084F072883464CC482084F072A834362
:1007F00053D08B084F072C8252A394084F072E83A7
:10080000484CC49D084F07308231ABA508B508E1BC
:1008100023C347018232ABAE08C108E12323C3479B
:10082000018231ADBA08CE08E12BC347018232AD57
:10083000C708DA08E12B2BC347018232AAD308E7A5
:1008400008E1373F7D176F7C1767C347018232AFDE
:10085000E008FA08E17C070F1F677D1F6FC347019F
:1008600084484552C5F308E00613086606B00485BF
:10087000414C4C4FD40609E00613084106B00481F0
:10088000AC1509E0060D099D066F071D09B004822D
:1008900043AC2509E0060D09AC0667071D09B00445
:1008A0007D936F7C9A67C981AD35095309D1E1CD3C
:1008B0004609C3470181BD4D09E00651091C05B039
:1008C00004823CBE5B09E00651091C051C05B0040E
:1008D000843D4E4FD46709E0066C09B00481BC76B4
:1008E000098909D1E17AACFA9309CD46092425FAA0
:1008F0009E09210000C34701210100C34701825521
:10090000BC8309E006F0055104380595010C00C8C8
:100910000538051C057D01060051093805B0048124
:10092000BEA409E006D5058709B0048230BEC5091A
:10093000E0065F07C909B00483524FD4D109E60924
:10094000D1E1E3C34601842D524FD4DE09E006E431
:1009500009E409B0048553504143C5EC09E0068021
:10096000071003B004842D4455D0FB09E006E205CE
:1009700095010400E205B004843F4455D00B0A14ED
:100980000A8854524156455253C51E0AE006D50501
:10099000B9054A0559017F00B90575068709950112
:1009A000F0FFD505C805B004864C41544553D42703
:1009B0000AE0066A0866066606B004834C46C14E25
:1009C0000AE006590104005109B004834346C1619D
:1009D0000AE0066F075109B004834E46C1710AE070
:1009E000065901050051095901FFFF320AB004837D
:1009F0005046C17F0AE0066707320A590105004ADE
:100A000005B00484214353D0950AE00664049A0893
:100A10009D06B004863F4552524FD2A90AE006D542
:100A200005950108004D0F7D010400C805B004853F
:100A30003F434F4DD0BA0AE006750866061C0559BB
:100A4000011100C30AB004853F455845C3D50AE0EB
:100A5000067508660659011200C30AB004863F50A5
:100A6000414952D3ED0AE006510959011300C30A66
:100A7000B004843F4353D0030BE00664049A086635
:100A800006510959011400C30AB004883F4C4F4174
:100A900044494EC7180BE0062A0866061C05590192
:100AA0001600C30AB00487434F4D50494CC5310B63
:100AB000E006DD0AFA04E205BF08E4046606290937
:100AC000B004C1DB4C0BE0065F0775089D06B0045F
:100AD00081DD680BE0065901C00075089D06B00471
:100AE00086534D554447C5760BE006570A590120F9
:100AF000005806B004834845D8860BE0065901101B
:100B0000007F089D06B00487444543494D41CC9B76
:100B10000BE00659010A007F089D06B00486424991
:100B20004E4152D9AD0BE006590102007F089D06E7
:100B3000B00487283B434F4445A9C30BE006FA04A1
:100B4000570A9B0A770A9D06B004C53B434F44C52C
:100B5000D80BE0061F0B560BE20B6C0B0A07B00418
:100B6000873C4255494C44D3F00BE0065F07190718
:100B7000B00485444F4553BE060CE006FA04570AFC
:100B80009B0A9D06E20B2A2A012B702B71222A0157
:100B900013EB4E234623C3470185434F554ED418CC
:100BA0000CE006E205B308D5057506B00484545977
:100BB00050C53F0CE006120A95011800B9054A0518
:100BC000D5050902250275061003AB01F8FF7D016A
:100BD0000400C805B004892D545241494C494EC700
:100BE000530CE006E2055F070902B905B9054A059D
:100BF0006707510975068007510995010800D0045F
:100C00007D01060067075109AB01E0FFB0048428AD
:100C10002E22A97C0CE0060E05470CE205B308FA6B
:100C2000044A05E4045A0CB004C22EA2B40CE00637
:100C3000590122007508660695011400560BBB0C7D
:100C40001F0E0D097506B3081D097D010A001F0E50
:100C50000D09470C5A0CB004864558504543D4CF73
:100C60000CE006B9054A05B90509022203E2055957
:100C7000010E00C80766065F0995012A00C805E253
:100C80000525025F09E205FA046F0751094A05E4E8
:100C90000495010A00590107007D01060059010869
:100CA000007D012800E20559010D005F0995010E44
:100CB00000D004C80580075F077D010400E2052518
:100CC00002AC065F072502B3089D061003AB019C2A
:100CD000FFC805B0048551554552D9FE0CE006E821
:100CE00007660659015000070D5F0732089D06B0E0
:100CF00004C1807B0DE0062A08660695010400F514
:100D00000AFA04C805B0048446494CCC970DB60DC8
:100D10006960D1C1E3EB78B1CAC80D7D12130BC372
:100D2000BC0DC1C348018545524153C5AD0DE00618
:100D30005F07B40DB00486424C414E4BD3CC0DE05E
:100D4000068007B40DB00484484F4CC4DC0DE006A7
:100D50005901FFFFAB084106AB086606AC06B004BC
:100D6000835041C4ED0DE0060D09590144004A05C8
:100D7000B00484574F52C4060EE0062A0866069552
:100D8000010C002A08660689157D010600E8076641
:100D900006320866064A05D505CE020D095901221C
:100DA00000E50D32084106B9055109E4040E050DB0
:100DB00009AC064A050D09B308FA044D03B00488CE
:100DC000284E554D424552A9180EE006B308E205DB
:100DD000E40475067F086606580295012C00D505C7
:100DE0007F0866069103C805E4097F08660691033B
:100DF000570588086606B308950108006707880844
:100E00004106FA047D01C6FFFA04B004864E554D32
:100E10004245D2650EE0065F075F07E409E205B3CD
:100E200008750659012D005F09E205E4044A0559D9
:100E300001FFFF88089D06700EE2057506800751C8
:100E40000995011600E205750659012E0051095F4A
:100E500007C30A5F077D01DCFFC805FA049501049A
:100E6000009B05B004852D46494EC4B20EE00680B5
:100E7000071F0E0D095D08660666068102E2051C65
:100E80000595010A00C8050D09570A8102B00487BB
:100E90002841424F5254A90B0FE0069411B004852B
:100EA0004552524FD2350FE00600086606380595C8
:100EB0000104003F0F0D09470C5A0CBB0C023F20E8
:100EC000B51373042A086606120A95010A0032084F
:100ED0006606D505471E6711834944AE450FE006F7
:100EE0000C0E5901200059015F00B40DE2059B0A68
:100EF000670AB90551090C0ED5054D030C0E470CB8
:100F000059011F002C045A0C030AB00486435245B1
:100F10004154C57E0FE006130F95011000C80585EA
:100F20000A840F59010400B513030A0D09E205757F
:100F300006F30766068E12B3081D09E2055901A0E3
:100F40000058060D096707510959018000580657D6
:100F50000A29096A0866069D060D09BF082909B015
:100F600004C95B434F4D50494C45DDB20FE00613B9
:100F70000F1C055F07C30AC805770A2909B004C713
:100F80004C4954455241CC0710E006750866069559
:100F9000010800560B59012909B004C8444C4954B2
:100FA000455241CC2510E0067508660695010800FB
:100FB000D5052F102F10B004863F53544143CB4129
:100FC00010E0066404D7076606D505A9096707C3BC
:100FD0000A64040D09590180004A05A9095901074D
:100FE00000C30AB00489494E544552505245D45E5C
:100FF00010E006130F95011E007508660687099517
:10100000010A00770A29097D010600770A6E016747
:10101000107D011C000D09BB0E88086606B30895FB
:101020000108004C107D010600C8052F1067107DD7
:1010300001C2FF89494D4D4544494154C58B10E0DB
:1010400006570A590140005806B0048A564F4341DA
:1010500042554C4152D9D910E006100C590181A0DB
:1010600029096A086606770A29090D092108660612
:10107000290921089D06200CBF085D089D06B004C3
:10108000C5464F5254C8F1102C0C1E1181A08A2164
:1010900000008B444546494E4954494F4ED32611D2
:1010A000E0065D0866066A089D06B004C1A838110E
:1010B000E006590129001F0EB00484515549D4524D
:1010C00011E0065F072A089D066C0B980440038315
:1010D0000D9710750866061C0595010700BB0C02EC
:1010E0004F4B7D01E7FF8541424F52D46011E0062E
:1010F0007304B70B67104003581DBB0C0D6669677E
:101100002D464F52544820312E332E11461167116F
:1011100001BC11C34801C51184574152CD8C11E067
:1011200006F8149411F301D6112A1201F9C34801EB
:10113000DF1184434F4CC4BE11E006F8145F078DE5
:10114000149D06960737149D06960742149D060CBB
:1011500015590100005901E6189D0659011201595F
:101160000128016606590106004A05590110004D83
:101170000359010C016606590134119D06590126D7
:1011800001660659013B1E9D06941184532D3EC4F1
:10119000D8113A12D12100007AE680CA45122BC339
:1011A0004601822BAD3112E0063805950104007A24
:1011B00005B00483442BAD4812E0063805950104C0
:1011C000009B05B004834142D35912E006E2054D6D
:1011D00012B00484444142D36B12E006E2055F1270
:1011E000B004834D49CE7912E006F005C909950196
:1011F0000400D505C805B004834D41D88812E00627
:10120000F005870995010400D505C805B004824D95
:10121000AA9E12E006F0055104E4047112D505718E
:10122000129103FA045F12B004824DAFB412E006CB
:10123000B905E404E40480120E057112CE03FA0429
:101240000E0551044D12D505FA044D12D505B00412
:1012500081AACF12E006B912C805B004842F4D4F01
:10126000C4F612E006E4043812FA04D412B0048181
:10127000AF0213E0060913D505C805B004834D4F2E
:10128000C41513E0060913C805B004852A2F4D4F75
:10129000C42313E006E404B912FA04D412B00482A1
:1012A0002AAF3113E0063913D505C805B004854DC2
:1012B0002F4D4FC44513E006E4045F070E05CE032F
:1012C000FA04D505E404CE03FA04B00486284C4998
:1012D0004E45A95413E006E40459014000AE073915
:1012E00013FA04BA07FA124A0589154A055901404A
:1012F00000B004852E4C494EC57213E0067B13885E
:101300000C5A0CB004874D4553534147C59913E01F
:10131000060008660695011E00120A950114005980
:1013200001040050086606BA0719135109A11303F6
:101330000A7D010D00BB0C064D5347202320C51B21
:10134000B0048250C0AB13EF13D121F51373DB004F
:101350006F2600C347018250A1E8130314D1210B6B
:101360001473E17DD300C348018544524956C5FC3E
:10137000133D070000835345C30F143D070000854C
:1013800054524143CB1B143D070000835553C525E0
:10139000143D07F06F84505245D631143D07F06F6D
:1013A000875345432F424CCB3B142307080085232A
:1013B000425546C646142307040088235343522F40
:1013C0004452D65414E0068D14660695010A00595D
:1013D00001F4017D0106005901FA00B0048744457B
:1013E0004E534954D960143D0700008A4449534B79
:1013F0002D4552524FD283143D070000842B425595
:10140000C69114E006590104044A05E205A2075FEB
:101410000995010600C8059607E2054214660651C3
:1014200009B004865550444154C5A214E006421444
:1014300066066606590100803E04421466069D0653
:10144000B0048D454D5054592D425546464552D312
:10145000C914E0069607A207B9055109D40DB004D6
:10146000834452B0E814E0065F0750089D06B004BC
:10147000834452B10615E0068D14660695010A00F4
:101480005901F4017D0106005901FA0050089D063A
:10149000B004864255464645D21615E00637146616
:1014A00006E205E404A9149501FCFF37149D060E1D
:1014B0000566063805950114000E05BF080E056681
:1014C000065901FF7F2C045F079C170E059D060E31
:1014D0000542149D06FA04BF08B00485424C4F43F0
:1014E000CB3815E006500866064A05E40442146647
:1014F00006E20566060E055109E2054A0595013426
:1015000000A9141C0595011400C8050E054115E23B
:10151000050E0567079C176F075109E20566060E61
:10152000055109E2054A051C059501D6FFE2054271
:10153000149D06FA04C805BF08B004CD4818202A37
:101540002A2A2A2043616C6C656420494F53202A63
:101550002A2A002A010019E9865345542D49CF81D2
:10156000150916CD4818202A2A2A2A2043616C6CB6
:10157000656420534554494F202A2A2A00C52A3938
:1015800014444D112100CDE1152A23144D111E00E4
:10159000CDE1152A2F14444D111B00CDE115C1C317
:1015A0004801895345542D44524956C5FE155616D7
:1015B000C53A19144F111800CDE115C1C348018770
:1015C00054265343414CC34816E0068D14660695D5
:1015D0000138005901A00F0913590101008E12E2D0
:1015E00005171466065F0995010800C8057D010806
:1015F0000017149D0654165901340009132D149D2B
:1016000006B30821149D06B0045901D007091359E7
:101610000101008E12E205171466065F09950108A4
:1016200000C8057D01080017149D06541659011ABB
:101630000009132D149D06B30821149D06B00488DB
:101640005345432D524541C46516F216C511240079
:10165000CDE11532A014C1C34801895345432D572C
:10166000524954C5E5160E17C5112700CDE11532B4
:10167000A014C1C34801862B54524143CB00172705
:10168000173A8F14B73E1BCA32173E352A2314BDB2
:10169000C248013E013223143A2F143C322F14C3A6
:1016A0004801872B534543544FD21C1754173A23F4
:1016B000143C322314D52A3914118000192239140C
:1016C000D1C34801843F522FD748177317E37DB425
:1016D000E3CA8817C5112400CDE11532A014C1C397
:1016E0004801C5112700CDE11532A014C1C348013E
:1016F00083522FD76A17E006C805C805C805B0048D
:1017000085464C5553C89617E0065C14B3085F072E
:1017100009025F074115C805AB01F8FFB004845307
:101720004156C5A617E006AE17B004844C4F41C41D
:10173000C417E0062A086606E40432086606E404D4
:101740005F0732089D06BA07FA122A089D0697100D
:10175000FA0432089D06FA042A089D06B004C32D37
:101760002DBED117E0063C0B5F0732089D06BA0775
:101770002A086606B905291351092A084106B0044A
:1017800084544852D50418E006B308D5050902254B
:1017900002D817AB01FAFFB004F53E01D301F1D333
:1017A00000C9E3F57E23B7CA5618CD3F18C34A18BF
:1017B000F1E3C95B183EFF324501C348016518AF2C
:1017C000324501C34801E5F57E23B7CA7D18FA7D8D
:1017D00018CD3F18C36E18F1E1C9E5F57EB723CDEA
:1017E0003F18F282183E0DCD3F183E0ACD3F18F14A
:1017F000E1C9F5F5B70F0F0F0FE60FFE0AFAA818AB
:10180000C607C630CD3F18F1E60FFE0AFAB718C674
:1018100007C630CD3F18F1C9F57CCD98187DCD981D
:1018200018F1C9D513C3CF18D5F51AB713CD3F1882
:10183000F2D0183E0DCD3F183E0ACD3F18F1D1C968
:10184000000000210000C34701DB01FEFFCAEF18C2
:10185000FE14C205193A45012F324501C3EF182184
:1018600000006FC347010E19E17DCD3F18C3480149
:101870000000000000001E1921000039CDBE183EF6
:101880003ACD3F18E1221619E1221819E1221A195E
:10189000E52A1819E52A1619E5CDBE183E20CD3FD8
:1018A000182A1819CDBE183E20CD3F182A1A19CD76
:1018B000BE18C348013E0DCD3F183E0ACD3F18C3A8
:1018C0004801C1A72618E006130F1C055F07C30ACD
:1018D000C8052F10B00486464F524745D46819E01A
:1018E000066A0866065D086606510959011800C3B4
:1018F0000A6C19E2050B086606A90959011500C30F
:101900000AE205850A13089D06670A66065D0866F1
:10191000069D06B00484424143CB7C19E0060D09C4
:1019200051092909B004C542454749CEBB19E00613
:10193000DD0A0D096707B004C5454E4449C6CC19F8
:10194000E006DD0A6F070C0B0D09B9055109D50535
:101950009D06B004C4544845CEDE19E006E619B031
:1019600004C244CFFA19E006560B09020D097707A5
:10197000B004C44C4F4FD0071AE00677070C0B5643
:101980000BAB01C219B004C52B4C4F4FD0181AE055
:101990000677070C0B560BD401C219B004C5554E7F
:1019A0005449CC2D1AE00667070C0B560B9501C263
:1019B00019B004C3454EC4431AE0064B1AB004C51F
:1019C00041474149CE591AE00667070C0B560B7D7B
:1019D00001C219B004C65245504541D4651AE0060B
:1019E000E404E4046D1AFA04FA046F075109E619D5
:1019F000B004C249C67B1AE006560B95010D095F7B
:101A00000729096F07B004C4454C53C5981AE0066E
:101A10006F070C0B560B7D010D095F072909D505D2
:101A20006F07E6196F07B004C55748494CC5AD1A92
:101A3000E0069D1ABF08B004865350414345D3CEFB
:101A40001AE0065F07A412120A95010C005F07094D
:101A500002030AAB01FCFFB004823CA3DE1AE006DD
:101A60000C0EAB089D06B0048223BEFF1AE006C828
:101A700005C805AB0866060C0EB9055109B004840B
:101A8000534947CE0E1BE006E409380595010800CE
:101A900059012D00F40DB00481A3251BE0067F0839
:101AA00066065C13E40959010900B9058709950127
:101AB0000800590107004A05590130004A05F40D94
:101AC000B0048223D33E1BE006421BF0053E041CFB
:101AD000059501F6FFB00483442ED2681BE006E4AE
:101AE00004D505B9058012041B6D1B2C1B131BFAB2
:101AF00004B9055109E71A5A0CB004822ED27D1B95
:101B0000E006E4043812FA04831BB0048244AEA158
:101B10001BE0065F07831B030AB00481AEB21BE023
:101B2000063812B71BB00481BFC11BE0066606C5AC
:101B30001BB0048255AECD1BE0065F07B71BB00497
:101B400085564C4953D4D91BE006590180003B0807
:101B50009D065D08660666063B0866068A07C90993
:101B600095010A0040035F073B089D06E205840FCC
:101B7000030A030A9B0A670A6606E2053303950116
:101B800028002203590113005F0995011800220360
:101B9000590111005F091C0595010E0073046711BE
:101BA0007D010600730467111C059501ACFFC80593
:101BB000B004834259C5E61B601CC3000084504139
:101BC00047C5581CE00659010C0010034003B0043F
:101BD000844C4953D4631CE0064003E20544089D4D
:101BE00006BB0C06534352202320C51B590110008D
:101BF0005F0709024003250259010300A61B030ADF
:101C0000250244086606A113330395010400D0049D
:101C1000AB01E2FF4003B00485494E4445D8761C31
:101C2000E0066A1CB308D5050902400325025901E4
:101C30000300A61B030A5F072502A11333039501C6
:101C40000400D004AB01E4FFB0048554524941C400
:101C5000BE1CE0066A1C5901030019135901030058
:101C6000FA1259010300B9054A05D50509024003D6
:101C700025027D1C330395010400D004AB01F0FF65
:101C8000400359010F00B5134003B0048453484F7B
:101C9000D7F01CE006B308D50509026A1C2502F836
:101CA0001C59010300D401F4FFB004842E4350D525
:101CB000321DE0067F086606590124007F089D0654
:101CC00059012200C8078306B71B7F089D06B00490
:101CD000854D415443C8511D801D6960C179D1C1F2
:101CE00047E3E5C50C2B0D79B8FAB01D231AAEC237
:101CF0008C1DE5D5C50E010C78B9FABC1D13231A4D
:101D0000AECA9D1DC1D1E1C38C1DD1E1C11600EB4E
:101D1000110000C34601C1D1E1C1D17D936F7C9A0E
:101D20006758160019C1110100C34601854445508A
:101D300054C8761DE0066404D7076606D505510928
:101D40006F071913B00484544558D4D21DE0060D12
:101D5000098A07B308E50D1F0E0D090C0E8A07B39B
:101D6000084D03B004844C494EC5EC1DE006E20565
:101D70005901F0FF2C0459011700C30A44086606F4
:101D80007B13C805B004C6454449544FD20B1E2CE2
:101D90000C1E1181A07C2100008557484552C52C9E
:101DA0001EE006E205BA071913E20544089D06BBCA
:101DB0000C06534352202320B70BC51BD5058A07B9
:101DC00009138A07FA12E40989154A0540038A07AC
:101DD0005A0C40030D0975065109E71A59015E00B6
:101DE00010031310351E6711B00483544FD0321105
:101DF000E0065F07A2089D06B00487234C4F4341CD
:101E000054C5901EE006A20866068A070913B004AE
:101E100085234C454144272B383048093B204C4909
:101E20004E452041444452A01EE006AA1E121ED573
:101E300005B00484234C41C7C71EE006CF1EE2054F
:101E4000E4044A058A07FA045109B004852D4D4F70
:101E500056C5D91EE006121E8A074D03D214B004DF
:101E600081C8F21EE006121E0C0EB3088A07E205B6
:101E70000C0EAC064D03B00481C5061FE006121E11
:101E80008A07E50DD214B00481D31E1FE006E205D7
:101E90006707510959010E0009022502121E250289
:101EA000B308FA1E5901FFFFD401F0FF221FB0044E
:101EB00081C42E1FE006E2050A1F59010F00E2054A
:101EC000E40909022502B308121E2502FA1EAB011D
:101ED000F4FF221FB00481CD561FE006A208410680
:101EE0004003AA1E59010300A61B030AC805CF1E02
:101EF0005A0C59015E001003E01E5A0CB00481D444
:101F00007C1FE006E2058A07FA12A2089D06E20598
:101F10000A1F5F07801FB00481CCA41FE00644089D
:101F200066067D1C5F07801FB00485434C4541D287
:101F3000BE1FE00644089D06590110005F07090214
:101F40002502221FAB01FAFFB00484434F50D9D0C1
:101F50001FE006BA07FA12500866064A05D505BA08
:101F600007FA12BA07B9054A05D5050902E205259F
:101F70000289156F0751099D06B308D214AB01EE13
:101F8000FFC805AE17B00485314C494EC5F01FE0BF
:101F900006E01E0C0E470C7E1DA2084106B004840C
:101FA00046494EC42D20E0065901FF03A2086606EB
:101FB000870995011200961E0C0E0D098A07B308B9
:101FC0004D035F074D0F35209501DEFFB0048644B9
:101FD000454C4554C54520E006E404E01E4A050E84
:101FE000055109E01E0E057A05A2084106CF1E4ADA
:101FF00005D5054D03FA04E50DD214B00481D27461
:1020000020E0060C0EB308D505FA1EB00481D0A35B
:1020100020E0066707F31DA720B00481C9B320E0C4
:1020200006E205321FA720B00481CEC120E0064C95
:10203000205F07801FB00481C6CF20E0066707F34A
:102040001DD320B00481C2DD20E0060C0E75067A97
:1020500005801FB00481D8EB20E0066707F31D4C14
:10206000200C0E75067D205F07801FB00484544944
:102070004CCCFB20E006CF1E4A056707F31D352038
:102080001C055F07C30ACF1E4A05D50551097D20EF
:102090005F07801FB004835055D41321E0060C0E57
:1020A000470CE01EE409B9058E12E4040E05A208EF
:1020B00041060E055109E404E2050D090E054D0324
:1020C0000D09CF1E4A05FA044D03FA044D03D2143C
:1020D0005F07801FB00481C33C21E0066707F31D42
:1020E0004221B00484544153CB3F1EE006B004317A
:1020F00010FD2152FDCDC6FECD3EFFCDF4FD3EFFCD
:10210000BC2010BD200D21D9FDCDC6FE2188FDCDFE
:10211000C6FE76E521D9FDCDC6FE2175FDCDC6FEF4
:10212000E1CD4BFFCD3EFFCD3EFFDB01FEFF20FAB0
:10213000E9694C6F6164202D20496E74656C2D48EF
:102140006578204C6F61646572202D2053323030E9
:10215000373138005374617274696E67204164646A
:10216000726573733A20004C6F6164206572726F00
:1021700072202D2053797374656D2068616C7465CD
:10218000640057616974696E6720696E70757420A8
:1021900073747265616D2E2E2E0053796E746178A2
:1021A000206572726F722100436865636B73756D91
:1021B000206572726F722100694C6F61643A200071
:1021C000416464726573732076696F6C6174696FC2
:1021D0006E2100F5D5C501FFFF21A3FDCDC6FECDC3
:1021E0003EFFCD72FFFE0D28F9FE0A28F5FE2028DD
:1021F000F1CD1AFFCD69FFFE3AC2A3FECDE1FE5735
:102200001E00CDBEFECDD6FE3EFFB82005B9200291
:10221000444D7CCDBEFE7DCDBEFECDE1FECDBEFEED
:10222000FE01201ECDE1FECDBEFE7BA72866CD3E81
:10223000FF21D9FDCDC6FE21C9FDCDC6FE01FFFFA0
:1022400018527AA7282CCDE1FECDBEFEE5C5A70128
:10225000F0FCED42C1E1DA8EFECD3EFF21D9FDCD8D
:10226000C6FE21E1FDCDC6FE01FFFF18277723152D
:1022700018D0CDE1FECDBEFE7BA720B2CD3EFFC380
:1022800003FECD3EFF21D9FDCDC6FE21BBFDCDC64F
:10229000FE01FFFFCD3EFF6069C1D1F1C9C54F7B93
:1022A000915F79C1C9F5E57EFE002806CD69FF235F
:1022B00018F5E1F1C9F5CDE1FE67CDE1FE6FF1C999
:1022C000C5CDF4FECB07CB07CB07CB0747CDF4FE3C
:1022D000B0C1C9CD72FFCD1AFFCD06FF30F5CD23B9
:1022E000FFCD2EFFC9FE47D0FE3030023FC9FE3A77
:1022F000D8FE4130023FC937C9FE61D8FE7BD0E627
:102300005FC9FE3A3802D607D630E60FC9F5E60FA8
:10231000C630FE3A3802C607CD69FFF1C9F53E0D59
:10232000CD69FF3E0ACD69FFF1C9E5F57CCD58FFC7
:102330007DCD58FFF1E1C9F5C5470F0F0F0FCD2E29
:10234000FF78CD2EFFC1F1C9F53E01D301F1D300D5
:10235000C9DB01FEFFCA72FFC9F3C3A80000000079
:1023600000C391000000000000C36A0000000000EC
:1023700000C39A0000000000000000000000000000
:10238000000000000000000000000000000000004D
:10239000001800F5E5DB01F53A4320FE3F2003F18C
:1023A000181C2A3F20237DFE3F2003210020223FCE
:1023B00020F1773A43203C324320FE303800E1F1EF
:1023C000FBED4D3A4320FE0028F9E52A4120237D0C
:1023D000FE3F2003210020F32241203A43203D32DA
:1023E0004320FE0530007EFBE1C9F53E01D301F13B
:1023F000D300C93A4320FE00C97EB7C8CF2318F9DD
:10240000C921ED20F9210020223F20224120AF32B6
:102410004320ED56FB21F500CDA0003A4420FE59A3
:102420002016212B01CDA000CD6A00E6DFFE43205F
:102430000FCF3E0DCF3E0ACF3E59324420C350014C
:10244000FE5720E4CF3E0DCF3E0ACFC35301754265
:10245000494F53202D205332313037313820284115
:102460006461707465642066726F6D205A38302024
:1024700053424320627920472E20536561726C6578
:10248000290D0A000D0A7542494F533A20436F6CDB
:1024900064206F72207761726D2073746172742092
:1024A00028432F57293F000000C35601C3F401DD24
:1024B000210000C36101070A7D11214520F9C39C59
:1024C0001D112E0406632145201A77231305C270BF
:1024D00001F9CD2F06CDFD0B32EF20323E212143F5
:1024E00002CD9B12CD4C06CD5509B7C2AA0121A23F
:1024F00021237CB5CABC017E472F77BE70CA9801E4
:10250000C3BC01CD210AB7C2FD04EB2B3ED94677EF
:10251000BE70C285012B11A121CDC507DA8501113D
:10252000CEFF22F42019229F20CD0A062A9F2011D7
:10253000EFFF19113E217D936F7C9A67E5210C0214
:10254000CD9B12E1CD3E1921FD01CD9B1231AB2077
:10255000CD2F06C3480520427974657320667265E5
:10256000650D0A00005A3830204241534943205635
:10257000657220342E37620D0A436F707972696775
:102580006874202843292031393738206279204D5A
:102590006963726F736F66740D0A00004D656D6F2D
:1025A000727920746F7000B3177718C91748205BD1
:1025B00011E01489113D1A1C1B58168B1A911B9798
:1025C0001BF81B0D1C3415781C96200D142512A722
:1025D000141C142D149A1C2D1D3D146D147714C554
:1025E0004E44C64F52CE455854C4415441C94E5032
:1025F0005554C4494DD2454144CC4554C74F544F1E
:10260000D2554EC946D24553544F5245C74F5355E4
:1026100042D2455455524ED2454DD3544F50CF55CA
:1026200054CF4ECE554C4CD7414954C44546D04F5B
:102630004B45C44F4B45D3435245454ECC494E457F
:1026400053C34C53D749445448CD4F4E49544F522D
:10265000D34554D245534554D052494E54C34F4E9E
:1026600054CC495354C34C454152C34C4F4144C3CD
:1026700053415645CE4557D4414228D44FC64ED338
:10268000504328D448454ECE4F54D3544550ABAD5B
:10269000AAAFDEC14E44CF52BEBDBCD3474EC94ED9
:1026A00054C14253D55352C65245C94E50D04F53D0
:1026B000D35152D24E44CC4F47C55850C34F53D339
:1026C000494ED4414EC1544ED045454BC445454B6F
:1026D000D04F494E54CC454ED3545224D6414CC1D0
:1026E0005343C3485224C8455824C2494E24CC45BC
:1026F000465424D24947485424CD494424809F0954
:102700009C08770DEC0A7E0CB30FAD0C030BA90AE5
:102710008C0A7B0B6509980AC70AEE0A9D09EC141E
:102720005D0BDE09F21491113B15831CEE0A691C46
:102730005C1C611C991D99209C209F0BCB091108E2
:10274000460AEE0AEE0A09067925197959157C9789
:10275000167CF8167F461A500C0F460B0F4E465348
:102760004E52474F4446434F564F4D554C425344AB
:10277000442F304944544D4F534C535354434E55BA
:10278000464D4F4858424EC3F401C31C0AD300C9FA
:10279000D6006F7CDE006778DE00473E00C900008F
:1027A00000354ACA99391C76982295B3980ADD47B4
:1027B0009853D199990A1A9F9865BCCD98D6773EBF
:1027C0009852C74F80DB00C901FF1C0000140014A1
:1027D0000000000000C34207C30000C30000C300A4
:1027E00000A221FEFF3F21204572726F7200206916
:1027F0006E20004F6B0D0A0000427265616B002174
:102800000400397E23FE81C04E234623E569607AA9
:10281000B3EBCAC004EBCDC507010D00E1C809C385
:10282000AA04CDE304C5E3C1CDC5077E02C80B2BC6
:10283000C3CF04E52A1F21060009093EE53ED095D5
:102840006F3EFF9CDAF2046739E1D81E0CC3110514
:102850002A0E2122A1201E02011E14011E00011EAB
:1028600012011E22011E0A011E18CD2F06328A20D7
:10287000CDF00B210404573E3FCDD607197ECDD6AF
:1028800007CD5509CDD607218E04CD9B122AA12054
:1028900011FEFFCDC507CA61017CA53CC436193EB7
:1028A000C1AF328A20CDF00B219A04CD9B1221FFBB
:1028B000FF22A120CD4207DA5505CD55093C3DCA7E
:1028C0005505F5CD210AD5CD590647D1F1D23509A7
:1028D000D5C5AF321121CD5509B7F5CDE905DA8E51
:1028E00005F1F5CAC20AB7C5D2A505EB2A1B211A04
:1028F000020313CDC507C296056069221B21D1F1E1
:10290000CACC052A1B21E3C109E5CDC904E1221B7C
:1029100021EB74D123237323722311A6201A77236A
:1029200013B7C2C405CD150623EB626B7E23B6CA6E
:102930005505232323AFBE23C2DD05EB732372C3EA
:10294000D1052AA320444D7E23B62BC823237E2302
:10295000666FCDC50760697E23666F3FC83FD0C3F1
:10296000EC05C02AA320AF77237723221B212AA3BB
:10297000202B2213212AF420220821AFCD65092A19
:102980001B21221D21221F21C12A9F20F921F8206D
:1029900022F620AF6F67221921321021222321E570
:1029A000C52A1321C93E3FCDD6073E20CDD607C349
:1029B0009320AF32F3200E0511A6207EFE20CAE13F
:1029C0000647FE22CA0107B7CA08073AF320B77EB6
:1029D000C2E106FE3F3E9ECAE1067EFE30DA8C066C
:1029E000FE3CDAE106D5118502C501DD06C5067F8C
:1029F0007EFE61DAA506FE7BD2A506E65F774EEB8A
:102A000023B6F2A706047EE67FC8B9C2A706EBE5A7
:102A1000131AB7FAD9064F78FE88C2C806CD5509F1
:102A20002B237EFE61DAD106E65FB9CAB706E1C3A1
:102A3000A50648F1EBC9EB79C1D12312130CD63AA4
:102A4000CAEF06FE49C2F20632F320D654C262062D
:102A5000477EB7CA0807B8CAE10623120C13C3F8A9
:102A60000621A5201213121312C93A8920B73E007D
:102A7000328920C2250705CA4207CDD6073E052B5D
:102A8000CA39077ECDD607C34B07052BCDD607C263
:102A90004B07CDD607CDFD0BC3420721A62006016B
:102AA000AF328920CD00084FFE7FCA11073A892036
:102AB000B7CA64073E00CDD607AF32892079FE073A
:102AC000CAA807FE03CCFD0B37C8FE0DCAF80BFEE3
:102AD00015CA3C07FE40CA3907FE5FCA3107FE0827
:102AE000CA3107FE12C2A307C5D5E53600CDAD1D1C
:102AF00021A620CD9B12E1D1C1C34B07FE20DA4BAA
:102B00000778FE493E07D2BD0779713211212304AF
:102B1000CDD607C34B07CDD6073E08C3B7077C9277
:102B2000C07D93C97EE3BE23E3CA5509C3FD04F506
:102B30003A8A20B7C2D012F1C5F5FE20DAFA073A78
:102B40008720473AF02004CAF60705B8CCFD0B3CB5
:102B500032F020F1C1CD961DC9CD5A1CE67FFE0F83
:102B6000C03A8A202F328A20AFC9CD210AC0C1CDF8
:102B7000E905C5CD6708E14E23462378B1CA48056B
:102B8000CD7008CD8009C5CDFD0B5E235623E5EB46
:102B9000CD3E193E20E1CDD6077EB723CA1D08F2EF
:102BA0003D08D67F4F1186021A13B7F24F080DC2A7
:102BB0004F08E67FCDD6071A13B7F25908C340086D
:102BC000E52A8D20228B20E1C9E5D52A8B2011FF33
:102BD000FFED5A228B20D1E1F0E52A8D20228B20B7
:102BE000CD5A1CFE03CA9308E1C370082A8D202227
:102BF0008B20C3F7013E64321021CD030BC1E5CD1C
:102C0000EC0A220C2121020039CDAA04D1C2CC0841
:102C100009D52B562B5E2323E52A0C21CDC507E1D0
:102C2000C2B008D1F9EB0E08CDDA04E52A0C21E395
:102C3000E52AA120E3CDC50DCDCB07A6CDC20DE57C
:102C4000CDF017E1C5D5010081515A7EFEAB3E01A2
:102C5000C20809CD5509CDC20DE5CDF017CDA41799
:102C6000E1C5D5F533E52A1321E30681C533CD80CF
:102C7000092213217EFE3ACA3509B7C2FD04237E1C
:102C800023B6CAA709235E2356EB22A120EBCD551C
:102C900009111509D5C8D680DA030BFE25D2FD042B
:102CA000074F0600EB21A503094E2346C5EB237E03
:102CB000FE3AD0FE20CA5509FE303F3C3DC9EB2A02
:102CC000A320CA7A09EBCD210AE5CDE9056069D1D7
:102CD000D2C20A2B222121EBC9DFC8D7FE1B281143
:102CE000FE03280DFE13C0D7FE11C8FE03280718E7
:102CF000F63EFF329220C0F6C022132121F6FFC11A
:102D00002AA120F57DA43CCABA092217212A132141
:102D1000221921AF328A20CDF00BF121A004C2315B
:102D200005C348052A19217CB51E20CA1105EB2AC6
:102D3000172122A120EBC9CD2315C0328620C9E579
:102D40002A8F2006004F09228F20E1C97EFE41D83C
:102D5000FE5B3FC9CD5509CDC20DCDA417FA1C0AA3
:102D60003A2C21FE90DA4C18018090110000E5CD3C
:102D70001F18E151C81E08C311052B110000CD55C5
:102D800009D0E5F5219819CDC507DAFD04626B1964
:102D9000291929F1D6305F160019EBE1C3250ACABB
:102DA0001906CDFE092BCD5509E52AF420CA690A7A
:102DB000E1CDCB072CD5CDFE092BCD5509C2FD04A5
:102DC000E3EB7D935F7C9A57DAF204E52A1B21013D
:102DD000280009CDC507D2F204EB229F20E122F49E
:102DE00020E1C31906CA1506CD1906011509C3A8A5
:102DF0000A0E03CDDA04C1E5E52AA120E33E8CF5F5
:102E000033C5CD210ACDEE0AE52AA120CDC507E1C3
:102E100023DCEC05D4E90560692BD81E0EC311052F
:102E2000C016FFCDA604F9FE8C1E04C21105E122D6
:102E3000A120237CB5C2E60A3A1121B7C247052179
:102E40001509E33EE1013A0E0006007948477EB7D6
:102E5000C8B8C823FE22CAF20AC3F50ACDB80FCDFE
:102E6000CB07B4D53AF220F5CDD40DF1E3221321EE
:102E70001FCDC70DCA560BE52A2921E523235E2362
:102E8000562AA320CDC507D2450B2A9F20CDC507C2
:102E9000D1D24D0B210421CDC507D24D0B3ED1CD52
:102EA000FC13EBCD3512CDFC13E1CDFF17E1C9E5E5
:102EB000CDFC17D1E1C9CD23157E47FE8CCA6C0B22
:102EC000CDCB07882B4B0D78CA3D09CD220AFE2CAD
:102ED000C0C36D0BCDD40D7EFE88CA890BCDCB0748
:102EE000A92BCDC50DCDA417CAEE0ACD5509DAA977
:102EF0000AC33C092BCD5509CAFD0BC8FEA5CA3033
:102F00000CFEA8CA300CE5FE2CCA190CFE3BCA53B5
:102F10000CC1CDD40DE53AF220B7C2E90BCD491969
:102F2000CD591236202A2921342A29213A872047CF
:102F300004CAE50B043AF020863DB8D4FD0BCD9EC3
:102F400012AFC49E12E1C39B0B3AF020B7C8C3FD79
:102F50000B360021A5203E0DCDD6073E0ACDD60763
:102F6000AF32F0203A86203DC8F5AFCDD607F1C389
:102F70000E0C3A8820473AF020B8D4FD0BD2530CFF
:102F8000D60ED2270C2FC3480CF5CD2015CDCB077C
:102F9000292BF1D6A8E5CA430C3AF0202F83D2534F
:102FA0000C3C473E20CDD60705C24C0CE1CD55095F
:102FB000C3A20B3F5265646F2066726F6D207374FD
:102FC0006172740D0A003A1221B7C2F704C1215A86
:102FD0000CCD9B12C34806CD06127EFE223E003267
:102FE0008A20C2980CCD5A12CDCB073BE5CD9E125C
:102FF0003EE5CD4C06C1DAA409237EB72BC5CAEB4A
:103000000A362CC3B20CE52A2121F6AF321221E395
:10301000C3BE0CCDCB072CCDB80FE3D57EFE2CCA9A
:10302000E60C3A1221B7C2530D3E3FCDD607CD4C28
:1030300006D1C1DAA409237EB72BC5CAEB0AD53A5B
:10304000F220B7CA100DCD55095747FE22CA040D0C
:103050003A1221B757CA010D163A062C2BCD5D1234
:10306000EB211B0DE3D5C31E0BCD5509CDAB18E3EA
:10307000CDFC17E12BCD5509CA270DFE2CC26D0CD6
:10308000E32BCD5509C2BA0CD13A1221B7EBC27B62
:1030900009D5B621420DC49B12E1C93F457874722F
:1030A000612069676E6F7265640D0A00CDEC0AB726
:1030B000C26C0D237E23B61E06CA1105235E23565D
:1030C000EB220E21EBCD5509FE83C2530DC3E60C56
:1030D000110000C4B80F221321CDA604C20305F9C4
:1030E000D57E23F5D5CDE217E3E5CD4F15E1CDFC37
:1030F00017E1CDF317E5CD1F18E1C190CDF317CA45
:10310000B20DEB22A1206960C31109F92A13217EB7
:10311000FE2CC21509CD5509CD7A0DCDD40DF6374B
:103120003AF2208FB7E8C30F05CDCB07282B160046
:10313000D50E01CDDA04CD4B0E2215212A1521C161
:1031400078FE78D4C50D7E1600D6B3DA0C0EFE03D9
:10315000D20C0EFE0117AABA57DAFD04220A21CDBD
:103160005509C3F00D7AB7C2330F7E220A21D6ACBF
:10317000D8FE07D05F3AF2203DB37BCA9113078394
:103180005F21EF03197856BAD023CDC50DC501E3F1
:103190000DC5434ACDD51758514E234623C52A0A9B
:1031A00021C3D70DAF32F220CD55091E24CA110517
:1031B000DAAB18CDF309D2B20EFE262012CD550996
:1031C000FE48CAEF1CFE42CA5F1D1E02CA1105FE60
:1031D000ACCA4B0EFE2ECAAB18FEADCAA10EFE2223
:1031E000CA5A12FEAACA930FFEA7CABE11D6B6D2F9
:1031F000C30ECDD00DCDCB0729C9167DCDD70D2A55
:103200001521E5CDCD17CDC50DE1C9CDB80FE5EB45
:103210002229213AF220B7CCE217E1C90600074F74
:10322000C5CD550979FE31DAEA0ECDD00DCDCB07EB
:103230002CCDC60DEB2A2921E3E5EBCD2315EBE3DD
:10324000C3F20ECD990EE311AD0ED5014E02094E1B
:10325000236669E915FEADC8FE2DC814FE2BC8FE15
:10326000ACC82BC9F6AFF5CDC50DCD070AF1EBC142
:10327000E3EBCDE517F5CD070AF1C179217C11C249
:103280002E0FA34F78A2E9B34F78B2E921450F3A48
:10329000F2201F7A175F166478BAD0C3340E470F36
:1032A00079B71FC1D1F5CDC70D21890FE5CA1F1808
:1032B000AF32F220D5CDDE137E23234E2346D1C577
:1032C000F5CDE213CDF317F157E17BB2C87AD60101
:1032D000D8AFBB3CD0151D0ABE2303CA710F3FC334
:1032E000AF173C8FC1A0C6FF9FC3B617165ACDD7E4
:1032F0000DCDC50DCD070A7B2F4F7A2FCD7C11C187
:10330000C3E30D2BCD5509C8CDCB072C01AA0FC5A2
:10331000F6AF32F12046CDF309DAFD04AF4F32F2B9
:1033200020CD5509DAD40FCDF309DAE10F4FCD5591
:1033300009DAD50FCDF309D2D50FD624C2F00F3C50
:1033400032F2200F814FCD55093A10213DCA9D1010
:10335000F200107ED628CA7510AF321021E5505900
:103360002A2321CDC507112521CAE5162A1D21EBE7
:103370002A1B21CDC507CA3310799623C22810789D
:103380009623CA671023232323C31A10E1E3D51120
:10339000B50ECDC507D1CA6A10E3E5C50106002AFE
:1033A0001F21E509C1E5CDC904E1221F2160692281
:1033B0001D212B3600CDC507C25910D173237223AE
:1033C000EBE1C9322C21219904222921E1C9E52A06
:1033D000F120E357D5C5CDFB09C1F1EBE3E5EB3CAB
:1033E000577EFE2CCA7B10CDCB0729221521E12266
:1033F000F1201E00D511E5F52A1D213E19EB2A1FEB
:1034000021EBCDC507CAD5107EB923C2B7107EB84F
:10341000235E235623C2A3103AF120B7C20605F15A
:10342000444DCAE51696CA33111E10C31105110486
:1034300000F1CA1C0A712370234FCDDA0423232222
:103440000A2171233AF1201779010B00D2F810C13B
:103450000371237023F5E5CD9018EBE1F13DC2F047
:1034600010F5424BEB19DAF204CDE304221F212BB5
:103470003600CDC507C2161103572A0A215EEB2973
:1034800009EB2B2B73237223F1DA5711474F7E235D
:1034900016E15E235623E3F5CDC507D2D010E5CD66
:1034A0009018D119F13D444DC238112929C109EBB9
:1034B0002A1521C92A1F21EB210000393AF220B731
:1034C000CA7711CDDE13CDDE122A9F20EB2A082108
:1034D0007D934F7C9A41501E0021F220730690C3C9
:1034E000BB173AF02047AFC37D11CD1412CD0612A1
:1034F00001EC0AC5D5CDCB0728CDB80FE5EB2B568F
:103500002B5EE1CDC50DCDCB0729CDCB07B4444D06
:10351000E3712370C35312CD1412D5CD990ECDC5CE
:103520000DE35E2356237AB3CA09057E23666FE551
:103530002A2321E32223212A2721E52A2521E52107
:103540002521D5CDFC17E1CDC20D2BCD5509C2FDEE
:1035500004E1222521E1222721E1222321E1C9E5FD
:103560002AA120237CB5E1C01E16C31105CDCB07CF
:10357000A73E80321021B647CDBD0FC3C50DCDC5C6
:103580000DCD4919CD5912CDDE13013914C57E2355
:1035900023E5CDB412E14E2346CD4D12E56FCDD1DA
:1035A00013D1C9CDB412210421E5772323732372EB
:1035B000E1C92B062250E50EFF237E0CB7CA6F121D
:1035C000BACA6F12B8C26012FE22CC5509E323EBCF
:1035D00079CD4D121104212AF6202229213E0132F3
:1035E000F220CDFF17CDC50722F620E17EC01E1EBA
:1035F000C3110523CD5912CDDE13CDF3171C1DC801
:103600000ACDD607FE0DCC070C03C3A512B70EF1E9
:10361000F52A9F20EB2A08212F4F06FF0923CDC54D
:1036200007DAD21222082123EBF1C9F11E1ACA11BE
:1036300005BFF501B612C52AF42022082121000099
:10364000E52A9F20E521F820EB2AF620EBCDC507DF
:1036500001EF12C243132A1B21EB2A1D21EBCDC51A
:1036600007CA16137E2323B7CD4613C30013C1EB3D
:103670002A1F21EBCDC507CA6C13CDF3177BE509D3
:10368000B7F21513220A21E14E0600090923EB2A9D
:103690000A21EBCDC507CA1613013513C5F6807E86
:1036A00023235E235623F0B7C8444D2A0821CDC5F5
:1036B000076069D8E1E3CDC507E3E56069D0C1F1F2
:1036C000F1E5D5C5C9D1E17DB4C82B462B4EE52B1C
:1036D0002B6E26000950592B444D2A0821CDCC04CD
:1036E000E171237069602BC3E112C5E52A2921E34A
:1036F000CD4B0EE3CDC60D7EE52A2921E5861E1CA5
:10370000DA1105CD4A12D1CDE213E3CDE113E52A5A
:103710000621EBCDC813CDC81321E00DE3E5C37B33
:1037200012E1E37E23234E23466F2C2DC80A120399
:1037300013C3D213CDC60D2A2921EBCDFC13EBC048
:10374000D550591B4E2A0821CDC507C2FA13470987
:10375000220821E1C92AF6202B462B4E2B2BCDC562
:1037600007C022F620C9018C11C5CDDB13AF57323B
:10377000F2207EB7C9018C11C5CD1114CA1C0A23D1
:10378000235E23561AC93E01CD4A12CD26152A06BC
:103790002173C1C37B12CDD614AFE34FE57EB8DAF7
:1037A0004B1478110E00C5CDB412C1E1E5232346B8
:1037B000236668060009444DCD4D126FCDD113D15B
:1037C000CDE213C37B12CDD614D1D51A90C34114C8
:1037D000EB7ECDDB140405CA1C0AC51EFFFE29CAF8
:1037E0009014CDCB072CCD2315CDCB0729F1E301C8
:1037F0004314C53DBE0600D04F7E91BB47D843C998
:10380000CD1114CAC4155F23237E23666FE51946C4
:1038100072E3C57EFE24C2C514CDEF1C180DFE2533
:10382000C2CF14CD5F1D1803CDAB18C1E170C9EB39
:10383000CDCB0729C1D1C543C9CD2615328420CDB2
:103840008320C38C11CD1015C34B20CD1015F51E50
:10385000002BCD5509CA0615CDCB072CCD2315C19C
:10386000CD8320ABA0CA0715C9CD231532842032E1
:103870004C20CDCB072CC32315CD5509CDC20DCD82
:10388000010A7AB7C21C0A2BCD55097BC9CD070A9C
:103890001AC38C11CDC20DCD070AD5CDCB072CCDC7
:1038A0002315D112C921221ACDF317C35E15CDF30A
:1038B0001721C1D1CDCD1778B7C83A2C21B7CAE5A9
:1038C0001790D278152F3CEBCDD517EBCDE517C16E
:1038D000D1FE19D0F5CD0A1867F1CD2316B42129F0
:1038E00021F29E15CD0316D2E4152334CA0C052E01
:1038F00001CD3916C3E415AF90477E9B5F237E9AB6
:1039000057237E994FDC0F166863AF4779B7C2D152
:10391000154A54656F78D608FEE0C2B215AF322C56
:1039200021C905297A1757798F4FF2C915785C4557
:10393000B7CAE415212C218677D2C415C878212C6A
:1039400021B7FCF61546237EE680A94FC3E5171C78
:10395000C014C00CC00E8034C0C30C057E835F232E
:103960007E8A57237E894FC9212D217E2F77AF6F05
:1039700090477D9B5F7D9A577D994FC90600D60879
:10398000DA3216435A510E00C32516C6096FAF2D01
:10399000C8791F4F7A1F577B1F5F781F47C33516A3
:1039A0000000008103AA561980F122768045AA38CA
:1039B00082CDA417B7EA1C0A212C217E0135801183
:1039C000F30490F570D5C5CD5E15C1D104CDFA16BE
:1039D000214716CD5515214B16CDEC1A01808011CB
:1039E0000000CD5E15F1CD1F190131801118722133
:1039F000C1D1CDA417C82E00CD621779323B21EB7F
:103A0000223C21010000505821AF15E521BB16E5ED
:103A1000E52129217E23B7CAE716E52E081F67791D
:103A2000D2D516E52A3C2119EBE13A3B21891F4FFB
:103A30007A1F577B1F5F781F472D7CC2C416E1C9D0
:103A4000435A514FC9CDD517012084110000CDE54F
:103A500017C1D1CDA417CA00052EFFCD621734348B
:103A60002B7E3257202B7E3253202B7E324F20412B
:103A7000EBAF4F575F325A20E5C57DCD4E20DE00BB
:103A80003FD23217325A20F1F137D2C1E1793C3DB1
:103A90001FFAE515177B175F7A175779174F2978A3
:103AA00017473A5A2017325A2079B2B3C21F17E586
:103AB000212C2135E1C21F17C30C0578B7CA861720
:103AC0007D212C21AE80471FA878F28517C680770C
:103AD000CAE516CD0A18772BC9CDA4172FE1B7E197
:103AE000F2C415C30C05CDF01778B7C8C602DA0CBE
:103AF0000547CD5E15212C2134C0C30C053A2C217D
:103B0000B7C83A2B21FE2F179FC03CC9CDA417067A
:103B100088110000212C214F70060023368017C326
:103B2000AC15CDA417F0212B217EEE8077C9EB2AAE
:103B30002921E3E52A2B21E3E5EBC9CDF317EB229D
:103B400029216069222B21EBC92129215E235623DB
:103B50004E234623C911292106041A77132305C2CF
:103B60000118C9212B217E07371F773F1F23237799
:103B70007907371F4F1FAEC978B7CAA41721AD17F1
:103B8000E5CDA41779C8212B21AE79F8CD39181FBE
:103B9000A9C92378BEC02B79BEC02B7ABEC02B7BAF
:103BA00096C0E1E1C9474F575FB7C8E5CDF017CDE3
:103BB0000A18AE67FC70183E9890CD23167C17DC6F
:103BC000F6150600DC0F16E1C91B7AA33CC00BC931
:103BD000212C217EFE983A2921D07ECD4C18369892
:103BE0007BF57917CDAC15F1C921000078B1C83E3D
:103BF0001029DAD010EB29EBD2A61809DAD0103D43
:103C0000C29818C9FE2DF5CAB718FE2BCAB7182BD3
:103C1000CDC41547575F2F4FCD5509DA0819FE2E31
:103C2000CAE318FE45C2E718CD5509CDFB0ECD55A8
:103C300009DA2A1914C2E718AF935F0C0CCABF182F
:103C4000E57B90F40019F2F618F5CDEC16F13CC2C4
:103C5000EA18D1F1CCCD17EBC9C8F5CD8D17F13DE0
:103C6000C9D557788947C5E5D5CD8D17F1D630CD63
:103C70001F19E1C1D1C3BF18CDD517CDB617C1D11A
:103C8000C35E157B0707830786D6305FC3D518E56B
:103C9000219504CD9B12E1EBAF0698CDBB17219A7D
:103CA00012E5212E21E5CDA4173620F25719362D25
:103CB000233630CA0D1AE5FCCD17AFF5CD131A0126
:103CC000439111F84FCD1F18B7E28419F1CD0119B6
:103CD000F5C36619CDEC16F13CF5CD131ACD4C1594
:103CE0003CCD4C18CDE517010603F1813CFAA01933
:103CF000FE08D2A0193C473E023D3DE1F511261ACF
:103D000005C2B119362E2336302305362ECCFA17CC
:103D1000C5E5D5CDF017E1062F047B965F237A9E8B
:103D20005723799E4F2B2BD2C019CD031623CDE5F7
:103D300017EBE17023C10DC2B11905CAF1192B7E31
:103D4000FE30CAE519FE2EC4FA17F1CA101A36451C
:103D500023362BF2011A362D2F3C062F04D60AD219
:103D6000031AC63A237023772371E1C901749411B1
:103D7000F723CD1F18B7E1E27B19E900000080A00E
:103D80008601102700E803006400000A000001001B
:103D90000021CD17E3E9CDD51721221ACDE217C1B5
:103DA000D1CDA41778CA8B1AF2561AB7CA0005B734
:103DB000CAC515D5C579F67FCDF017F2731AD5C5EA
:103DC000CD7718C1D1F5CD1F18E17C1FE1222B2141
:103DD000E1222921DC381ACCCD17D5C5CD5816C122
:103DE000D1CD9916CDD517013881113BAACD9916A1
:103DF0003A2C21FE88D28017CD7718C680C602DA09
:103E00008017F5214716CD4F15CD9016F1C1D1F58C
:103E1000CD5B15CDCD1721CB1ACDFB1A110000C1FA
:103E20004AC3991608402E9474704F2E776E0288FC
:103E30007AE6A02A7C50AAAA7EFFFF7F7F0000803E
:103E40008100000081CDD517119716D5E5CDF0176B
:103E5000CD9916E1CDD5177E23CDE21706F1C1D15C
:103E60003DC8D5C5F5E5CD9916E1CDF317E5CD5E95
:103E700015E1C3041BCDA417215E20FA7D1B217F11
:103E800020CDE217215E20C886E60706007723874B
:103E9000874F09CDF317CD99163A5D203CE603060E
:103EA00000FE0188325D2021811B87874F09CD4F9D
:103EB00015CDF0177B59EE4F4F36802B46368021BB
:103EC0005C20347ED6ABC2741B770C151CCDAF15AD
:103ED000217F20C3FC17772B772B77C3581B68B142
:103EE000466899E9926910D1756821DB1BCD4F15A1
:103EF000CDD51701498311DB0FCDE517C1D1CDFA1F
:103F000016CDD517CD7718C1D1CD5B1521DF1BCDCF
:103F10005515CDA41737F2C71BCD4C15CDA417B737
:103F2000F5F4CD1721DF1BCD4F15F1D4CD1721E3CB
:103F30001BC3EC1ADB0F49810000007F05BAD71EB6
:103F4000866426998758342387E05DA586DA0F4971
:103F500083CDD517CD971BC1E1CDD517EBCDE51797
:103F6000CD911BC3F816CDA417FC381AFCCD173A17
:103F70002C21FE81DA2A1C0100815159CDFA16212B
:103F80005515E521341CCDEC1A21DB1BC9094AD794
:103F90003B78026E847BFEC12F7C74319A7D843D18
:103FA0005A7DC87F917EE4BB4C7E6CAAAA7F00003C
:103FB0000081C9D7C93E0CC3961DCD23157B32871E
:103FC00020C9CDC20DCD070AED538B20ED538D20B6
:103FD000C9CD070AD5E146237EC37D11CDC20DCDE3
:103FE000070AD5CDCB072CCDC20DCD070AE373232D
:103FF00072E1C9CDC50DCD070AC5212E217AFE007B
:10400000280CCDD21C78FE302802702371237BCD82
:10401000D21C7AFE00200578FE302802702371231E
:10402000AF772377C1212E21C32B1247E60FFE0A5B
:104030003802C607C6304F780F0F0F0FE60FFE0A83
:104040003802C607C63047C9EB210000CD081DDA8B
:10405000281D1805CD081D381F29292929B56F18D5
:10406000F3131AFE20CA081DD630D8FE0A3805D62A
:1040700007FE0AD8FE103FC9EB7A4BE5CD7C11E173
:10408000C91E26C31105CDC50DCD070AC5212E2198
:1040900006110578FE012808CB13CB1230F4180462
:1040A000CB13CB123E30CE0077230520F3AF77231E
:1040B00077C1212E21C32B12EB210000CD7C1DDA0C
:1040C0008A1DD63029B56FCD7C1D30F6EB7A4BE5D5
:1040D000CD7C11E1C9131AFE20CA7C1DFE30D8FE2A
:1040E000323FC91E28C31105DD21FFFFC36101C393
:1040F0000800C300003E00329220C36801ED45F580
:10410000A0C1B83E00C9CDD607C3FD0B0000000218
:10411000000000000000000005040007000000008F
:104120000000000000000000000000000102040880
:104130001020408001020408102040800102040881
:104140001020408001020408102040800202020278
:10415000020202020404040404040404030303032B
:104160000303030301010101010101010000390002
:1041700036003300300000003B00380035003200CC
:1041800000003A00370034003100D121122C4131B7
:10419000DD2111241FBECFE5D8E0DEBFCDBF13E087
:1041A000A0E6B0E0ECEBFCE602C005900D92A6386C
:1041B000B107D9F725E0A6E8B3E001C01D92AD3103
:1041C000B207E1F710E2C8ECD0E204C02197FE018B
:1041D0000E94D133C53CD107C9F70E9493330C9498
:1041E00051360C940000DC01ED91FC910190F081BE
:1041F000E02D09940F931F93CF93DF93EC010E945E
:10420000722E088119812A813B81601B710B820B00
:10421000930B693C71058105910580F080E00E9457
:104220008A2F61E0892B09F060E080E00E945C2F1A
:104230000E94722E688379838A839B83DF91CF915A
:104240001F910F9108956AE00E94A3338295807FA9
:10425000890F0895982F92959F708F702AE0929FF2
:10426000800D11240895CF93C82F8A3030F467E66B
:1042700070E08CE794E00E94A8314AE050E06C2F97
:104280008CE794E0CF910C948C32CF93C82F10928E
:104290009003809190038C1770F461E08FE00E948E
:1042A0005C2F60E08FE00E945C2F809190038F5F15
:1042B00080939003EECFCF910895CF93DF93D82FC3
:1042C00081E00E94452160E082E00E945C2FCFEFF8
:1042D000CABB86E38BBB82E00E9445211ABACBBBE6
:1042E00082E00E944521CABBDBBB82E00E944521DF
:1042F0001ABACBBB61E082E00E945C2F83E00E948F
:10430000452181E00E94452160E082E00E945C2F0F
:10431000CABB83E28BBB82E00E9445211ABACBBBA9
:1043200061E082E00E945C2F83E0DF91CF910C94EA
:1043300045211F93CF93DF93182FD92F81E00E943F
:10434000452160E082E00E945C2FCFEFCABB81E292
:104350008BBB82E00E9445211ABACBBB82E00E944F
:104360004521CABB1BBB83E00E944521DBBB82E029
:104370000E9445211ABACBBB61E082E0DF91CF9168
:104380001F910C945C2F60E086E10E945C2F86E018
:104390000E94452161E086E10E945C2F82E00C943E
:1043A000452169E670E089EA93E00E94023362E702
:1043B00070E083EA93E00C94023383EA93E00E9476
:1043C000933289EA93E00C9493328CE794E00E9454
:1043D000B32F892B41F080919603882321F060E070
:1043E00081E00C945C2F0895EF920F93CF93C22F2E
:1043F00068E670E08FEA93E00E94942B70E060E042
:104400008FEA93E00E94F32080918D030E94232184
:10441000682F8FEA93E00E941C2B80918C030E94EE
:104420002321682F8FEA93E00E941C2B80918B033D
:104430000E942321682F8FEA93E00E941C2B61E0E9
:1044400070E08FEA93E00E94F3208C2F0E942321DA
:10445000682F8FEA93E00E941C2B802F0E9423215B
:10446000682F8FEA93E00E941C2B8E2D0E9423213F
:10447000682F8FEA93E00E941C2B8FEA93E0CF9184
:104480000F91EF900C940F2C6F927F928F929F92CE
:10449000AF92BF92CF92DF92EF92FF920F931F9352
:1044A000CF93DF934C015B01EA01390168E670E0CC
:1044B0008FEA93E00E94942B70E060E08FEA93E033
:1044C0000E94F3208FEA93E00E940F2C42E150E01B
:1044D00068E670E08FEA93E00E940C2C8FEA93E08C
:1044E0000E94C32A8F770E942A21F40180838FEAD9
:1044F00093E00E94C32A0E942A21F50180838FEA5B
:1045000093E00E94C32A8F730E942A2188838FEA36
:1045100093E00E94C32A8FEA93E00E94C32A0E947C
:104520002A21F30180838FEA93E00E94C32A0E942C
:104530002A21F80180838FEA93E00E94C32A0E9417
:104540002A21F701808310929003809190038A3092
:1045500050F48FEA93E00E94C32A809190038F5F0A
:1045600080939003F2CF8FEA93E00E94C32AF60172
:104570008083DF91CF911F910F91FF90EF90DF909B
:10458000CF90BF90AF909F908F907F906F90089545
:10459000CF92DF92EF92FF920F931F938823A1F0A7
:1045A00087E8C82E83E0D82E98E8E92E93E0F92E0C
:1045B00009E813E02AE833E04BE853E06CE873E0E5
:1045C0008DE893E00E94442280918A030E94332167
:1045D0006EE770E08CE794E00E94A8318091890337
:1045E0000E9433216EE770E08CE794E00E94A831CE
:1045F000809188030E94332168EE70E08CE794E09C
:104600000E94A83180918B030E94332168E970E0F9
:104610008CE794E00E94A83180918C030E943321A2
:1046200068E970E08CE794E00E94A83180918D03E6
:104630001F910F91FF90EF90DF90CF900C9433215A
:10464000CF92DF92EF92FF920F931F93CF93DF935E
:1046500087E8C82E83E0D82E98E8E92E93E0F92E5B
:1046600009E813E02AE833E04BE853E06CE873E034
:104670008DE893E00E94442210929F0360E870E06E
:104680008CE794E00E94BB316AE970E08CE794E02B
:104690000E94BB31CAE0D6EF11E068EE70E08CE713
:1046A00094E00E94A83180919F03823009F489C070
:1046B00008F064C0882309F470C0813009F478C020
:1046C0000E94722E609392037093930380939403DD
:1046D0009093950382E993E00E94FA208CE794E09E
:1046E0000E94CD2F80939103853709F490C08535C2
:1046F00009F48DC0843709F496C0843509F493C059
:104700008D3041F76DE08CE794E00E943F3080915E
:1047100091038D3011F680919F038F5F80939F03EB
:10472000863008F4BACFE090880300918903209185
:104730008A0340918B0360918C0380918D030E94CA
:10474000F42165E171E08CE794E00E94BB3164E202
:1047500071E08CE794E00E94A83181E00E94C822B9
:104760006FED72E08CE794E0DF91CF911F910F9194
:10477000FF90EF90DF90CF900C94BB318430F1F13B
:10478000A0F1853009F09CCF69E071E08CE794E0FE
:104790000E94A83180918D0308C069EC70E08CE71D
:1047A00094E00E94A831809188030E94332188CF31
:1047B00062ED70E08CE794E00E94A831809189035B
:1047C000F4CF6CED70E08CE794E00E94A8316DE0CE
:1047D0008CE794E00E943F306AEE70E08CE794E052
:1047E0000E94A83180918A03E0CF63EF70E08CE7EC
:1047F00094E00E94A83180918B03D7CF6DEF70E0D9
:104800008CE794E00E94A83180918C03CECF9091E8
:104810009F039230F1F1E8F4992351F1913089F13D
:10482000843709F06FCF80919F03823009F487C0ED
:1048300008F05FC0882309F46DC0813009F062CFB1
:10484000809189038B3008F475C08A508093890366
:1048500059CF943009F444C0D0F1953009F78091D4
:104860008D038F5F8C3308F4C4C010928D034ACF40
:10487000809188038F5F843608F4B8C01092880353
:1048800041CF809189038F5F8D3000F3909389032E
:1048900039CF80918A038F5F80938A0390E0E09103
:1048A0008903F0E0EE5AFC4F208130E0409188030C
:1048B000437061E070E011F070E060E0260F371F98
:1048C000281739070CF01ECF10938A031BCF809155
:1048D0008B038F5F883108F483C010928B0312CF53
:1048E00080918C038F5F8C3308F47DC010928C0311
:1048F00009CF843009F45CC008F44AC0853009F05F
:1049000001CF20918D03265F2C3308F061C02093E6
:104910008D03F8CE20918803265F243618F4209367
:104920008803F0CE822F6C2F0E94A3338D9F200D21
:104930001124F5CF833008F0E5CE865F87CF209134
:104940008A03265F20938A03422F50E0E091890377
:10495000F0E0EE5AFC4F808190E030918803337094
:1049600061E070E011F070E060E0860F971F84173F
:1049700095074CF4822F6C2F0E94A3338D9F200D3E
:10498000112420938A0380918A038111BBCE9CCF8E
:1049900020918B03265F283118F420938B03B2CE2D
:1049A000822F6C2F0E94A3338D9F200D1124F5CFF1
:1049B00020918C03265F2C3318F420938C03A2CE15
:1049C000822F6C2F0E94A3338D9F200D1124F5CFD1
:1049D000822F6C2F0E94A3338D9F200D112497CF1F
:1049E00080938B038FCE80938C038CCE809388032F
:1049F00089CE80938D0386CECF92DF92EF92FF9285
:104A00000F931F93CF9383E00E948A2F892B09F085
:104A10009AC183E10E948A2F892B09F0A7C082E105
:104A20000E948A2F8093A20369B36093A103882315
:104A3000D9F0609366001092A00360E08EE00E94BF
:104A40005C2F60E080E00E945C2F61E080E00E94CB
:104A50005C2F61E08EE0CF911F910F91FF90EF905E
:104A6000DF90CF900C945C2FE0916600E930A0F4C9
:104A7000F0E0E35CFA4D0C94D133462552254C25E9
:104A8000572572257F258C259A25A82560FF08C00B
:104A900060E08DE00E945C2F8FEF80936600CDCFA9
:104AA00061E0F7CF8CE794E00E943F30F5CF809132
:104AB0009E03882389F360E270E08FEA93E00E940E
:104AC000942B62E170E08FEA93E00E94F320609102
:104AD000A1038FEA93E00E941C2B8FEA93E00E94CF
:104AE0000F2CDACF80919E038823B1F260E270E050
:104AF0008FEA93E00E94942B63E170E0E4CF809111
:104B00009E03882349F260E270E08FEA93E00E94FE
:104B1000942B70E060E0D7CF80919E03882309F446
:104B2000BBCF60E270E08FEA93E00E94942B61E0DB
:104B300070E0C9CF80919E03882309F4ADCF60E275
:104B400070E08FEA93E00E94942B6CE070E0BBCFA2
:104B500080919E03882309F49FCF60E270E08FEA82
:104B600093E00E94942B6DE070E0ADCF84E10E9451
:104B70008A2F892B09F061CF82E10E948A2F8093CE
:104B8000A2031092A103882341F18FEF8093A10328
:104B90008CE794E00E94B32F1816190634F48CE7C2
:104BA00094E00E94CD2F8093A10361E081E00E94F8
:104BB0005C2FCFEFCABB8091A1038BBB60E08EE07E
:104BC0000E945C2F60E080E00E945C2F82E090E019
:104BD0000E94DD2E1ABACBBB38CF80916600823896
:104BE00009F48AC078F5803809F467C0813809F77C
:104BF00080919E03882309F47BC060E270E08FEA15
:104C000093E00E94942B62E170E08FEA93E00E94AF
:104C1000F3208FEA93E00E940F2C60E270E08FEAAD
:104C200093E00E94942B41E050E060E270E08FEA54
:104C300093E00E940C2C8FEA93E00E94C32A809399
:104C4000A10356C0833809F464C0843809F0B1CF99
:104C500080918E03882309F44BC08091A0038111B9
:104C600014C087E8C82E83E0D82E98E8E92E93E098
:104C7000F92E09E813E02AE833E04BE853E06CE84A
:104C800073E08DE893E00E9444228091A003873076
:104C900078F590918A03833009F44FC008F040C042
:104CA00090918C03813009F448C090918B0382303D
:104CB00009F443C090918D0340C08DE00E948A2F7B
:104CC00080939F0362E08DE00E94202F8DE00E9480
:104CD0008A2F21E0892B09F020E02093A10361E0D5
:104CE0008DE00E94202F60919F038DE00E945C2F39
:104CF0008FEF809366005DCF80919E038823C1F380
:104D000060E270E08FEA93E00E94942B63E170E030
:104D10007CCF80918E03880F90918603892B8FCF53
:104D200090918803853049F090918903853028F06F
:104D300090918703863009F0BDCF9093A1038F5FD8
:104D40008093A00336CFCF911F910F91FF90EF90EA
:104D5000DF90CF900895EF920F93CF93DF9300D021
:104D600000D000D0CDB7DEB768E670E08FEA93E000
:104D70000E94942B8FEA93E00E940F2C811176C140
:104D800061E471E08CE794E00E94A83181E00E9428
:104D9000C8226FED72E08CE794E00E94BB3160E6C0
:104DA00071E08CE794E00E94A83160918703062EA1
:104DB000000C770B4AE050E08CE794E00E947832D8
:104DC00065E871E08CE794E00E94BB3168E670E032
:104DD0008FEA93E00E94942B6FE070E08FEA93E0FB
:104DE0000E94F3208FEA93E00E940F2C41E050E0F4
:104DF00068E670E08FEA93E00E940C2C8FEA93E063
:104E00000E94C32A87FF0AC128E030E046E050E054
:104E100069EA73E0CE0101960E944133CE0101960A
:104E20000E94873360938D03CE0101960E949332D6
:104E300025E030E043E050E069EA73E0CE010196FE
:104E40000E944133CE0101960E94873360938C0308
:104E5000CE0101960E94933222E030E050E040E023
:104E600069EA73E0CE0101960E944133CE010196BA
:104E70000E94873360938B03CE0101960E94933288
:104E800026E030E044E050E063EA73E0CE010196B2
:104E90000E944133CE0101960E94873360938A03BA
:104EA000CE0101960E94933270E060E083EA93E0C5
:104EB0000E943033EFEBE80FE33108F02FC00E2EE5
:104EC000000CFF0BEA59F84D0C94D13316288E27AD
:104ED0008E2734288E2714288E278E278E27792711
:104EE0008E278E272228322830288E278E278E273D
:104EF0002E2861E070E083EA93E00E94303381362F
:104F000009F48EC062E070E083EA93E00E943033DF
:104F10008E3609F487C087E0809389032BE030E068
:104F200049E050E063EA73E0CE0101960E9441330C
:104F3000CE0101960E94873360938803CE010196CB
:104F40000E94933267E871E08CE794E00E94BB31E5
:104F50006FE971E08CE794E00E94A83180E00E9444
:104F6000C8226AEC71E08CE794E00E94A8310E94AC
:104F7000722E6093920370939303809394039093A3
:104F8000950382E993E00E94FA208CE794E00E9466
:104F9000CD2F80939103893731F0893521F08E36FA
:104FA00011F08E3471F7682F8CE794E00E94D231B3
:104FB000809191038F7D8935D9F4E0908803009129
:104FC000890320918A0340918B0360918C03809127
:104FD0008D030E94F42165ED71E08CE794E00E945E
:104FE000A83181E00E94C8228CE794E00E94B7318A
:104FF00068E670E08FEA93E00E94942B6FE070E027
:105000008FEA93E00E94F32068E070E08FEA93E07B
:105010000E94F3208FEA93E00E940F2C81E027C0CA
:1050200081E07ACF86E078CF82E076CF62E070E0F0
:1050300083EA93E00E943033823711F088E06CCF2E
:1050400084E06ACF62E070E083EA93E00E9430334C
:10505000823711F085E060CF83E05ECF89E05CCFDE
:105060008AE05ACF8BE058CF8CE056CF80E026966E
:105070000FB6F894DEBF0FBECDBFDF91CF910F9179
:10508000EF900895CF93DF9361E086E10E94202F97
:1050900060E086E10E945C2F61E080E00E94202FAA
:1050A00060E080E00E945C2F62E08DE00E94202F93
:1050B0008DE00E948A2FEC0161E08DE00E94202F9C
:1050C00061E08DE00E945C2F62E081E00E94202F71
:1050D00061E081E00E94202F61E081E00E945C2F6E
:1050E00061E082E00E94202F61E082E00E945C2F5C
:1050F00060E083E00E94202F62E08EE00E94202F7B
:1051000061E08EE00E94202F61E08EE00E945C2F23
:105110001ABA8FEF8BBB62E085E10E94202F62E01C
:1051200084E10E94202F62E083E10E94202F62E050
:1051300082E10E94202F61E08CE00E94202F61E03C
:105140008CE00E945C2F61E08BE00E94202F60E0E9
:105150008BE00E945C2F60E084E00E94202F60E0E2
:1051600086E00E94202F62E085E00E94202F60E010
:1051700087E00E94202F61E08FE00E94202F60E0F6
:105180008FE00E945C2F0E94C32162E087E10E94B1
:10519000202F62E08AE00E94202F8DE090E00E94A4
:1051A0000536823028F061E08DE090E00E940D36F7
:1051B0008DE090E00E94053680938F038FEA93E0A4
:1051C0000E94782B60E270E08FEA93E00E94942BBB
:1051D0008FEA93E00E940F2C811103C081E080933D
:1051E0009E0326E040E855E260E070E08CE794E042
:1051F0000E9486308CE794E00E94B7316AEF71E03C
:105200008CE794E00E94BB316DE072E08CE794E0A3
:105210000E94BB318CE794E00E94B73160E372E0FA
:105220008CE794E00E94A83180918F0362E070E0E7
:10523000681B7109660F771F660F771F4AE050E001
:105240008CE794E00E94783267E472E08CE794E0A7
:105250000E94BB310E94AB2680938E0380919E03F7
:10526000882331F06BE472E08CE794E00E94BB315C
:105270008AE090E00E94053680939D03CD2B19F0C3
:10528000833008F4A9C08CE794E00E94B32F18166D
:1052900019062CF48CE794E00E94CD2FF4CF8CE714
:1052A00094E00E94B73161E672E08CE794E00E94DE
:1052B000BB318CE794E00E94B73180919D03D1E32C
:1052C0008330C0F46DE872E08CE794E00E94A8316E
:1052D00060919D0370E06F5F7F4F4AE050E08CE784
:1052E00094E00E9478326FED72E08CE794E00E94C7
:1052F000BB31D0E36FE972E08CE794E00E94BB31F0
:1053000069EA72E08CE794E00E94BB3163EB72E0E3
:105310008CE794E00E94BB316DEB72E08CE794E087
:105320000E94BB3180918E03C4E3882339F061EE83
:1053300072E08CE794E00E94BB31C5E38CE794E017
:105340000E94B7310E94722E609392037093930370
:1053500080939403909395036AEF72E08CE794E056
:105360000E94A83182E993E00E94FA208CE794E041
:105370000E94CD2F809391038D17A4F3C81794F347
:10538000682F8CE794E00E94B0316EE073E08CE708
:1053900094E00E94BB3180919103843359F461E021
:1053A00080918F03811160E060938F038DE090E026
:1053B0000E940D3680919103853311F40E942023C1
:1053C00060919103615360939D038AE090E06330A4
:1053D00008F046C00E940D3680919D03813009F48B
:1053E0005AC008F442C0823009F46AC061E080E02B
:1053F0000E945C2F8091970390919803892B79F0FC
:1054000090E080E00E94992183EC0E945D218091D0
:1054100097030E945D21809198030E945D218091F5
:105420009703909198030E94992163E173E08CE7C0
:1054300094E00E94A831D0E0C0E08091990390915F
:105440009A03C817D90708F04CC0E0919B03F0916C
:105450009C03EC0FFD1F84910E945D212196EDCFEE
:105460000E94053680939D03B7CFE4E5F0E0859177
:10547000949190939C0380939B0383EB9DE1909385
:105480009A0380939903109298031092970381E0F6
:1054900080939603ABCFE8E5F0E0859194919093EB
:1054A0009C0380939B0385E990E290939A038093F9
:1054B000990380E091E0909398038093970396CFAF
:1054C000E6E5F0E08591949190939C0380939B0393
:1054D0008AE692E090939A038093990380E19DEF8E
:1054E000EACF60E373E08CE794E00E94BB3160E0B8
:1054F00086E10E945C2F82B5877F82BD85B5816081
:1055000085BD85B5897F85BD85B5886085BD85B537
:105510008F7B85BD85B5806185BD85B58F7D85BD5A
:1055200080918F0383BD61E08FE00E94202F66E3AE
:1055300073E08CE794E00E94BB318CE794E00E941A
:10554000B7318CE794E00E94B32F181619062CF49B
:105550008CE794E00E94CD2FF4CF61E070E080E012
:1055600090E00E94A42E61E086E1DF91CF910C943F
:105570005C2F90E080E008958091E3039091E40334
:10558000891B990B08959091E4038091E3032FEF19
:105590003FEF981748F4E92FF0E0EB51FC4F2081E2
:1055A00030E09F5F9093E403C9010895E091E40324
:1055B0008091E303E81730F4F0E0EB51FC4F808179
:1055C00090E008958FEF9FEF08950895CF93DF93B4
:1055D000EC01E091BB03F091BC033097F1F09091A6
:1055E000E4038091E3039817C0F090E0292F30E0A6
:1055F0002617370754F4DE01A20FB31F4C912B512D
:105600003C4FD9014C939F5FF1CF1092E40360931C
:10561000E303CB01DF91CF910994DF91CF910895FE
:10562000E091BD03F091BE03309729F01092C103C1
:105630001092C00309940895CF93DF931F92CDB7C2
:10564000DEB769832091BF032223F9F02091C003C4
:10565000203258F021E030E0FC013383228390E0D7
:1056600080E00F90DF91CF9108958091C103E82FE2
:10567000F0E0EE53FC4F998190838F5F8093C103DC
:105680008093C00381E090E0ECCF61E0CE01019611
:105690000E94D22CF7CFCF92DF92EF92FF920F931E
:1056A0001F93CF93DF937C01CB018A012091BF032D
:1056B000222389F0EB016B01C40ED51ECC15DD054C
:1056C00069F06991D701ED91FC910190F081E02D95
:1056D000C7010995F3CF642F0E94D22CC801DF9136
:1056E000CF911F910F91FF90EF90DF90CF90089591
:1056F0001092E4031092E3031092C1031092C003CE
:105700000E94232C80E19BE20E94FE2C86EE9AE20E
:105710000C94F92C81E08093BF036093E203109214
:10572000C1031092C00308950C948A2B0F93062F87
:1057300021E04091C00362EC73E08091E2030E949B
:105740007E2C1092C1031092C0031092BF030F91E0
:1057500008954F925F926F927F92AF92BF92CF92D5
:10576000EF92FF920F931F93CF93DF935C01F62E7E
:10577000D42F28013901EE2019F10E948A2BCE2D59
:10578000C43008F0C3E0C150B8F028E0C29FC001A7
:105790001124A301920104C056954795379527958A
:1057A0008A95D2F7B901D501ED91FC910190F08174
:1057B000E02DC5010995E7CF60E0C5010E94962B59
:1057C0004D2FD13208F040E22C2D65EE73E08F2D85
:1057D0000E94392C1092E4038093E303DF91CF9170
:1057E0001F910F91FF90EF90CF90BF90AF907F905F
:1057F0006F905F904F900895CF92EF920F931F9309
:10580000C22EE12C00E010E098010E94A92B1F910C
:105810000F91EF90CF90089521E00C94FC2B61E064
:105820000C94962BEFEAF3E01382128288EE93E059
:10583000A0E0B0E084839583A683B78383E693E0FA
:105840009183808308951092720481E080937004A4
:1058500010926F0461E081E10E945C2F61E080E1C1
:105860000E945C2F0898099888E480B985E486BF77
:105870000895413208F040C0909172049111FCCF1C
:1058800091E090937204209370042FEF209305040D
:1058900010924A04240F209349049093710490912C
:1058A0007104880F892B8093710480916F0481307B
:1058B000F1F410926F048091710483B906B603FC71
:1058C000FACF85EC86BF809172048130E1F380913C
:1058D0004A04841710F440914A04ABE4B4E0962FD4
:1058E000FB018E2F891B841720F0842F089585EEED
:1058F000E9CF8D918193F5CF40E0F7CF0F934132FF
:1059000008F048C0909172049111FCCF92E09093FE
:105910007204009370049FEF9093050410924A0460
:1059200040934904362FABE4B4E0FB019E2F931B58
:10593000941758F11092710490917104880F892B7B
:105940008093710480916F04813011F510926F047F
:105950008091710483B906B603FCFACF85EC86BF4B
:10596000222321F0809172048230D1F380910504CA
:105970008F3F91F080910504803281F08091050481
:10598000803371F084E00F91089591919D93CECF73
:1059900085EEE5CF81E0F7CF80E0F5CF82E0F3CF71
:1059A00083E0F1CF20912704260F3327331F2132C4
:1059B0003105ECF420917204FC0190E080E0243089
:1059C00069F082E00895A09127042191AC01475D20
:1059D0005B4FA40FB52FB11D2C930196861798F33A
:1059E00080912704680F6093270480E0089581E088
:1059F000089590936C0480936B04089590936E04C3
:105A000080936D04089585ED86BF06B604FCFDCF36
:105A100010927204089585EC86BF10927204089566
:105A20001F920F920FB60F9211242F933F934F9313
:105A30005F936F937F938F939F93AF93BF93EF93F6
:105A4000FF9381B1887F803609F44CC008F03FC0D5
:105A5000883209F4A4C018F5803109F49AC0B8F46A
:105A6000882309F4F2C0883009F493C0FF91EF91C4
:105A7000BF91AF919F918F917F916F915F914F9166
:105A80003F912F910F900FBE0F901F901895883166
:105A900009F485C0803251F78093050415C0803425
:105AA00009F499C048F48033B9F38833F9F6809348
:105AB00005040E940B2DDACF803509F481C08835AA
:105AC00009F491C0883491F60E94032DCFCF883914
:105AD00009F487C030F5883729F050F4883611F082
