PROMPRG VER. 1.0
COPYRIGHT 1977
SOUTHWEST TECHNICAL PRODUCTS CORP.

S1130020E5E5E5E5E5E5E5E5E5E5E5E5E5E5E5E57C
S1130030E5E5E5E5E5E5E507FF02E5454402B15000
S113004052061F52450622554E06255752062B4589
S113005058009C56450628CE0800DF22CE06E1BD96
S11300600299BD00AB8EA07FBD00D4CE0651BD0267
S11300709986079727BD029616BD0296CE003BE1EE
S1130080002608A1012604EE026E00080808087A7A
S1130090002726EBCE0722BD029920C9CE0679BDE2
S11300A00299CE0100FFA0487EE0E38649BD029F8D
S11300B0862FBD029FCE0725BD0299BD0296BD02C3
S11300C09CCE074ABD0299BD029025DF840F4949A1
S11300D0B700F6397F003ABD063DCE0000DF207F31
S11300E00026BD06407F0029CE0000DF33DE37DF67
S11300F0317F002A398034323000329A23802380C1
S11301007E0057BD01602512B702ABBD0160250A10
S1130110B702ACFE02AB0C0A200A810D26040D0BBB
S113012020020A0D39BD017581302D1381392F0A42
S113013081412D0B81462E078007840F0C20010D71
S11301403936BD017516C159270BC14E27078607DD
S1130150BD029F20EDBD01A7320CC15927010D3905
S1130160BD0125250F49494949B70275BD0125251A
S113017003BA027539BDE1AC812027F98118260341
S11301807E006539FF027636A600812F26048D177E
S1130190200B813B270C81262706BD029F0820E8FF
S11301A08D05FE0276323936860ABD029F860DBD64
S11301B0029F32397E0065CE0703BD0184BD010371
S11301C0294225F0DF33DF31CE0712BD0184BD01A2
S11301D003290425F3DF319631D6329137221E27C5
S11301E00E9133221F270ECE06C0BD018420C5D137
S11301F038220A20ECD134220B270920EA860397FF
S11302002ABD0208BD01A73986019729962A275BD2
S1130210CE06A4BD0184C603CE026C7E0278CE064F
S1130220AEBD01847F00307E023CCE0782BD0184D6
S11302307E023CCE0697BD01847E0065CE002EBDB5
S1130240E0C8CE068BBD0184CE0028BDE0CACE0630
S113025091BD0184CE002DBDE0CABD01A7CE06F834
S1130260BD0184BD014124037E006539FF022A01DA
S1130270021E03023327F281A1002604EE016E0060
S11302800808085A26F2EE006E007E00577E01250B
S11302907E01417E01607E01757E01847E01A77E20
S11302A0E1D17E01B77E02087E0278EA867E0103F0
S11302B0917E02BD7E02E57E03007E0367CE067951
S11302C0BD0299CE06CDBD0299BD0296BD029CC663
S11302D004CE02D77E02A84202E54D03674C030018
S11302E05800650065CE0736BD0299CE0022BDE0F8
S11302F0C88620BD029FBD02AD2502DF227E02C357
S1130300CE072EBD0299CE0800DF22BD028D9724B0
S11303102703CE08008611BD029FBD029681532695
S1130320F9BD0296813027F281392731BD029380CD
S1130330039725FF0365BD02ADFE0365BD02937DF2
S11303400024260AA700087A002527CE20EE0926D5
S1130350F6CE08007A002426EEDE2220EA8613BDBB
S1130360029F7E02C3BD01CE0776BD0299BD0290F5
S11303702515CE0800DF22CE0000DF20BD06432570
S113038006C6FFE70020F5CE0703BD0299BD02AD06
S11303902444CE0000203FBD02932417C603CE039D
S11303A0EF7E02A8860DBD029F2030CE0722BD023B
S11303B0992018F60646C107230BA700E60011266C
S11303C0EADE202011CE076BBD0299DE2009200948
S11303D0DE2009092D16BD029CDF20CE0020BDE0E1
S11303E0C8BD06432506BDE0CA0920AB7E02C30D85
S11303F002C30A03A45E03D003AB01CECE0654BDF0
S11304000299BD02A2CE0521DF357F0025CE067CF0
S1130410BD0299BD050ABD029C7E0065CE0665BD80
S1130420029986089726BD05D6BD02A2DE33DF20D9
S1130430CE0800DF22BD05D6BD059FBD05F025040D
S1130440A70020F17E0065CE0658BD029986089764
S113045026BD05D6BD02A27A002A7F0029CE05B0AA
S1130460DF35BD050A7D00292606CE0741BD029968
S11304707E0065CE0668BD029986089726BD05D61E
S1130480BD02A27A002A7F0029CE059FDF35BD0573
S11304900A7D00292606CE078ABD02997E0065CE14
S11304A0066DBD0299BD02A286C89726BD05D6CEAB
S11304B00798BD02997A003ABD04FEBD05C0CE0579
S11304C052DF35BD050A86089726BD05D67C003A5D
S11304D0BD04FEBD05C07C002ACE07A7BD0299CE8F
S11304E0059FDF357F0029BD050ACE0759BD029956
S11304F07D00292606CE078ABD02997E0065C60CBA
S1130500CEFFFF0926FD5A26F739DE33DF20BD056D
S1130510D6BD05F0250AA6009728DE35AD0020EEED
S1130520397D0025260DBD029CCE002EBDE0C88677
S11305301097257A0025CE0028BDE0CAF68004F184
S11305408006260657240A7E0065F680042B0220C6
S1130550F639962881FF2727FE00F5A702A1022677
S11305601F86E89726DE2009DF20BD05D6CE182B8E
S11305700926FD86C89726BD05D6DE2008DF20396A
S113058086089726BD05D6BD04FECE0593BD029907
S11305907E00652A504941204552524F522A3BFE63
S11305A000F5A602972D91282703BD02A5962D39A3
S11305B086FF9728BD059F24067A002ABD02A53927
S11305C0FE00F56F016F03963AA70286FFA7008627
S11305D03CA701A7033996209A26FE00F5A70086BA
S11305E034A701A703C63CE7039621A700E7013916
S11305F0369620D621DB239922B70646F70647DE36
S113060020DF2E089620D621DF209131220B2702ED
S11306102004D13222030C20010DFE064632397E1D
S113062003FC7E041C7E04477E04737E049F7E05C7
S11306300A7E05217E05527E059F7E05B07E05C09B
S11306407E05D67E05F020C6FFDF44DE14A6000832
S1130650012F3E3B494E542650474D4D45442043BF
S11306604845434B26414426524946592649544558
S113067020544F2050524F4D264954262F3C41447C
S113068044523E203C444154413E26444154413D61
S11306903B50524F4D3D3B4F5554204F4620524105
S11306A04E474526072F2A4552524F522A26425971
S11306B054452057494C4C204E4F542050474D260A
S11306C02F2A454E44203C2042474E2A262F545977
S11306D0504520422C4D2C4C2C204F5220583A206F
S11306E03B2F2F5357542050524D505247205645BC
S11306F05220312E312F2F26434F4E54494E55450B
S11307003F203B42474E2050524F4D2041444452DB
S11307103D3B2F454E442050524F4D2041444452BE
S11307203D3B203F264F20504F525420233B424C08
S11307304F434B20233B4241534520414444523DC7
S11307403B554E50474D4D45442641524520594F47
S11307505520535552453F203B50474D4D494E4738
S113076020434F4D504C45544544262050524F543D
S11307704543544544264E4557205441424C453F39
S1130780203B494E434F4E3A203B56455249464939
S1130790454420474F4F44262E2E2E50524F475249
S11307A0414D4D494E47262E2E2E56455249465907
S11307B0494E472601E500C926ED2037C580273379
S11307C0DE38DF14CE00A4C58027280808DF5C9635
S11307D05CD65DF00641B206402403CE00ADBD05F3
S11307E0E1BD05C9BD05DEA700810D2708088C0001
S11307F0CA26F120020901860DA7018604A702DE9C
S105A048010011
S9030000FC

