:4000000000800020110000005D0300005D03000008B5044B1A6803F53F5302331A6000F0A5F900BFFA46004010B5054C237833B9044B13B10448AFF300800123237010BD19
:400040003081FF1F00000000C0040000084B10B51BB108490848AFF300800848036803B910BD074B002BFBD0BDE81040184700BF000000003481FF1FC0040000C880FF1FAA
:400080000000000062B6FEE7FEE700BFF0B40022174611E050F82760F3B226F0FF0608E001EB420511F812406D78A5550132013BDBB2002BF4D10137262FEBD9F0BC704707
:4000C0000A4B1B78DBB203F00701094A11701B09013213702022074B1A70022203F683031A704422A3F20A231A707047CF0100496E580040FD51004038B500242B4B1C805E
:40010000582202331A70092202331A801823284A137040210232118002321370952102321180023213700622224B1A705222A3F580731A70204B1B78DBB2204A137040F2FB
:4001400014721F4B1A8041F25122023B1A8019250CE01C4B1B7803F0010343EA440404F003044FF4F07000F05BF9013D0DB1032CEFD115B90320FFF787FF134A4FF480731B
:40018000138007231370002310490B7048200231087013700532137002220D4B1A700D4A137843F00F03137038BD00BF8040004086400040004300400F010049A14600404B
:4001C0002242004025420040044000400640004001400040A243004008B50A46002100F066F908BD08B500F057F908BD38B572B6404C61232370FFF77FFF012323703E4A95
:40020000137843F00403137000240CE03B4D630019194A0011462A44084691882858FFF7DBFF0134E4B2042CF0D900240BE03348A20011194B0003441A8D596A186AFFF7F5
:40024000D1FF0134E4B2012CF1D92D494FF09040FFF71CFF2B4A137843F0020313701032137843F002031370274C237843F040032370A2F58632513A137843F010031370CE
:400280000A2222492248FFF7ADFF0A2221492248FFF7A8FF0A2221492148FFF7A3FF082220492148FFF79EFF082220492048FFF799FF08221F492048FFF794FF08221F493A
:4002C0001F48FFF78FFF0A221E491F48FFF78AFF0A221E491E48FFF785FF1E4A137843F008031370FFF7ECFE0E2221461A48FFF779FF38BD00480040E8460040C404000079
:400300009C00004803500140A0430040780F004800510040840F0048C0510040900F0048F05100409C0F004812510040A40F004822510040AC0F004832510040B40F004819
:4003400042510040BC0F004850510040C80F00486051004022430040B043004008B500F06FF803680C2B00D1FEE7FEE708B5104E104D16E029686B68AC68002204E051F848
:40038000040B43F8040B0432A242F8D1E868002203E0002143F8041B04328242F9D11035013E002EE6D100F051F8FFF76BFEFEE7010000002005000008B5104A104B1A6075
:4003C000104A136843F40073136000230AE0032B03D80D4A52F8231000E00C490C4A42F8231001332F2BF2D90A4B1A780A4B1A70074A0A4B1A60FFF7F9FE08BD0004FA0535
:400400000CED00E014ED00E0000000005D0300000080FF1FBC760040C080FF1F08ED00E00230800803D000BF01380046FCD17047EFF3108072B6704780F31088704700BF3E
:40044000014B1868704700BF2C81FF1F0E4B70B51E460E4C0025E41AA410A54204D056F8253098470135F8E700F048F8084B094C1E46E41AA4100025A54204D056F8253099
:4004800098470135F8E770BD0805000008050000080500001005000010B5431E0A44914204D011F8014B03F8014FF8E710BD03460244934202D003F8011BFAE77047000093
:4004C0000000000000000140001000140140000800400140000A004C01400002005001402000000020520040680F0048070028520040700F0048070043000000F8B500BFD4
:40050000F8BC08BC9E4670474D000000B9030000F8B500BFF8BC08BC9E4670472900000030050000C880FF1F680000002000000000000000000000000000000000000000D4
:400540000000000000000000000000000000000000000000F8040000000000000000000000000000000000000000000000000000000000000000000000000000000000007F
:400580000000000000000000000000000000000000000000CC80FF1F00000000000000000000000000000000000000000000000000000000000000000000000000000000D1
:4005C00000000000000000000000000000000000000000000000000000000000000000000000000000000000000000000000000000000000000000000000000000000000FB
:4006000000000000000000000000000000000000000000000000000000000000000000000000000000000000000000000000000000000000000000000000000000000000BA
:40064000000000000000000000000000000000000000000000000000000000000000000000000000000000000000000000000000000000000000000000000000000000007A
:40068000000000000000000000000000000000000000000000000000000000000000000000000000000000000000000000000000000000000000000000000000000000003A
:020000040003F7
:0200000480007A
:40000000014500400D52004006640040020101405302014041030140490401405105014058060140560701405708014055090140580A0140580B0140450C0140390D014091
:40004000010F01404A1401405615014053160140551701404E1801405A190140371A0140501B01401E40014022410140144201400D430140154401401A45014013460140B5
:400080000E470140124801401E490140094C01402C4D01400A500140025101407E02001A014C1099115A180B19123006310332076010611078027C4028042B0F3B08840FA9
:4000C000853C86728314871000060219040608020B04140E1611170118191A061B021C18241F2A192C0431043207340E3501361037023A28580459245B045C825F0180015E
:400100008302860187B48B038C598E068F01921993439462958C961C97339862998C9A0D9B70A001A50CA790A90CAA26AB20AD4BAFB0B00FB260B380B415B57FB808BA222F
:40014000BB20BE04BF04C003C640C9FFCA07CBFFCC40CD20CEF0CF05D008D804D904DA04DC22DD02DF01E040E1A8E240E320010102100302052A080109100AA80D400E28CF
:40018000100812401424160118101A081B021C081D041E2A22182501270A28082A042B0230013214371439013A503B083D023F11401050085104521053046C046E846F8017
:4001C000741076A27E02800482A284108644878093909B35A104A310A904AB30AF41C07DC2EEC4EACA0ECC67CE2FD002DE10E480000C021304800502061F080A09010A0550
:400200000B080CF50D040F18149F1660181019011C401D401E952003221C24A0250828602A9F2B202C052E0A2F113138334034FF3504370339803E103F14521C5401580409
:4002400059045B045C205D205F0181428399860489738D108E018F64920299219B1A9E02A573B002B10CB204B303B401B580B770BE01BF01D41CD824D904DB04DC28DD2016
:40028000DF010020010102100302072109800A200B040E010F8010A811201240135019101C101F112190224423402541271429102A082B022F203290371039083B503D90D6
:4002C0003F024101430258125A485E066002628064106604670A690570C07D027E027F8089108E5A8F409108926093819581968099049A109B2B9C249D2A9E45A004A114AC
:40030000A201A312A602A808AA48C0AFC297C40FCA4ECC2CCEBED6CFD830DE10E202E662EA10EC4000D80227042406DB070108FF0B020C1D0EE214FF1AFF1CD81E2720E251
:40034000221D2304249026482C6C2E9031023301340336FC37043A884062410342044405450E460C480549FF4AFF4BFF4C624DA04EF04F41500C56025712580459245A04D3
:400380005B045C825D225F016640670269106A306B106D106E106F12812F85408790890A8B258D05910C93F39508970299109B209D909F40A125A30AA72FAB20AD03AFFC6F
:4003C000B30FB530B7C0BBA8D608D904DB04DC20DD90DF0104800516081009100D200E22141015C11D081E26202022542304244027212A5A2F403001325439063B503D0AC5
:400400003E013F204140438044244529480449104A084D404E084F08574058405E0863026C056D106F3075287601780179017E028A018D018F419090910F93F195909605D8
:40044000970C988099049A7A9B0E9C249D2A9E05A00CA104A390A430A682A761A880AE20C0F0C2E0C4B0CA8FCC0FCE6FD0E0D230D648D808DE10E010E220E680EA08EE01B1
:4004800001010322052107020B100D40110813051525170A19211B041D0F2520270229802D26331F3560378039203F104021440545D0470B481249FF4A7F4BFF4C424DA07C
:4004C0004E70500C59045A045C305D035F016109624063096430650981048308851086308720880289088A048B048D208F10900291FF920594209502961097019B309F0C23
:40050000A101A208A302A780A810AA20AB40AF03B006B1FFB201B430B608B902BE10BF01D608D804D904DB04DC03DD90DF010008020808061110128019901A612080242AF9
:40054000264429502A022B202C102F0A30203205334034203501364439063A503C203E483F0245604D804F0257045880600268016916720279407B0188808B408C108E30AC
:400580008F4090809108921A942A954096809710980C99029A509B089C209D219E019F10A080A101A280A302A440A504A656A704AA01AB08AD04AE08AF03B004B580C00650
:4005C000C20CC40ACA7FCCFFCEFFD030D210D608D808E240E6C0EC0A013F052A0601071009220A0C0B180C010D320E220F081340151C1604172219011A101D011E081F1E00
:400600002122220225182620270629042A042D062E043020321C3360351F360339203A083E415608580459045B045C335D905F01814683A984028F0190039180935694018E
:40064000952A975499339B0C9DFFA940AB13AD0EAF30B1FFB203C056C550C602C806C9FFCAFFCBFFCC42CDA0CE70D008D110D804D904DA04DC30DD03DF01E148E240E348B4
:40068000E480E548E680E74800880214030804040B2A0E400F10100111011208130419801B091E10210422282501282029402A012B042F0A3268330134213501364438227C
:4006C0003A843B023D424440450146804C044D024E0254805B4062806420672069966A027040730885418610872089108F40900491019248930C95C89730980C9A409B21A7
:400700009C409D219E019F10A440A505A675A702A810AA10AB10AD80B340B440B640C027C237C40FCA3FCCFFCE9FD230D608D808E402E804EA18EC45011002FF030704016E
:400740000501080109030D030E0210E211401307152216081705180419011AE01C401D7F1E1D2092210822602307243D253A26C22704285D29012AA22C0D2D052F7832FFF5
:40078000377F3E043F40580459045B045F0186108A208C2A8E15910192019306960897049A029B029E04AF01B018B103B206B401B504B630B908BE55BF15D804D904DB0467
:4007C000DF010088020A052106010710082809020A080B010EBB14401548160818601B501F0422102360270129802A402D202E092F123020310832023501364437103D4A5A
:400800003E105C045E405F1868246901710A730581408220840486088B088F409828B020C0F7C2FFC4F0CAF8CCF7CEF0D670E001E208E48188080004010F020803100618DD
:400840000A140B010E080F0F1080130814801620170F1B081C101E021F022040230424BF28102A012C0F2D0F323F330F34403680371038883E103F045201530156105804CD
:4008800059045B045C335F018004831684048502870C8D028F0591049202930296019A029B069E01A001A502A601A708A804AE01AF06B001B202B30EB404B510B701BB08AE
:4008C000BE05D804D904DC32DF01000101200222040A084209080D400E600F081146131016111711182119C01B181C801D201F0420022148250426102701288029402D04AF
:400900002F0130403101322233083610370139803A213B123C023D8868026910835084808520884089408A308B028D108E08900A9144924093029420951097089882990188
:400940009A209B109D90A101A220A304A442A528A608A742A981AC04AD01AF40B110B304B403C03FC2FDC4FFCA59CCAFCEDDE040E4C0E80CEE2100030160031F040305AF18
:400980000750080109200B080C020D040F03107C1203147F15F9170619FF1A2C1C102003212B235425D62610272928132A642B7F2C332D182E482F6730403380341F3578D4
:4009C0003623370738023A203BA03F04580459045B045C225F018110854087088D059180930295A499A49D589FA6A101B1C0B330B50CB703B92ABF55C013C106C6BEC70C92
:400A0000C81CC9FFCAFFCBFFCEF0CF44D00CD904DA04DD02DF01E6C0EA40EB02052806C10D210E200F021409150117041E451F2022452304255026042B402C042E842F8019
:400A400031103208334234093506361038153A103B803C083DA141044202444047014808502052845C405F2A6202638064406610672181028320850C860488C28C108D4067
:400A80008E40905E91099323960397089884992D9A639B7F9D029E04A00CA230A385A420A530A686A804AA20AC40C0F0C2F0C4F0CAF1CC6FCEFBD00AD204D6F0D8F0E002F6
:400AC000E602EA06EE05010302B5060208040B020C1A0D040E6010FF1402150118A919101A541B201E042104220124A5264A28CC2A132B092C4D2D102E922F20310432FFA9
:400B000033033508373439823E043F4152F6580459045B045D305F01800182028566870189028B658D638F049131938894029520960197C099019B0E9D409F20A110A360EE
:400B4000A507A760AD07AE03AF60B3E0B403B50FB710B980BB28BE10D804D904DB04DC30DF01000205A1071008080C410EA810821102154016681B201C2021082250232864
:400B80002410254026022704282029812C802D802E103001310832903420370439403A283C903D014D404E016440660168266B406D086E046F087140752076417710782086
:400BC0007A04808084408640881089018A118D428E0890809108921196809790980899029A209C309D619E019F50A081A2C0A341A434A564A61AA728A901AA08AB08C0F857
:400C0000C2F4C4F1CABBCC6FCEBEE030E240E4E0E601EA02EE045B045F0180908194820B844085C58614870888018B018C4F8D108F04904292099403974099149A019B803C
:400C40009C039D049E209F38A040A20BA302A448A510A602A784A801A994AC1FADC5AF20B040B102B21FB3C0B4E0B501B73CB822BB80BE11D420D604D804D904DB04DC338A
:400C8000DD30DF0105A906020E240F821411150217101C081D201F052401251226542C012E092F04341036443C083D203E023F80584259145C415F28608063256610678229
:400CC00069896B0470A1722080C0810482048304846285018820890F8A088B048C018E208F119205930495809780989199B19A109B389C209E08A341A520A610A810A911F9
:400D0000AF14B184B440B501C0F0C2F0C4F0CAF0CC70CEF0D6FFD8BFE02FE280E62BE880EA12EE1402040340060107100B840D200E10318033013402358039405280570838
:400D40005B805C1462426408760882058740C0F0C2F0CCF0CE10D4E0D6E0D8C0DC40E0B00E200F085208540859205C2061206401801C820286C087888A01941495409C0AA9
:400D80009D809E489F81A580A682A708AA10AB50AD20AF04C2A0D4E0D6A0D840E2F0E6F0E8F0EC808440860888018D20954096419C219DA09E089F01A210A408A5A0A6088A
:400DC000AB04B402B640E240E640EC2089A08E08954096419A089C209DA09F01A040A210A408A580A608054009800B800C400F1011041702540156085B206F087880894035
:400E0000C001C20FC40CD403D604DA01DC01E201531057825A405C086010614065018080832087408E40910493909B029C809E089F20A180A401A708B040D407D607D8034D
:400E4000E402EA01870888018F0291049B029D409E08A180A401A71AA818A901AF10B310B790E001E208E806EA0809080B020F2089049104A710AD40AE08B180B702C20E5B
:400E8000E204EA04EC0222085440842096419C20A040A408A580A608A940AE10AF01C840D440E610EA40EC10EE2001400A010D200E401308544057045C1063088010824085
:400EC0008A018D408F089641A040A520A980AD20B008C040C2E0C410D440D620D840E020E680E810EE80630282018D038E20AB01AD08D602E008E40A012003800402060888
:400F000009880C080E025080510254105B015F28620865106D0276208120832884108608878188808D988E0894029A20A103A408A601A801AC08B301C00FC20FD407D607C5
:400F4000D803DC02DE04E002E208E403E608E801000D010108040A040B010C090D01100D1A0D1C0900AF01025396FFFF000000009AC3FFFF000000001000A05F5F005F00CA
:400F8000000000003000010030003000000000004000000202000200E0000000008B8B008000000000FFFF00FF000000E41B1B001B00000000FFFF00FFFF0000FF0000FFB8
:400FC0000000FFFF000000000700F80700000707000000000000000000000000000000000000000000000000000000000000000000000000000000000000000000000000DF
:4010000000000000000000000000000000000000000000000000000000000000000000000000000000000000000000000000000000000000000000000000000000000000B0
:401040000000000000000000000000000000000000000000000000000000000000000000000000000000000000000000000000000000000000000000000000000000000070
:401080000000000000000000000000000000000000000000000000000000000000000000000000000000000000000000000000000000000000000000000000000000000030
:4010C00000000000000000000000000000000000000000000000000000000000000000000000000000000000000000000000000000000000000000000000000000000000F0
:0200000490006A
:0400000000004005B7
:0200000490105A
:04000000BC90ACAF55
:0200000490303A
:020000009BD98A
:0200000490402A
:4000000000000000000000000000000000000000000000000000000000000000000000000000000000000000000000000000000000000000000000000000000000000000C0
:400040000000000000000000000000000000000000000000000000000000000000000000000000000000000000000000000000000000000000000000000000000000000080
:400080000000000000000000000000000000000000000000000000000000000000000000000000000000000000000000000000000000000000000000000000000000000040
:4000C0000000000000000000000000000000000000000000000000000000000000000000000000000000000000000000000000000000000000000000000000000000000000
:0200000490501A
:0C00000000012E15F06900012E1C8C423E
:00000001FF