:400000000010002011000000650100006501000010B500F01BFA00F0ADF8C04610B50B4C12232360182000F09BF9E0221201084B1A60084A084B1A600022084B1A6040325C
:40004000074B1A601123236010BDC046300010400003014040FF008000000140280003400001014010B572B6EE22094B1A60EE221202084B1A600322074B1A602132074B67
:400080001A60D8221201064B1A60FFF7C7FF10BD000102400003024000010440080104400803044000000000000000000000000000000000000000000000000000000000FC
:4000C0000000000000000000000000000000000000000000000000000000000000000000000000000000000000000000000000000000000000000000000000000000000000
:4001000010B5064C2378002B07D1054B002B02D0044800E000BF0123237010BD00010020000000002C050000084B10B5002B03D00749084800E000BF07480368002B00D1F1
:4001400010BD064B002BFBD09847F9E700000000040100202C050000800000200000000062B6FEE710B500F0B5F903680C2B00D1FEE7FEE770B50F4E0F4D13E029686B68E4
:40018000AC68002202E001C901C30432A242FAD1E868002202E0002102C304328242FAD11035013E002EE9D100F09AF9FFF7D8FFFEE7C046010000005805000010B50023C8
:4001C0000AE0032B03D89A000849505800E008489900084A885001331F2BF2D9FFF742FF80229205044B1A6010BDC04600000000650100000000002008ED00E00C4B1B68FC
:400200009B001C22134018330A4A1268920803210A40D34008490868084A02400A60084A944663441B78DBB2064A13607047C046080F03402800034000000740FFFFFFBF64
:40024000CDF1FF0F0C0F0340034B18688023DB05184000D0012070470000074001BE704710B5040006E0084B586800F0F9F8074B9C46644480231B029C42F4D8024B986810
:40028000604300F0EDF810BD840000200080FFFF70B582B000F0D0F800284DD000F0E9F80500264B1A6892001C231A401832244B1B689B0803210B40DA400021214B196021
:4002C000214C2168214B0B4021494A438021C9018C466244D20B013A5205520D1343A0225203134323601B4B1B680193302000F0C7F8194A13688021C9050B43136026684B
:40030000164B1E40002407E00120FFF7A9FF1034A30533430C4A1360EE2CF5D90120FFF79FFFFF239B051E43074B1E60019A094B1A60280000F0A1F802B070BD080F034026
:40034000280003400C0F03400800074000F800C040420F003000104000000740FFFF3FC0F0B583B0040018280BD01C2809D0202807D0242805D0282803D02C2801D0302864
:4003800049D100F076F80190FFF75EFF002803D0FFF734FF012600E00026214A136807218B4313601F4BE3181B78DBB21E4A13601E4A13688B4313601D4803687F22934376
:4003C00019001C4BE3181B7813400B430360322000F046F8182C16D9114F3B680725AB431A0023001C3B9B082B4013433B60322000F036F83A68AA432300183B9B082C0044
:400400001C4014433C60012E01D1FFF741FF019800F033F802E00020FFF720FF03B0F0BD080F0340CDF1FF0F0C0F0340100F0340180F0340B4F1FF0F034B1B68002B01DA31
:40044000012000E00020704700000740014A024B1A6070476588EDAC38000340000000000230800803D001300238FCD1C046C0467047EFF3108072B6704780F310887047F8
:4004800070B50400FFF7F5FF0500102C05D8104A136803218B43136016E0202C07D80C490B6803229343023A13430B600CE0302C07D807490B6803229343013A13430B600F
:4004C00002E00020FFF7CAFE2800FFF7D6FF70BD30001040014B18687047C046F80000200E4B70B500251E000D4CE41AA410A54204D0AB00F35898470135F8E700F01AF888
:40050000084B00251E00084CE41AA410A54204D0AB00F35898470135F8E770BD400500004005000040050000480500000000000043000000F8B5C046F8BC08BC9E46704728
:4005400029010000BD010000F8B5C046F8BC08BC9E467047010100006805000080000020800000002000000000000000010000000000E02EC05D00001800000000366E0135
:400580000000000000000000000000000000000000000000000000000000000000000000300500000000000000000000000000000000000000000000000000000000000006
:4005C0000000000000000000000000000000000000000000000000000000000000000000980000200000000000000000000000000000000000000000000000000000000043
:4006000000000000000000000000000000000000000000000000000000000000000000000000000000000000000000000000000000000000000000000000000000000000BA
:40064000000000000000000000000000000000000000000000000000000000000000000000000000000000000000000000000000000000000000000000000000000000007A
:40068000000000000000000000000000000000000000000000000000000000000000000000000000000000000000000000000000000000000000000000000000000000003A
:4006C00000000000000000000000000000000000000000000000000000000000000000000000000000000000000000000000000000000000000000000000000000000000FA
:0200000490303A
:0200000090E28C
:0200000490402A
:200000000000000000000000000000000000000000000000000000000000000000000000E0
:0200000490501A
:0C0000000002190111A900011902A28BD5
:0200000490600A
:0100000001FE
:00000001FF