S10A007C0C8426020C83B67C
S10600857EC1C273
S123C0007EC0498D0327FC39B6A00085012706B6A001847F394F398D243402810D270BB727
S123C020A0010C799679917825100F798D0F860DB7A0018D08860AB7A0013502393402B6A1
S123C040A000850227F935023910CE01EE966E8155260A9E6FA684811226026E848E0218C2
S123C0606F83300126FA8E02176F809F19A60243A702A10226063001630120F19F719F274C
S123C0809F233089FF389F211F148EC0D1CE0076C612BDC1B1CE00A7C604BDC1B1863997C9
S123C0A0F0BDC4BD8E00B59F8DCECBD1C60AEF815A26FB8615B7A0008EC106BDD0E88EC0B0
S123C0C0C99F6F8655976E200412BDC4D77EC4253B10405000CBD10C8426020C83B600003C
S123C0E07EC1C27EC1C17EC0D07ECBD1804FC7525932C220C32D1DC2C0C1D100000000009D
S123C100000000000000003638303920455854454E4445442042415349430D28432920315F
S123C120393832204259204D4943524F534F46540D0D0034169E76DC789F6AD76C976D3576
S123C140960F738E00F4C601BDC003810826075A27EF301F20348115260A5A27E48608BDBB
S123C160C01720F681031A012705810D260D4F3401BDD0A86F848E00F33581812025C9814F
S123C1807B24C5C1FA24C1A7805CBDC01720B92705BDCEC49F7A6E9F007A7EC5A696732674
S123C1A003BDC0080F73975310260C6A97567ECE22A680A7C05A26F939399D8227FB7ECA7F
S123C1C0033B813A240A812026020E7C803080D039D3C6D43AD3DF00ADD66BD6C0CED7CE58
S123C1E008CC84CE9DCE27CE13D770D738D741D8B2D8E4D806DA6CD840DF3ECE32CE4FCEAA
S123C20056C19DCC75DA74DB34DB0479D11179D1087BD2187BD2DD7FD84950CA5C46CA5B2C
S123C220464FD247CF5245CDA7454C53C549C6444154C15052494ED44FCE494E5055D445A1
S123C2404EC44E4558D44449CD524541C45255CE524553544F52C55245545552CE53544FA4
S123C260D0504F4BC5434F4ED44C4953D4434C4541D24E45D7455845C354524FCE54524F1D
S123C28046C64445CC4445C64C494EC552454E55CD454449D4544142A854CF5355C25448ED
S123C2A045CE4E4FD4535445D04F46C6ABADAAAFDE414EC44FD2BEBDBC46CE5553494EC78B
S123C2C05347CE494ED44142D35553D2524EC45349CE504545CB4C45CE535452A45641CCE5
S123C2E04153C3434852A44154CE434FD35441CE4558D04649D84C4FC7504FD35351D248D1
S123C3004558A44C454654A45249474854A44D4944A4494E4B4559A44D45CD564152505459
S123C320D2494E5354D2535452494E47A4C4EBC636C693C693C693C6C4C690D06DC6F2C74A
S123C3409FC5BDC884CAD5C7D9C62BC59FC670C5C1CEDEC5E6CEE5C5F7C4BBC18FDA67DA6C
S123C36068DCE3DC27E3D1DD6DD8F34E46534E52474F4446434F564F4D554C425344442FAE
S123C380304944544D4F534C535354434E4644414F444E494F464D4E4F4945445355464E40
S123C3A045204552524F520020494E20000D4F4B0D000D425245414B003064C6129F0FA6CD
S123C3C08480802615AE019F119E3B27099C1127099E0F3A20E59E119F3B9E0F4D398D1709
S123C3E0DE4133419E433001A68236029C4726F8DF45394F58D31FC3003A250810DF1710FD
S123C400931725EEC60CBDC4D7BDD0ACBDD0FB8EC36B3A8D318D2F8EC3A0BDD0E896684C50
S123C4202703BDD511BDD0AC8EC3ADBDD0E8BDC141CEFFFFDF6825F69F839D7C27F0250B10
S123C440BDCF9A7EC574A6807ED0FDBDC7179E2B9FF1BDCF9AD7038D4C2512DC47A384D369
S123C4601BDD1BEE843702A7809C1B26F896F3271CDC1BDD43DB038900DD41BDC3DECE006A
S123C480EF3702A7809C4526F89E419F1B8D368D02209B9E19EC8427213304A6C026FCEF87
S123C4A084AE8420F0DC2B9E19EE84270910A3022306AE8420F31A019F473926FB9E196FAE
S123C4C0806F809F1B9E19BDC66B9E279F23BDC59F9E1B9F1D9F1F8E00C99F0BAEE410DE2E
S123C4E0216FE20F2D0F2E0F086E8486809708BDC739BDC3B9326226049E0F3285C609BDFB
S123C500C3F3BDC698DC683416C6A0BDC9FBBDC8CFBDC8CDD654CA7FD450D750108EC523E7
S123C5207EC9768ED211BDD3609D8281A426059D7CBDC8CDBDD3B9BDC972DC3B3406868067
S123C54034021CAF8D609E839F2FA6802707813A27227ECA03A68197002772EC80DD689FB0
S123C56083968C270F865BBDC0179668BDD518865DBDC0179D7C8D0220C827294D102A01E0
S123C580B881FF270F819E22C9BEC0F4481F893A9D7C6E949D7C8197102714F07ECA039E13
S123C5A019301F9F3339BDC008270A8103271281132703977339BDC00827FB20EE9D82209C
S123C5C0021A0126319E839F2F060032629E688CFFFF27069F299E2F9F2D8EC3B10D00101D
S123C5E02AFE427EC41A260EC6209E2D1027FE169F839E299F6839272CBDCB6D34069E27D1
S123C6009D82270CBDC9F9BDCEC4301F9C7122181F10A3E125121F0383003A250B931B2594
S123C62007DF219F277EC4CA7EC4049D821027FE94BDC4CA20191F899D7CC1A02716C1A1AA
S123C6402645C603BDC3F3DE839E6886A134528D037EC5429D82BDC7178D403001DC2B1037
S123C660936822029E19BDC4A92517301F9F833926FD86FF973BBDC3B91F148121270BC650
S123C680048CC60E7EC4067ECA0335529F68DF838D068C8D069F8339C63A865FD7015F9EE8
S123C6A0831F98D6019701A68427EC3404A1E027E63001812227EA4C26023001818626E72C
S123C6C00C0420E3BDC8CD9D8281812705C6A2BDC9FB964F26130F048DB64D27BA9D7C817F
S123C6E08426F50A042AF19D7C9D821025FF657EC57ABDCE92C681BDC9FB340281A1270478
S123C70081A026830A53260535047EC6389D7C8D06812C27EF35849E749F2B24618030973E
S123C72001DC2B811822DB58495849D32B5849DB018900DD2B9D7C20E2BDCADE9F3BC6AE3B
S123C740BDC9FB96063402BDC8E2350246BDC8D410270C2B9E52DC2110A30224119C1B2524
S123C7600DE684BDCC949E4DBDCDCA8E00569F4DBDCDFCDE4D9E3B3726A78410AF02393FC7
S123C7805245444F0D007EC406960927079E319F687ECA038EC77EBDD0E89E2F9F8339C6F2
S123C7A0169E68300127DF8D01398122260BBDC9D0C63BBDC9FBBDD0EB8E00F36F848D0630
S123C7C0C62CE7842016BDD0FBBDD0F8BDC141240532647EC5C9C62E399E33864F97099F19
S123C7E035BDCADE9F3B9E839F2B9E35A684260996092651BDD0FB8DCD9F839D7CD6062774
S123C800239E8397018122270E301F4F9701BDC133863A9701862C9702BDCCA5BDC9D5BD90
S123C820C7542006BDD45EBDD37F9D822706812C1026FF529E839F359E2B9F839D822721EE
S123C840BDC9F9209C9F83BDC69830014D260AC606EE812741EC81DD31A684818626E62033
S123C860989E35D6091026FD3AA68427068EC8737ED0E8393F45585452412049474E4F520C
S123C88045440D0026049E742003BDCADE9F3BBDC3B92704C60020471F143003BDD360A6D3
S123C8A06897549E3BBDD10EBDD37F3069BDD3E2E068270CAE6E9F68AEE8109F837EC542A7
S123C8C032E8129D82812C26F49D7C8DBD8D131CFE7D1A010D0625032A998C2B96C6187EE6
S123C8E0C4068D6E4F8C34043402C601BDC3F3BDC9AF0F3F9D8280AD25138103240F8101AC
S123C90049983F913F2564973F9D7C20E9D63F26331024006B8B072467990610270477899E
S123C920FF340248ABE08EC20B30863502A18424558D9C34028D299E3D3502261D4D102717
S123C940006A204B0806598D098EC957D73F0F0620D99E837EC66B64CA7BA184243120D349
S123C960EC0134068D08D63F16FF7B7ECA03D654A68435203404D64F9E50DE5234546EA449
S123C9809E74A6E0272681642703BDC8CF9F3D3504815A2719817D271554D70A3552975C32
S123C9A09F5DDF5F3504D761D854D762D64F39BDDBFC0F069D7C24037ED45EBDCB29245047
S123C9C0812E27F481A7274081A627E38122260A9E83BDCC9F9E649F833981A3260D865A19
S123C9E0BDC8E6BDCB7443537ECC7B4C272E8D06BDC8E2C6298CC6288CC62CE19F008326C6
S123CA00020E7CC6027EC406867DBDC8E67ED635BDCADE9F52960626957ED3609D7C1F8960
S123CA20589D7CC13823037ECA033404C12A251EC130241C8DC0A6E4BDC8E28DBCBDC8D2A2
S123CA403502DE523442BDCE92350234068E8D9E3504BEC0F93AAD947EC8CF864F9703BD42
S123CA60CB74DD01BDD396BDCB740D0326069401D40220049A01DA027ECC7BBDC8D42610DD
S123CA8096618A7F945D975D8E005CBDD3E220360F060A3FBDCDDED7569F589E5FBDCDE0AA
S123CAA096563404A0E0270786012403D656409754DE585C5A2604D654200BA680A1C02782
S123CAC0F3C6FF240150CB0159D40A2702C6FF7ED3C8BDC9F9C6018D089D8226F5395F9DD1
S123CAE082D70597379D828D401025FF165FD7069D7C25048D33250A1F899D7C25FC8D29CB
S123CB0024F8812426060306CB809D7CD7389A088028102700750F089E1BDC379C1D2712DD
S123CB2010A381273E300520F381412504805B80A5398E0074EEE41183CA132728DC1FDD80
S123CB4043C30007DD419E1D9F47BDC3DE9E419F1F9E459F1D9E47DC37ED814F5FED84EDF9
S123CB6002A7049F393990800000009D7CBDC8CD96542B5DBDC8CF964F819025088ECB66D0
S123CB80BDD3E2264CBDD414DC5239DC053406125F9E3734148DD435349F37DE5234605C38
S123CBA09D82812C27EBD703BDC9F33506DD059E1D9C1F2721DC3710A3842706EC02308B45
S123CBC020EFC6129605260BD603E1042759C6108CC6087EC406CC0005DD64DC37ED84D67C
S123CBE003E704BDC3F39F41C60B4F0D0527053506C30001ED058D5DDD6430020A0326E829
S123CC009F0FD30F1025F7FC1F01BDC3F7830035DD1F4F301FA7059C0F26F89E41961F93D3
S123CC2041ED029605262DE604D7034F5FDD643506DD5210A305243ADE6427048D17D35269
S123CC4030020A0326E7EDE358495849E3E1308B30059F393986109745EC05DD174F5F5850
S123CC6049250F086509642404D31725050A4526EE397ECBCE1F40931F214F0F06DD50C6E1
S123CC80907ED3CEBDC8CFCE01F0BDD52832628E01EF200B9F4D8D5C9F58D75639301F86D0
S123CCA0229701970230019F629F58C6FF5CA680270C91012704910226F381222702301FF6
S123CCC09F64D756DE62118301F022078DC69E62BDCDCC9E0B8C00F12605C61E7EC4069676
S123CCE056A700DC58ED0286FF97069F0D9F5230059F0B390F074F3406DC23A3E010932154
S123CD00250ADD239E2330019F253584C61A030727CA8D04350420DE9E279F234F5FDD4B71
S123CD209E219F478E00C99C0B27048D3220F89E1B9C1D27048D2220F89F419E419C1F2745
S123CD4035EC02D341DD41A6012AF0E60458CB053A9C4127E88D0820F8A60130022A14E6D7
S123CD60842710EC02109323220910934723049F4BDD473005399E4B27FB4FE6845AD34750
S123CD80DD439E239F41BDC3E09E4BDC45ED029E45301F7ECD1ADC523406BDC9AFBDC8D2EA
S123CDA035109F62E6849E52EB842405C61C7EC406BDCC949E62E6848D109E4D8D228D0CB6
S123CDC09E628D1CBDCCD37EC8F4AE02DE255C2004A680A7C05A26F9DF2539BDC8D29E5253
S123CDE0E6848D182613AE07301F9C2326083404D323DD233504300139AE02399C0D260766
S123CE009F0B301B9F0D4F398D037ECC7A8DCC0F065D39BDCE95C601BDCCF49653BDCC981F
S123CE20A78432627ECCD38D0220DF8DE0275EE684398D484FE1842303E6844F3406BDCCC4
S123CE40969E4D8D9B35043A3504BDCDCC20D58D2BA0844020DFC6FFD7539D82812927052F
S123CE60BDC9F98D2D8D1527245F4AA18424CD1F89E08450D15323C4D65320C0BDC9F3EEF2
S123CE80E4AE659F4DA664E66432671F357ECBD19D7CBDC8CDBDCB704D26F20E82BDCE0D60
S123CEA0102702E1DE839F833AA68434526F849D82BDD45E3552A784DF83398D079F2BBD7E
S123CEC0C9F920CEBDC8CD96542BC2964F819022BCBDD4149E52398DEEE6847ECC7A8DDBC2
S123CEE09E2BE784393401BDC717BDC4A59F66350127129D82271381A726099D7C2706BDA4
S123CF00C717270639CEFFFFDF2B32629E66BDD0ACBDC19AEC8426037EC4259F66EC021007
S123CF20932B22F4BDD518BDD0F89E668D10AE9F0066CE00F4A6C027D5BDD0FD20F730049D
S123CF40108E00F4A68027512B15813A260DE684C18427F0C18327EC8C86218D3020E5CE8F
S123CF60C0E781FF2604A6803345847F334A6DC427E7A0C42AF6ABC4EE414A2B066DC02A0B
S123CF80FC20F7A6C48D066DC02AF820B7108C01ED2406847FA7A06FA4399E83CE00F30F1C
S123CFA0430F44A68027210D43270FBDCB29241881302504813923100F438120270A974232
S123CFC0812227380D442719A7C02706813A27CF20D16FC06FC01F308300F18E00F29F83C1
S123CFE039813F2604868720DF81272613CC3A83EDC10F42A68027D0914227CCA7C020F437
S123D00081302504813C25C0301F34500F41CEC0E70F42334AA6C4273110AE41AEE4E6A051
S123D020E08027FAC180263832623540DA4296412606C1842606863AEDC12094E7C0C18623
S123D04026020C44C18227AA2086CEC0EC034126C03550A680A7C0BDCB2925EC034320E8D4
S123D0600C424A27AE313FE6A02AFC20AF27398D0139BDDFD2273E819F2753812C27378134
S123D0803B2760BDC8E2960634022606BDD525BDCC9D8D573504BDC1335D26089D82812C63
S123D0A027148D549D8226CF860D2051BDC13327F7966C26F339BDC133270AD66CD16B2590
S123D0C0068DE5201ED66CD06A24FC502010BDCE9081291026F92CBDC133D06C23058D18A0
S123D0E05A26FB9D7C7ED075BDCC9FBDCDDE5C5A27C3A6808D0720F786208C863F7EC01788
S123D1008ED60C2009BDD27B035403622003BDD27B5D102702808E005C1F895D276CD04FC8
S123D1202769250A974F966197548E004F50C1F82F594F6401BDD206D6622A0B6301630277
S123D1406303630443890097639653996097539652995F97529651995E97519650995D976A
S123D160505D2A4425028D5D5F9650262E965197509652975196539752966397530F63CB56
S123D18008C1282DE44F974F9754398D6D5F20A85C086309530952095109502AF3964F34A8
S123D1A004A0E0974F23DE8C2508086386009763200C0C4F27280650065106520653240400
S123D1C08D0D27EE39035403500351035203539E5230019F5226069E5030019F5039C60A65
S123D1E07EC4068E0012A6049763A603A704A602A703A601A702965BA701CB082FE896632D
S123D200C008270C6701660266036604465C26F43981000000008D6327608D78860097134A
S123D220971497159716D6538D22D663D78BD6528D1AD663D78AD6518D12D663D789D65085
S123D2408D0CD663D788BDD3577ED1682795439613562726241696169B6097169615995F7F
S123D26097159614995E97149613995D46971306140615061606634F20D539EC0197618A7D
S123D28080DD5DD661D854D762EC03DD5FA684975CD64F394D27169B4F464928108B8097B1
S123D2A04F270C966297543996544320023262102AFED27ED1DEBDD3AB270D8B0225F40F8E
S123D2C062BDD1190C4F27EB398420000000BDD3AB8ED2C95FD762BDD3608C8D9E277300BA
S123D2E04F8DB10C4F27CC8E0013C604D703C6019650915D26139651915E260D9652915F55
S123D3002607965391602601431FA859240AE7800A032B34272EC6011F8A250E0860095FAF
S123D320095E095D25E32BC820DF966090539760965F9252975F965E9251975E965D9250E2
S123D340975D20D8C64020D0565656D7638D087ED168C6147EC4069E139F509E159F5239C0
S123D3603402EC0197548A80DD500F63E684AE039F52D74F35828E004520068E00408C9E18
S123D3803B964FA78496548A7F9450A7019651A702DE52EF0339966197549E5C9F4F0F6398
S123D3A0965E975196549E5F9F5239DC4FDD5C9E519F5E9E539F604D39D64F2708D65459DF
S123D3C0C6FF250150398DF1D7500F51C68896508080D74FDC74DD52976397547ED1640F50
S123D3E05439E68427D3E601D8542BD1D64FE184261DE601CA7FD450E1012613D651E102E3
S123D400260DD652E1032607D653E00426013956D85420ABD64F273DC0A096542A05035B82
S123D420BDD1C78E004FC1F82E06BDD1FA0F5B390F5B96544906507ED206D64FC1A0241D8E
S123D4408DD2D7639654D754808086A0974F965397017ED164D750D751D752D753399E74ED
S123D4609F549F4F9F519F529F479F452564BDDB9B812D260403552004812B26049D7C25F8
S123D48051812E2728814526289D7C256481A7270E812D270A81A62708812B2704200603F1
S123D4A0489D7C254C0D48270800472004034626CC96479045974727122A09BDD2CE0C47C0
S123D4C026F92007BDD2B60A4726F996552A8E7ED635D645D046D7453402BDD2B63504C060
S123D4E0308D022098BDD37BBDD3C88E00407ED10ED6475858DB475880303404ABE097478B
S123D500209F9B3EBC1FFD9E6E6B27FD9E6E6B28008EC3A78D0CDC68DD50C69043BDD3D260
S123D5208D037ED0E8CE01F18620D6542A02862DA7C0DF6497548630D64F102700C64FC135
S123D5408022088ED50CBDD21686F797458ED507BDD3EC2E0F8ED502BDD3EC2E0EBDD2B62B
S123D5600A4520F1BDD2CE0C4520E2BDD100BDD414C60196458B0A2B09810B24054A1F8952
S123D58086024A4A9747D7452E0DDE64862EA7C05D27048630A7C08ED611C6809653AB03E2
S123D5A097539652A90297529651A90197519650A98497505C565928E32403C00B50CB2F3C
S123D5C030041F98847FA7C00A452604862EA7C053C4808CD63526C4A6C2813027FA812E5D
S123D5E02602335F862BD647271C2A03862D50A7428645A741862F4CC00A24FBCB3AED4371
S123D6006F452004A7C46F418E01F1398000000000FA0A1F0000989680FFF0BDC000018616
S123D620A0FFFFD8F0000003E8FFFFFF9C0000000AFFFFFFFF964F27020354399F64BDD3C5
S123D6407B8D058D088E00407ED2169F64BDD3769E64E680D7559F648DEE9E6430059F649B
S123D660BDD10E8E00450A5526EE39BDD3B92B1F27158D10BDD37B8D0E8E00408DCA8ED2F4
S123D68011BDD10E7ED43A9EB19F509EB39F52BED6BC9F5DBED6BE9F5FBDD21CDC8AC365F8
S123D6A08BDDB3DD52DC88C9B08905DDB1DD500F548680974F961597637ED16840E64DAB2D
S123D6C0BDD3AB8ED705D661BDD2D5BDD3AB8DB40F62965CD64FBDD1088ED70ABDD10596D4
S123D6E05434022A09BDD10096542B05030ABDD6358ED70ABDD10E35024D2A03BDD6358EDA
S123D700D70F7ED63C83490FDAA27F000000000584E61A2D1B862807FBF8879968890187A7
S123D7202335DFE186A55DE72883490FDAA2A154468F138F524389CD8ED76BBDD10E7ED6C8
S123D740C0BDD37B0F0A8DF68E004ABDD3818E0040BDD3600F54960A8D0C0D4F1027FA7E10
S123D7608E004A7ED2DB34027ED6EE81490FDAA2965434022A028D24964F34028181250591
S123D7808ED2118DDE8ED7A0BDD63C3502818125068ED76BBDD10535024D2A037ED635399B
S123D7A00B76B383BDD3791EF4A6F57B83FCB0107C0C1F67CA7CDE53CBC17D1464704C7DFF
S123D7C0B7EA517A7D6330887E7E9244993A7E4CCC91C77FAAAAAA138100000000037F5EBD
S123D7E056CB7980139B0B6480763893168238AA3B20803504F334813504F3348080000097
S123D8000080317217F8BDD3B9102FF3C48ED7F2964F808034028680974FBDD10E8ED7F73D
S123D820BDD2DB8ED211BDD1058ED7DDBDD63C8ED7FCBDD10E3504BDD4E58ED8017ED216EC
S123D840BDD3AB8ED60CBDD36027674D26037ED1868E004ABDD3815F96612A10BDD43A8E7E
S123D860004A9661BDD3EC260343D601BDD3983404BDD8068E004ABDD2168D3635024610DC
S123D88025FDB2398138AA3B29077134583E5674167EB31B772FEEE3857A1D841C2A7C6306
S123D8A059580A7E75FDE7C6803172181081000000008ED884BDD216BDD37B964F81882593
S123D8C0037ED2A8BDD43A96018B8127F44A34028E0040BDD1058ED889BDD64B0F6235026A
S123D8E0BDD29439BDD3B92B037ED43A03548DF97ED635BDDD21326286019798BDC4A51024
S123D90025ED7FBDCF3E1F208300F5D797DC2BBDD518BDD0F88E00F4D69826255FBDDA47D5
S123D920BDE1EC250B80303402860A3DEBE020EDC001C90181412605BDD0A820BB814C2623
S123D9400B8D310F98BDD0A820C33262810D260D8D22BDD0A88E00F49F837EC44E814527E1
S123D960F181512606BDD0A87EC4258D0220AD812026108CC6F9A6842708BDC01730015A22
S123D98026F439814426486D8427F78D045A26F7390A97311F3121A621A7A426F839814937
S123D9A027138158270D8148265C6F841F108300F5D7978DBFBDDA47810D278E811B272574
S123D9C0810826228C00F427EC8D458DC420E6814326CB6D84270EBDDA47250220F5A7809A
S123D9E08D375A26EE39D697C1F9260220C734106D8026FCE682E701ACE426F83262A78076
S123DA008D170C9720AF810826128D045A26FB398C00F427D0301F86087EC017814B270545
S123DA20805327013934028D1E3402A68427166D6126068DE430012003BDD991A684A1E49B
S123DA4026E95A26E635A0BDC003817F24F9815F2602861B810D270E811B270A81082706EC
S123DA60812025E31A0139864F978C398600D6791D7ECC7BBDC9F6DC1F3406BDCADEBDC921
S123DA80F335061E109C1F26517ECC7B9D7CBDC9F6BDCADE3410EC0210932123049327233B
S123DAA012E684BDCCF43410AE62BDCDCA3550AF423440BDCEBF34045D271FC6FF8129271C
S123DAC003BDCEBF3404BDC9F3C6AEBDC9FB8D2E1F13AE62A684A06124037ECBD14CA1E415
S123DAE02402A7E4A6611E89AE025A3A4D270DA1E42302A6E41F891E31BDC1B13596BDC854
S123DB00E27ECDDBBDC9F6BDCE923404BDC9F9BDC8E2BDC9F396062605BDCE952003BDCE34
S123DB202B3404E661BDCC9635062705A7805A26FB7ECE22BDC9F6BDC8E2C6013404960623
S123DB402610BDCE95E7E42791BDC9F9BDC8E2BDC8D29E523410BDC9F9BDDAFE3414BDC995
S123DB60F3AE63BDCDE03404E1662523A661271CE6665A3A3184EE62E661A6E4A0664CA179
S123DB8061250CA680A1C0260C5A26F7E666215F32677ECC7A6C66302120D98126265C321F
S123DBA0620F520F538E00529D7C814F2712814827239D82200C81381022EE47C6038D2A3C
S123DBC09D7C25F20F500F510F060F630F54C6A0D74F7ED1689D7C250BBDCB2925E6814758
S123DBE024E28007C6048D0220EB680169841025F5EC5A26F58030AB01A7013935400F0688
S123DC009E839D7C8126279981B0275E81FF26089D7C8183102700AB9F836EC49E68300171
S123DC2026D9C6167EC406AE9F00838CFF83102700748D238DE6BDC9F6C680D708BDCADE0B
S123DC408D25BDC9F3C6AEBDC9FB9E4BDC83ED84DC39ED027EC690C6B0BDC9FBC680D708F3
S123DC608A80BDCAE39F4B7EC8CF8DEB3410BDC9EE8DF43540C632AE4227A9109E83EEC46C
S123DC80DF83A6043402EC84EE023476BDD381BDC8CD3576ED84EF023502A7049D8210268D
S123DCA0ED61109F83399D7C8D0934108D2D3540AFC4395F9D7C240680301F899D7C9E8D9B
S123DCC0583A398DEEAE843410BDC9EE8E004F96062707BDCDDE9E52960639C6AEBDC9FB47
S123DCE07ECEC41027EEEABDC717BDC4A59F939D82271081A7263B9D7C27048D2420048690
S123DD00FF972BDE938CEEC4ECC42706EC42932B23F49E938D15BDC4C59E93BDC4957EC40D
S123DD2025BDC7177EC1BAA6C0A78011931B26F79F1B39BDDC1C9D7C8122260BBDC9D0C60C
S123DD403BBDC9FBBDD0EB327EBDC7CC3262BDCADE9F3BBDC8D28E00F34FBDCCA37EC754CC
S123DD60BDC7179E2B399E919F2B7EC4A5BDC4CACC000ADD95DD8F5FDD919D8224068DE0A0
S123DD809F959D82271BBDC9F924068DD39F919D82270EBDC9F924068DC69F8F2749BDC145
S123DDA0BA8DC39F939E958DBF9C93253A8D1CBDDE41BDC4938DAF9F938D3A8D0F8D36BD2C
S123DDC0DEDCBDC4CABDC4937EC425864F97989E93DC958D150D982602ED02AE848D0BD31E
S123DDE08F250481FA25EE7ECBD13406EC84350626023262399E19301F30018DED300330D1
S123DE0001A68427F49F0F4A270C4A272A4A26EF8603A78020E7EC016A0227014FE6036AB9
S123DE200427015FED01DD2BBDC4A59E0F25E1DC476C80ED8420C66F84AE01AE029F4720C6
S123DE40EA9E1920049E8330018D9F300230019F839D7C4D27EF2AF99E8381FF27EF81A27D
S123DE6027128184270E818126E79D7C81A0270481A126DB9D7C25049D8220D79E833410D7
S123DE80BDC7179E83A682BDE1EC25F930011F10E061C0052720250A3384503085BDDD2B95
S123DEA020149F479E1B9F435030859F419F1BBDC3DE9E459F8335108601A784A702A7045C
S123DEC0D62B2604C6016C02E701D62C2604C6016C04E7039D82812C279A209C9E19301F5A
S123DEE03001EC02DD68BDDDEA30033001A68427EF4A271B800226F334108EDF39BDD0E80C
S123DF00AEE4EC01BDD518BDD511BDD0A835103410EC01DD52BDDBC4BDD5253540C60530D4
S123DF2001A68427055AA7C020F530C45D27BE31C433C5BDDD2B30A420B3554C2000BDCED5
S123DF40C78E01F0C60434045F860408530952594A26F85D260AA6E44A27058C01F0270CD8
S123DF60CB30C1392302CB07E7806F8435045A26D532628E01EF7ECC9F860197995ABDE11F
S123DF801A9D8210270093D793BDC8E2BDC8D29E529F4DD699BDCE34BDD0EB9E52D699E091
S123DFA0845A102B014FBDD0F820F6D7939F0F86029799A684812527C4812026070C99302B
S123DFC0015A26EF9E0FD6938625BDE11ABDC017202981B12701393262BDC8E4BDC8D2C6CA
S123DFE03BBDC9FB9E529F952006969727089E950F97E68426037ECBD1AE020F9A0F99A68E
S123E0008081211027FF728123275B5A2616BDE11ABDC0179D8226D296972603BDD0A89EEA
S123E020957ECDE0812B2609BDE11A8608979A20CC812E274E81251027FF70A184268B8117
S123E040242719812A26F6969A8A20979AC1022511A6018124260B5A30010C99969A8A1016
S123E060979A30010C990F980C995A2749A680812E271E812327F1812C2621969A8A409724
S123E0809A20E5A68481231026FF3F8601979830010C985A2720A680812327F5815E26166E
S123E0A0A1842612A101260EA102260AC1042506C00430040C9A301F0C99969A85082618D9
S123E0C00A995D2713A684802D270681FE260986088A049A9A979A5A9D821027FF3CD7937A
S123E0E0BDC8CD96999B9881111022EAE4BDE127301FBDD0E80F979D82270D9797813B2743
S123E10005BDC9F920029D7C9E95E684D093AE023AD6931026FEE47EE0143402862B0D9AD1
S123E1202703BDC0173582CE01F2C620969A85082702C62B0D542A040F54C62DE7C0C63066
S123E140E7C08401102601078ED50CBDD3EC2B15BDD525A68026FCA682A7018C01F126F7BC
S123E1608625A78439964F97472703BDE30F9647102B0081409B998009BDE22CBDE3A5BD8D
S123E180E3449647BDE3C39647BDE38B96982602335F4ABDE22CBDE2C74D2706C12A27021B
S123E1A0E7C06FC48E01F130019F0F963A901090992738A684812027EE812A27EA4F340209
S123E1C0A680812D27F8812B27F4812427F08130260EA6018D1625083502A78226FA20C702
S123E1E035024D26FB9E0F8625A7823981302504803A80C639969827014A9B472B014F3478
S123E200022A0A3402BDD2CE35024C20F49647A0E097478B092B199699800990478D0DBDA1
S123E220E3A5201D34028630A7C035024A2AF53996998DF8BDE38F86F790478DEF0F450FD3
S123E24097BDE34496982602DE399B4716FF43964F34022703BDE30F969827014A9B997F51
S123E26001F1D69AC40426037301F1BB01F1800934022A0A3402BDD2CE35024C20F4A6E48E
S123E2802B014F409B994CBB01F197450F97BDE3443502BDE3C396982602335FE6E02709B4
S123E2A0D647CB09D099F001F1862B5D2A03862D50A7418645A7C1862F4CC00A24FBCB3AD6
S123E2C0EDC16FC47EE1968E01F2E68434048620D69AC52035042708862AC12026021F897D
S123E2E03404A780E6842710C145270CC13027F2C12C27EEC12E26048630A782969A851018
S123E3002704C624E782840435042602E7823934404F9747D64FC18022118ED50CBDD216A2
S123E3209647800920ECBDD2CE0C478ED507BDD3EC2EF38ED502BDD3EC2E07BDD2B60A4704
S123E34020F135C03440BDD100BDD41435408ED611C6808D369653AB0397539652A902976E
S123E360529651A90197519650A98497505C565928E32403C00B50CB2F30041F98847FA7ED
S123E380C053C4808CD63526CA6FC40A452609DF39862EA7C00F97390A9726088603979752
S123E3A0862CA7C03996478B0A97454C800324FC8B059797969A8440260297973934028DC6
S11DE3C0CA35024A2B0A34028630A7C0A6E026ED3981891027F95C7ECA03B9
S123E400171A5DFD6FD08618340217019735024A26F6308D0B8F1700848D638D11812027C6
S123E420E581512708817127048D7220EC393402860D8D47860A8D43350239340286248DB7
S123E4403A3502393402862C8D313502393402865B8D283502393402865D8D1F3502393F48
S123E4600739340286208D138D113502393402810027058DEA4A20F73502393F01393F00EB
S123E480393416B76FD7308D8B4D3F043516393416BF6FD7308D8B3F3F0535163934103F7B
S123E4A0023510397F6FDCAE8D8B25E684C1102707C11127531600A08601B76FDCE601F751
S123E4C06FD2308D0A464FE186271F8B036D86270220F48610B76FD28600B76FD48600B7E5
S123E4E06FD38601B76FD61600908B01E686F76FD48B01E686F76FD34F1F01E689ECDFF7AA
S123E5006FD67C6FD61600728601B76FDCE601F76FD2308D0A694FE186271F8B036D8627ED
S123E5200220F48611B76FD28600B76FD48600B76FD38601B76FD61600408B01E686F76FFC
S123E540D48B01E686F76FD34F1F01E689ECDFF76FD67C6FD6160022F76FD24F1F01E689BE
S123E560ED0CF76FD4F66FD21F01E689EE0CF76FD31F01E689ECDFF76FD6B66FD38108262E
S123E58022AE8D8A4B7D6FDC2704A6022002A601B76FD52A0E841F308D0751A686BB6FD6CA
S123E5A0B76FD639BDE4A4AE8D8A2517FEE117FEAEF66FD6AE8D8A18A68017FEC45A26F8AB
S123E5C0308D0724B66FD64AA68617FEA07D6FDC2709FC6FD0C30001FD6FD0F66FD44F5816
S123E5E0495849308D04E4B76FD9A68B17FE8CB66FD95CA68B17FE83B66FD95CA68B17FEF4
S123E6007AB66FD95CA68B17FE71B66FD38100272E81012739810227388103102701AF81ED
S123E62004102701C48105102701D08106102701E08107102701F581081027020920008683
S123E6400F17FE29308D095317FE52160467160464B66FD4818127338137272F8166102769
S123E66000AD8167102700A78164102700A181651027009B17FDEB862317FDFF17FDBCAE75
S123E6808D894DA60117FDF916042A17FDD4AE8D893EA60184F0444444448D0E862C17FDA5
S123E6A0DAA601840F8D0316040B810026048644205081012604865820488102260486592A
S123E6C0204081032604865520388104260486532030810526068650C643202A810826048F
S123E6E08641201E8109260486422016810A26068643C6432010810B26068644C6502006E8
S123E700863F17FD763917FD721F9817FD6D3917FD508601B76FDBAE8D88B5A6018580273F
S123E7200D34068650C6438DDD7F6FDB3506854027213402B66FD4816627128164270E17B4
S123E740008186538DBC7F6FDB350220068D74865520F18520270D34028D6886598DA37F6D
S123E7606FDB35028510270D34028D5786588D927F6FDB35028508270F34068D468644C6D4
S123E780508D837F6FDB35068504270E34028D33864217FF6D7F6FDB35028502270E340220
S123E7A08D21864117FF5B7F6FDB35028501271034068D0F8643C64317FF4B7F6FDB3506A5
S123E7C01602F27D6FDB2605862C17FCAE3917FC91862317FCA517FC62AE8D87F3A601E6D1
S123E7E0021F0117FCA91602CC17FC7617FC4CAE8D87DDA60117FC891602BA17FC6417FC2D
S123E8003AAE8D87CBA601E6021F0117FC811602A417FC4E17FC24AE8D87B5E6011DF36FB9
S123E820D0C300021F0117FC6616028917FC3317FC09AE8D879AEC01F36FD0C300031F0142
S123E84017FC4C16026F17FC19B66FD52B14841F17FBE817FC2B17FBEBB66FD51702351633
S123E8600253849F8184260C17FBD9B66FD517022316024181882618AE8D8754A60217FB54
S123E880BA17FBFD17FBBDB66FD51702071602258189261AAE8D8738EC021F0117FB9C176E
S123E8A0FBED17FB9FB66FD51701E916020781862611864117FBC417FB8AB66FD51701D444
S123E8C01601F281852607864217FBAF20E9818B2607864417FBA420DE8180261117FB6401
S123E8E0B66FD51701AE862B17FB901601C78181261417FB4FB66FD5170199862B17FB7B9D
S123E90017FB781601AF8182261117FB37862D17FB69B66FD517017C16019A81832614175E
S123E920FB22862D17FB5417FB51B66FD5170164160182818C2615AE8D8695A60217FAFBD9
S123E94017FB3E17FAFE170164160169818D2617AE8D867CEC021F0117FAE017FB3117FA7D
S123E960E317014916014E8194261217FADF17FAD3B66FD517011D17FADC1601388198261F
S123E9801E17FAC9AE8D8648A60217FAAE17FAF117FAB1B66FD51700FB17FABA16011681C2
S123E9A099262017FAA7AE8D8626EC021F0117FA8A17FADB17FA8DB66FD51700D717FA9613
S123E9C01600F28196261717FA83864117FAAC17FA72B66FD51700BC17FA7B1600D78195E0
S123E9E0260A17FA68864217FA9120E3819B260A17FA5A864417FA8320D58191261A17FA90
S123EA004C17FA40B66FD517008A862B17FA6C17FA6917FA4116009D8193261A17FA2E1763
S123EA20FA22862D17FA5417FA51B66FD517006417FA2316007F819C261B17FA10AE8D85BF
S123EA408FA60217F9F517FA3817F9F817005E17FA04160060819D261D17F9F1AE8D857093
S123EA60EC021F0117F9D417FA2517F9D717003D17F9E316003F819F261717F9D0AE8D85EA
S123EA804FEC021F0117F9B317FA0417F9C8160024160021340284604444444444308D00C9
S123EAA008A68617F9D535023958595553308D051C17F9E93917F9767D6FDC27037A6FD629
S123EAC04FF66FD6F36FD0FD6FD0393F3F3F204142582041444341414443424144444141CB
S123EAE044444241444444414E4441414E4442414E444341534C2041534C4141534C424178
S123EB005352204153524141535242424343204243532042455120424745204247542042D8
S123EB204849204249544142495442424C4520424C5320424C5420424D4920424E452042BA
S123EB40504C204252412042524E20425352204256432042565320434C5220434C5241438B
S123EB604C5242434D5041434D5042434D5044434D5053434D5055434D5058434D5059432E
S123EB804F4D41434F4D42434F4D204357414944414120444543204445434144454342451E
S123EBA04F5241454F524245584720494E4320494E4341494E43424A4D50204A5352204CB0
S123EBC04243434C4243534C4245514C4247454C4247544C4248494C424C454C424C534C27
S123EBE0424C544C424D494C424E454C42504C4C4252414C42524E4C4253524C4256434CCB
S123EC004256534C4441204C4442204C4444204C4453204C4455204C4458204C4459204CC9
S123EC204541534C4541554C4541584C4541594C5352204C5352414C5352424D554C204EA9
S123EC404547204E4547414E4547424E4F50204F5241204F5242204F524343505348535006
S123EC6053485550554C5350554C55524F4C20524F4C41524F4C42524F5220524F52415213
S123EC804F52425254492052545320534243415342434253455820535441205354422053BE
S123ECA054442053545320535455205354582053545920535542415355424253554244534B
S123ECC0574920535749325357493353594E43544652205453542054535441545354420147
S123ECE001020302030203020A0704010000000000000000010200000102000000000000E2
S123ED000000000001020000010200025D00002E59006B0D0A68320038823B2300006080EF
S123ED200000494B00316300097237811E1F151910111C1221221D1B131A1418575855568C
S123ED4064666567006F016E305C007D5E00002D5A006C0E0B693300398300245F00002EBF
S123ED605B006D0F0C6A34003A8400255D00002F59006B0D0A68320038823B235D00002F86
S123ED8059006B0D0A68320038823B237A26707C07164E00350261042B2053007A26707C25
S123EDA007164E73350261042B3C53787A26707C07164E73350261042B3C53787A26707CDF
S123EDC007164E73350261042B3C53787B27710608174F0036036205500052007B277106A1
S123EDE008174F7436036205507552777B27710608174F7436036205507552777B277106BD
S123EE0008174F7436036205507552770400000404000404040404000404040400000101AC
S123EE20000007070001020002010202060606060606060606060606060606060808080836
S123EE40020202020001010102010001010000010100010101010100010100010100000192
S123EE6001000101010101000101000108000008080008080808080008080808050000051B
S123EE80050005050505050005050505020202030202020002020202030603000404040409
S123EEA004040404040404040404040408080808080808080808080808080808050505058A
S123EEC00505050505050505050505050202020302020200020202020301030004040404C4
S123EEE004040404040404040404040408080808080808080808080808080808050505054A
S123EF00050505050505050505050505214A07224207234407243D07253E07264707273FBA
S123EF2007284C07294D072A48072B46072C40072D45072E41072F43073F7E018328038C0A
S123EF402C038E54039328049C2C049E54049D7904A32808AC2C08AE5408AF7908B3280531
S123EF60BC2C05BE5405BF7905CE5103DE5104DD7604EE5108EF7608FE5105FF7605003FDF
S123EF807F01832A038C2903932A049C2904A32A08AC2908B32A05BC2905003B20494E5635
S123EFA0414C4944045052455353203C53504143453E20544F20434F4E54494E55452C2008
S114EFC03C513E20544F20515549542004504352043E
S123F000170E5DFD6FEC8D1A308C9A17F48F17F46D17F41A815127068171270220E86E9FAF
S123F020FFFE1706C38D0417059839B66FD4810010270583B66FD381082613B66FD5848E72
S123F040818C260A308D066217F45217F3E0B66FD4818010270560B66FD481302610BE6F60
S123F060ECA6018A80BA6FE0B76FE0160549817D264EBE6FEC3001BF6FEC10FF6FEE10FE2C
S123F0806FEAB66FE034028A50B76FE0B66FE13402B66FE23402B66FE33402BE6FE43410EC
S123F0A0BE6FE63410BE6FE83410BE6FEC341010FF6FEA10FE6FEEBEFFFABF6FEC1605017F
S123F0C0817E2649BE6FEC3001BF6FEC10FF6FEE10FE6FEAB66FE03402B66FE13402B66FEB
S123F0E0E23402B66FE33402BE6FE43410BE6FE63410BE6FE83410BE6FEC341010FF6FEAEC
S123F10010FE6FEEBEFFF4BF6FEC1604B4817F2649BE6FEC3001BF6FEC10FF6FEE10FE6F2B
S123F120EAB66FE03402B66FE13402B66FE23402B66FE33402BE6FE43410BE6FE63410BE85
S123F1406FE83410BE6FEC341010FF6FEA10FE6FEEBEFFF2BF6FEC160467813B1026007B29
S123F160B66FD2817E260BBE6FECAE01BF6FEC16044F810E260EBE6FECE601B66FE3FD6FE2
S123F180EC16043DBE6FEC108E6FF2C6334FE7A64CE686E7A64CB16FD626F6C67EE7A64C7B
S123F1A08EF1C3AFA610FF6FEEFF6FF0B66FE1F66FE2BE6FE410BE6FE610FE6FEAFE6FE8AD
S123F1C07E6FF2BF6FE410BF6FE610FF6FEA10FE6FEEFE6FF0BF6FEC1603E6813C102600DA
S123F1E072B66FD281BD26244FF66FD6F36FEC10FF6FEE10FE6FEA340610FF6FEA10FE6F50
S123F200EEBE6FECAE01BF6FEC1603B5819D26274FF66FD6F36FEC10FF6FEE10FE6FEA3402
S123F2200610FF6FEA10FE6FEEBE6FECE601B66FE3FD6FEC16038A4FF66FD6F36FEC10FF07
S123F2406FEE10FE6FEA340610FF6FEA10FE6FEE16FF31816F261810FF6FEE10FE6FEA355D
S123F2601010FF6FEA10FE6FEEBF6FEC160352816E264010FF6FEE10FE6FEA3510BF6FEC9B
S123F280B66FE02A1E3510BF6FE83510BF6FE63510BF6FE43502B76FE33502B76FE235025C
S123F2A0B76FE13502B76FE010FF6FEA10FE6FEE16030E8120262C4FF66FD6F36FEC10FF32
S123F2C06FEE10FE6FEA340610FF6FEA10FE6FEEBE6FEC4FE6011DC30002F36FECFD6FEC82
S123F2E01602DE814B262A4FF66FD6F36FEC10FF6FEE10FE6FEA340610FF6FEA10FE6FEE40
S123F300BE6FECEC01C30003F36FECFD6FEC1602B0B66FD38106264BBE6FEC108E6FF2A601
S123F32084A7A48603A721867EA7228EF354AF23867EA7258EF341AF26B66FE01F8A7E6F33
S123F340F2BE6FEC4FE6011DC30002F36FECFD6FEC16026DFC6FECC30002FD6FECFD6FEC8F
S123F36016025E810710260085B66FD281162624BE6FEC108E6FF2A684A7A48E0003AF210A
S123F380867EA7238EF3E0AF24867EA7268EF3BEAF272022BE6FEC108E6FF2AE84AFA48E14
S123F3A00003AF22867EA7248EF3E0AF25867EA7278EF3BEAF28B66FE01F8A7E6FF2BE6FCF
S123F3C0ECB66FD28116260AFC6FECC30003E3012008FC6FECC30004E302FD6FEC1601E103
S123F3E04FF66FD61DF36FECFD6FEC1601D3B66FD2811F10260091BE6FECA60184F081506F
S123F400264410BE6FEC3122A601840F8100271381012716810227198103271C8104271FF9
S123F42016019410BF6FE116018D10BF6FE416018610BF6FE616017F10BF6FE8160178101C
S123F440BF6FEA160171A601840F8105102600F7A60184F08100271381102714812027159C
S123F460813027168140271716014CBE6FE12012BE6FE4200DBE6FE62008BE6FE82003BE89
S123F4806FEABF6FEC160139B66FD2811E2675BE6FECA60184F081502606A601840F2016D3
S123F4A0A601840F81051026009DA60184F0040004000400040010BE6FEC31228100271353
S123F4C0810127198102271D81032721810427251600E4BE6FE11E12BF6FE12020BE6FE46A
S123F4E01E12BF6FE4BE6FE61E12BF6FE6BE6FE81E12BF6FE8BE6FEA1E12BF6FEA10BF6F77
S123F500EC1600BDB66FD28135270481372618BE6FECA60184808180262D308D015E17EF20
S123F5207C17EF0A160090B66FD28134270481362615BE6FECA60184808180260A308D0119
S123F5406917EF5917EEE7BE6FEC108E6FF24FE686E7A64CB16FD626F6C67EE7A64C8EF595
S123F5608DAFA610FF6FEEFF6FF0F66FE2BE6FE410BE6FE610FE6FEAFE6FE8B66FE31F8BF2
S123F580B66FE03602B66FE137017E6FF23601B76FE13702B76FE01FB8B76FE3F76FE2BFA9
S123F5A06FE410BF6FE610FF6FEAFF6FE810FE6FEEFE6FF04F1F8B4FF66FD6F36FECFD6F0D
S123F5C0EC39308D008C17EED4BE6FEC17EEC0308D008317EEC7B66FE117EEA5308D007910
S123F5E017EEBAB66FE217EE98308D006F17EEADBE6FE417EE99308D006517EEA0BE6FE63D
S123F60017EE8C308D005B17EE93BE6FEA17EE7F308D005117EE86BE6FE817EE72308D0028
S123F6204717EE79B66FE317EE57308D003E17EE6C8E0008F66FE058250486302002863146
S123F640BDE47B301F26F0308D002517EE4F17EDDD3950433D04413D04423D04583D04590A
S123F6603D04533D04553D0444503D0443433D042028454648494E5A564329045761726E15
S123F680696E673A20696E737472756374696F6E206E6F7420737570706F727465642C2049
S123F6A0736B697070696E672E045761726E696E673A20696E737472756374696F6E206E2F
S123F6C06F7420737570706F727465642C2065787065637420696E636F72726563742072ED
S115F6E06573756C74732E04BE6FECBF6FD0BDE5A439AC
S123F800308D78BE1F101F8B979D3384318C35EF81C61634041F20E3A1ED816AE426F6C656
S123F8200DA6A0A7805A26F9318DF7D48E20FEACA12602ADA43584328D78168DC34F1F8B87
S123F8403F0820F9016002920290028E0270028A0045022BFFE3029002840296028A02930A
S123F8600290039A02B702D202BF7892047D012DA0000005000000000000000039019401DA
S123F880B101CB01C30175017301C001790055017D025601D16A8D77F7170225EE6A335F74
S123F8A00DFB261117069B505A2B0A11A3A126F8EF6A16021E0FFB3706C10B1022020FEF27
S123F8C06A58338CB8ECC56ECB41535349535430390410DF976D61260DAD9D77F9AD9D77BB
S123F8E0FB308CE53F039EF6270D6F026F03CC01A6A701E7846F013F061706462A0C50D780
S123F900FA5A2B06A630A7B120F7AE6A9F93863E3F0133E4DF954F5FDD9BDD8FDD91C60278
S123F9203407170454308D0581812E275A308D04E9812F27528120231434026C5F812F2723
S123F9404F17040B27026A5E17042E20E8800DA75D9EC4E6802A109EEE5C27F710DE9530A0
S123F9608D015A3F0220905AE15F24033A20E4315DA65F8002A75E5AA680A1A226EE6A5EF2
S123F98026F53AEC1E308B6D5D32C4AD1E16FF7A6D5E2BC83088AEDC9B20EC0455EA6304DE
S123F9A054F65FFE044205450443040F0444049504450597044703CA044C04D5044D040551
S123F9C0044E04F5044F0502045004A70452027C045604CF04570468FFA6803406C6103D45
S123F9E08D043506840F8B90198940196E9D76EE8DE78DE5AF648620203DA661813422390C
S123FA00109EC2EEA6EF64AF7E272EAFA6202A8D5D8D5F24FA4D27F9817F27F5A7610D8F49
S123FA202617810D2604860A8DC20DF4260BA661308C09810A270F8DB30C903B04308CFC5C
S123FA40860D8DA8860A8DA4A680810426F88D1E8D061FA9E7E420E18D18240581182602EF
S123FA6053398D0A8D0C24FA811827F44F396E9D7678AD9D7662847F394F502D048D420D69
S123FA808F26340D902B29306C9CF82523308CE93F02098E308D76013F058D172537068E87
S123FAA025339E91272F301F9F9127298DAA25251603F71701B9390F8F1702EB3B3F0720B8
S123FAC004E68D75D81F9BA163272510DE97308CEC3F038DDE16FE218DE720F7DEF0A6C482
S123FAE0442402A6413986139EF0A7848615A784393447DEF08D1B81102712D6F2810D26F0
S123FB0002D6F34FE7E48C8D096AE42AFA35C717FF5CE6C4C50227F7A7413986116D6626BA
S123FB20014C3F010C8F3986143F014A3F010A8F8E61A8301F26FC39EE626D662754327DD5
S123FB403F00815326FA3F0081392722813126F26FE48D21E7618D1DE7628D19A66231CB7C
S123FB608D13270C6D692B02E7A4E1A027F235924C27CD20F98D12C6103D8D0D3404ABE057
S123FB801F89AB62A7626A63393F001701D427F835F2DEF2AE643456CC0018D7F23F01C60D
S123FBA004DDF2EC68A362108300182502C6175CE7E4CB03E761308C333F035F30618D2754
S123FBC08D258D23AE628D1F6AE426FAAF6253E76130618D14AE68AC6224C8308C113F0398
S123FBE0EC64DDF24F35D6EB8416FDED530104533930333030303046430D0A043F06C6065D
S123FC003F075A26FB5F1F9817FDDB3F073F075CC11025F23F06252F30643F05AE64C610F1
S123FC203F045A26FB3F07AE64C610A6802B0481202402862E3F015A26F1AC622409AF6405
S123FC40A6654826CF20B53F06398D234C8D21395043FF1341000A42000B58FF0D59FF0F1A
S123FC6055FF1153FF01434300094450000C004F30E8103432318CD8ECA04D2F043F0120BB
S123FC80F7862D3F0130E56DE426126D3F27033F058C3F04ECA05D26DF3F0635B28D4027E1
S123FCA010810D271EE63F5A50583F075A26FB20E3A7E4DC9B6D3F2602A682ED84A6E481F8
S123FCC00D26D1308D738AC6153502A7805A26F910EE88ECC615A68234025A26F920BC4F61
S123FCE08C8620978E6E9D740334148D5C2718918E27F89E9E814D27169E93815027109E5B
S123FD00A08157270A35948D4427FC200AAE849F9B0D8E27F08D629E9B812B260E8D233445
S123FD2002DC9B308B9F9B350220EC812D2707814027DA5F20CF8D0A3402DC9B40508200CC
S123FD4020E18D9D273216FC130F9B0F9C8D2A8D112625C6103D860458099C099B4A26F85B
S123FD6020148130251281392F0A8141250A814622068007840F1A04393F00811827C73920
S123FD808D013B3530341026191701B6AE6C5A2B16A630ACA126F7813F260297FB0C8F16C0
S123FDA001061700BBED6C17019800FA5A2BC9A6B4A730863FA7B120F38DC8357FADF13FCE
S123FDC00A20FC17009ADD9E9E9E17FC0C862D3F0117FF0B270A812C260E9F9E300120F1CD
S123FDE0D69C8D47812C27E98127260C8D8B8127270C1F898D3520F4812026069F9E3F0761
S123FE0020C6810A2608860D3F019F9E200A815E260A301E9F9E3F068D0720AC812F27F6F9
S123FE20399E9E341030E43F0535909E9EE780E11F26039F9E393402863F3F0135828D2007
S123FE40DDA0398D1BC4F01F02302F25048D1130AB343010A3622302EDE4AD9D728435E0A6
S123FE6017FE7E2609812F2205810EDC9B3916FAEB8DED1F028DE96FE23426AD9D7265AD21
S123FE809D72633401AD9D725F350126E135B28D010133F133D427038DC68C4F5F344E2065
S123FEA0DA8DEFFF8DBADD913262EEF80ADF99DEF6CC0701ED423B8DA7DDF23927058DA091
S123FEC0DDF839306E9FF8398D961F018D9230013430A3E4EDE430611DA1E426023F04EEC7
S123FEE0E4335FEF843F053F063596272317FDF1272C812D263F17FDE827030FFA398D40D7
S123FF005A2B32ACA126F9AEA1AF3C5A2AF90AFA8D2E27E930A13F055A26F93F06398D207B
S123FF20C1082711A684E784E1842609A7845A2B07ACA126F916FA24AFA46F310CFA20D053
S123FF409E9B318D716CD6FA396FE25F308C3F3F00815B26068610A7E43F00810D270C6D40
S123FF60842BD2A18126F8EB1F20EE308C491F988460AAE4A7E4C49F6D8427B9E18126F837
S123FF80E61FEAE4E7E430E43F043F06358441044205440648014801480148002C002D090F
S123FFA02D0153705930555058102B072B015080430052005D00FF108411001288138914A8
S123FFC0861585168B1780188119821A83828C838D039F006E9D70EE6E9D70EC6E9D70EAFF
S113FFE06E9D70E86E9D70E66E9D70E46E9D70E28D
S113FFF0FFD4FFD8FFDCFFE0FFE4FFE8FFECF837B5
S9030000FC
