:400000000040002011000000911E0000911E000008B5044B1A6803F53F5302331A6001F057FF00BFFA46004010B5054C237833B9044B13B10448AFF300800123237010BD02
:4000400098C1FF1F0000000024600000084B10B51BB108490848AFF300800848036803B910BD074B002BFBD0BDE81040184700BF000000009CC1FF1F24600000C8C0FF1F9A
:400080000000000030B5A5B00020824B1860824B1870824B1870012102F04CFD62B602F089F9042003F0AEFE05F0D6FA05F0CEFA00F07CFA00F044FE01F0D2F901F03CFC4C
:4000C00001F0DAFC00F040F90446013001F0D6FB04B1FEE700F0C2F900F006FB044600F0EDFF01F027F9012C40D100252C4602F05FFD20B102F056FD08B102F077FE02F01B
:4001000051FDB8B102F0E6FE003018BF0120002C18BF002070B104A802F0F4FE044600F0F5FF012C08BF002804D19DF8100000F0D5FF002474B100F0E9FF58B924AB2B443E
:4001400013F8800C00F0CAFF0135ADB2013CA4B204B9002502F0C4F810F0100F01D000F09DFB05F06DFA05F071FAC0E7002502F01FFD20B102F016FD08B102F037FE02F0C1
:4001800011FD002800F0818002F0A4FE00287CD014A802F0B7FE0446002876D002F0A6FE0028FBD09DF85030722B01D0522B06D13B4801F077FB4FF4001001F0BBFA9DF821
:4001C0005030312B07D1374801F06CFB002001F0B1FA00254FE06E2B01D04E2B07D1324801F060FB284601F0A5FA013543E0772B01D0572B07D12D4801F054FB4FF40010B7
:4002000001F022FB37E0692B01D0492B05D1284801F048FB01F024F92DE0662B01D0462B11D1244801F03EFB1A4B1A682249684605F0BEFA684601F035FB204801F032FBDE
:4002400001F00EF917E01E4801F02CFB1D4801F029FB1D4801F026FB1C4801F023FB1C4801F020FB1B4801F01DFB1B4801F01AFB1A4801F017FB402C07D102F037FE002870
:40028000FBD00021084602F0FDFD05F0D9F905F0DDF96CE71CC2FF1F19C2FF1F18C2FF1F2860000040600000686000008C600000A4600000C0600000D86000002C61000081
:4002C000E0600000086100003061000058610000786100009C610000B8610000D061000010B50446C0B201F0D1FFC4F3022002F009F8C4F3C72002F00BF810BD10B5FFF7C2
:40030000EFFF152002F00AF8172002F007F8044B1C78E4B2112002F001F8204610BD00BF6A65004010B50C46FFF7DAFF192001F0F5FF204601F0DAFF1B2001F0EFFF112069
:4003400001F0ECFF10BD00BF00B583B0002005F091F9112001F0E2FF55210020FFF7E2FF0020FFF7CBFF552870D101238DF8033001930DE001989DF80310FFF7D3FF9DF885
:4003800003300133DBB28DF80330019B5B000193019BB3F5002FEDD301238DF80330019315E00198FFF7AAFF8DF802009DF80220D2B29DF80330DBB29A4249D19DF8033061
:4003C0000133DBB28DF80330019B5B000193019BB3F5002FE5D300238DF8033001930DE001989DF80310FFF79DFF9DF803300133DBB28DF80330019B01330193019BB3F5B6
:40040000002FEDD300238DF80330019315E00198FFF774FF8DF802009DF80220D2B29DF80330DBB29A4215D19DF803300133DBB28DF80330019B01330193019BB3F5002F76
:40044000E5D3102001F06AFF002004E0012002E0022000E0032003B05DF804FB38B50024254606E0054B195D2846FFF75BFF01350134B4F5006FF5D338BD00BF04630000BB
:4004800038B504460D4602F047FA0021204602F073F9284602F0CCF902F0AEF90121204602F06AF9002002F0EFF9044602F0A4F902F032FA204638BD10B512212420FFF781
:4004C000DFFF040212212520FFF7DAFF2043040212212620FFF7D4FF2043040212212720FFF7CEFF204310BD10B50446FFF7E4FF04F00303032B0DD8DFE803F00204070A8A
:40050000C0B208E0C0F3072005E0C0F3074002E0000E00E0002001F0E9FE00F0B5F910BD70B5FFF7C9FF88B10026344608E016B90CB105B165B90A2001F006FE26462C4674
:40054000FFF7BAFF05460028F1D170BD002070BD204670BD10B5FFF7E3FF0028FBD10446002303E0FFF7DCFF034610B9002BF9D000E00446204610BD70B582B004460E4680
:40058000154602F0C9F98DF804608DF805500023022201A9204602F089F802F0A1F910F0020FFAD002F0B8F902B070BD10B5242437E0FF2200212046FFF7DEFF00220121D3
:4005C0002046FFF7D9FFFF2202212046FFF7D4FFFF2204212046FFF7CFFF002205212046FFF7CAFF002206212046FFF7C5FF002208212046FFF7C0FF04220A212046FFF7FB
:40060000BBFF04220B212046FFF7B6FFFF220C212046FFF7B1FF10212046FFF731FF0134E4B2272CC5D90023044A1370044A1380044A1370044A136010BD00BF28C2FF1FCF
:4006400020C2FF1F22C2FF1F2CC2FF1F10B50446020E15212420FFF78FFFC4F3074215212520FFF789FFC4F3072215212620FFF783FFE2B215212720FFF77EFF10BD00BF72
:4006800010B5044601F038FE04F00303032B21D8DFE803F002091119124A136823F0FF031843106016E00F4A136823F47F4343EA002010600EE00B4A136823F47F0343EA59
:4006C0000040106006E0074A136823F07F4343EA00601060034B1868FFF7B8FF00F0D4F810BD00BF24C2FF1F10B50122654B1A6008E0FFF7ABFF322001F026FD614A1368D9
:400700005B0013605F4B18680028F2D1FFF7F6FD5C4A136818431060FFF798FFFFF71AFF10F07F4F00F0A78010F0807F17D0554C206840F080702060FFF788FF206800F5D7
:40074000807020F07F4020F0FF002060000AFFF7D5FD236818432060FFF778FFDEE710F0007F1DD0474C206840F000702060FFF76DFF2068C1B2C0F30F20FFF7D3FD20688D
:4007800000F5807020F07F4020F0FF002060000AFFF7B4FD236818432060FFF757FFBDE710F0806F15D0374C206840F080602060FFF74CFF206820F07F4020F0FF00206059
:4007C000000AFFF79BFD236818432060FFF73EFFA4E710F0006F0AD04FF00060294B1860FFF734FF002001F099FD012010BD10F0805F0FD0234C4FF080502060FFF726FFD4
:40080000FA2001F0A1FC206820F07F402060FFF71DFF83E710F0005F0FD01A4C4FF000502060FFF713FFFA2001F08EFC206820F07F402060FFF70AFF70E710F0804F0FD092
:40084000104C4FF080402060FFF700FFFA2001F07BFC206820F07F402060FFF7F7FE5DE70028BFF65BAF4FF00040064B1860FFF7EDFE002010BD034A136858401060FFF75D
:40088000E5FE4BE724C2FF1F08B501F023FD40F00100C0B201F018FD08BD00BF00B583B001F01EFD8DF807009DF8073003F01903102B02D100F008FC3EE201F0E1FC8DF854
:4008C00006009DF80630183BE52B00F23582DFE813F0B101C301D501E701330233023302330204021C0214022C02330233023302330233023302330233023302330233029A
:400900003302330233023302330233023302330233023302330233023302330233023302330233023302330233023302330233023302330233023302330233023302330217
:4009400033023302330233023302330233023302330233023302330233023302330233023302E600F7000801190133023302330233023302330233023302330233023302AB
:400980003302330233023302330233023302330233023302330233028901AE01330233023302780167019D018C0133023302330233023B012A014C0155015E013302330230
:4009C0003302330233023302330233023302330233023302330233023302330233023302330233023302330233023302330233023302330233023302330233023302330257
:400A00003302330233023302330233023302330233023302330233023302330233023302330233023302330233023302330233023302330233023302330233023302330216
:400A400033023302330233023302330233023302330233023302330233023302330233023302330233023302330233023302330233023302330233023302330233023302D6
:400A8000330233023302330233023302330233023302F901330233023302330201029DF80730DBB21C2B02D100F0A6FF44E19DF80730DBB21A2B40F03F8100F05BFF3BE167
:400AC0009DF80730DBB21C2B02D100F049FF33E19DF80730DBB21A2B40F02E8100F036FF2AE19DF80730DBB21C2B02D100F0E8FF22E19DF80730DBB21A2B40F01D8100F0E1
:400B0000CDFF19E19DF80730DBB21C2B02D100F0E1FF11E19DF80730DBB21A2B40F00C8100F0E2FF08E19DF80730DBB21C2B02D100F0D8FB00E19DF80730DBB21A2B40F0C0
:400B4000FB8000F075FBF7E09DF80730DBB21C2B02D100F027FBEFE09DF80730DBB21A2B40F0EA8000F03AFBE6E09DF80730DBB21A2B40F0E18000F0BFFBDDE09DF80730EA
:400B8000DBB21A2B40F0D88000F0C0FBD4E09DF80730DBB21A2B40F0CF8000F0C1FBCBE09DF80730DBB21C2B02D100F0C1FAC3E09DF80730DBB21A2B40F0BE8000F0CAFA87
:400BC000BAE09DF80730DBB21C2B02D100F0D6FAB2E09DF80730DBB21A2B40F0AD8000F0D7FAA9E0FFF750FEA6E09DF80730DBB21C2B02D100F0A4FB9EE09DF80730DBB2AE
:400C00001A2B40F0998000F09FFB95E09DF80730DBB21C2B02D100F09BFB8DE09DF80730DBB21A2B40F0888000F09CFB84E0FFF72BFE81E09DF80730DBB21C2B03D10020EC
:400C4000FFF752FC78E09DF80730DBB21A2B73D10020FFF715FD6FE09DF80730DBB21C2B03D10120FFF740FC66E09DF80730DBB21A2B61D10120FFF703FD5DE09DF8073082
:400C8000DBB21C2B03D10220FFF72EFC54E09DF80730DBB21A2B4FD10220FFF7F1FC4BE09DF80730DBB21C2B03D10320FFF71CFC42E09DF80730DBB21A2B3DD10320FFF79C
:400CC000DFFC39E09DF80730DBB21A2B34D100F053FB31E000F05AFB2EE09DF80730DBB21C2B02D100F08EF826E09DF80730DBB21A2B21D100F09CF81EE09DF80730DBB261
:400D00001A2B19D100F0A0F816E09DF80730DBB21C2B02D100F024F90EE09DF80730DBB21A2B09D100F032F906E09DF80730DBB21A2B01D100F036F903B05DF804FB00BFCA
:400D400038B501252B4B1D7000242B4B1C702B4B1D702B4B1C70FF2221462020FFF70CFCFF2229462020FFF707FCFF2202212020FFF702FCFF2203212020FFF7FDFBFF2297
:400D800004212020FFF7F8FBFF2205212020FFF7F3FB224606212020FFF7EEFB224607212020FFF7E9FB224608212020FFF7E4FB224609212020FFF7DFFB04220A21202049
:400DC000FFF7DAFB04220B212020FFF7D5FBFF220C212020FFF7D0FBFF220D212020FFF7CBFB10212020FFF74BFB11212020FFF747FB38BD36C2FF1F3BC2FF1F3DC2FF1F9C
:400E000038C2FF1F08B5084B1B78DBB2012B04D1064B187801F06AFA02E0552001F066FAFFF732FD08BD00BF36C2FF1F3CC2FF1F08B501F061FA024614212020FFF79CFB5D
:400E4000FFF722FD08BD00BF00B583B001F054FA8DF807003D4B1B7813F0FF0F36D19DF8073003F00F030F2B30D19DF8073013F0C00F08D1002211462020FFF77DFB002227
:400E8000324B1A705DE09DF8073003F0C003402B08D1FF2200212020FFF76EFB01222B4B1A704EE09DF8073003F0C003802B03D10222264B1A7044E09DF8073003F0C00330
:400EC000C02B3ED10322224B1A703AE0204B1B78DBB2032B09D19DF8072000212020FFF74BFB0322194B1A702BE0194B1B78DBB2042B08D19DF80730DBB2164A13700122CD
:400F0000134B1A701DE09DF8073013F0010F05D19DF80730DBB2104A137012E09DF8073003F00F03072B0CD19DF80730DBB20B4A13709DF8073013F0100F02D00422044BA9
:400F40001A70FFF7A1FC03B05DF804FB3BC2FF1F36C2FF1F34C2FF1F31C2FF1F35C2FF1F08B5084B1B78DBB2012B04D1064B187801F0BCF902E0AA2001F0B8F9FFF784FC66
:400F800008BD00BF36C2FF1F3AC2FF1F08B501F0B3F9024615212020FFF7EEFAFFF774FC08BD00BF00B583B001F0A6F98DF807003D4B1B7813F0FF0F36D19DF8073003F0A7
:400FC0000F030F2B30D19DF8073013F0C00F08D1002201212020FFF7CFFA0022324B1A705DE09DF8073003F0C003402B08D1FF2201212020FFF7C0FA01222B4B1A704EE03A
:401000009DF8073003F0C003802B03D10222264B1A7044E09DF8073003F0C003C02B3ED10322224B1A703AE0204B1B78DBB2032B09D19DF8072001212020FFF79DFA032257
:40104000194B1A702BE0194B1B78DBB2042B08D19DF80730DBB2164A13700122134B1A701DE09DF8073013F0010F05D19DF80730DBB2104A137012E09DF8073003F00F03F9
:40108000072B0CD19DF80730DBB20B4A13709DF8073013F0100F02D00422044B1A70FFF7F3FB03B05DF804FB38C2FF1F3DC2FF1F30C2FF1F32C2FF1F33C2FF1F0222014B6C
:4010C0001A7070473FC2FF1F08B5FF2001F00EF9012001F0EDF8FFF7D7FB08BD08B5084B1870084A137843F001031370064B1B7803F06003202B02D0002001F0D9F808BD0B
:4011000041C2FF1F3FC2FF1F40C2FF1F064B1B7803F06003402B04D0044B187800F0010070470120704700BF40C2FF1F3FC2FF1F08B5064B187801F0D9F8054A137803F04C
:40114000FE031370FFF7A0FB08BD00BF41C2FF1F3FC2FF1F00B591B001F0C8FE0028FBD001F0CAF810AB03F8400D0121184601F089FEFFF789FB11B05DF804FB08B5034BAE
:40118000187801F0B3F8FFF77FFB08BD3FC2FF1F08B501F0B1F8024B1870FFF775FB08BD40C2FF1F10B50A4C23885A1C2280094AD05C01F09BF82388B3F5007F04D180220E
:4011C000054B1A7000222280FFF75EFB10BD00BF58C2FF1F5CC2FF1F4AC2FF1F10B5104B1C88B4F5007F08D2621C1A8001F084F80C4B1855A0220C4B1A70094B1B88B3F587
:40120000007F0AD1094B1868064900F09FFA0022034B1A808022044B1A70FFF735FB10BD5AC2FF1F5CC4FF1F4AC2FF1F44C2FF1F08B501F061F8214B18701B7813F0FF0FCB
:4012400019D1FFF721FB1E4B18781E4B1B781B0443EA00631C4A107843EA00231B4A10781B49184300F0F2F9E0221A4B1A700022194B1A8008BD114B1B78DBB2012B1AD1A0
:401280000023164A1380144A13800D4B1A780D4B1B781B0443EA02630B4A127843EA02230A4A127813430E4A1360A022094B1A70FFF7EAFA08BDFFF7E7FA08BD4FC2FF1F67
:4012C0004DC2FF1F4EC2FF1F48C2FF1F4CC2FF1F5CC2FF1F4AC2FF1F58C2FF1F5AC2FF1F44C2FF1F08B5034B187800F0FFFFFFF7CBFA08BD4AC2FF1F08B500F0FDFF024B1A
:401300001870FFF7C1FA08BD4CC2FF1F08B500F0F3FF024B1870FFF7B7FA08BD48C2FF1F08B500F0E9FF024B1870FFF7ADFA08BD4EC2FF1F0222014B1A70704751C2FF1F9F
:4013400008B5FFF7A1FA08BD08B5FFF79DFA08BD08B5034B187800F0C9FFFFF795FA08BD51C2FF1F08B500F0C7FF024B1870FFF78BFA08BD50C2FF1F08B500F0BDFF024B0F
:401380001870FFF781FA08BD54C2FF1F00B583B000F0B2FF8DF807000F4B1B78DBB2032B15D8DFE803F002070C109DF8070004F067F90CE09DF8070004F068F907E09DF869
:4013C000070004F069F99DF8070004F06BF9FFF75BFA03B05DF804FB54C2FF1F10B5044602F036FD10F0040FFAD0204602F03CFD10BD00BF70B50C4615461E46FFF7EEFFCF
:40140000200EFFF7EBFFC4F30740FFF7E7FFC4F30720FFF7E3FFE0B2FFF7E0FF2846FFF7DDFF02F015FD10F0020FFAD0142000F0A1FE0024FF250FE0FF20FFF7CFFF02F0B9
:401440000DFD10F0200FFAD002F01AFDFF2800D128460134E4B20546B442EDD3284670BD002307E0DAB2D0433849C8543849CA5401339BB2B3F5007FF4D310B5012003F066
:4014800017FF02F045FD002409E002F0E1FC10F0040FFAD0FF2002F0E7FC0134E4B2092CF3D902F0D5FC10F0020FFAD002F0EEFC002003F0FDFE002404E0642000F044FE23
:4014C0000134E4B2092C07D80823952200214020FFF790FF0128F0D1002404E0642000F033FE0134E4B2092C07D80823FF2200214120FFF77FFF0028F0D10823FF224FF4F5
:4015000000715020FFF776FF0023124A1380124A1380124A1370124A1370124A1370124A1370124A1370124A1370124A137002F08FFC10F0010FFAD002F0B6FC012003F036
:40154000B7FE80220C4B1A7010BD00BF5CC2FF1F5CC4FF1F58C2FF1F5AC2FF1F49C2FF1F4BC2FF1F4FC2FF1F4CC2FF1F48C2FF1F4EC2FF1F4DC2FF1F4AC2FF1FF0B595B075
:40158000064600278DF8487053E0002414A800F84C4D3D012A46294904F00AF90BE06319F25C274912A804F003F912A901A804F023F90134A4B20F2CF1D901AC204604F0E6
:4015C0002AF922181F4B19889B7821529370204600F068F900238DF8043019E01A46E918705CA0F12101C9B25D2904D814A9194401F84C0C04E02E2014A9194401F84C0CA9
:40160000013214A90A44002102F84C1C01339BB20F2BE3D901AC204604F0FDF822180A4B19889B7821529370204600F03BF90137BFB21F2FA9D915B0F0BD00BFE861000040
:40164000F0610000F86100002C61000038B504460D46002003F02CFE5120FFF7BFFEC4F3C730FFF7BBFEC4F3C710FFF7B7FE600000F0FE00FFF7B2FE0020FFF7AFFEFF20DC
:40168000FFF7ACFE00240CE0FF20FFF7A7FE02F0E5FB10F0200FFAD002F0F2FB18B10134A4B2632CF0D900240DE0FF20FFF796FE02F0D4FB10F0200FFAD002F0E1FBFE2802
:4016C00003D00134A4B2632CEFD900240CE0FF20FFF784FE02F0C2FB10F0200FFAD002F0CFFB28550134A4B2B4F5007FEFD3FF20FFF774FE02F0B2FB10F0200FFAD002F027
:40170000BFFBFF20FFF76AFE02F0A8FB10F0200FFAD002F0B5FB012003F0CAFDFF20FFF75DFE02F09BFB10F0200FFAD002F0A8FB38BD00BF10B5044C2146FFF787FF2046CF
:40174000FFF71CFF10BD00BF5CC2FF1FF8B504460E4602F0A9FB002003F0AAFD5820FFF73DFEC4F3C730FFF739FEC4F3C710FFF735FE600000F0FE00FFF730FE0020FFF732
:401780002DFEFF20FFF72AFE00273D461CE002F05FFB10F0020FFAD0FF20FFF71FFE0BE002F06EFB0446FF2806D020B1012003F07FFD2046F8BD012502F050FB10F0200F27
:4017C000EED155B10137BFB285F00103132F8CBF002303F00103002BD9D10020FFF7FEFD00240CE0305DFFF7F9FD01E002F048FB02F034FB10F0200FF8D10134A4B2B4F589
:40180000007FEFD3FF20FFF7E9FD02F027FB10F0200FFAD002F034FBFF20FFF7DFFD02F01DFB10F0200FFAD002F02AFB02F010FB10F0010FFAD002F037FB012003F038FDEF
:40184000FFF70EFE0020F8BD10B582B00849FFF77DFF58B10446074800F024F822460649684603F0A5FF684600F01CF802B010BD5CC4FF1FFC6100002462000010B50446CC
:401880000DE0002000F008FD4FF4FA7000F05CFC012000F001FDFA2000F056FC013C002CEFD110BD10B5044603F0B5FF81B2204601F0E8FA01F01AFB0028FBD010BD00BF29
:4018C00010B503F0C3FE12212420FEF7D9FD040212212520FEF7D4FD2043040212212620FEF7CEFD2043040212212720FEF7C8FD20430C4B1C6844401C6012212020FEF704
:40190000BFFD094B1870094A13785840107013212020FEF7B5FD064B1870064A13785840107010BD1CC2FF1F3CC2FF1F19C2FF1F3AC2FF1F18C2FF1F08B502F037FF00223B
:40194000014B1A7008BD00BF5CC6FF1F08B500F0D3FC024B1870FEF797FF08BD5CC6FF1F08B5034B187800F0C1FCFEF78DFF08BD5CC6FF1F10B500F0BFFC04461D4B1B7869
:40198000062B34D8DFE803F0040A10161C29220002F01AFF0122174B1A7028E002F01AFF0222144B1A7022E002F01AFF0322114B1A701CE002F01AFF04220E4B1A7016E03D
:4019C00002F01AFF06220B4B1A7010E080B202F019FF0522074B1A7009E002F037FF00EB042080B202F00EFF0022024B1A70FEF74BFF10BD5CC6FF1F08B51E4B1B78062B25
:401A000032D8DFE803F0040A10161C29220002F0FFFE0122174B1A7027E002F0FFFE0222144B1A7021E002F0FFFE0322114B1A701BE002F0FFFE04220E4B1A7015E002F071
:401A4000FFFE06220B4B1A700FE002F0FFFEC0B20522084B1A7008E002F0F8FEC0F307200022044B1A7000E0002000F03FFCFEF70BFF08BD5CC6FF1F08B503F09DFC0020D0
:401A800003F000FD03F0BCFD0023024A1370024A137008BD5FC6FF1F5EC6FF1F08B500F02BFC054B1870054B33F8100003F070FDFEF7EAFE08BD00BF5FC6FF1F2C620000B6
:401AC00008B5034B187800F011FCFEF7DDFE08BD5FC6FF1F08B5034B187800F007FCFEF7D3FE08BD5DC6FF1F08B500F005FC194B187010B903F0F4FB29E0012802D103F0DF
:401B00005BFC24E0022803D1002003F0E1FC1EE0032803D1042003F0DBFC18E0042803D1002003F0FBFC12E0052803D1012003F0F5FC0CE0062804D14FF4807003F028FD3D
:401B400005E0072803D14FF6FF7003F021FDFEF79BFE08BD5DC6FF1FFEE700BFF0B40022174611E050F82760F3B226F0FF0608E001EB420511F812406D78A5550132013B19
:401B8000DBB2002BF4D10137292FEBD9F0BC70470A4B1B78DBB203F00701094A11701B09013213702022074B1A70022203F683031A704422A3F20A231A707047CF01004906
:401BC0006E580040FD51004008B50A46002103F0E6FD08BD38B53C4B1D78EDB201213B4A118018223A490A700020023108805820023108700420023108801C2002310870AD
:401C00004A200231088002310A700621314A1170F3210A32117003221A708422A3F28F331A700522013B1A702B4C04E04FF4F07003F03EFD013C24B1284B1B7813F0200F45
:401C4000F4D0214B1D705222A3F593631A70244B1B78DBB2234A137040F21472224B1A8041F25122023B1A80002419250CE01F4B1B7803F0010343EA440404F003044FF46B
:401C8000F07003F015FD013D0DB1032CEFD115B90320FFF761FF164A4FF48073138007231370002313490B704820023108701370053213700222104B1A70104A137843F04C
:401CC0000F03137038BD00BF98460040804000408240004000430040A0860100084300400F010049A14600402242004025420040044000400640004001400040A2430040CB
:401D000008B503F041FD08BD38B572B6444A137843F00403137000240CE0424D630019194A0011462A44084691882858FFF74CFF0134E4B2062CF0D900240BE03948A200A2
:401D400011194B0003449A8E196BD86AFFF7D8FF0134E4B2012CF1D933494FF09040FFF7FDFE04213148FFF72FFF04213048FFF72BFF304A137843F00203137010321378A2
:401D800043F0020313702C4C237843F040032370A2F58632513A137843F0100313700A2226492748FFF7ACFF082226492648FFF7A7FF0A2225492648FFF7A2FF0822254999
:401DC0002548FFF79DFF082224492548FFF798FF0A2224492448FFF793FF082223492448FFF78EFF0A2223492348FFF789FF0A2222492348FFF784FF224A137843F0080310
:401E00001370214D61232B70FFF7E4FE01232B70FFF7BEFE0E2221461C48FFF771FF38BDE8460040046B0000A8000048007600400876004003500140A0430040540E004851
:401E400000510040600E0048C2510040680E0048F0510040740E0048125100407C0E004822510040840E004830510040900E004842510040980E004850510040A40E00487A
:401E8000605100402243004000480040B043004008B503F04DFC03680C2B00D1FEE7FEE708B5094B1A681044084BC31AB3F5007F02DC054B186005E003F03AFC0C23036017
:401EC0004FF0FF32104608BDCCC0FF1F50C7FF1F08B5104E104D16E029686B68AC68002204E051F8040B43F8040B0432A242F8D1E868002203E0002143F8041B043282423D
:401F0000F9D11035013E002EE6D103F017FCFEF7B9F8FEE701000000F06D000008B5114A114B1A60114A136843F40073136000230AE0032B03D80E4A52F8231000E00D497D
:401F40000D4A42F8231001332F2BF2D90B4B1A780B4B1A70084A0B4B1A60FFF7D5FE00F013F808BD0004FA050CED00E014ED00E000000000911E000000C0FF1FBC76004015
:401F8000C0C0FF1F08ED00E00B4A7F2313708021517007E0DA0002F1804202F5F042013BDBB21370002BF5D1DB0003F1804303F5F04300221A707047D0C0FF1F172815D8FC
:401FC00031B103010A495A5C42F020025A5405E0030107495A5C02F0DF025A540001044A835C43F00103835400207047012070471070004017280BD80001064BC25C02F051
:40200000FE02C254C25C02F0DF02C25400207047012070471070004017280BD80001064A835C03F0F103490001F00E011943815400207047012070471070004041F6FF7349
:40204000994201D14FF4005141F6FF739A4201D14FF40052172808D8C00000F1804000F5EC408180C280002070470120704700BF172805D8034B03EB0010417200207047DF
:40208000012070471070004017281BD810B4C00000F1804404F5EC44D201D2B201F07F01114321709DF804201201D2B203F00F03134363709DF8083003F00F03A3700020C4
:4020C000E07001E00120704710BC704710B503F0F7FA0A4B5B78182B0BD9084A1478013B5370E30003F1804303F5F0431B78137000E0FF2403F0E8FA204610BDD0C0FF1FEB
:4021000010F0800F0CD111F4704F0BD1C00000F1804000F5F04001808270C37000207047012070470120704710F0800F08D1C00000F1804000F5F0408180C28000207047B8
:402140000120704701BE704710B5044605E0084B186803F0ADFAA4F50044B4F5004FF6D8034B586800FB04F003F0A2FA10BD00BFD8C0FF1F08B5034B1B7A00FB03F003F0BE
:4021800097FA08BDD8C0FF1F70B504460E46074B1D681F2802D90020FFF7D4FF04F01F04103455F8240045F8246070BD08ED00E038B504460D46072902D90020FFF7C2FF73
:4021C0001F2C02D90020FFF7BDFF04F01F0000F1604000F564406D01EDB2057038BD00BF134B1B78DBB20360124A127843EA02230360114A127843EA024303600F4A12785B
:4022000043EA026303600E4B1B78DBB243600D4A127843EA022343600B4A127843EA024343600A4A127843EA02634360704700BF0301004904010049EC46004002010049E1
:402240000101004900010049050100490601004938B5054603F034FA074B1978074A92F842300B4303F0070423EA050382F8423003F02AFA204638BD90430040B4C1FF1F3C
:40228000014B1878704700BF66650040014B1870704700BF71640040044A137803F07F03C001C0B218431070704700BF10510040044A137803F0F703C00000F00800184316
:4022C0001070704730510040014B1870704700BF76640040014B1878704700BF76640040014B1878704700BF64650040014B1870704700BF7A650040014B1878704700BF00
:402300006A650040014B1870704700BF7E640040014B1870704700BF74640040014B1870704700BF7665004010B50222114B1A7081220E3B1A70082202331A700A221133BD
:402340001A70002401331C704FF400420A4B1A6007210F20FFF72CFF08490F20FFF714FF1022074B1A70074B1C70074B1C70074B1C7010BDD649004080E100E0DD23000085
:4023800060C6FF1F66C6FF1F6EC6FF1F64C6FF1F08B503F095F9064A137843F0040313701032137843F00403137003F08DF908BDA543004008B5074B1B7823B9FFF7B4FF08
:4023C0000122044B1A70FFF7E3FF4FF40042024B1A6008BDF7C1FF1F00E100E038B5A54B1C78A54B1B7813F0400F00F03A81E4B214F0010F00F01D819F4B1B78453B052B0B
:4024000000F21481DFE813F006008200120112010600DF0004F0DF0504F00A04082C42D1954B1B78DBB2452B35D1944B1B7813F0FF0F10D0924B1B681B78DBB2914A1370E0
:4024400004228C4B1A7001228F4B1A7046228A4B1A702C46EDE08D4B1B7813F0020F0DD08B4A137843F00A0313706022824B1A704FF40042874B1A602C46DAE0864A137898
:4024800043F0100313701022844B1A700422023B1A702C46CDE00022764B1A704A22764B1A702C46C5E00A2C2BD1794A137843F0A0031370754B1B7813F0020F14D06E4BA4
:4024C0001B7813F0080F01D0092300E00A23704A11780B4313706022674B1A704FF400426C4B1A602C46A4E06B4A137843F0100313701022694B1A700422023B1A702C46CF
:4025000097E00020FFF71EFE2C4692E014F0020F36D15D4B1A78D2B2584B1B78DBB29A4210D2594A1378DBB255490968CB5CDBB254490B7004214F4B197013780133DBB289
:40254000137076E0514B1B7813F0020F0CD0504A137843F00A0313706022474B1A704FF400424C4B1A6064E04B4A137843F0100313701022494B1A700422023B1A7058E0A5
:40258000424B1B7813F0020F0CD0414A137843F09A0313706022384B1A704FF400423D4B1A6046E03C4A137843F01003137010223A4B1A700422023B1A70354A137843F021
:4025C0009003137035E0364A1378DBB2354908682C490978C9B2C15413780133DBB213701278D2B2304B1B78DBB29A4203D21022204B1A701DE0254B1B7813F0020F0CD064
:40260000234A137843F00903137060221A4B1A704FF400421F4B1A600BE01F4A137843F0100313700022134B1A7002E00020FFF789FD14F0200F1CD00F4B1B7813F0080FB0
:4026400001D0012300E00223114A11780B431370114A137803F0EF0313701022064B1A7038BD054B1B7813F0100F02D11022024B1A7038BDD749004060C6FF1F65C6FF1F98
:4026800070C6FF1FD849004064C6FF1F6CC6FF1F66C6FF1F80E100E0D6490040D94900406EC6FF1F68C6FF1F6DC6FF1F002948D070B40C4626490978C9B2102906D12549F2
:4026C000097811F0080F11D1002112E020490978C9B260290CD14FF400451F490D601F4D297801F0F7012970002102E0012100E0022149BB4526164D2E700026184D2E70D4
:40270000184D2A70184A1460184A1370134C227802F0FD0222704200D2B21548027013F0010F06D012220B4B1A700422023B1A7002E00122074B1A704FF400420D4B1A60AC
:4027400002E0022108467047084670BC704700BF60C6FF1FD949004080E200E066C6FF1F64C6FF1F65C6FF1F70C6FF1F6CC6FF1FD849004000E100E01A4B1B78DBB2102B16
:4027800029D1194B1B7813F0080F26D14FF40042164B1A604000C0B229B140F001004922104B1A7002E045220E4B1A70104B1870012201331A700F4B1B7813F0010FFAD0F0
:4027C0000C4B1B7803F00A030A2B08D11022054B1A700320704702207047012070470020704700BF60C6FF1FD949004080E100E0D8490040D74900400A4B1B7813F0040F0E
:402800000ED01023074A13700421023A1170064A1370064B1B7813F0210FFAD00020704702207047D949004060C6FF1FD7490040114B1B7813F0040F1BD0104B187004226E
:40284000013B1A7046220E4B1A700E4B1B7813F0010FFAD00B4B1B7813F0020F04D16022074B1A70002070476022054B1A70032070470220704700BFD9490040D8490040E6
:4028800060C6FF1FD7490040114B1B7813F0040F1BD0104B1B78DBB2492B05D100220E4B1A704A220B4B1A700B4B1B7813F0010FFAD00A4B1B78DBB218B11021064A117068
:4028C00004E06021034A117000E0002318467047D949004060C6FF1FD7490040D84900404FF40042084B1A60084B1878C0B2084B1B7813F0400F01D040F004004FF40042BD
:40290000044B1A60704700BF80E100E066C6FF1F60C6FF1F00E100E04FF40043044A1360044A107800211170034A1360704700BF80E100E066C6FF1F00E100E0F8B502F0E8
:40294000BFFE0546404A137843F0010313701032137843F00103137001273C4B1F700226943B1E7002F5E2521B32137803F07F0313700020FFF7FEFB354C237803F0F90321
:402980002370344A137803F0DF03137023783B4323703846FFF7EEFB2820FFF7EBFB2E4B1A7802F07F021A701A7802F0BF021A702378334323703046FFF7DCFB237843F06A
:4029C000040323700023254A137001321370284602F07AFE07211720FFF7EAFB20491720FFF7D2FB07211820FFF7E2FB1D491820FFF7CAFB07211520FFF7DAFB1A491520B1
:402A0000FFF7C2FB07210320FFF7D2FB17490320FFF7BAFB07210420FFF7CAFB14490420FFF7B2FB07210520FFF7C2FB11490520FFF7AAFB07210C20FFF7BAFB0E490C20E0
:402A4000FFF7A2FBF8BD00BFA54300409D6000409443004012600040F8510040846000409D3400008532000099340000F9330000293400005D340000A534000008B5214B03
:402A800018700023204A1370204A1370204A1370204A1370204A1370204A1370204A1370204B4FF400021A604FF080721A604FF400121A6008221A6010221A6020221A6040
:402AC00011B1012906D00BE0174A137803F0FE0313700AE0144A137843F00103137004E0114A137843F00103137003220F4B1A708022203B1A70012002F0DAFD04220C4BBE
:402B00001A7008BD8DC6FF1F90C6FF1FACC6FF1FAFC6FF1FA4C6FF1FAEC6FF1FB1C6FF1F8CC6FF1F00E100E009600040286000401260004038B504460D46064B1B7823B9F1
:402B4000FFF7FCFE0122034B1A7029462046FFF795FF38BDF8C1FF1F00230A4A13700A4A13700A4A13700A4A13700A4A13700A4A13700A4A13700322094B1A708022203B3B
:402B80001A70704790C6FF1FACC6FF1FAFC6FF1FA4C6FF1FAEC6FF1FB1C6FF1F8CC6FF1F28600040014B1878704700BFAFC6FF1F064B1B7813F0FF0F05D0044B1878C0B256
:402BC00000221A7070470020704700BFACC6FF1F00EB40008300024A13445878704700BFB4C6FF1F431EDBB2072B0BD8064B00011A18185C00F00F00537843EA00200238D1
:402C000080B2704700207047FC5F0040431EDBB2072B3CD8F0B4074600EB4004A3001C4C2344DB889BB2C3F500739A4208D900EB400293002344DA8892B2C2F5007292B2A1
:402C400000EB4004A300124C2344DB7843EA1223104D04012E192B55D3B2737039B909E0CE5C3D010C4C665501339BB200E000239A42F5D8420002449300054A1344002211
:402C80005A705A79D2B20001044B1A54F0BC7047B4C6FF1FFC5F004078600040FE5F0040431EDBB2072B0BD8420002449300054A134400225A705A79D2B20001024B1A5427
:402CC000704700BFB4C6FF1FFE5F004070B5D9B1054614460E46C8B1082819D8FFF782FFA04203D22846FFF77DFF0446002305E02901094A525CF25401339BB2A342F7D3E6
:402D00002846FFF7CDFF04E0002402E0002400E00024204670BD00BF7860004010B4FF2400230EE0094AD25C02EB42029100084A11448A7AD2B2824201D11C46022301332C
:402D4000DBB2012BEED9204610BC70477CC6FF1FB4C6FF1F10B5204C2079FFF7DFFF237813F0800F0ED06378DBB2212B2FD11B4B07221A80C0EBC000194A1044586000F0A2
:402D8000EFFA10BD144B5B78DBB2202B02D0222B10D01EE0114A07231380C0EBC00310490B4453600F4A135C43F00103135400F0FFFA10BD084B9B780B4A22F81030094AF1
:402DC000135C43F00203135400F088F910BD002010BD002010BD00BF0060004098C6FF1FE8C0FF1F74C6FF1F88C6FF1F10B500241F4B1C701F4B1C705C700AE01E4B185DDF
:402E0000C0B2431EDBB2072B01D8FFF749FF0134E4B2012CF2D9194B1B7813F0FF0F1AD0154B1B7813F0FF0F17D0154B1B7813F0FF0F14D0114B1B78DBB2082B11D80E4B70
:402E40001B78DBB2082B0ED80D4B1B78DBB2082B0BD8002010BD012010BD012010BD012010BD012010BD012010BD012010BD00BFF9C1FF1F74C6FF1F80C6FF1F78C6FF1F5B
:402E80007CC6FF1F70B506460D460F4B1B780F4AD45CE4B204EB440293000D4A13441B899BB28B4209D204EB44029300084A13441D89ADB20020FFF745F92A4631462046BC
:402EC000FFF7A4FE70BD00BFF9C1FF1F78C6FF1FB4C6FF1F08B5034B1B78034AD05CFFF777FE08BDF9C1FF1F80C6FF1F08B5034B1B78034AD05CFFF76BFE08BDF9C1FF1FEC
:402F000078C6FF1F08B5084B1B78084AD35CDBB203EB43018A0006490A44128992B201461846FFF7D3FE08BDF9C1FF1F80C6FF1FB4C6FF1FC37803F0030390F90200002860
:402F40000FDA032B06D002F001030B48C15442F001020EE0C2F380030848C15442F0040207E0032B05D0C2F340030548C15442F002021046704700BF78C6FF1F7CC6FF1F0C
:402F800080C6FF1F1D4B19781D4A13889BB20B449BB2138000220FE01A494B681B78DBB2194883544B6801334B600132D2B20B889BB2013B9BB20B80124B1B889BB20BB171
:402FC000072AE9D90D4B1B78DBB2082B00D05AB10E490B7883F080030B700F210C4B197002210C4B197004E0022309490B7009490B70094B1A70014B1A7070478CC6FF1F7C
:403000008EC6FF1F98C6FF1F0060004022C7FF1FADC6FF1F90C6FF1FB0C6FF1F0222074B1A708022064B1A700F22064B1A700023054A1370054A13700120704790C6FF1FC6
:4030400022C7FF1FADC6FF1F8CC6FF1FB0C6FF1F08B5FFF797FF08BD10B4194B197801F00F010239C9B2174A13889BB20B449BB21380002011E0144A5468144B1B5CDBB230
:4030800023705368013353600130C0B20139C9B213889BB2013B9BB213800B4B1B889BB20BB10029E7D10A4B19700A4A137883F0800313700B22084B1A7010BC704700BF1A
:4030C000296000408EC6FF1F98C6FF1F00600040B0C6FF1F22C7FF1FADC6FF1F0623064A1370064A13708022054B1A700022054B1A700120704700BF90C6FF1FADC6FF1F6A
:4031000022C7FF1FB0C6FF1F064B9B6843B1054B9A6810709A6804490988518000229A60704700BF98C6FF1F8EC6FF1F08B5134B1A78D2B21A701B78DBB213F0800F02D06A
:403140000F4A137008BD0220FFF7DEFF0D4B1B7803F06003202B05D0402B06D043B900F093FC06E002F0B4FA03E000F037FE00E0002010B90322024B1A7008BD28600040BC
:40318000ADC6FF1F0060004008B5094B1978094A13889BB20B449BB213800022064B1A700120FFF7B1FF0322044B1A7008BD00BF8CC6FF1F8EC6FF1F90C6FF1FADC6FF1FA5
:4031C00008B50B4B1B78DBB2042B06D0062B07D0022B0BD1FFF7D8FF08BDFFF73DFF08BD0320FFF791FF0322024B1A7008BD00BF90C6FF1FADC6FF1F08B50022044B1A7017
:403200000120FFF781FF0322024B1A7008BD00BF90C6FF1FADC6FF1F08B50B4B1B7813F0FF0F07D0084A137843F0800307490B70002313700022064B1A700120FFF764FF69
:403240000322044B1A7008BDAEC6FF1F0860004090C6FF1FADC6FF1F08B5094B1B78DBB2042B06D0062B07D0022B07D1FFF7F0FE08BDFFF7C1FF08BDFFF7CEFF08BD00BF9E
:4032800090C6FF1F08B5284B1B78DBB213F0100F48D013F0800F0CD003F00F03012B16D1FFF744FF214B1B7813F0800F11D1012312E013F0400F03D0FFF7CEFF01230BE0D1
:4032C00013F0200F07D0FFF77BFF012304E0002302E0002300E0002323B3134B1B7813F0800F1FD1124B1B78124A12781343124A13701278D2B2934214D10C4B1B78DBB28F
:40330000094A127812F0800F07D1084B1B78DBB2054A1370137803F00F03044A1278D2B29342EAD108BD00BF28600040ADC6FF1F22C7FF1FB0C6FF1F296000400022064BD2
:403340001A80064B9B682BB1044A916800230B7092685380704700BF8EC6FF1F98C6FF1F08B50F4B1B889BB213B9FFF757FE15E002220C4B1A7000220B4B1A70FFF7DEFF80
:403380000A4AD179937943EA0123054A128892B2934201D2024A1380FFF7F4FD012008BD98C6FF1F90C6FF1F22C7FF1F0060004008B504220B4B1A7080220B4B1A70FFF7BF
:4033C000BDFF0A4AD179937943EA0123084A128892B2934201D2064A13800B22054B1A70012008BD90C6FF1F22C7FF1F0060004098C6FF1FADC6FF1F0122094B1A700F3BFB
:403400009B7C084B1B7B03F00303934204D0054AD37B83F08003D3730122024B5A7370470B600040B4C6FF1F02220A4B1A700F3B93F82230084B1B7E03F00303012B04D0CB
:40344000054AD37E83F08003D3760122024B5A76704700BF0B600040B4C6FF1F04220C4B1A700F3B93F832300A4B93F8243003F00303012B06D0074A92F8273083F08003DF
:4034800082F827300122034B83F82520704700BF0B600040B4C6FF1F704700BF08B5FFF75BFB08BD08B500F0A5FC08BD70B588B0054603AC174E0FCE0FC43368237035B378
:4034C00022232B7003236B7001A8FEF789FE002402231AE008AA224412F81C2C08A901EB121111F8141CE954581C00212954981C02F00F0208AE324412F8142C2A54DA1C30
:40350000A9540134E4B20433DBB2212BE2D908B070BD00BF446B000010B401233EE019461A010C242148845403EB4300820020480244527912F0FF0F13D003EB43008200E2
:403540001B480244127912F0800F04D01801194A024494700AE01801164A02440820907004E01801134A0244802090704800084482000F480244D488E4B208010B49014494
:403580008C71D088C0F30720C871D088C0B20871D288C2F307224A710133DBB2082BBED9FF22054B1A7010BC704700BF70600040B4C6FF1FFC5F00400A600040074B1A78D4
:4035C000074B03EBC2035B681A7C824204D9C0001030184440687047002070478DC6FF1F386C0000F8B5404B1B7813F0FF0F79D03D4B18780138C0B2FFF7E0FF047AC268C0
:403600003A4B1878C0B200236AE01178884264D13749095CC9B25578A9425ED1917801F07F01D67806F00306DFF8C8E04D000D44AF000EEB07054FF0000C85F803C092F81A
:4036400002C085F804C092F803C00EF807C097882F8192F90250002D0DDA012E01D1072700E00D274E000E44B500224E35446F7101266E700CE0012E01D1052700E00927DE
:403680004E000E44B5001B4E35446F7100266E70DFF868E00F010EEB07060125B57001FA05F529448D00134929440D89C5F307250EF807500D89EDB27570CE88F6B20E4D6D
:4036C0003D44AE71CE88C6F30726EE71CE88F6B22E71C988C1F30721697108320133DBB2A34292D3F8BD00BFAFC6FF1FA4C6FF1F20C7FF1FB4C6FF1F70600040FC5F0040CF
:40370000034B1A78034B03EBC2035868704700BF8DC6FF1F386C000008B5084B18780138C0B2FFF74BFF30B142681279023200EBC203586808BD002008BD00BFAFC6FF1F1C
:403740002DE9F047002310E0724D5900CA189600AC190022AA55A270E2702281A272627034462C4462710133DBB2082BECD940B90AE000226849CA546849CA540133DBB2AC
:4037800000E00023012BF4D9654B1B7813F0FF0F00F0BD80624B18780138C0B2FFF70EFF80464368DB7913F0400F05D05D4A137843F00103137004E05A4A137803F0FE03C2
:4037C000137098F808704FF0000A01266FE0D8F80C50002467E0AB7803F07F039E425FD1314606EB460083004A4803441B899BB2A888834206D206EB460E4FEA8E03454ADA
:40380000134418812B784448C35CDBB26878834246D195F802C0DFF8FCE04B000B4498000EEB000383F804C0EB780EF80030EB7803F0030395F90200002813DA012B02D1F9
:403840004FF0070901E04FF00D09DFF8C8E04B0003EB010C4FEA8C00704480F805900121417012E0012B02D14FF0050901E04FF00909DFF8A0E04B0003EB010C4FEA8C00D3
:40388000704480F8059000214170AB790A2B01D0022B05D1524631462846FFF74BFB824608350134E4B2BC4295D30136F6B2082E8DD9D8F80C0000220CE0837803F07F0384
:4038C00010F8084B03EB43039900124B19448C720132D2B2BA42F0D3FFF71EFF124B1860002301210FE00B4D4A00501884002C44E380228992B213449BB203F00102134415
:403900009BB20131C9B20829EDD9FFF705FEBDE8F08700BFB4C6FF1F20C7FF1F94C6FF1FAFC6FF1FB1C6FF1FA8C6FF1F08B5154B1B7903F07F035A1ED2B2072A20D8590055
:4039400019448A0010490A44917841F0010191700021D170517841F002015170127912F0800F05D01B01094A1A448D23937004E01B01064A1A4489239370FFF7AFFB08BD29
:40398000002008BD00600040B4C6FF1FFC5F0040274B1B7903F07F035A1ED2B2072A44D810B5590019448A0022490A44917801F0FE0191700021D1701F4C1801215C01F07F
:4039C0007F012154517801F0FD015170127912F0800F13D003EB43018A0016490A445278D2B2012A04D1224602440C23937019E01B01114A1A440D23937013E003EB43019D
:403A00008A000C490A445278D2B2012A05D11B01094A1A440823937004E01B01064A1A4409239370FFF75AFB10BD0020704700BF00600040B4C6FF1FFC5F004010B50E4B93
:403A40001C79E4B20D4B18780138C0B2FFF7B6FD43681B799C4201D9022C0AD8084A135DDBB208490B55044B9B78DBB21355012010BD002010BD00BF00600040AFC6FF1FB4
:403A800020C7FF1F94C6FF1F10B59C4B1B78DBB200219B4A118013F0800F00F0AD80974A5278D2B20A2A00F27481DFE812F06900720172017201720172010B0072019200AC
:403AC00072019A008D4BDB78DBB2012B09D1FFF717FE42688A4B5A6012221A80FFF740FC10BD864BDB78DBB2022B13D1834B9878FFF764FD002800F04E814268804B5A60DD
:403B00005A68D1785A68927842EA01221A80FFF727FC10BD794BDB78DBB2032B05D02CE00A7811440133DBB201E000237549734A9278D2B2934203D20A7812F0FF0FEFD18B
:403B40006E4B9B7813F0FF0F0BD06C4B9B78DBB26D4A127C934204D16C4C2046FFF7A6FC21460B7813F0FF0F00F017810B78644A13805160FFF7F4FB10BD01F0A9FD10BD83
:403B800013F0030317D0022B40F009815C490B805A4B1B7903F07F0303EB43039A005C4B1A449278D2B25B4B1A7000225A704B60FFF7D6FB10BD524902230B80564B1A7816
:403BC000D2B2544B1A7000225A704B60FFF7C8FB10BD4B4B01221A80504A5A60FFF7C0FB10BD474A01231380444B1B794C490B445360FFF7B5FB10BD404A5278013A0A2A9E
:403C000000F2CF80DFE812F04C00CD009800CD000B00CD00CD00CD001300CD003000374B9B78DBB23F4A1370FFF758FA10BD334B9B7803F0FF041BB1601EC0B2FFF7BEFC44
:403C400004B110B9002C40F0AE80344B1B78DBB29C4206D0314B1C700120334B1870FFF76FFDFFF73BFA10BDFFF7E8FE002800F09C80224A1379DBB21279D2B22B490A70CE
:403C80002B4AD25CD2B22649CB5CDBB29A4204D00122254B1A70FFF7A5FCFFF71FFA10BD03F00303012B17D04BB1022B7FD1134B9B7813F0FF0F7CD1FFF76AFE10BD0F4BA1
:403CC0009B78DBB2012B76D1134A137803F0FD031370FFF703FA10BD084B1B79DBB2012B6BD8064B98781B79DBB21249CA5C22EA0002CA54FFF7F2F910BD00BF0060004074
:403D000098C6FF1FA06C0000846D000028C7FF1FB4C6FF1FFCC1FF1FB1C6FF1FAFC6FF1F20C7FF1FAEC6FF1FACC6FF1FA4C6FF1F94C6FF1F24C7FF1F03F00303012B17D026
:403D40004BB1022B3BD1224B9B7813F0FF0F38D1FFF7ECFD10BD1E4B9B78DBB2012B32D11C4A137843F002031370FFF7B7F910BD174B1B79DBB2012B27D8154B98781B79BF
:403D8000DBB21549CA5C22EA0002CA54FFF7A6F910BD002010BD002010BD002010BD002010BD002010BD002010BD002010BD002010BD002010BD002010BD002010BD002015
:403DC00010BD002010BD002010BD002010BD00BF00600040B1C6FF1F24C7FF1F044B1B7813F0800F01D0024B5B780020704700BF00600040024B1878C0F38010704700BF01
:403E00008F450040044A137803F0F10300F00E0018431070704700BF6350004008B501F04FFC0A4A137843F020031370063A137843F010031370A2F58072137843F01003CD
:403E4000137001F041FC00F071F808BD9B650040014B1878704700BF65650040014B1878704700BF65640040034B1B7813F0040FFAD0024B1870704765650040456400403C
:403E8000014B1878704700BF5564004001E0044B1B78044B1B7813F0200FF8D1704700BF556400406564004008B501E00A4B1B780A4B1B7813F0200FF8D101F001FC084BF5
:403EC0001A7842F001021A701A7802F0FE021A7001F0FAFB08BD00BF55640040656400409564004008B50F22074B1A70FFF7DCFFFFF7AEFFFFF7B2FF0023044A1370A2F54E
:403F00008072137008BD00BF8B6500408565004008B5054B1B7823B9FFF7E4FF0122024B1A70FFF77BFF08BDFEC1FF1F054A137843F0080313701032137843F008031370A4
:403F4000704700BFA243004030B4022901D8013A92B20E4CA4FB0243C3F34F15C5EB9205C3F3CF142B1913440139094A525C02441A440848A2FB0001501A01EB5000800871
:403F8000C0EBC000101AC0B230BC70471F85EB51586B00002549922408B5264B19795A8A92B20120FFF7D0FF0130C0B201231A4608E00133DBB20130C0B2072802D9013212
:403FC000D2B201201B494978C9B28842F1D103E00733DBB20132D2B216498978C9B28A42F6D1144AD370117E528A92B20120FFF7ABFF0130C0B201231A4608E00133DBB240
:404000000130C0B2072802D90132D2B201200949497DC9B28842F1D103E00733DBB20132D2B20449897DC9B28A42F6D1014AD37508BD00BF04C1FF1F994A0023D381117B3A
:40404000D3899BB20B449BB2D381538A9BB2954AA2FB0312D2094FF4C87101FB12339BB283B18F4B5B8A13F0030F12D18C4B5B8A9BB28C4AA2FB03125209642101FB12336A
:404080009BB233B1884A137843F002031370002310E0854A137803F0FD031370F7E78048C28992B281491944097B0A4492B2C2810133DBB27A4A127C013A9342EFD310B575
:4040C000794B1B7813F0020F0AD0754B1B7CDBB2022B05D9724AD3899BB201339BB2D3816F4C207B217C628A92B2FFF72DFF0130C0B2E072E37A13F0FF0F03D0E37ADBB2ED
:40410000E37204E0664AD37A0733DBB2D372664B5B7813F0020F01D0FFF73EFF604B1A7CD2B21B79DBB29A4205D95F4A137843F00103137026E05A4B1A7CD2B21B79DBB22D
:404140009A421FD1564B1A7BD2B2DB78DBB29A4205D9554A137843F00103137012E0504B1A7BD2B2DB78DBB29A420BD14C4B9A7AD2B21B78DBB29A4204D94B4A137843F0A2
:4041800001031370464B1A7CD2B21B7EDBB29A4205D9454A137803F0FE03137026E0404B1A7CD2B21B7EDBB29A421FD13C4B1A7BD2B2DB7DDBB29A4205D93B4A137803F07D
:4041C000FE03137012E0364B1A7BD2B2DB7DDBB29A420BD1324B9A7AD2B21B7DDBB29A4204D9314A137803F0FE0313702E4B00229A70DA702A4B1A7ED2B21B7CDBB29A4222
:4042000005D1294AD37843F00403D37004E0264AD37803F0FB03D370214B1A79D2B21B7CDBB29A4205D1204A937843F00403937004E01D4A937803F0FB039370184BDA7D8B
:40424000D2B21B7BDBB29A4205D1174AD37843F00203D37004E0144AD37803F0FD03D3700F4BDA78D2B21B7BDBB29A4205D10E4A937843F00203937004E00B4A937803F021
:40428000FD039370064B1A7DD2B29B7ADBB29A420ED1054AD37843F00103D3700DE000BF04C1FF1F1F85EB51FFC1FF1F586B0000644AD37803F0FE03D370634B1A78D2B21A
:4042C0009B7ADBB29A4205D15E4A937843F00103937004E05B4A937803F0FE039370594B5B7813F0010F00F05081564B1B7813F0010F00F0B180534B9B7803F00703072B5F
:4043000040F043814F4B1A79D2B2504BA3FB02135B09C3EB03139900531ADBB24A494A7AD31ADBB24B724B7ADBB23B2B07D94B7A3C33DBB24B728B7A013BDBB28B72414BD4
:404340001B79DBB2414AA2FB03323F498B7AA3EB5213DBB28B728B7ADBB2172B69D98A7A1832D2B28A720A7B013AD2B20A73CA8992B2013A92B2CA81CA7A013AD2B2CA7270
:40438000CB7A13F0FF0F01D10722CA722E4B1B7B13F0FF0F4DD12C4A137C013BDBB21374137C13F0FF0F3DD10C231374137C013B27490B441B7B1373538A9BB2013B9BB220
:4043C0005382538A9BB2234AA2FB0312D2094FF4C87101FB12339BB283B11B4B5B8A13F0030F15D1184B5B8A9BB21A4AA2FB03125209642101FB12339BB24BB1114A137845
:4044000043F0020313704FF4B7720F4BDA8110E00C4A137803F0FD03137040F26D120A4BDA8106E0084A137C013B09490B441B7B1373044B1A7802F0FE021A700022DA706F
:40444000A3E000BFFFC1FF1F04C1FF1F89888888586B00001F85EB51974B9B7803F00703072B40F09280944B1B79DBB2934AA2FB03125209C2EB021291005B1ADBB2904AF7
:40448000517A0B44DBB25372537ADBB23B2B07D9537A3C3BDBB25372937A0133DBB29372854B1B79DBB2854AA2FB033284498B7A03EB5213DBB28B728B7ADBB2172B5DD93C
:4044C0008A7A183AD2B28A720A7B0132D2B20A73CA8992B2013292B2CA81CA7A0132D2B2CA72CB7ADBB2072B01D90122CA72744B1A7BD2B21B7C013B72490B441B7B9A4239
:404500003CD96F4A137C0133DBB2137401231373137CDBB20C2B31D901231374538A9BB201339BB25382538A9BB2674AA2FB0312D2094FF4C87101FB12339BB283B1604B53
:404540005B8A13F0030F11D15D4B5B8A9BB25E4AA2FB03125209642101FB12339BB22BB1554A137843F00203137004E0524A137803F0FD0313700122514BDA814E4B1A7836
:4045800042F001021A7000229A704D4B9B7ADBB20B2B05D8484A137803F0FB03137004E0454A137843F004031370434B5B7913F0010F11D0424B1A7FD2B21B7ADBB29A4279
:4045C00005D13D4A937943F00103937104E03A4A937903F0FE039371374B5B7913F0020F11D0374B5A7FD2B25B7ADBB29A4205D1314A937943F00203937104E02E4A937942
:4046000003F0FD0393712C4B5B7913F0040F11D02B4B9A7FD2B29B7ADBB29A4205D1264A937943F00403937104E0234A937903F0FB039371204B5B7913F0080F11D0204B29
:40464000DA7FD2B2DB7ADBB29A4205D11A4A937943F00803937104E0174A937903F0F7039371154B5B7913F0200F11D0144B5A8C92B2DB899BB29A4205D10F4A937943F00A
:404680002003937104E00C4A937903F0DF039371094B5B7913F0100F1DD0094B93F82020D2B21B7BDBB29A4210D1034A937943F0100393710FE000BFFFC1FF1F89888888AA
:4046C00004C1FF1F586B00001F85EB51224A937903F0EF039371204B5B7913F0400F12D01E4B93F82420D2B21B7CDBB29A4205D1194A937943F04003937104E0164A937995
:4047000003F0BF039371144B5B7913F0800F11D0124BDA8C92B25B8A9BB29A4205D10E4A937943F08003937104E00B4A937903F07F039371084B5B7903F0FF025BB1064BDB
:404740009B7932EA030306D1034B1A7842F008021A7000229A7110BDFFC1FF1F04C1FF1F08B5FFF769FC0422054B1A6005490220FDF70AFD07210220FDF71AFD08BD00BF7F
:4047800080E100E05948000008B500F099FF054A137843F03003137000F096FF0422024B1A6008BD8243004000E100E008B5054BDB7923B9FFF7D4FF0122024BDA71FFF75B
:4047C000E3FF08BDFFC1FF1F014B1872704700BF04C1FF1F014B5872704700BF04C1FF1F014B9872704700BF04C1FF1F014B1873704700BF04C1FF1F014B1874704700BF69
:4048000004C1FF1F014B5882704700BF04C1FF1F014B187A704700BF04C1FF1F014B587A704700BF04C1FF1F014B987A704700BF04C1FF1F014B187B704700BF04C1FF1F79
:40484000014B187C704700BF04C1FF1F014B588A80B2704704C1FF1F08B50420FDF7F8FC9C4A13780133DBB213701378DBB23B2B40F2E58453780133DBB253700023137079
:404880005378DBB23B2B40F2AE8493780133DBB29370002353709378DBB2172B40F2A881134612790132D2B21A7100229A70DA8892B2013292B2DA80DA780132D2B2DA70D0
:4048C000DB78DBB2072B02D90122824BDA70824B1B7813F0020F0ED07E4B1B7ADBB2022B09D17C4B1A79D2B21B7A013B7B49CB5C01339A4222D8784B1B7813F0020F0DD062
:40490000744B1B7ADBB2022B08D0724A1379DBB2127A013A71498A5C93420FD86E4B1B7813F0020F40F0C3806A4A1379DBB2127A013A6A498A5C934240F2B980654A137A1D
:404940000133DBB2137201231371137ADBB20C2B5BD953899BB201339BB2538101231372D38053899BB25E4AA2FB0312D2094FF4C87101FB12339BB283B1564B5B8913F026
:40498000030F11D1534B5B899BB2554AA2FB03125209642101FB12339BB22BB14E4A137843F00203137004E04B4A137803F0FD0313704C4B1B7813F0800F12D04A4B5A892B
:4049C00092B2444B5B899BB29A4205D1474A137843F08003137004E0444A137803F07F031370404B1B7803F0FF0263B13F4B1B7832EA030307D1384A137843F008031370AC
:404A000000223A4B1A703A4B1B78364B1B7813F0400F12D0344B1A7AD2B22E4B1B7ADBB29A4205D1314A137843F04003137004E02E4A137803F0BF0313702E4B1A79D2B253
:404A4000244B1B7ADBB29A4205D12B4A137843F00403137004E0284A137803F0FB031370264B1A79D2B21B4B1B7ADBB29A4205D1234A137843F00403137004E0204A137891
:404A800003F0FB031370174B1B7803F0FF0263B1164B1B7832EA030307D10F4A137843F0080313700022114B1A70114B1B780D4B1B7813F0080F2AD00B4BDA78D2B2054B80
:404AC000DB78DBB29A421DD1084A137843F0080313701CE00CC1FF1FFFC1FF1F646B00001F85EB5104C2FF1F20C1FF1F05C2FF1F07C2FF1F18C1FF1F02C2FF1F04C1FF1F8F
:404B000001C2FF1F7D4A137803F0F70313707C4B1B7813F0200F12D07A4BDA8892B27A4BDB889BB29A4205D1744A137843F02003137004E0714A137803F0DF031370704B73
:404B40001B7813F0100F12D06E4B1A79D2B26E4B1B79DBB29A4205D1684A137843F01003137004E0654A137803F0EF031370674BDA78D2B2644B1B79DBB29A4205D1644AFE
:404B8000137843F00203137004E0614A137803F0FD0313705F4BDA78D2B25B4B1B79DBB29A4205D15C4A137843F00203137004E0594A137803F0FD031370514B1B7803F090
:404BC000FF0263B14D4B1B7832EA030307D1534A137843F0080313700022484B1A70504B1B78494BDB78DBB2012B01D14C4B1B78454B9B78DBB20B2B05D8484A137803F036
:404C0000FB03137004E0454A137843F0040313703E4B1A78D2B23C4B9B78DBB29A4205D13B4A137843F00103137004E0384A137803F0FE031370374B1A78D2B2324B9B7866
:404C4000DBB29A4205D1344A137843F00103137004E0314A137803F0FE031370314B1B7813F0010F00F093822C4B1B7813F0010F00F0E380264B1B7803F00703072B40F0D7
:404C8000E781294B1A78D2B2284BA3FB02135B09C3EB03139900521AD2B21B494B789A1AD2B24A704B78DBB23B2B07D94B783C33DBB24B708B78013BDBB28B701A4B1B7843
:404CC000DBB21A4AA2FB03320F498B78A3EB5213DBB28B708B78DBB2172B40F2A5808B781833DBB28B708B78DBB20B2B20D80B4A137803F0FB0313701FE000BF05C2FF1F67
:404D000004C2FF1F20C1FF1F0CC1FF1F18C1FF1F02C2FF1F04C1FF1F01C2FF1FFFC1FF1F07C2FF1F00C2FF1F03C2FF1F89888888634A137843F004031370624B1A79013AEF
:404D4000D2B21A71DA8892B2013A92B2DA80DA78013AD2B2DA70DB7813F0FF0F02D10722584BDA70574B1B7913F0FF0F5CD1554A137A013BDBB21372137A13F0FF0F3AD166
:404D80000C231372137A013B4F49CB5C137153899BB2013B9BB2538153899BB24B4AA2FB0312D2094FF4C87101FB12339BB273B1444B5B8913F0030F13D1424B5B899BB20A
:404DC0006421B3FBF1F201FB12339BB24BB13C4A137843F0020313704FF4B772394BDA8022E0374A137803F0FD03137040F26D12344BDA8018E0324B1B7813F0020F0DD0F6
:404E0000304B1B7ADBB2022B08D12E4A137A013B2D49CB5C0133DBB2137105E0294A137A013B2949CB5C1371254A137803F0FE0313700022264B1A700AE1264B1B7803F0FE
:404E40000703072B40F00481234B1B78DBB2234AA2FB03125209C2EB021291005B1ADBB2184A51780B44DBB253705378DBB23B2B07D953783C3BDBB2537093780133DBB21F
:404E80009370154B1B78DBB2144AA2FB03320D498B7803EB5213DBB28B708B78DBB2172B40F2A8808B78183BDBB28B708B78DBB20B2B15D8024A137803F0FB03137014E00F
:404EC000FFC1FF1F0CC1FF1F646B00001F85EB5102C2FF1F01C2FF1F03C2FF1F89888888954A137843F004031370944B1A790132D2B21A71DA8892B2013292B2DA80DA78CF
:404F00000132D2B2DA70DB78DBB2072B02D901228A4BDA70884B1B7813F0020F0ED0874B1B7ADBB2022B09D1844B1A79D2B21B7A013B8349CB5C01339A4220D87E4B1B78E0
:404F400013F0020F0DD07D4B1B7ADBB2022B08D07A4A1379DBB2127A013A79498A5C93420DD8754B1B7813F0020F43D1734A1379DBB2127A013A72498A5C93423AD96F4AF1
:404F8000137A0133DBB2137201231371137ADBB20C2B2FD90123137253899BB201339BB2538153899BB2674AA2FB0312D2094FF4C87101FB12339BB273B1604B5B8913F0CF
:404FC000030F0FD15D4B5B899BB26421B3FBF1F201FB12339BB22BB1574A137843F00203137004E0544A137803F0FD0313700122524BDA80504A137843F0010313700022E1
:40500000514B1A70514B1A79D2B24C4B1B7ADBB29A4205D14E4A137843F00403137004E04B4A137803F0FB031370484BDA78D2B2424B1B79DBB29A4205D1454A137843F0BE
:405040000203137004E0424A137803F0FD031370404B1B7813F0080F12D03F4BDA78D2B2364BDB78DBB29A4205D13C4A137843F00803137004E0394A137803F0F703137076
:40508000344B1B7813F0200F12D0334BDA8892B22A4BDB889BB29A4205D1304A137843F02003137004E02D4A137803F0DF031370284B1B7813F0100F12D0274B1A79D2B220
:4050C0001E4B1B79DBB29A4205D1244A137843F01003137004E0214A137803F0EF0313701C4B1B7813F0400F12D01B4B1A7AD2B2124B1B7ADBB29A4205D1184A137843F073
:405100004003137004E0154A137803F0BF031370104B1B7813F0800F27D00F4B5A8992B2064B5B899BB29A421AD10C4A137843F08003137019E000BFFFC1FF1F0CC1FF1FC7
:40514000646B00001F85EB5101C2FF1F18C1FF1F02C2FF1F04C2FF1F20C1FF1F05C2FF1F4D4A137803F07F0313704C4B1B7803F0FF0263B1484B1B7832EA030307D1484A00
:40518000137843F0080313700022434B1A70434B1B7813F0040F12D0424B9A78D2B2424B9B78DBB29A4205D13B4A137843F00403137004E0384A137803F0FB031370374B9A
:4051C0001B7803F0FF0263B1334B1B7832EA030307D1334A137843F00803137000222E4B1A70324B1B782D4B1B7813F0020F12D02C4B5A78D2B22C4B5B78DBB29A4205D1B4
:40520000254A137843F00203137004E0224A137803F0FD031370214B1B7803F0FF0263B11D4B1B7832EA030307D11D4A137843F0080313700022184B1A701C4B1B78174B4E
:405240001B7813F0010F12D0164B1A78D2B2164B1B78DBB29A4205D10F4A137843F00103137004E00C4A137803F0FE0313700B4B1B7803F0FF0263B1074B1B7832EA03032A
:4052800007D1074A137843F0080313700022024B1A70064B1B7808BD05C2FF1F04C2FF1FFFC1FF1F20C1FF1F0CC1FF1F07C2FF1F014B1870704700BF7A64004010B500F042
:4052C000C5F8064C01212078FCF778FE01216078FCF774FE002000F0E3F810BD08C2FF1F10B5054C2078FCF785FE6078FCF782FE00F0BAF810BD00BF08C2FF1F70B5054688
:405300000E464FF48043020C0121084600F062F8094C2070A078012302463146FCF7F0FE4FF4B742A9B2A078FCF7FEFEA1782078FCF79EFE70BD00BF08C2FF1F70B5054668
:405340000E464FF48043020C0121084600F060F8094C6070E078012302463146FCF7D0FE4FF4B742A9B2E078FCF7DEFEE1786078FCF77EFE70BD00BF08C2FF1F10B500F005
:40538000B7F8022000F07EF8002000F0A1F8FCF79DFE074CA070FCF799FEE070054C64212046FFF7ABFF64216018FFF7C7FF10BD08C2FF1F706B000008B5054B1B7923B9A0
:4053C000FFF7DCFF0122024B1A71FFF777FF08BD08C2FF1FF0B583B016461F460B4D00242C700194009423460A4601462046FCF74BFE3A4631462878FCF720FE02212878E1
:40540000FCF70AFE287803B0F0BD00BF2CC1FF1FF0B583B016461F460B4C012525700023019300930A4601462846FCF72DFE3A4631462078FCF702FE02212078FCF7ECFD76
:40544000207803B0F0BD00BF2DC1FF1F054A137843F0010313701032137843F001031370704700BFA8430040054A137803F0FE0313701032137803F0FE031370704700BFA2
:40548000A8430040054B1A7802F0FD021A701A7800F0020010431870704700BF20580040014B1870704700BF805B0040064B1B78C3F3810303F19243063393F82031DBB2E9
:4054C000024A1370704700BF205800400846004008B5064B1A7802F0F3021A701A7800F00C0010431870FFF7E1FF08BD2058004008B50020074B187001331870064A137806
:4055000043F008031370FFF7E3FF0220FFF7BAFF08BD00BF20580040875A0040014B1870704700BF74650040084A137843F0010313701032137843F00103137002F64D32AC
:40554000137843F001031370704700BFA3430040014B1870704700BF034F004010B50446094B1B7813F0010F02D00020FCF7EAFD054B1A7842F001021A70044A14801A7884
:4055800002F0FE021A7010BDA3430040064F0040014B1880704700BF044F004008B5164A137803F0010313700232137803F0FC031370013A137843F0010313700F4B1A7838
:4055C00002F0CF021A701A7842F030021A701A7802F0F0021A701A7842F00F021A704FF6FF70FFF7D5FF4FF6FF70FFF7B7FF0020FFF7AEFF08BD00BF004F00400B4F004031
:4056000008B5054B1B7823B9FFF7C8FF0122024B1A70FFF789FF08BD0DC2FF1F08B5FCF74FF908BD014B1B681864704708ED00E04001C0B2014B1870704700BF00E400E0B2
:405640000122014B1A60704700E100E00122014B1A60704780E100E008B5FFF7F7FF0448FFF7E0FF0720FFF7E3FFFFF7E9FF08BD1D560000014B1870704700BF75650040A5
:40568000014B1870704700BF72640040014B1870704700BF7F640040014B1870704700BF73640040014B1870704700BF7B6400400230800803D000BF01380046FCD1704704
:4056C000EFF3108072B6704780F31088704700BF08B5144B1B7803F00303012B02D0022B04D00FE00F4B1B79DBB20CE00D4B1B7903F07F0303EB43039A000B4B1A44937AEB
:40570000DBB200E00023022B07D8084A1268D35C022B04D1FDF71EFB08BD002008BD002008BD00BF00600040B4C6FF1FA8C6FF1F014B1868704700BF90C1FF1F0E4B70B582
:405740001E460E4C0025E41AA410A54204D056F8253098470135F8E701F038FB084B094C1E46E41AA4100025A54204D056F8253098470135F8E770BDD86D0000D86D000032
:40578000D86D0000E06D000010B5431E0A44914204D011F8014B03F8014FF8E710BD03460244934202D003F8011BFAE7704700000EB400B54FF402719CB0ADF814106FF06A
:4057C0000041049107914FF6FF711DAB02900690084853F8042BADF81610006802A9019300F07AF8029B00221A701CB05DF804EB03B0704790C1FF1F024610B513461C78CC
:405800000132002CFAD1013B11F8012B03F8012F002AF9D110BD034613F8012B002AFBD1181A013870472DE9F0478E6882469E420C46914698463ED88A8912F4906F3AD01F
:405840002568096902236F1A656905EB450595FBF3F57B1C43449D4238BF1D4653050FD5294600F03FFB064698B13A462169FFF78BFFA38923F4906343F08003A38113E0AD
:405880002A4600F08DFB064670B92169504600F0DDFA0C23CAF80030A3894FF0FF3043F04003A381BDE8F08726613E44266046466561ED1BA560464528BF46464946324640
:4058C000206800F0A7FAA36800209B1BA36023681E442660BDE8F0872DE9F04F9DB003938B8980461C060D4616460DD50B695BB9402100F0F7FA2860286118B90C23C8F8BC
:405900000030CDE040236B610023099320238DF82930DFF89CB130238DF82A3037463C4614F8013B1BB9B7EB060910D003E0252BF9D02746F3E74B46324629464046FFF742
:4059400072FF013000F0A780099B4B4409933B78002B00F0A08000234FF0FF3204930793059206938DF853301A930126052221784E4800F041FA671C049B38B14B4A3C463E
:40598000801A06FA00F018430490EFE7D90644BF20228DF853201A0744BF2B228DF8532022782A2A03D0079A00210A200BE0039A111D12680391002A10DA524243F00200C5
:4059C000079204900BE027463B780134303B092B03D800FB02320121F5E701B107923B782E2B1ED17B782A2B0AD1039B02371A1D1B680392002BB8BF4FF0FF33059310E069
:405A0000002319460593781C0A2407463A780130303A092A03D804FB01210123F5E703B1059103223978224800F0E6F940B14023CBEB000003FA00F0049B013718430490AB
:405A4000397806221B487E1C8DF8281000F0D4F988B1194B33B9039B073323F007030833039314E003AB00932A46144B04A94046AFF3008007E003AB00932A460F4B04A98F
:405A8000404600F093F8B0F1FF3F824603D0099B5344099342E7AB895B0601D4099801E04FF0FF301DB0BDE8F08F00BF986D00009E6D0000A26D00000000000027580000C3
:405AC0002DE9F04791461F460A698B6806469342B8BF1346C9F8003091F843200C46DDF8208012B10133C9F800302368990642BFD9F800300233C9F80030256815F006054B
:405B000010D104F1190A07E00123524639463046C04701301AD00135E368D9F800209B1A9D42F1DB94F843302268003318BF012392060FD5E118302081F843005A1C94F8A6
:405B400045102244023382F8431003E04FF0FF30BDE8F08704F1430239463046C0470130F4D02268D9F80050E36802F00602042A08BF5D1B2269A3680CBF25EAE575002584
:405B80009342C4BF9B1AED184FF000091A344D4509D00123224639463046C0470130D5D009F10109F3E70020BDE8F0872DE9F04317460A7E85B06E2A984606460C460C9B3C
:405BC00001F1430E00F0AE8011D8632A22D009D8002A00F0BB80582A40F0CA8081F84520834955E0642A1ED0692A1CD0C0E0732A00F0B08009D86F2A2ED0702A40F0B880F9
:405C00000A6842F020020A603EE0752A24D0782A3AD0ADE01A6801F14205111D1960136884F84230A8E021681A6811F0800F02D0111D196008E011F0400F02F1040119603A
:405C400002D0B2F9003000E01368002B3CDA2D225B4284F8432037E021681A6811F0800F02D0111D196007E011F0400F02F10401196001D0138800E01368227E5C496F2A98
:405C800014BF0A2208221BE078225A4984F845202268186812F0800F00F104051D6003D1550601D5038800E00368D00744BF42F0200222601BB9226822F0200222601022BF
:405CC000002084F8430001E049490A226568002DA56008DB206820F0040020602BB9002D7DD175460CE0002B79D07546B3FBF2F002FB1033CB5C05F8013D03460028F5D18A
:405D0000082A0BD12368DA0708D5236962689A42DEBF302305F8013C05F1FF35C5EB0E0323612EE008681A6810F0800F496903D0101D1860136808E010F0400F02F10400DF
:405D40001860136801D0198000E0196000232361754616E01A68111D1960156800216268284600F049F808B1401B6060636804E004F1420584F8422001232361002384F801
:405D80004330CDF800803B4603AA21463046FFF797FE013002D14FF0FF3026E023692A4639463046C0470130F5D023689B0710D5002504F1190907E001234A463946304651
:405DC000C0470130E7D00135E368039A9B1A9D42F2DBE068039B9842B8BF184605E00B7804F1420584F842308AE705B0BDE8F083A96D0000BA6D000010B5C9B2024490423B
:405E0000034605D01C7801308C42F8D1184610BD002010BD884210B501EB020301D8421E0BE09842FBD28118D21AD34204D013F8014D01F8014DF8E710BD994204D011F813
:405E4000014B02F8014FF8E710BD000038B50546002944D051F8043C0C1F002BB8BFE41800F0D4F81E4A1368114613B96360146030E0A3420DD92268A018834201BF1868FE
:405E80005B681218226063600C6023E0A24203D813465A68002AF9D118681918A1420BD12168014458188242196013D110685268014419605A600DE002D90C232B6009E08F
:405EC00021686018824201BF106852680918216062605C602846BDE8384000F098B838BD14C2FF1F70B5CD1C25F0030508350C2D38BF0C25002D064601DBA94202D90C2304
:405F0000336046E000F082F8234B1C681A462146A1B10B685B1B0ED40B2B03D90B60CC18CD501EE08C420BBF63684B681360636018BF0C4615E00C464968E9E7174C2368C1
:405F40001BB9304600F052F820602946304600F04DF8431C18D0C41C24F00304A0420DD12560304600F053F804F10B00231D20F00700C31A0ED05A42E25070BD211A30460D
:405F800000F034F80130EBD10C233360304600F03EF8002070BD00BF14C2FF1F10C2FF1FF8B5074615460E4621B91146BDE8F840FFF798BF1AB9FFF749FF2846F8BD00F062
:405FC00027F885420ED929463846FFF78BFF044650B131462A46FFF7D7FB31463846FFF735FF01E03046F8BD2046F8BD38B5064C0023054608462360FBF752FF431C02D134
:40600000236803B12B6038BD4CC7FF1F7047704751F8040C0028BEBF091851F8043CC0180438704700000000526561642066726F6D2074686520534420436172640A0D0076
:406040005265616420666972737420736563746F722066726F6D2074686520534420436172640A0D0000000052656164206E65787420736563746F722066726F6D20746834
:406080006520534420436172640A0D00577269746520746F2074686520534420436172640A0D0000496E697469616C697A652074686520534420436172640A0D0000000061
:4060C00046726F6E742050616E656C2056616C7565202D200000000030782530386C78000A0D4C616E6420426F617264732C204C4C43202D205A38305F50536F43206D6FCD
:406100006E69746F720A0D0031202D205265616420666972737420736563746F72206F662074686520534420436172640A0D00004E202D2052656164206E6578742073653E
:4061400063746F72206F662074686520534420436172640A0D00000052202D205265616420534420436172642061742031474220426C6F636B0A0D0057202D2057726974C2
:406180006520534420436172642061742031474220426C6F636B0A0D0000000049202D20496E697469616C697A6520534420436172640A0D0000000046202D2052656164D9
:4061C0002046726F6E742050616E656C0A0D00003F202D205072696E742074686973206D656E750A0D00000025303478200000002025303278000000202000004572726FBA
:40620000722077726974696E6720746F2074686520534420436172640A0D4572726F72202D200000253032780A0D0000E02E9D2A3928F725D523D321ED1F221E711CD81A66
:406240005719EB1793164F151C14FB12EB11E910F60F110F380E6C0DAB0CF50B490BA70A0E0A7E09F5087508FB0788071C07B6065606FB05A50554050705BF047B043A0459
:40628000FE03C4038E035B032B03FD02D202AA0284025F023D021D02FF01E201C701AE0195017F0169015501420130011F010F01FF00F100E400D700CB00BF00B500AA00CD
:4062C000A10098008F0087008000790072006B00650060005A00550050004C004800440040003C0039003600330030002D002B0028002600000800000008000000000000D9
:4063000000000000F3C3B400000000001816000000000000C53A00084FED78E60128FA0CED78C1C9C5F53A00084FED78E60A28FA0CF1ED79C1C90C5072657373205B535020
:406340004143455D20746F20616374697661746520636F6E736F6C650D0A000D0A5A3830204D756C7469636F6D70204D756C7469626F6F74204D6F6E69746F722076332EC8
:40638000320D0A6261736564206F6E2064657369676E20627920472E20536561726C650D0A0A20207072657373203F20666F722068656C700D0A0A000604AFD3F8D3FD3C24
:4063C00010F93168083E95D380D3823E07D37BD37C3E80320008213200E5CD0E013E82320008E1CD0E013E804FED78E60120080C0CED78E60128EF0CED78FE2020E80D79BA
:406400003200083E0CD381D383215700CD0E01C350027EE67FC8CF2318F83E0DCD20003E0AC320000D0A42616420566F6C756D656E756D62657200CDFB017AB7201A7B3D8A
:40644000FEFE30143C3203087EFE2CC023CDDC017AB3C8ED530108C9212001CD0E01E1C9CDD001FE0DC8FE08282FFE03285EFE1B285AFE4730EAFE41300CFE3A30E2FE301D
:406480003004FE2C20DA77CD20000423360078FE20280618CB08200800E5219101CD0E01E105282E2B360018B70D61626F727465642020202020202020202020202020203E
:4064C000202020202020202020200D0021A501CD0E01E1C9CD1000FE40D8FE7BD0E65FC9110000D57ED6303814FE0A3802D6075F1600E32929292919E323C3E001D1C91179
:406500000000D57EFE413013D630380D5FE3444D2929092919E32318EAD1C9D11100FFC97CCD21027DF50F0F0F0FCD2A02F1CD3002C32000E60FC69027CE4027C90D0A3ED4
:4065400020000D0A556E6B6E6F776E20436F6D6D616E6400215002E5210000220108213902CD0E01CDD001FE2038F9FE3ACA8203FE3FCA2006212808772336000601CD2083
:4065800000CD5C012B7EFE2C200236002128087E23FE52CA2606FE53CA2B06FE49CAD606FE47CA5E06FE50CA8406FE44CABD02FE43CA2703213E02CD0E01C9092020202071
:4065C00000ED5B260813AFBE2803CDDC017BE6F05FD5E5217F0019300321FFFF222608EBE17EFE2C200423CDDC01E1CD1601E5CD1C023E20CD200006103E20CD20007ECD1A
:4066000021022310F421B702CD0E01E106107EE67FFE2030023E2EFE7F30FACD20002310ED7DB4C87B957A9CD818C0CDDC01EB222608CD1601CD1C023E20CD20007E5FCD98
:4066400021023E20CD2000212C08AF770604CD5C01212C087EFE002806FE2CC8CDDC012A2608732318C9436865636B73756D206572726F72004845586C6F616420436F6D52
:40668000706C657465001E00CDC10357CDC10367CDC1036FCDC103FE012009CDC1037BA7281D18157AA7280BCDC10377233E2ECF1518F1CDC1037BA7C8216203C30E012118
:4066C0007103C30E01D747D74F78D630FE0A3802D607070707074779D630FE0A3802D607804F7B915F79C90D0A2020417661696C61626C6520436F6D6D616E64733A0D0A7B
:406700000A20203A6363787878786969626262626262094C6F616420496E74656C2D4865782066696C65207265636F72640D0A20205278787878090952756E2066726F6D17
:40674000206164647265737320787878780D0A202053646464090953797374656D20626F6F740D0A2020496464640909496E69743A20466F726D6174206469726563746F93
:4067800072790D0A2020506464645B2C787878785D095075745379733A2077726974652073797374656D20696D6167655B2C6C6F6164616464726573735D0D0A0909284E60
:4067C0006F20616464726573733A2072652D757365206C617374206C6F616461646472657373290D0A2020476464645B2C787878785D094765745379733A206C6F616420C6
:4068000073797374656D20747261636B0D0A0A202044787878785B2C797979795D0944756D70206D656D6F72792066726F6D2078787878205B2C746F20797979795D0D0A03
:4068400009094420286E6F2061646472657373292073686F7773206E65787420626C6F636B0D0A2020437878787809094368616E67652F73686F77206D656D6F7279206114
:406880007420787878780D0A0909435220616476616E63657320222C222071756974730D0A0A2020646464206973206120646563696D616C20766F6C756D65206E756D62D8
:4068C00065722C0D0A2020787878782C207979797920697320612068657861646563696D616C20616464726573732E0D0A20204C656164696E67207A65726F73206D617923
:40690000206265206F6D69747465642E0D0A2020455343206F72205E432061626F7274732E0D0A0021E303C30E01CDDC01EBE9CD3301CDA607CD1F07CD9607EDB03A00083A
:40694000E6020FEE01F54F3A0308F547D92AFEFFE90D0A53797374656D2052656164204F4B00CD3301CDA607CD1F07CD9607EDB0214D06C30E010D0A53797374656D2057C3
:4069800072697465204F4B00CD3301ED5B0108AFB2B3280AED53FEBFCD9607EBEDB0CDA607CD4107217206C30E01002020566F6C756D6530303000000000000000000000A0
:4069C00000000000000000000000E50D0A466F726D6174204F4B202D2000CD330121A606110508012100EDB03A03086F0608110000CB157B8F275F7A8F275710F421680801
:406A0000737A0603110E08C63012ED6F1310FA210E08CBFECD640721C706CD0E01210608C30E011602CDB307AFD389DB89FEE020FADB88772310F41520F13A04083C3204D0
:406A4000081D20DFC91602CDB3073E01D389DB89FEA020FA7ED3882310F41520F13A04083C3204081D20DEC93E2032040806002105081602CDB3073E01D389DB89FEA020DD
:406A8000FA7ED388FEE528012310F01520ED3A04083C320408FE4020D9C9ED5BFEBF7AED44477BED444F210080C9AF3204082100801E207B0600C9C5F53A0308CB0FCB0FCD
:406AC0004FE63FD38C79E6C0D38BDB89FE8020FA3A0408D38AF1C1C9000000000000000000000000000000000000000000000000000000000000000000000000000000002C
:406B000000000000C84900401900004F00400C0000000140001000140140000800400140000A004C014000021050014010000000285200403C0E0048070000500140440EA1
:406B40000048100030313233343536373839414243444546000000000003020500030501040602041F1C1F1E1F1E1F1F1E1F1E1F80878F979FA6AEB5BCC2C9CFD5DBE0E52B
:406B8000E9EDF1F4F6F9FAFCFCFCFCFCFAF9F6F4F1EDE9E5E0DBD5CFC9C2BCB5AEA69F978F87807870686059514A433D36302A241F1A16120E0B09060503030303030506C1
:406BC000090B0E12161A1F242A30363D434A51596068707880848A8F94989EA2A8ACB2B6BCC0C6CAD0D5DADEE4E8EEF2F8FCF8F2EEE8E4DEDAD4D0CAC6C0BCB6B2ADA8A281
:406C00009E98948F8A84807A76706B66615D58534E49443E39342F2A25211C17120D0803080D12171C21252A2F34393E44494E53585D61666B70767A01000000406C00008B
:406C400001000000846D0000000000000000000001000000586C000001000000406D000003000000846C00000000000000000000000000000000000000000000806C0000D0
:406C8000020A000000008103080002000100820240000A000100030240000A0002030000040309042C0343007900700072006500730073002000530065006D0069006300D9
:406CC0006F006E0064007500630074006F007200100355005300420055004100520054003803430044004300200043006F006D006D0075006E00690063006100740069004F
:406D00006F006E00200049006E007400650072006600610063006500260343004400430020004400610074006100200049006E007400650072006600610063006500000087
:406D4000090243000201018032090400000102020103052400100104240202052406000105240100010705810308000A09040100020A000004070582024000000705030297
:406D8000400000001201000202000008B40432F20100010280014300232D302B2000686C4C0065666745464700303132333435363738394142434445460030313233343510
:406DC000363738396162636465660000F8B500BFF8BC08BC9E4670474D0000001D1F0000F8B500BFF8BC08BC9E46704729000000006E0000C8C0FF1FD0000000B80500000F
:406E00000000000050C7FF1F7F800000030000000000307560EA00003C0000000087930300C2010000000800C201000000080000A120000000000200000000000001010177
:406E400001000000000000010100010001006C070001010101000000000000010100010001006C07FFFF000000000000000000000000000000000000000000000000000021
:406E80000000000000000000966D000000000000000000000000000000000000000000000000000000000000000000000000000000000000000000000000000000000000CF
:406EC000000000000000000030C1FF1F0000000000000000000000000000000000000000000000000000000000000000000000000000000000000000000000000000000083
:406F00000000000000000000000000000000000000000000000000000000000000000000000000000000000000000000000000000000000000000000000000000000000051
:406F40000000000000000000000000000000000000000000000000000000000000000000000000000000000000000000000000000000000000000000000000000000000011
:406F800000000000000000000000000000000000000000000000000000000000000000000000000000000000000000000000000000000000000000000000000000000000D1
:406FC0000000000000000000000000000000000000000000000000000000000000000000000000000000000000000000000000000000000000000000000000000000000091
:020000040001F9
:0200000480007A
:4000000001450040014F004010520040015A00400264004002650040320001403B0101405A0201405A030140570401405805014042060140550701401A090140470A01409F
:40004000510B0140230D01403F0E0140410F01403B1401405B1501402D16014055170140041801401B190140381A0140581B01402740014028410140124201400D43014050
:400080001B4401401A4501400F4601400F4701401148014019490140134C01402A4D014003500140045101407E020A36006601CC0920105A11931810203A215922FF30019C
:4000C000310433076020613079027C4087017720800D76108B0F020F037F060F07700B710D480E251112126C140C197E1A351E7F1F7F2524264A2A4A2B0E2E102F0E306007
:40010000320C330134103603377E3A083E41529C54015604580459045B045C995D905F018104830289028B049F06AF01B106B701BF01D924DB04DC80DF0100880188024050
:4001400009820AA810021104120819501A281B01224823102440270229982E80318232103480380239043A403B103D1259456380684069046D806E026F28700371807240CD
:400180007502760177147A027B017F02820183348542870888108C808F40C00DC20FC407CA1ECC1DCEAFD60BD801DE10E008E640070109020B041203130216031A01210834
:4001C0002802290431063301340335083F11405149FF4AFF4BFF4F015018580459245A045B045C835D095F016040624064406540668068806A806C806E8083048710880255
