:4000000000400020110000009D1400009D14000008B5044B1A6803F53F5302331A6001F05DFA00BFFA46004010B5054C237833B9044B13B10448AFF300800123237010BDFD
:4000400060C1FF1F00000000BC3C0000084B10B51BB108490848AFF300800848036803B910BD074B002BFBD0BDE81040184700BF0000000064C1FF1FBC3C0000C8C0FF1F22
:400080000000000010B504460DE0002001F00CFB4FF4FA7001F07EFA012001F005FBFA2001F078FA013C002CEFD110BD30B5A1B00121002001F046FF01F084FB00F0C8FEBD
:4000C00062B600F0C7F804460130FFF7DBFF04B1FEE700F0FFFD00F047F900F091FA012840D100F0CDFC00F0D3FD00252C4601F067FF20B101F05EFF08B102F07FF801F0EA
:4001000059FFB8B102F0EEF8003018BF0120002C18BF002070B110A802F0FCF8044600F0D7FC012C08BF002804D19DF8400000F0B7FC002474B100F0CBFC58B920AB2B445B
:4001400013F8400C00F0ACFC0135ADB2013CA4B204B9002501F0CCFA10F0100FC7D000F025FBC4E7002501F02BFF20B101F022FF08B102F043F801F01DFF0028F3D002F06B
:40018000B1F80028EFD0684602F0C4F804460028E9D002F0B3F80028FBD09DF80030722B01D0522B07D10E4800F064FD284600F041FF013508E00B4800F05CFD0A4800F0CF
:4001C00059FD0A4800F056FD402CCCD102F096F80028FBD00021084602F05CF8C3E700BFC03C0000D83C0000003D0000143D0000C2B2054B1A70C0F302220C331A70C0F33B
:40020000C720FB33187070477264004008B5FFF7EFFF054B15221A7017221A70034A107811221A7008BD00BF746400406A65004010B50C46FFF7DCFF044B19221A70044A58
:4002400014701B221A7011221A7010BD746400407A65004000B583B01122424B1A7055210020FFF7E5FF0020FFF7D0FF552870D101238DF8033001930DE001989DF803108F
:40028000FFF7D6FF9DF803300133DBB28DF80330019B5B000193019BB3F5002FEDD301238DF80330019315E00198FFF7AFFF8DF802009DF80220D2B29DF80330DBB29A42DF
:4002C00049D19DF803300133DBB28DF80330019B5B000193019BB3F5002FE5D300238DF8033001930DE001989DF80310FFF7A0FF9DF803300133DBB28DF80330019B0133AA
:400300000193019BB3F5002FEDD300238DF80330019315E00198FFF779FF8DF802009DF80220D2B29DF80330DBB29A4215D19DF803300133DBB28DF80330019B013301930D
:40034000019BB3F5002FE5D31022064B1A70002004E0012002E0022000E0032003B05DF804FB00BF7464004030B583B000252C460AE0084B1B5D8DF807309DF80710284601
:40038000FFF756FF01350134B4F5005FF1D303B030BD00BF3C3D000038B504460D4601F0C3FC0021204601F0EFFB284601F048FC01F02AFC0121204601F0E6FB002001F022
:4003C0006BFC044601F020FC01F0AEFC204638BD10B512212420FFF7DFFF040212212520FFF7DAFF2043040212212620FFF7D4FF2043040212212720FFF7CEFF204310BD6B
:4004000010B50446FFF7E4FF04F00303032B0DD8DFE803F00204070AC0B208E0C0F3072005E0C0F3074002E0000E00E0002001F065F900F01BFB10BD70B5FFF7C9FF88B1B5
:400440000026344608E016B90CB105B165B90A2001F0A0F826462C46FFF7BAFF05460028F1D170BD002070BD204670BD10B5FFF7E3FF0028FBD10446002303E0FFF7DCFF60
:40048000034610B9002BF9D000E00446204610BD70B582B004460E46154601F045FC8DF804608DF805500023022201A9204601F005FB01F01DFC10F0020FFAD001F034FC46
:4004C00002B070BD10B5242437E0FF2200212046FFF7DEFF002201212046FFF7D9FFFF2202212046FFF7D4FFFF2204212046FFF7CFFF002205212046FFF7CAFFFF2206216E
:400500002046FFF7C5FF002208212046FFF7C0FF04220A212046FFF7BBFF04220B212046FFF7B6FFFF220C212046FFF7B1FF10212046FFF731FF0134E4B2272CC5D9002375
:40054000044A1370044A1380044A1370044A136010BD00BF94C1FF1F8CC1FF1F8EC1FF1F98C1FF1F10B50446020E15212420FFF78FFFC4F3074215212520FFF789FFC4F31C
:40058000072215212620FFF783FFE2B215212720FFF77EFF10BD00BF10B5044601F0B4F804F00303032B21D8DFE803F002091119124A136823F0FF031843106016E00F4A4C
:4005C000136823F47F4343EA002010600EE00B4A136823F47F0343EA0040106006E0074A136823F07F4343EA00601060034B1868FFF7B8FF00F03AFA10BD00BF90C1FF1F98
:4006000010B5684C00232360FFF75CFF0123236008E0FFF7A7FF322000F0BCFF614A13685B0013605F4B18680028F2D1FFF7EEFD5C4A136818431060FFF794FFFFF716FFB8
:4006400010F07F4F00F0A78010F0807F17D0554C206840F080702060FFF784FF206800F5807020F07F4020F0FF002060000AFFF7CDFD236818432060FFF774FFDEE710F044
:40068000007F1DD0474C206840F000702060FFF769FF2068C1B2C0F30F20FFF7C9FD206800F5807020F07F4020F0FF002060000AFFF7ACFD236818432060FFF753FFBDE7D6
:4006C00010F0806F15D0374C206840F080602060FFF748FF206820F07F4020F0FF002060000AFFF793FD236818432060FFF73AFFA4E710F0006F0AD000222B4B1A704FF00E
:400700000060284B1860FFF72DFF012010BD10F0805F0FD0234C4FF080502060FFF722FFFA2000F037FF206820F07F402060FFF719FF83E710F0005F0FD01A4C4FF00050C9
:400740002060FFF70FFFFA2000F024FF206820F07F402060FFF706FF70E710F0804F0FD0104C4FF080402060FFF7FCFEFA2000F011FF206820F07F402060FFF7F3FE5DE70A
:400780000028BFF65BAF4FF00040064B1860FFF7E9FE002010BD034A136858401060FFF7E1FE4BE790C1FF1F7464004000B583B000F09EFF8DF807009DF8073003F0190306
:4007C000102B02D100F062F94DE100F067FF8DF806009DF80630183B742B00F24481DFE813F0F3000501170129014201420142014201420142014201420142014201420137
:40080000420142014201420142014201420142014201420142014201420142014201420142013B01420142014201420142014201420142014201420142014201420142015F
:400840004201420142014201420142014201420142014201420142014201420142014201420142014201420142014201420142014201420142014201420142014201420118
:400880004201420142014201420142014201420142014201420142014201420142014201420142014201420142014201420142014201C300B200E300D300420142014201B9
:4008C0004201750086009700A000A9009DF80730DBB21C2B02D100F025FCC4E09DF80730DBB21A2B40F0BF8000F036FCBBE09DF80730DBB21C2B02D100F094F9B3E09DF8D0
:400900000730DBB21A2B40F0AE8000F02DF9AAE09DF80730DBB21A2B40F0A58000F08CF9A1E09DF80730DBB21A2B40F09C8000F08DF998E09DF80730DBB21A2B40F093800E
:4009400000F08EF98FE09DF80730DBB21C2B02D100F0D0F887E09DF80730DBB21A2B40F0828000F0D9F87EE09DF80730DBB21C2B02D100F0E5F876E09DF80730DBB21A2BDC
:4009800071D100F0E7F86EE09DF80730DBB21C2B02D100F083F966E09DF80730DBB21A2B61D100F07FF95EE09DF80730DBB21C2B02D100F07BF956E09DF80730DBB21A2B92
:4009C00051D100F07DF94EE09DF80730DBB21C2B03D10020FFF714FD45E09DF80730DBB21A2B40D10020FFF7D7FD3CE09DF80730DBB21C2B03D10120FFF702FD33E09DF89A
:400A00000730DBB21A2B2ED10120FFF7C5FD2AE09DF80730DBB21C2B03D10220FFF7F0FC21E09DF80730DBB21A2B1CD10220FFF7B3FD18E09DF80730DBB21C2B03D1032070
:400A4000FFF7DEFC0FE09DF80730DBB21A2B0AD10320FFF7A1FD06E09DF80730DBB21A2B01D100F043F903B05DF804FB08B500F039FE40F00100C0B200F02EFE08BD00BFD7
:400A80000222014B1A7070479DC1FF1F08B5FF2000F034FE012000F013FEFFF7E7FF08BD08B5084B1870084A137843F001031370064B1B7803F06003202B02D0002000F0B2
:400AC000FFFD08BD9FC1FF1F9DC1FF1F9EC1FF1F064B1B7803F06003402B04D0044B187800F0010070470120704700BF9EC1FF1F9DC1FF1F08B5064B187800F0FFFD054A55
:400B0000137803F0FE031370FFF7B0FF08BD00BF9FC1FF1F9DC1FF1F00B591B001F0EEFB0028FBD000F0F0FD10AB03F8400D0121184601F0AFFBFFF799FF11B05DF804FB2F
:400B400008B5034B187800F0D9FDFFF78FFF08BD9DC1FF1F08B500F0D7FD024B1870FFF785FF08BD9EC1FF1F08B500F0CDFD244B18701B7813F0FF0F1ED1FFF777FF214B64
:400B80001878214B1B781B0443EA00631F4A107843EA00231E4A10781843194B1B7813F0FF0F02D11B4900F0D1F900221A4B1A80E0221A4B1A7008BD114B1B78DBB2012BF3
:400BC0001DD1FFF753FF0F4B18780F4B1B781B0443EA00630D4A107843EA00230C4A10781843074B1B7813F0FF0F02D10C4900F02DFA0022084B1A80A022084B1A7008BD29
:400C0000A7C1FF1FA5C1FF1FA6C1FF1FA0C1FF1FA4C1FF1FB0C1FF1FACC1FF1FA2C1FF1FB0C3FF1F08B5034B187800F067FDFFF71DFF08BDA2C1FF1F08B500F065FD024B54
:400C40001870FFF713FF08BDA4C1FF1F08B500F05BFD024B1870FFF709FF08BDA0C1FF1F08B500F051FD024B1870FFF7FFFE08BDA6C1FF1F10B5044602F019FC81B22046C4
:400C800001F008FB01F03AFB0028FBD010BD00BF0222014B1A707047A9C1FF1F08B5FFF7E5FE08BD08B5FFF7E1FE08BD08B5034B187800F023FDFFF7D9FE08BDA9C1FF1FEB
:400CC00008B500F021FD024B1870FFF7CFFE08BDA8C1FF1F08B5002000F01CFD1C2000F01FFD002000F022FD08BD00BF08B5202000F01CFDFFF7BAFE08BD00BFF0B595B042
:400D0000064600278DF8487053E0002414A800F84C4D3D012A46294902F096FB0BE06319F25C274912A802F08FFB12A901A802F0AFFB0134A4B20F2CF1D901AC204602F0CC
:400D4000B6FB22181F4B19889B78215293702046FFF790FF00238DF8043019E01A46E918705CA0F12101C9B25D2904D814A9194401F84C0C04E02E2014A9194401F84C0C6F
:400D8000013214A90A44002102F84C1C01339BB20F2BE3D901AC204602F089FB22180A4B19889B78215293702046FFF763FF0137BFB21F2FA9D915B0F0BD00BF345D0000C0
:400DC0003C5D0000445D0000103D000010B5044602F03AFA10F0040FFAD0204602F040FA10BD00BF70B50C4615461E46FFF7EEFF200EFFF7EBFFC4F30740FFF7E7FFC4F384
:400E00000720FFF7E3FFE0B2FFF7E0FF2846FFF7DDFF02F019FA10F0010FFAD0142000F0CFFBFF2500240FE0FF20FFF7CFFF02F011FA10F0020FFAD102F01EFAFF2800D14A
:400E400028460134E4B20546B442EDD3284670BD002307E0DAB23349CA54D2433249CA5401339BB2B3F5007FF4D310B5012002F065FA02F047FA002409E002F0E5F910F009
:400E8000040FFAD0FF2002F0EBF90134E4B2092CF3D902F0D9F910F0010FFAD0002002F04DFA0A2000F08CFB02F0ECF9002404E0642000F06FFB0134E4B2092C07D8082335
:400EC000952200214020FFF78DFF0128F0D1002404E0642000F05EFB0134E4B2092C07D80823FF2200214120FFF77CFF0028F0D10823FF224FF400715020FFF773FF002377
:400F00000A4A13700A4A13700A4A13700A4A13700A4A13700A4A13700A4A137080220A4B1A7010BDB0C1FF1FB0C3FF1FA1C1FF1FA3C1FF1FA7C1FF1FA4C1FF1FA0C1FF1FD8
:400F4000A6C1FF1FA5C1FF1FA2C1FF1F30B583B004460D465120FFF739FFC4F3C730FFF735FFC4F3C710FFF731FF600000F0FE00FFF72CFF0020FFF729FFFF20FFF726FF20
:400F800002F062F910F0020FFAD002F089F9142000F016FB00240CE0FF20FFF717FF02F059F910F0200FFAD002F066F918B10134A4B2632CF0D900240DE0FF20FFF706FFC0
:400FC00002F048F910F0200FFAD002F055F9FE2803D00134A4B2632CEFD900240CE0FF20FFF7F4FE02F036F910F0200FFAD002F043F928550134A4B2B4F5007FEFD3FF203A
:40100000FFF7E4FE02F026F910F0200FFAD002F033F98DF80700FF20FFF7D8FE02F01AF910F0200FFAD002F027F98DF8070003B030BD00BF10B5044C2146FFF787FF2046E0
:40104000FFF75CFE10BD00BFB0C1FF1F38B504460D465820FFF7BAFEC4F3C730FFF7B6FEC4F3C710FFF7B2FE600000F0FE00FFF7ADFE0020FFF7AAFEFF20FFF7A7FE02F070
:40108000E3F810F0020FFAD002F00AF9142000F097FA00240CE0FF20FFF798FE02F0DAF810F0200FFAD002F0E7F818B10134A4B2632CF0D900240DE0FF20FFF787FE02F03E
:4010C000C9F810F0200FFAD002F0D6F8FE2803D00134A4B2632CEFD900240BE0285DFFF775FE02F0B7F810F0200FFAD002F0C4F80234A4B2B4F5007FF0D3FF20FFF766FE66
:4011000002F0A8F810F0200FFAD002F0B5F8FF20FFF75CFE02F09EF810F0200FFAD002F0ABF838BD10B5094C23885A1C2280084AD05C00F0E3FA2388B3F5007F02D180229C
:40114000044B1A70FFF792FC10BD00BFACC1FF1FB0C1FF1FA2C1FF1F38B5094C25886B1C238000F0D1FA074B5855FFF77FFC2388B3F5007F02D340F2FF12228038BD00BF67
:40118000AEC1FF1FB0C3FF1FFEE700BFF0B40022174611E050F82760F3B226F0FF0608E001EB420511F812406D78A5550132013BDBB2002BF4D10137242FEBD9F0BC7047D7
:4011C0000A4B1B78DBB203F00701094A11701B09013213702022074B1A70022203F683031A704422A3F20A231A707047CF0100496E580040FD51004008B50A46002102F050
:401200001AF908BD38B5394B1D78EDB20021384A1180582102321170092102321180182234490A7040F22B100231088002310A700621314A1170F3210A32117003221A7037
:401240008422A3F28F331A700522013B1A702B4C04E04FF4F07002F077F8013C24B1284B1B7813F0200FF4D0204B1D705222A3F593631A70234B1B78DBB2234A137040F259
:401280001472224B1A8041F25122023B1A80002419250CE01E4B1B7803F0010343EA440404F003044FF4F07002F04EF8013D0DB1032CEFD115B90320FFF766FF154A4FF4BF
:4012C0008073138007231370002313490B7048200231087013700532137002220F4B1A700F4A137843F00703137038BD98460040804000408640004000430040A086010002
:40130000084300400F010049A14600402242004025420040044000400640004001400040A243004008B502F07BF808BD38B572B6404A137843F00403137000240CE03E4D3E
:40134000630019194A0011462A44084691882858FFF752FF0134E4B2062CF0D900240BE03548A20011194B0003449A8E196BD86AFFF7D8FF0134E4B2012CF1D92F494FF0B7
:401380009040FFF703FF2E4A137843F0020313701032137843F0020313702A4C237843F040032370A2F58632513A137843F0100313700A2224492548FFF7B4FF0A2224498F
:4013C0002448FFF7AFFF0A2223492448FFF7AAFF082223492348FFF7A5FF082222492348FFF7A0FF0A2222492248FFF79BFF082221492248FFF796FF0A2221492148FFF7FB
:4014000091FF0A2220492148FFF78CFF204A137843F0080313701F4D61232B70FFF7F2FE01232B70FFF7CCFE0E2221461A48FFF779FF38BDE8460040485D000094000048AC
:4014400003500140A04300406C0A004800510040780A0048C0510040840A0048F0510040900A004812510040980A004822510040A00A004830510040AC0A0048425100404E
:40148000B40A004850510040C00A0048605100402243004000480040B043004008B501F093FF03680C2B00D1FEE7FEE708B5094B1A681044084BC31A802B02DC054B1860FD
:4014C00005E001F081FF0C2303604FF0FF32104608BD00BFCCC0FF1FA0C6FF1F08B5104E104D16E029686B68AC68002204E051F8040B43F8040B0432A242F8D1E8680022A9
:4015000003E0002143F8041B04328242F9D11035013E002EE6D101F05DFFFEF7C7FDFEE701000000545F000008B5104A104B1A60104A136843F40073136000230AE0032B68
:4015400003D80D4A52F8231000E00C490C4A42F8231001332F2BF2D90A4B1A780A4B1A70074A0A4B1A60FFF7E1FE08BD0004FA050CED00E014ED00E0000000009D1400007D
:4015800000C0FF1FBC760040C0C0FF1F08ED00E001BE704710B5044605E0084B186801F0D3FEA4F50044B4F5004FF6D8034B586800FB04F001F0C8FE10BD00BFD0C0FF1FD8
:4015C00008B5034B1B7A00FB03F001F0BDFE08BDD0C0FF1F70B504460E46074B1D681F2802D90020FFF7D4FF04F01F04103455F8240045F8246070BD08ED00E038B50446D3
:401600000D46072902D90020FFF7C2FF1F2C02D90020FFF7BDFF04F01F0000F1604000F564406D01EDB2057038BD00BF134B1B78DBB20360124A127843EA02230360114A33
:40164000127843EA024303600F4A127843EA026303600E4B1B78DBB243600D4A127843EA022343600B4A127843EA024343600A4A127843EA02634360704700BF0301004977
:4016800004010049EC4600400201004901010049000100490501004906010049014B1878704700BF62640040044A137803F07F03C001C0B218431070704700BF105100401F
:4016C000044A137803F0F703C00000F0080018431070704730510040014B1870704700BF75640040014B1878704700BF75640040014B1878704700BF68650040014B187018
:40170000704700BF7A650040014B1878704700BF6A650040014B1870704700BF7C640040014B1870704700BF78650040014B1870704700BF7965004010B50222114B1A70AB
:4017400081220E3B1A70082202331A700A2211331A70002401331C704FF400420A4B1A6007210F20FFF74AFF08490F20FFF732FF1022074B1A70074B1C70074B1C70074B7F
:401780001C7010BDD649004080E100E0ED170000B0C5FF1FB6C5FF1FBEC5FF1FB4C5FF1F08B501F0D9FD064A137843F0040313701032137843F00403137001F0D1FD08BD9E
:4017C000A543004008B5074B1B7823B9FFF7B4FF0122044B1A70FFF7E3FF4FF40042024B1A6008BD7CC1FF1F00E100E038B5A54B1C78A54B1B7813F0400F00F03A81E4B212
:4018000014F0010F00F01D819F4B1B78453B052B00F21481DFE813F006008200120112010600DF0004F0DF0504F00A04082C42D1954B1B78DBB2452B35D1944B1B7813F0E9
:40184000FF0F10D0924B1B681B78DBB2914A137004228C4B1A7001228F4B1A7046228A4B1A702C46EDE08D4B1B7813F0020F0DD08B4A137843F00A0313706022824B1A7030
:401880004FF40042874B1A602C46DAE0864A137843F0100313701022844B1A700422023B1A702C46CDE00022764B1A704A22764B1A702C46C5E00A2C2BD1794A137843F082
:4018C000A0031370754B1B7813F0020F14D06E4B1B7813F0080F01D0092300E00A23704A11780B4313706022674B1A704FF400426C4B1A602C46A4E06B4A137843F0100303
:4019000013701022694B1A700422023B1A702C4697E00020FFF73CFE2C4692E014F0020F36D15D4B1A78D2B2584B1B78DBB29A4210D2594A1378DBB255490968CB5CDBB2D1
:4019400054490B7004214F4B197013780133DBB2137076E0514B1B7813F0020F0CD0504A137843F00A0313706022474B1A704FF400424C4B1A6064E04B4A137843F01003FD
:4019800013701022494B1A700422023B1A7058E0424B1B7813F0020F0CD0414A137843F09A0313706022384B1A704FF400423D4B1A6046E03C4A137843F01003137010226E
:4019C0003A4B1A700422023B1A70354A137843F09003137035E0364A1378DBB2354908682C490978C9B2C15413780133DBB213701278D2B2304B1B78DBB29A4203D210221C
:401A0000204B1A701DE0254B1B7813F0020F0CD0234A137843F00903137060221A4B1A704FF400421F4B1A600BE01F4A137843F0100313700022134B1A7002E00020FFF783
:401A4000A7FD14F0200F1CD00F4B1B7813F0080F01D0012300E00223114A11780B431370114A137803F0EF0313701022064B1A7038BD054B1B7813F0100F02D11022024B46
:401A80001A7038BDD7490040B0C5FF1FB5C5FF1FC0C5FF1FD8490040B4C5FF1FBCC5FF1FB6C5FF1F80E100E0D6490040D9490040BEC5FF1FB8C5FF1FBDC5FF1F002948D02A
:401AC00070B40C4626490978C9B2102906D12549097811F0080F11D1002112E020490978C9B260290CD14FF400451F490D601F4D297801F0F7012970002102E0012100E03D
:401B0000022149BB4526164D2E700026184D2E70184D2A70184A1460184A1370134C227802F0FD0222704200D2B21548027013F0010F06D012220B4B1A700422023B1A7034
:401B400002E00122074B1A704FF400420D4B1A6002E0022108467047084670BC704700BFB0C5FF1FD949004080E200E0B6C5FF1FB4C5FF1FB5C5FF1FC0C5FF1FBCC5FF1FF2
:401B8000D849004000E100E01A4B1B78DBB2102B29D1194B1B7813F0080F26D14FF40042164B1A604000C0B229B140F001004922104B1A7002E045220E4B1A70104B1870C5
:401BC000012201331A700F4B1B7813F0010FFAD00C4B1B7803F00A030A2B08D11022054B1A700320704702207047012070470020704700BFB0C5FF1FD949004080E100E0DF
:401C0000D8490040D74900400A4B1B7813F0040F0ED01023074A13700421023A1170064A1370064B1B7813F0210FFAD00020704702207047D9490040B0C5FF1FD749004065
:401C4000114B1B7813F0040F1BD0104B18700422013B1A7046220E4B1A700E4B1B7813F0010FFAD00B4B1B7813F0020F04D16022074B1A70002070476022054B1A7003200B
:401C800070470220704700BFD9490040D8490040B0C5FF1FD7490040114B1B7813F0040F1BD0104B1B78DBB2492B05D100220E4B1A704A220B4B1A700B4B1B7813F0010F1D
:401CC000FAD00A4B1B78DBB218B11021064A117004E06021034A117000E0002318467047D9490040B0C5FF1FD7490040D84900404FF40042084B1A60084B1878C0B2084BDF
:401D00001B7813F0400F01D040F004004FF40042044B1A60704700BF80E100E0B6C5FF1FB0C5FF1F00E100E04FF40043044A1360044A107800211170034A1360704700BFD2
:401D400080E100E0B6C5FF1F00E100E0F8B501F003FB0746404A137843F0010313701032137843F00103137001263C4B1E700225943B1D7002F5E2521B32137803F07F0352
:401D800013700020FFF71CFC354C237803F0F9032370344A137803F0DF0313702378334323703046FFF70CFC2820FFF709FC2E4B1A7802F07F021A701A7802F0BF021A7041
:401DC00023782B4323702846FFF7FAFB237843F0040323700024254B1C7001331C70384601F0BEFA07211720FFF708FC20491720FFF7F0FB07211820FFF700FC1D491820B5
:401E0000FFF7E8FB07211520FFF7F8FB1A491520FFF7E0FB07212046FFF7F0FB17492046FFF7D8FB07213046FFF7E8FB14493046FFF7D0FB07212846FFF7E0FB11492846E2
:401E4000FFF7C8FB07210C20FFF7D8FB0E490C20FFF7C0FBF8BD00BFA54300409D6000409443004012600040F851004084600040AD28000095260000A92800000928000077
:401E8000392800006D280000B528000008B5214B18700023204A1370204A1370204A1370204A1370204A1370204A1370204A1370204B4FF400021A604FF080721A604FF4E8
:401EC00000121A6001221A6002221A6004221A6011B1012906D00BE0174A137803F0FE0313700AE0144A137843F00103137004E0114A137843F00103137003220F4B1A7051
:401F00008022203B1A70012001F01EFA04220C4B1A7008BDDDC5FF1FE0C5FF1FFCC5FF1FFFC5FF1FF4C5FF1FFEC5FF1F01C6FF1FDCC5FF1F00E100E0096000402860004052
:401F40001260004038B504460D46064B1B7823B9FFF7FCFE0122034B1A7029462046FFF795FF38BD7DC1FF1F00230A4A13700A4A13700A4A13700A4A13700A4A13700A4A20
:401F800013700A4A13700322094B1A708022203B1A707047E0C5FF1FFCC5FF1FFFC5FF1FF4C5FF1FFEC5FF1F01C6FF1FDCC5FF1F28600040014B1878704700BFFFC5FF1FAA
:401FC000064B1B7813F0FF0F05D0044B1878C0B200221A7070470020704700BFFCC5FF1F00EB40008300024A13445878704700BF04C6FF1F431EDBB2072B0BD8064B00011A
:402000001A18185C00F00F00537843EA0020023880B2704700207047FC5F0040431EDBB2072B3CD8F0B4074600EB4004A3001C4C2344DB889BB2C3F500739A4208D900EB05
:40204000400293002344DA8892B2C2F5007292B200EB4004A300124C2344DB7843EA1223104D04012E192B55D3B2737039B909E0CE5C3D010C4C665501339BB200E000235A
:402080009A42F5D8420002449300054A134400225A705A79D2B20001044B1A54F0BC704704C6FF1FFC5F004078600040FE5F0040431EDBB2072B0BD8420002449300054AAD
:4020C000134400225A705A79D2B20001024B1A54704700BF04C6FF1FFE5F004070B5D9B1054614460E46C8B1082819D8FFF782FFA04203D22846FFF77DFF0446002305E0ED
:402100002901094A525CF25401339BB2A342F7D32846FFF7CDFF04E0002402E0002400E00024204670BD00BF7860004010B4FF2400230EE0094AD25C02EB42029100084AC5
:4021400011448A7AD2B2824201D11C4602230133DBB2012BEED9204610BC7047CCC5FF1F04C6FF1F10B5204C2079FFF7DFFF237813F0800F0ED06378DBB2212B2FD11B4B6E
:4021800007221A80C0EBC000194A1044586000F0EFFA10BD144B5B78DBB2202B02D0222B10D01EE0114A07231380C0EBC00310490B4453600F4A135C43F00103135400F09E
:4021C000FFFA10BD084B9B780B4A22F81030094A135C43F00203135400F088F910BD002010BD002010BD00BF00600040E8C5FF1FE0C0FF1FC4C5FF1FD8C5FF1F10B5002458
:402200001F4B1C701F4B1C705C700AE01E4B185DC0B2431EDBB2072B01D8FFF749FF0134E4B2012CF2D9194B1B7813F0FF0F1AD0154B1B7813F0FF0F17D0154B1B7813F0DF
:40224000FF0F14D0114B1B78DBB2082B11D80E4B1B78DBB2082B0ED80D4B1B78DBB2082B0BD8002010BD012010BD012010BD012010BD012010BD012010BD012010BD00BF74
:402280007EC1FF1FC4C5FF1FD0C5FF1FC8C5FF1FCCC5FF1F70B506460D460F4B1B780F4AD45CE4B204EB440293000D4A13441B899BB28B4209D204EB44029300084A1344BD
:4022C0001D89ADB20020FFF763F92A4631462046FFF7A4FE70BD00BF7EC1FF1FC8C5FF1F04C6FF1F08B5034B1B78034AD05CFFF777FE08BD7EC1FF1FD0C5FF1F08B5034B44
:402300001B78034AD05CFFF76BFE08BD7EC1FF1FC8C5FF1F08B5084B1B78084AD35CDBB203EB43018A0006490A44128992B201461846FFF7D3FE08BD7EC1FF1FD0C5FF1F3B
:4023400004C6FF1FC37803F0030390F9020000280FDA032B06D002F001030B48C15442F001020EE0C2F380030848C15442F0040207E0032B05D0C2F340030548C15442F0D5
:4023800002021046704700BFC8C5FF1FCCC5FF1FD0C5FF1F1D4B19781D4A13889BB20B449BB2138000220FE01A494B681B78DBB2194883544B6801334B600132D2B20B886E
:4023C0009BB2013B9BB20B80124B1B889BB20BB1072AE9D90D4B1B78DBB2082B00D05AB10E490B7883F080030B700F210C4B197002210C4B197004E0022309490B70094974
:402400000B70094B1A70014B1A707047DCC5FF1FDEC5FF1FE8C5FF1F0060004072C6FF1FFDC5FF1FE0C5FF1F00C6FF1F0222074B1A708022064B1A700F22064B1A70002342
:40244000054A1370054A137001207047E0C5FF1F72C6FF1FFDC5FF1FDCC5FF1F00C6FF1F08B5FFF797FF08BD10B4194B197801F00F010239C9B2174A13889BB20B449BB2E1
:402480001380002011E0144A5468144B1B5CDBB223705368013353600130C0B20139C9B213889BB2013B9BB213800B4B1B889BB20BB10029E7D10A4B19700A4A137883F057
:4024C000800313700B22084B1A7010BC704700BF29600040DEC5FF1FE8C5FF1F0060004000C6FF1F72C6FF1FFDC5FF1F0623064A1370064A13708022054B1A700022054BBE
:402500001A700120704700BFE0C5FF1FFDC5FF1F72C6FF1F00C6FF1F064B9B6843B1054B9A6810709A6804490988518000229A60704700BFE8C5FF1FDEC5FF1F08B5134B99
:402540001A78D2B21A701B78DBB213F0800F02D00F4A137008BD0220FFF7DEFF0D4B1B7803F06003202B05D0402B06D043B900F093FC06E000F0F8FE03E000F037FE00E0D0
:40258000002010B90322024B1A7008BD28600040FDC5FF1F0060004008B5094B1978094A13889BB20B449BB213800022064B1A700120FFF7B1FF0322044B1A7008BD00BFD7
:4025C000DCC5FF1FDEC5FF1FE0C5FF1FFDC5FF1F08B50B4B1B78DBB2042B06D0062B07D0022B0BD1FFF7D8FF08BDFFF73DFF08BD0320FFF791FF0322024B1A7008BD00BFBD
:40260000E0C5FF1FFDC5FF1F08B50022044B1A700120FFF781FF0322024B1A7008BD00BFE0C5FF1FFDC5FF1F08B50B4B1B7813F0FF0F07D0084A137843F0800307490B7099
:40264000002313700022064B1A700120FFF764FF0322044B1A7008BDFEC5FF1F08600040E0C5FF1FFDC5FF1F08B5094B1B78DBB2042B06D0062B07D0022B07D1FFF7F0FE27
:4026800008BDFFF7C1FF08BDFFF7CEFF08BD00BFE0C5FF1F08B5284B1B78DBB213F0100F48D013F0800F0CD003F00F03012B16D1FFF744FF214B1B7813F0800F11D10123F0
:4026C00012E013F0400F03D0FFF7CEFF01230BE013F0200F07D0FFF77BFF012304E0002302E0002300E0002323B3134B1B7813F0800F1FD1124B1B78124A12781343124A74
:4027000013701278D2B2934214D10C4B1B78DBB2094A127812F0800F07D1084B1B78DBB2054A1370137803F00F03044A1278D2B29342EAD108BD00BF28600040FDC5FF1FA4
:4027400072C6FF1F00C6FF1F296000400022064B1A80064B9B682BB1044A916800230B7092685380704700BFDEC5FF1FE8C5FF1F08B50F4B1B889BB213B9FFF757FE15E052
:4027800002220C4B1A7000220B4B1A70FFF7DEFF0A4AD179937943EA0123054A128892B2934201D2024A1380FFF7F4FD012008BDE8C5FF1FE0C5FF1F72C6FF1F006000403F
:4027C00008B504220B4B1A7080220B4B1A70FFF7BDFF0A4AD179937943EA0123084A128892B2934201D2064A13800B22054B1A70012008BDE0C5FF1F72C6FF1F0060004086
:40280000E8C5FF1FFDC5FF1F0122094B1A700F3B9B7C084B1B7B03F00303934204D0054AD37B83F08003D3730122024B5A7370470B60004004C6FF1F02220A4B1A700F3B53
:4028400093F82230084B1B7E03F00303012B04D0054AD37E83F08003D3760122024B5A76704700BF0B60004004C6FF1F04220C4B1A700F3B93F832300A4B93F8243003F009
:402880000303012B06D0074A92F8273083F0800382F827300122034B83F82520704700BF0B60004004C6FF1F704700BF08B5FFF75BFB08BD08B500F0A5FC08BD70B588B029
:4028C000054603AC174E0FCE0FC43368237035B322232B7003236B7001A8FEF7A7FE002402231AE008AA224412F81C2C08A901EB121111F8141CE954581C00212954981CE6
:4029000002F00F0208AE324412F8142C2A54DA1CA9540134E4B20433DBB2212BE2D908B070BD00BF885D000010B401233EE019461A010C242148845403EB43008200204882
:402940000244527912F0FF0F13D003EB430082001B480244127912F0800F04D01801194A024494700AE01801164A02440820907004E01801134A024480209070480008449C
:4029800082000F480244D488E4B208010B4901448C71D088C0F30720C871D088C0B20871D288C2F307224A710133DBB2082BBED9FF22054B1A7010BC704700BF70600040EE
:4029C00004C6FF1FFC5F00400A600040074B1A78074B03EBC2035B681A7C824204D9C000103018444068704700207047DDC5FF1F9C5D0000F8B5404B1B7813F0FF0F79D057
:402A00003D4B18780138C0B2FFF7E0FF047AC2683A4B1878C0B200236AE01178884264D13749095CC9B25578A9425ED1917801F07F01D67806F00306DFF8C8E04D000D44AF
:402A4000AF000EEB07054FF0000C85F803C092F802C085F804C092F803C00EF807C097882F8192F90250002D0DDA012E01D1072700E00D274E000E44B500224E35446F714F
:402A800001266E700CE0012E01D1052700E009274E000E44B5001B4E35446F7100266E70DFF868E00F010EEB07060125B57001FA05F529448D00134929440D89C5F307251B
:402AC0000EF807500D89EDB27570CE88F6B20E4D3D44AE71CE88C6F30726EE71CE88F6B22E71C988C1F30721697108320133DBB2A34292D3F8BD00BFFFC5FF1FF4C5FF1FB5
:402B000070C6FF1F04C6FF1F70600040FC5F0040034B1A78034B03EBC2035868704700BFDDC5FF1F9C5D000008B5084B18780138C0B2FFF74BFF30B142681279023200EB1E
:402B4000C203586808BD002008BD00BFFFC5FF1F2DE9F047002310E0724D5900CA189600AC190022AA55A270E2702281A272627034462C4462710133DBB2082BECD940B953
:402B80000AE000226849CA546849CA540133DBB200E00023012BF4D9654B1B7813F0FF0F00F0BD80624B18780138C0B2FFF70EFF80464368DB7913F0400F05D05D4A137824
:402BC00043F00103137004E05A4A137803F0FE03137098F808704FF0000A01266FE0D8F80C50002467E0AB7803F07F039E425FD1314606EB460083004A4803441B899BB290
:402C0000A888834206D206EB460E4FEA8E03454A134418812B784448C35CDBB26878834246D195F802C0DFF8FCE04B000B4498000EEB000383F804C0EB780EF80030EB7837
:402C400003F0030395F90200002813DA012B02D14FF0070901E04FF00D09DFF8C8E04B0003EB010C4FEA8C00704480F805900121417012E0012B02D14FF0050901E04FF0B6
:402C80000909DFF8A0E04B0003EB010C4FEA8C00704480F8059000214170AB790A2B01D0022B05D1524631462846FFF74BFB824608350134E4B2BC4295D30136F6B2082EDC
:402CC0008DD9D8F80C0000220CE0837803F07F0310F8084B03EB43039900124B19448C720132D2B2BA42F0D3FFF71EFF124B1860002301210FE00B4D4A00501884002C44A4
:402D0000E380228992B213449BB203F0010213449BB20131C9B20829EDD9FFF705FEBDE8F08700BF04C6FF1F70C6FF1FE4C5FF1FFFC5FF1F01C6FF1FF8C5FF1F08B5154BC9
:402D40001B7903F07F035A1ED2B2072A20D8590019448A0010490A44917841F0010191700021D170517841F002015170127912F0800F05D01B01094A1A448D23937004E08C
:402D80001B01064A1A4489239370FFF7AFFB08BD002008BD0060004004C6FF1FFC5F0040274B1B7903F07F035A1ED2B2072A44D810B5590019448A0022490A44917801F0B1
:402DC000FE0191700021D1701F4C1801215C01F07F012154517801F0FD015170127912F0800F13D003EB43018A0016490A445278D2B2012A04D1224602440C23937019E082
:402E00001B01114A1A440D23937013E003EB43018A000C490A445278D2B2012A05D11B01094A1A440823937004E01B01064A1A4409239370FFF75AFB10BD0020704700BF63
:402E40000060004004C6FF1FFC5F004010B50E4B1C79E4B20D4B18780138C0B2FFF7B6FD43681B799C4201D9022C0AD8084A135DDBB208490B55044B9B78DBB2135501202B
:402E800010BD002010BD00BF00600040FFC5FF1F70C6FF1FE4C5FF1F10B59C4B1B78DBB200219B4A118013F0800F00F0AD80974A5278D2B20A2A00F27481DFE812F069006E
:402EC000720172017201720172010B007201920072019A008D4BDB78DBB2012B09D1FFF717FE42688A4B5A6012221A80FFF740FC10BD864BDB78DBB2022B13D1834B987807
:402F0000FFF764FD002800F04E814268804B5A605A68D1785A68927842EA01221A80FFF727FC10BD794BDB78DBB2032B05D02CE00A7811440133DBB201E000237549734AB4
:402F40009278D2B2934203D20A7812F0FF0FEFD16E4B9B7813F0FF0F0BD06C4B9B78DBB26D4A127C934204D16C4C2046FFF7A6FC21460B7813F0FF0F00F017810B78644A5F
:402F800013805160FFF7F4FB10BD00F0EDF910BD13F0030317D0022B40F009815C490B805A4B1B7903F07F0303EB43039A005C4B1A449278D2B25B4B1A7000225A704B609B
:402FC000FFF7D6FB10BD524902230B80564B1A78D2B2544B1A7000225A704B60FFF7C8FB10BD4B4B01221A80504A5A60FFF7C0FB10BD474A01231380444B1B794C490B4481
:403000005360FFF7B5FB10BD404A5278013A0A2A00F2CF80DFE812F04C00CD009800CD000B00CD00CD00CD001300CD003000374B9B78DBB23F4A1370FFF758FA10BD334BDC
:403040009B7803F0FF041BB1601EC0B2FFF7BEFC04B110B9002C40F0AE80344B1B78DBB29C4206D0314B1C700120334B1870FFF76FFDFFF73BFA10BDFFF7E8FE002800F003
:403080009C80224A1379DBB21279D2B22B490A702B4AD25CD2B22649CB5CDBB29A4204D00122254B1A70FFF7A5FCFFF71FFA10BD03F00303012B17D04BB1022B7FD1134B05
:4030C0009B7813F0FF0F7CD1FFF76AFE10BD0F4B9B78DBB2012B76D1134A137803F0FD031370FFF703FA10BD084B1B79DBB2012B6BD8064B98781B79DBB21249CA5C22EAB7
:403100000002CA54FFF7F2F910BD00BF00600040E8C5FF1F045E0000E85E000078C6FF1F04C6FF1F80C1FF1F01C6FF1FFFC5FF1F70C6FF1FFEC5FF1FFCC5FF1FF4C5FF1F9A
:40314000E4C5FF1F74C6FF1F03F00303012B17D04BB1022B3BD1224B9B7813F0FF0F38D1FFF7ECFD10BD1E4B9B78DBB2012B32D11C4A137843F002031370FFF7B7F910BD52
:40318000174B1B79DBB2012B27D8154B98781B79DBB21549CA5C22EA0002CA54FFF7A6F910BD002010BD002010BD002010BD002010BD002010BD002010BD002010BD002023
:4031C00010BD002010BD002010BD002010BD002010BD002010BD002010BD002010BD00BF0060004001C6FF1F74C6FF1F044B1B7813F0800F01D0024B5B780020704700BFF0
:4032000000600040024B1878C0F38010704700BF8F45004008B500F09FF80A4A137843F0200313700C3A137843F0100313700132137843F01003137000F092F800F070F855
:4032400008BD00BF9F640040014B1878704700BF63640040014B1878704700BF64640040034B1B7813F0040FFAD0024B18707047636400404C640040014B1878704700BF3E
:403280005C64004001E0044B1B78044B1B7813F0200FF8D1704700BF5C6400406464004008B501E00A4B1B780A4B1B7813F0200FF8D100F051F8084B1A7842F001021A70AA
:4032C0001A7802F0FE021A7000F04AF808BD00BF5C640040646400409C64004008B50F22064B1A70FFF7DCFFFFF7AEFFFFF7B2FF0023034A13700132137008BD8F6400403D
:403300008364004008B5054B1B7823B9FFF7E6FF0122024B1A70FFF77DFF08BD82C1FF1F054A137843F0040313701032137843F004031370704700BFA2430040014B1870ED
:40334000704700BF736400400230800803D000BF01380046FCD17047EFF3108072B6704780F31088704700BF08B5144B1B7803F00303012B02D0022B04D00FE00F4B1B791B
:40338000DBB20CE00D4B1B7903F07F0303EB43039A000B4B1A44937ADBB200E00023022B07D8084A1268D35C022B04D1FEF7DAFE08BD002008BD002008BD00BF0060004050
:4033C00004C6FF1FF8C5FF1F014B1868704700BF5CC1FF1F0E4B70B51E460E4C0025E41AA410A54204D056F8253098470135F8E702F09EFD084B094C1E46E41AA4100025B8
:40340000A54204D056F8253098470135F8E770BD3C5F00003C5F00003C5F0000445F000010B5431E0A44914204D011F8014B03F8014FF8E710BD03460244934202D003F801
:40344000011BFAE7704700000EB400B54FF402719CB0ADF814106FF00041049107914FF6FF711DAB02900690084853F8042BADF81610006802A9019300F07AF8029B002287
:403480001A701CB05DF804EB03B070475CC1FF1F024610B513461C780132002CFAD1013B11F8012B03F8012F002AF9D110BD034613F8012B002AFBD1181A013870472DE99E
:4034C000F0478E6882469E420C46914698463ED88A8912F4906F3AD02568096902236F1A656905EB450595FBF3F57B1C43449D4238BF1D4653050FD5294600F03FFB064613
:4035000098B13A462169FFF78BFFA38923F4906343F08003A38113E02A4600F08DFB064670B92169504600F0DDFA0C23CAF80030A3894FF0FF3043F04003A381BDE8F08700
:4035400026613E44266046466561ED1BA560464528BF464649463246206800F0A7FAA36800209B1BA36023681E442660BDE8F0872DE9F04F9DB003938B8980461C060D4645
:4035800016460DD50B695BB9402100F0F7FA2860286118B90C23C8F80030CDE040236B610023099320238DF82930DFF89CB130238DF82A3037463C4614F8013B1BB9B7EB33
:4035C000060910D003E0252BF9D02746F3E74B46324629464046FFF772FF013000F0A780099B4B4409933B78002B00F0A08000234FF0FF3204930793059206938DF8533033
:403600001A930126052221784E4800F041FA671C049B38B14B4A3C46801A06FA00F018430490EFE7D90644BF20228DF853201A0744BF2B228DF8532022782A2A03D0079ADD
:4036400000210A200BE0039A111D12680391002A10DA524243F00200079204900BE027463B780134303B092B03D800FB02320121F5E701B107923B782E2B1ED17B782A2BBC
:403680000AD1039B02371A1D1B680392002BB8BF4FF0FF33059310E0002319460593781C0A2407463A780130303A092A03D804FB01210123F5E703B105910322397822483F
:4036C00000F0E6F940B14023CBEB000003FA00F0049B013718430490397806221B487E1C8DF8281000F0D4F988B1194B33B9039B073323F007030833039314E003AB00936A
:403700002A46144B04A94046AFF3008007E003AB00932A460F4B04A9404600F093F8B0F1FF3F824603D0099B5344099342E7AB895B0601D4099801E04FF0FF301DB0BDE87F
:40374000F08F00BFFC5E0000025F0000065F000000000000BF3400002DE9F04791461F460A698B6806469342B8BF1346C9F8003091F843200C46DDF8208012B10133C9F8BC
:4037800000302368990642BFD9F800300233C9F80030256815F0060510D104F1190A07E00123524639463046C04701301AD00135E368D9F800209B1A9D42F1DB94F8433066
:4037C0002268003318BF012392060FD5E118302081F843005A1C94F845102244023382F8431003E04FF0FF30BDE8F08704F1430239463046C0470130F4D02268D9F800508E
:40380000E36802F00602042A08BF5D1B2269A3680CBF25EAE57500259342C4BF9B1AED184FF000091A344D4509D00123224639463046C0470130D5D009F10109F3E7002078
:40384000BDE8F0872DE9F04317460A7E85B06E2A984606460C460C9B01F1430E00F0AE8011D8632A22D009D8002A00F0BB80582A40F0CA8081F84520834955E0642A1ED0B8
:40388000692A1CD0C0E0732A00F0B08009D86F2A2ED0702A40F0B8800A6842F020020A603EE0752A24D0782A3AD0ADE01A6801F14205111D1960136884F84230A8E02168BC
:4038C0001A6811F0800F02D0111D196008E011F0400F02F10401196002D0B2F9003000E01368002B3CDA2D225B4284F8432037E021681A6811F0800F02D0111D196007E06E
:4039000011F0400F02F10401196001D0138800E01368227E5C496F2A14BF0A2208221BE078225A4984F845202268186812F0800F00F104051D6003D1550601D5038800E05D
:403940000368D00744BF42F0200222601BB9226822F0200222601022002084F8430001E049490A226568002DA56008DB206820F0040020602BB9002D7DD175460CE0002B39
:4039800079D07546B3FBF2F002FB1033CB5C05F8013D03460028F5D1082A0BD12368DA0708D5236962689A42DEBF302305F8013C05F1FF35C5EB0E0323612EE008681A6878
:4039C00010F0800F496903D0101D1860136808E010F0400F02F104001860136801D0198000E0196000232361754616E01A68111D1960156800216268284600F049F808B16E
:403A0000401B6060636804E004F1420584F8422001232361002384F84330CDF800803B4603AA21463046FFF797FE013002D14FF0FF3026E023692A4639463046C04701306C
:403A4000F5D023689B0710D5002504F1190907E001234A4639463046C0470130E7D00135E368039A9B1A9D42F2DBE068039B9842B8BF184605E00B7804F1420584F842300E
:403A80008AE705B0BDE8F0830D5F00001E5F000010B5C9B202449042034605D01C7801308C42F8D1184610BD002010BD884210B501EB020301D8421E0BE09842FBD2811811
:403AC000D21AD34204D013F8014D01F8014DF8E710BD994204D011F8014B02F8014FF8E710BD000038B50546002944D051F8043C0C1F002BB8BFE41800F0D4F81E4A136845
:403B0000114613B96360146030E0A3420DD92268A018834201BF18685B681218226063600C6023E0A24203D813465A68002AF9D118681918A1420BD1216801445818824228
:403B4000196013D110685268014419605A600DE002D90C232B6009E021686018824201BF106852680918216062605C602846BDE8384000F098B838BD88C1FF1F70B5CD1CC7
:403B800025F0030508350C2D38BF0C25002D064601DBA94202D90C23336046E000F082F8234B1C681A462146A1B10B685B1B0ED40B2B03D90B60CC18CD501EE08C420BBFF3
:403BC00063684B681360636018BF0C4615E00C464968E9E7174C23681BB9304600F052F820602946304600F04DF8431C18D0C41C24F00304A0420DD12560304600F053F8DC
:403C000004F10B00231D20F00700C31A0ED05A42E25070BD211A304600F034F80130EBD10C233360304600F03EF8002070BD00BF88C1FF1F84C1FF1FF8B5074615460E46E0
:403C400021B91146BDE8F840FFF798BF1AB9FFF749FF2846F8BD00F027F885420ED929463846FFF78BFF044650B131462A46FFF7D7FB31463846FFF735FF01E03046F8BD66
:403C80002046F8BD38B5064C0023054608462360FDF70CFC431C02D1236803B12B6038BD9CC6FF1F7047704751F8040C0028BEBF091851F8043CC01804387047000000001D
:403CC000526561642066726F6D2074686520534420436172640A0D000A0D4C616E6420426F617264732C204C4C43202D205A38305F50536F43206D6F6E69746F720A0D0051
:403D000052202D205265616420534420436172640A0D00003F202D205072696E742074686973206D656E750A0D000000F81F0000F81F00000000000000000000F3C39400EB
:403D400000000000C332000000000000C31B000000000000C35C003A0030FE002008CD630028FBDB81C9CD6A0028FBDB83C9F53A0030FE00200D1801F5CD500028FBF1D32C
:403D800081C9F5CD560028FBF1D383C9DB800FCB47C9DB820FCB47C93A0030FE002007DB80E601FE00C9DB82E601FE00C9D7FE0A28FBFE1B20023E03C9FE0D280AFE0C2889
:403DC00004FE203801CFC93E0DCF3E0ACF3E0DC93128303E95D380D3823E00320030216503CD1B013E01320030216503CD1B01CD6300280F3E00320030CD1B00FE20C2B3E0
:403E0000001814CD6A0028E73E01320030CD1B00FE20C2B30018003E0CCD3C00CD4600CD2201219602CD1B0121EC00E5CD22013E3ECFCD7100FE2038F9FE3ACA9901CD7D44
:403E400000E65FFE42CADA01FE47CA9301FE58CAF1013E3FCF18D57EB7C8CF2318F93E0DCF3E0ACFC9CD7100FE03C8FE2038F6C9CD290147CD29014FCD73014F7B915F791C
:403E8000C9210000CD8C01FE0D200E37C9210000CD8C01FE0DC8FE2CC8FE0328EE29292929D630FE0A3802D607E60F856F18E178D630FE0A3802D607070707074779D63004
:403EC000FE0A3802D60780C9CD7100CD7D00C9CD4501D8E5C91E00CD340157CD340167CD34016FCD3401FE012009CD34017BA7281E18157AA7280BCD340177233E2ECF151E
:403F000018F1CD34017BA7C8215403CD1B01C9218A03CD1B01C9214203CD1B01CD2901C8E65FFE43CA9503FE57CA9803C9210302CD1B01CD2901C8E65FFE59CA2402C90D59
:403F40000A426F6F742043502F4D3F000D0A4C6F6164696E672043502F4D2E2E2E0D0A00211002CD1B0106183E003204303205303206303207302100D0220230CD6E0211E7
:403F800000022A0230192202303A04303C32043010EA3A0030F52AFEFFE93A0630D38C3A0530D38B3A0430D38AC9F5C5E5DB89FE8020FACD5E023E00D3890E040680DB892F
:403FC000FEE020FADB8877230520F30D20EEE1C1F1C943502F4D20426F6F7420524F4D20322E3020627920472E20536561726C650D0A0D0A4243206F72204257202D205284
:404000004F4D20424153494320436F6C642F5761726D0D0A5820202020202020202D20426F6F742043502F4D20286C6F61642024443030302D2446464646290D0A3A6E6EBC
:404040006E6E2E2E2E202D204C6F616420496E74656C2D4865782066696C65207265636F72640D0A476E6E6E6E202020202D2052756E206C6F63206E6E6E6E0D0A000D0AA4
:40408000436F6C64206F72207761726D3F0D0A00436865636B73756D206572726F720D0A000C5072657373205B53504143455D20746F20616374697661746520636F6E7318
:4040C0006F6C650D0A00436F6D706C6574650D0A00C39B03C33904DD210000C3A6034C0CC21321B030F9C3E11F117306066321B0301A77231305C2B503F9CD7408CD420ECB
:40410000325A3132A931218804CDE014CD9108CD9A0BB7C2EF03210D32237CB5CA01047E472F77BE70CADD03C30104CD660CB7C24207EB2B3ED94677BE70C2CA032B110C87
:4041400032CD0A0ADACA0311CEFF225F3119220A31CD4F082A0A3111EFFF1911A9317D936F7C9A67E5215104CDE014E1CD831B214204CDE014311631CD7408C38D072042ED
:404180007974657320667265650D0A00005A38302042415349432056657220342E37620D0A436F70797269676874202843292031393738206279204D6963726F736F667467
:4041C0000D0A00004D656D6F727920746F7000F819BC1A0E1AB330A0132517CE13821C611D9D18D01CD61DDC1D3D1E521E7917BD1E013152166A14EC1661167216DF1E7293
:404200001F8216B216BC16C54E44C64F52CE455854C4415441C94E505554C4494DD2454144CC4554C74F544FD2554EC946D24553544F5245C74F535542D2455455524ED298
:40424000454DD3544F50CF5554CF4ECE554C4CD7414954C44546D04F4B45C44F4B45D3435245454ECC494E4553C34C53D749445448CD4F4E49544F52D34554D2455345548C
:40428000D052494E54C34F4E54CC495354C34C454152C34C4F4144C353415645CE4557D4414228D44FC64ED3504328D448454ECE4F54D3544550ABADAAAFDEC14E44CF5238
:4042C000BEBDBCD3474EC94E54C14253D55352C65245C94E50D04F53D35152D24E44CC4F47C55850C34F53D3494ED4414EC1544ED045454BC445454BD04F494E54CC454EC9
:40430000D3545224D6414CC15343C3485224C8455824C2494E24CC45465424D24947485424CD49442480E40BE10ABC0F310DC30EF811F20E480DEE0CD10CC00DAA0BDD0C5C
:404340000C0D330DE20B3117A20D230C3717D6138017C81E330DAE1EA11EA61EDE1F04310731E40D100C560A8B0C330D330D4E08796A1B799E177CDC187C3D197F8B1C5066
:4043800051114650114E46534E52474F4446434F564F4D554C425344442F304944544D4F534C535354434E55464D4F4858424EC33904C3610CD300C9D6006F7CDE00677854
:4043C000DE00473E00C9000000354ACA99391C76982295B3980ADD479853D199990A1A9F9865BCCD98D6773E9852C74F80DB00C901FF1C00001400140000000000C3870907
:40440000C30000C30000C300000D32FEFFAA31204572726F720020696E20004F6B0D0A0000427265616B00210400397E23FE81C04E234623E569607AB3EBCA0507EBCD0AAF
:404440000A010D00E1C809C3EF06CD2807C5E3C1CD0A0A7E02C80B2BC31407E52A8A31060009093EE53ED0956F3EFF9CDA37076739E1D81E0CC356072A7931220C311E021A
:40448000011E14011E00011E12011E22011E0A011E18CD740832F530CD350E214906573E3FCD1B0A197ECD1B0ACD9A0BCD1B0A21D306CDE0142A0C3111FEFFCD0A0ACAA684
:4044C000037CA53CC47B1B3EC1AF32F530CD350E21DF06CDE01421FFFF220C31CD8709DA9A07CD9A0B3C3DCA9A07F5CD660CD5CD9E0847D1F1D27A0BD5C5AF327C31CD9A0F
:404500000BB7F5CD2E08DAD307F1F5CA070DB7C5D2EA07EB2A86311A020313CD0A0AC2DB076069228631D1F1CA11082A8631E3C109E5CD0E07E1228631EB74D12323732325
:4045400072231111311A772313B7C20908CD5A0823EB626B7E23B6CA9A07232323AFBE23C22208EB732372C316082A0E31444D7E23B62BC823237E23666FCD0A0A60697E55
:4045800023666F3FC83FD0C33108C02A0E31AF772377232286312A0E312B227E312A5F31227331AFCDAA0B2A8631228831228A31C12A0A31F9216331226131AF6F672284AA
:4045C00031327B31228E31E5C52A7E31C93E3FCD1B0A3E20CD1B0AC3FE30AF325E310E051111317EFE20CA260947FE22CA4609B7CA4D093A5E31B77EC22609FE3F3E9ECA3B
:4046000026097EFE30DAD108FE3CDA2609D511CA04C5012209C5067F7EFE61DAEA08FE7BD2EA08E65F774EEB23B6F2EC08047EE67FC8B9C2EC08EBE5131AB7FA1E094F7866
:40464000FE88C20D09CD9A0B2B237EFE61DA1609E65FB9CAFC08E1C3EA0848F1EBC9EB79C1D12312130CD63ACA3409FE49C23709325E31D654C2A708477EB7CA4D09B8CAD3
:40468000260923120C13C33D092110311213121312C93AF430B73E0032F430C26A0905CA8709CD1B0A3E052BCA7E097ECD1B0AC39009052BCD1B0AC29009CD1B0ACD420EA1
:4046C000C387092111310601AF32F430CD450A4FFE7FCA56093AF430B7CAA9093E00CD1B0AAF32F43079FE07CAED09FE03CC420E37C8FE0DCA3D0EFE15CA8109FE40CA7EBA
:4047000009FE5FCA7609FE08CA7609FE12C2E809C5D5E53600CDF21F211131CDE014E1D1C1C39009FE20DA900978FE493E07D2020A7971327C312304CD1B0AC39009CD1B99
:404740000A3E08C3FC097C92C07D93C97EE3BE23E3CA9A0BC34207F53AF530B7C21515F1C5F5FE20DA3F0A3AF230473A5B3104CA3B0A05B8CC420E3C325B31F1C1CDDB1F2F
:40478000C9CD9F1EE67FFE0FC03AF5302F32F530AFC9CD660CC0C1CD2E08C5CDAC0AE14E23462378B1CA8D07CDB50ACDC50BC5CD420E5E235623E5EBCD831B3E20E1CD1B63
:4047C0000A7EB723CA620AF2820AD67F4F11CB041A13B7F2940A0DC2940AE67FCD1B0A1A13B7F29E0AC3850AE52AF83022F630E1C9E5D52AF63011FFFFED5A22F630D1E194
:40480000F0E52AF83022F630CD9F1EFE03CAD80AE1C3B50A2AF83022F630C33C043E64327B31CD480DC1E5CD310D22773121020039CDEF06D1C2110B09D52B562B5E2323BA
:40484000E52A7731CD0A0AE1C2F50AD1F9EB0E08CD1F07E52A7731E3E52A0C31E3CD0A10CD100AA6CD0710E5CD351AE1C5D5010081515A7EFEAB3E01C24D0BCD9A0BCD07B0
:4048800010E5CD351ACDE919E1C5D5F533E52A7E31E30681C533CDC50B227E317EFE3ACA7A0BB7C24207237E23B6CAEC0B235E2356EB220C31EBCD9A0B115A0BD5C8D680DB
:4048C000DA480DFE25D24207074F0600EB21EA05094E2346C5EB237EFE3AD0FE20CA9A0BFE303F3C3DC9EB2A0E31CABF0BEBCD660CE5CD2E086069D1D2070D2B228C31EB30
:40490000C9DFC8D7FE1B2811FE03280DFE13C0D7FE11C8FE03280718F63EFF32FD30C0F6C0227E3121F6FFC12A0C31F57DA43CCAFF0B2282312A7E31228431AF32F530CD4C
:40494000350EF121E506C27607C38D072A84317CB51E20CA5607EB2A8231220C31EBC9CD6817C032F130C9E52AFA3006004F0922FA30E1C97EFE41D8FE5B3FC9CD9A0BCD27
:404980000710CDE919FA610C3A9731FE90DA911A018090110000E5CD641AE151C81E08C356072B110000CD9A0BD0E5F5219819CD0A0ADA4207626B19291929F1D6305F1618
:4049C0000019EBE1C36A0CCA5E08CD430C2BCD9A0BE52A5F31CAAE0CE1CD100A2CD5CD430C2BCD9A0BC24207E3EB7D935F7C9A57DA3707E52A863101280009CD0A0AD2375C
:404A000007EB220A31E1225F31E1C35E08CA5A08CD5E08015A0BC3ED0C0E03CD1F07C1E5E52A0C31E33E8CF533C5CD660CCD330DE52A0C31CD0A0AE123DC3108D42E08607D
:404A4000692BD81E0EC35607C016FFCDEB06F9FE8C1E04C25607E1220C31237CB5C22B0D3A7C31B7C28C07215A0BE33EE1013A0E0006007948477EB7C8B8C823FE22CA3706
:404A80000DC33A0DCDFD11CD100AB4D53A5D31F5CD1910F1E3227E311FCD0C10CA9B0DE52A9431E523235E23562A0E31CD0A0AD28A0D2A0A31CD0A0AD1D2920D216F31CD23
:404AC0000A0AD2920D3ED1CD4116EBCD7A14CD4116E1CD441AE1C9E5CD411AD1E1C9CD68177E47FE8CCAB10DCD100A882B4B0D78CA820BCD670CFE2CC0C3B20DCD19107E52
:404B0000FE88CACE0DCD100AA92BCD0A10CDE919CA330DCD9A0BDAEE0CC3810B2BCD9A0BCA420EC8FEA5CA750EFEA8CA750EE5FE2CCA5E0EFE3BCA980EC1CD1910E53A5DB7
:404B400031B7C22E0ECD8E1BCD9E1436202A9431342A94313AF2304704CA2A0E043A5B31863DB8D4420ECDE314AFC4E314E1C3E00D3A5B31B7C8C3420E36002110313E0DE6
:404B8000CD1B0A3E0ACD1B0AAF325B313AF1303DC8F5AFCD1B0AF1C3530E3AF330473A5B31B8D4420ED2980ED60ED26C0E2FC38D0EF5CD6517CD100A292BF1D6A8E5CA88B7
:404BC0000E3A5B312F83D2980E3C473E20CD1B0A05C2910EE1CD9A0BC3E70D3F5265646F2066726F6D2073746172740D0A003A7D31B7C23C07C1219F0ECDE014C38D08CD59
:404C00004B147EFE223E0032F530C2DD0ECD9F14CD100A3BE5CDE3143EE5CD9108C1DAE90B237EB72BC5CA300D362CC3F70EE52A8C31F6AF327D31E3C3030FCD100A2CCD70
:404C4000FD11E3D57EFE2CCA2B0F3A7D31B7C2980F3E3FCD1B0ACD9108D1C1DAE90B237EB72BC5CA300DD53A5D31B7CA550FCD9A0B5747FE22CA490F3A7D31B757CA460F4D
:404C8000163A062C2BCDA214EB21600FE3D5C3630DCD9A0BCDF01AE3CD411AE12BCD9A0BCA6C0FFE2CC2B20EE32BCD9A0BC2FF0ED13A7D31B7EBC2C00BD5B621870FC4E07E
:404CC00014E1C93F45787472612069676E6F7265640D0A00CD310DB7C2B10F237E23B61E06CA5607235E2356EB227931EBCD9A0BFE83C2980FC32B0F110000C4FD11227E13
:404D000031CDEB06C24807F9D57E23F5D5CD271AE3E5CD9417E1CD411AE1CD381AE5CD641AE1C190CD381ACAF70FEB220C316960C3560BF92A7E317EFE2CC25A0BCD9A0B48
:404D4000CDBF0FCD1910F6373A5D318FB7E8C35407CD100A282B1600D50E01CD1F07CD90102280312A8031C178FE78D40A107E1600D6B3DA5110FE03D25110FE0117AABA7C
:404D800057DA4207227531CD9A0BC335107AB7C278117E227531D6ACD8FE07D05F3A5D313DB37BCAD61507835F213406197856BAD023CD0A10C5012810C5434ACD1A1A5897
:404DC000514E234623C52A7531C31C10AF325D31CD9A0B1E24CA5607DAF01ACD380CD2F710FE262012CD9A0BFE48CA341FFE42CAA41F1E02CA5607FEACCA9010FE2ECAF0B3
:404E00001AFEADCAE610FE22CA9F14FEAACAD811FEA7CA0314D6B6D20811CD1510CD100A29C9167DCD1C102A8031E5CD121ACD0A10E1C9CDFD11E5EB2294313A5D31B7CC7A
:404E4000271AE1C90600074FC5CD9A0B79FE31DA2F11CD1510CD100A2CCD0B10EB2A9431E3E5EBCD6817EBE3C33711CDDE10E311F210D5019304094E236669E915FEADC87B
:404E8000FE2DC814FE2BC8FEACC82BC9F6AFF5CD0A10CD4C0CF1EBC1E3EBCD2A1AF5CD4C0CF1C17921C113C27311A34F78A2E9B34F78B2E9218A113A5D311F7A175F1664DB
:404EC00078BAD0C379108C1179B71FC1D1F5CD0C1021CE11E5CA641AAF325D31D5CD23167E23234E2346D1C5F5CD2716CD381AF157E17BB2C87AD601D8AFBB3CD0151D0A69
:404F0000BE2303CAB6113FC3F4193C8FC1A0C6FF9FC3FB19165ACD1C10CD0A10CD4C0C7B2F4F7A2FCDC113C1C328102BCD9A0BC8CD100A2C01EF11C5F6AF325C3146CD3825
:404F40000CDA4207AF4F325D31CD9A0BDA1912CD380CDA26124FCD9A0BDA1A12CD380CD21A12D624C235123C325D310F814FCD9A0B3A7B313DCAE212F245127ED628CABA5A
:404F800012AF327B31E550592A8E31CD0A0A119031CA2A192A8831EB2A8631CD0A0ACA7812799623C26D12789623CAAC1223232323C35F12E1E3D511FA10CD0A0AD1CAAF6C
:404FC00012E3E5C50106002A8A31E509C1E5CD0E07E1228A3160692288312B3600CD0A0AC29E12D173237223EBE1C932973121DE06229431E1C9E52A5C31E357D5C5CD40FC
:405000000CC1F1EBE3E5EB3C577EFE2CCAC012CD100A29228031E1225C311E00D511E5F52A88313E19EB2A8A31EBCD0A0ACA1A137EB923C2FC127EB8235E235623C2E812E6
:405040003A5C31B7C24B07F1444DCA2A1996CA78131E10C35607110400F1CA610C712370234FCD1F07232322753171233A5C311779010B00D23D13C10371237023F5E5CD77
:40508000D51AEBE1F13DC23513F5424BEB19DA3707CD2807228A312B3600CD0A0AC25B1303572A75315EEB2909EB2B2B73237223F1DA9C13474F7E2316E15E235623E3F589
:4050C000CD0A0AD21513E5CDD51AD119F13D444DC27D132929C109EB2A8031C92A8A31EB210000393A5D31B7CABC13CD2316CD23152A0A31EB2A73317D934F7C9A41501EFF
:4051000000215D31730690C3001A3A5B3147AFC3C213CD5914CD4B1401310DC5D5CD100A28CDFD11E5EB2B562B5EE1CD0A10CD100A29CD100AB4444DE3712370C39814CD5C
:405140005914D5CDDE10CD0A10E35E2356237AB3CA4E077E23666FE52A8E31E3228E312A9231E52A9031E5219031D5CD411AE1CD07102BCD9A0BC24207E1229031E12292D3
:4051800031E1228E31E1C9E52A0C31237CB5E1C01E16C35607CD100AA73E80327B31B647CD0212C30A10CD0A10CD8E1BCD9E14CD2316017E16C57E2323E5CDF914E14E23C7
:4051C00046CD9214E56FCD1616D1C9CDF914216F31E5772323732372E1C92B062250E50EFF237E0CB7CAB414BACAB414B8C2A514FE22CC9A0BE323EB79CD9214116F312ACD
:4052000061312294313E01325D31CD441ACD0A0A226131E17EC01E1EC3560723CD9E14CD2316CD381A1C1DC80ACD1B0AFE0DCC4C0E03C3EA14B70EF1F52A0A31EB2A733139
:405240002F4F06FF0923CD0A0ADA171522733123EBF1C9F11E1ACA5607BFF501FB14C52A5F31227331210000E52A0A31E5216331EB2A6131EBCD0A0A013415C288152A86E0
:4052800031EB2A8831EBCD0A0ACA5B157E2323B7CD8B15C34515C1EB2A8A31EBCD0A0ACAB115CD381A7BE509B7F25A15227531E14E0600090923EB2A7531EBCD0A0ACA5B79
:4052C00015017A15C5F6807E23235E235623F0B7C8444D2A7331CD0A0A6069D8E1E3CD0A0AE3E56069D0C1F1F1E5D5C5C9D1E17DB4C82B462B4EE52B2B6E26000950592B8E
:40530000444D2A7331CD1107E171237069602BC32615C5E52A9431E3CD9010E3CD0B107EE52A9431E5861E1CDA5607CD8F14D1CD2716E3CD2616E52A7131EBCD0D16CD0DD3
:4053400016212510E3E5C3C014E1E37E23234E23466F2C2DC80A120313C31716CD0B102A9431EBCD4116EBC0D550591B4E2A7331CD0A0AC23F164709227331E1C92A6131B7
:405380002B462B4E2B2BCD0A0AC0226131C901D113C5CD2016AF57325D317EB7C901D113C5CD5616CA610C23235E23561AC93E01CD8F14CD6B172A713173C1C3C014CD1B87
:4053C00017AFE34FE57EB8DA901678110E00C5CDF914C1E1E5232346236668060009444DCD92146FCD1616D1CD2716C3C014CD1B17D1D51A90C38616EB7ECD20170405CA05
:40540000610CC51EFFFE29CAD516CD100A2CCD6817CD100A29F1E3018816C53DBE0600D04F7E91BB47D843C9CD5616CA09185F23237E23666FE5194672E3C57EFE24C20A7C
:4054400017CD341F180DFE25C21417CDA41F1803CDF01AC1E170C9EBCD100A29C1D1C543C9CD6B1732EF30CDEE30C3D113CD5517C3B630CD5517F51E002BCD9A0BCA4B17DC
:40548000CD100A2CCD6817C1CDEE30ABA0CA4C17C9CD681732EF3032B730CD100A2CC36817CD9A0BCD0710CD460C7AB7C2610C2BCD9A0B7BC9CD4C0C1AC3D113CD0710CD48
:4054C0004C0CD5CD100A2CCD6817D112C921671CCD381AC3A317CD381A21C1D1CD121A78B7C83A9731B7CA2A1A90D2BD172F3CEBCD1A1AEBCD2A1AC1D1FE19D0F5CD4F1A7E
:4055000067F1CD6818B4219431F2E317CD4818D229182334CA51072E01CD7E18C32918AF90477E9B5F237E9A57237E994FDC54186863AF4779B7C216184A54656F78D608E7
:40554000FEE0C2F717AF329731C905297A1757798F4FF20E18785C45B7CA29182197318677D20918C878219731B7FC3B1846237EE680A94FC32A1A1CC014C00CC00E803419
:40558000C0C351077E835F237E8A57237E894FC92198317E2F77AF6F90477D9B5F7D9A577D994FC90600D608DA7718435A510E00C36A18C6096FAF2DC8791F4F7A1F577B14
:4055C0001F5F781F47C37A180000008103AA561980F122768045AA3882CDE919B7EA610C2197317E01358011F30490F570D5C5CDA317C1D104CD3F19218C18CD9A17219064
:4056000018CD311D018080110000CDA317F1CD641B01318011187221C1D1CDE919C82E00CDA7197932A631EB22A731010000505821F417E5210019E5E52194317E23B7CAE2
:405640002C19E52E081F6779D21A19E52AA73119EBE13AA631891F4F7A1F577B1F5F781F472D7CC20919E1C9435A514FC9CD1A1A012084110000CD2A1AC1D1CDE919CA45B6
:40568000072EFFCDA71934342B7E32C2302B7E32BE302B7E32BA3041EBAF4F575F32C530E5C57DCDB930DE003FD2771932C530F1F137D2C1E1793C3D1FFA2A18177B175FFA
:4056C0007A175779174F297817473AC5301732C53079B2B3C26419E521973135E1C26419C3510778B7CACB197D219731AE80471FA878F2CA19C68077CA2A19CD4F1A772BAE
:40570000C9CDE9192FE1B7E1F20918C35107CD351A78B7C8C602DA510747CDA31721973134C0C351073A9731B7C83A9631FE2F179FC03CC9CDE91906881100002197314F58
:4057400070060023368017C3F117CDE919F02196317EEE8077C9EB2A9431E3E52A9631E3E5EBC9CD381AEB2294316069229631EBC92194315E2356234E234623C911943166
:4057800006041A77132305C2461AC92196317E07371F773F1F2323777907371F4F1FAEC978B7CAE91921F219E5CDE91979C8219631AE79F8CD7E1A1FA9C92378BEC02B7942
:4057C000BEC02B7ABEC02B7B96C0E1E1C9474F575FB7C8E5CD351ACD4F1AAE67FCB51A3E9890CD68187C17DC3B180600DC5418E1C91B7AA33CC00BC92197317EFE983A945F
:4058000031D07ECD911A36987BF57917CDF117F1C921000078B1C83E1029DA1513EB29EBD2EB1A09DA15133DC2DD1AC9FE2DF5CAFC1AFE2BCAFC1A2BCD091847575F2F4F4C
:40584000CD9A0BDA4D1BFE2ECA281BFE45C22C1BCD9A0BCD4011CD9A0BDA6F1B14C22C1BAF935F0C0CCA041BE57B90F4451BF23B1BF5CD3119F13CC22F1BD1F1CC121AEB54
:40588000C9C8F5CDD219F13DC9D557788947C5E5D5CDD219F1D630CD641BE1C1D1C3041BCD1A1ACDFB19C1D1C3A3177B0707830786D6305FC31A1BE521DA06CDE014E1EB16
:4058C000AF0698CD001A21DF14E5219931E5CDE9193620F29C1B362D233630CA521CE5FC121AAFF5CD581C01439111F84FCD641AB7E2C91BF1CD461BF5C3AB1BCD3119F12D
:405900003CF5CD581CCD91173CCD911ACD2A1A010603F1813CFAE51BFE08D2E51B3C473E023D3DE1F5116B1C05C2F61B362E2336302305362ECC3F1AC5E5D5CD351AE1068E
:405940002F047B965F237A9E5723799E4F2B2BD2051CCD481823CD2A1AEBE17023C10DC2F61B05CA361C2B7EFE30CA2A1CFE2EC43F1AF1CA551C364523362BF2461C362D8C
:405980002F3C062F04D60AD2481CC63A237023772371E1C901749411F723CD641AB7E1E2C01BE900000080A08601102700E803006400000A000001000021121AE3E9CD1ACD
:4059C0001A21671CCD271AC1D1CDE91978CAD01CF29B1CB7CA4507B7CA0A18D5C579F67FCD351AF2B81CD5C5CDBC1AC1D1F5CD641AE17C1FE1229631E1229431DC7D1CCC6B
:405A0000121AD5C5CD9D18C1D1CDDE18CD1A1A013881113BAACDDE183A9731FE88D2C519CDBC1AC680C602DAC519F5218C18CD9417CDD518F1C1D1F5CDA017CD121A2110A2
:405A40001DCD401D110000C14AC3DE1808402E9474704F2E776E02887AE6A02A7C50AAAA7EFFFF7F7F0000808100000081CD1A1A11DC18D5E5CD351ACDDE18E1CD1A1A7EEB
:405A800023CD271A06F1C1D13DC8D5C5F5E5CDDE18E1CD381AE5CDA317E1C3491DCDE91921C930FAC21D21EA30CD271A21C930C886E6070600772387874F09CD381ACDDE4A
:405AC000183AC8303CE6030600FE018832C83021C61D87874F09CD9417CD351A7B59EE4F4F36802B46368021C730347ED6ABC2B91D770C151CCDF41721EA30C3411A772BDB
:405B0000772B77C39D1D68B1466899E9926910D1756821201ECD9417CD1A1A01498311DB0FCD2A1AC1D1CD3F19CD1A1ACDBC1AC1D1CDA01721241ECD9A17CDE91937F20CC6
:405B40001ECD9117CDE919B7F5F4121A21241ECD9417F1D4121A21281EC3311DDB0F49810000007F05BAD71E866426998758342387E05DA586DA0F4983CD1A1ACDDC1DC1C1
:405B8000E1CD1A1AEBCD2A1ACDD61DC33D19CDE919FC7D1CFC121A3A9731FE81DA6F1E0100815159CD3F19219A17E521791ECD311D21201EC9094AD73B78026E847BFEC1AC
:405BC0002F7C74319A7D843D5A7DC87F917EE4BB4C7E6CAAAA7F00000081C9D7C93E0CC3DB1FCD68177B32F230C9CD0710CD4C0CED53F630ED53F830C9CD4C0CD5E14623EF
:405C00007EC3C213CD0710CD4C0CD5CD100A2CCD0710CD4C0CE3732372E1C9CD0A10CD4C0CC52199317AFE00280CCD171F78FE302802702371237BCD171F7AFE00200578CA
:405C4000FE30280270237123AF772377C1219931C3701447E60FFE0A3802C607C6304F780F0F0F0FE60FFE0A3802C607C63047C9EB210000CD4D1FDA6D1F1805CD4D1F386B
:405C80001F29292929B56F18F3131AFE20CA4D1FD630D8FE0A3805D607FE0AD8FE103FC9EB7A4BE5CDC113E1C91E26C35607CD0A10CD4C0CC521993106110578FE012808B8
:405CC000CB13CB1230F41804CB13CB123E30CE0077230520F3AF772377C1219931C37014EB210000CDC11FDACF1FD63029B56FCDC11F30F6EB7A4BE5CDC113E1C9131AFE9B
:405D000020CAC11FFE30D8FE323FC91E28C35607DD21FFFFC3A603C30800C300003E0032FD30C3AD03ED45F5A0C1B83E00C9CD1B0AC3420E253034782000000020253032DB
:405D40007800000020200000C8490040190000000140000C800C0140800300140140000800400140000A004C01400002005001402000000020520040E40900480700000C42
:405D80000140EC0900488000303132333435363738394142434445460000000001000000A45D000001000000E85E0000000000000000000001000000BC5D000001000000DF
:405DC000A45E000003000000E85D00000000000000000000000000000000000000000000E45D0000020A000000008103080002000100820240000A000100030240000A005F
:405E000002030000040309042C0343007900700072006500730073002000530065006D00690063006F006E0064007500630074006F0072001003550053004200550041001F
:405E4000520054003803430044004300200043006F006D006D0075006E00690063006100740069006F006E00200049006E00740065007200660061006300650026034300E4
:405E80004400430020004400610074006100200049006E0074006500720066006100630065000000090243000201018032090400000102020103052400100104240202058B
:405EC0002406000105240100010705810308000A09040100020A0000040705820240000007050302400000001201000202000008B40432F20100010280014300232D302BFD
:405F00002000686C4C00656667454647003031323334353637383941424344454600303132333435363738396162636465660000F8B500BFF8BC08BC9E4670474D0000004D
:405F400029150000F8B500BFF8BC08BC9E46704729000000685F0000C8C0FF1F98000000400500000000000000000000A0C6FF1F0000307560EA00003C0000000087930325
:405F800000C2010000000800C201000000080000A120000000000200000000000000000000000000000000000000000000000000000000000000000000000000FA5E000030
:405FC000000000000000000000000000000000000000000000000000000000000000000000000000000000000000000000000000000000000000000000000000FCC0FF1FC7
:406000000000000000000000000000000000000000000000000000000000000000000000000000000000000000000000000000000000000000000000000000000000000060
:406040000000000000000000000000000000000000000000000000000000000000000000000000000000000000000000000000000000000000000000000000000000000020
:4060800000000000000000000000000000000000000000000000000000000000000000000000000000000000000000000000000000000000000000000000000000000000E0
:4060C00000000000000000000000000000000000000000000000000000000000000000000000000000000000000000000000000000000000000000000000000000000000A0
:020000040001F9
:0200000480007A
:40000000014500400E5200400264004001650040090101402D020140410301403F0401404A050140040601401A07014021090140230B0140130C01404C0D01404B0E0140DF
:400040003D0F01400B150140121701403418014054190140321A0140581B01401A40014021410140124201400D430140174401401745014013460140134701400D48014044
:40008000194901400F4C0140324D014006500140025101407E02006A014C092010AA116C18121910289A29C330013102602061307C4074108F0F78208102824083408640C5
:4000C000874089048E828F10E6070F0112022201320133013602582459245B045C885F1181848584880189018C018D8494029507973899569B099D60A104A380A401A5809C
:40010000A704A904AD0AAF10B002B37FB580B601B908BE41BF10D409D804D904DB04DC20DD20DF01018003040A200E401020164019411E2220082310250829822A902B30DC
:400140003020338439083A063B523F80450846205A145B425C405D085E2261406629670168016D296F02750477897F088114870989808A208B108F04910892409340990285
:400180009AD29B40A354AB44B210C003C214C414CA0FCC0ECE1FD6FFD8F8DE20E010E401E680E80AEC080201040105040C060D180F20100111081340150116041702180224
:4001C00019041C011F602180220A26012718280129102B402C062D062F013178320133073408358036063B083E043F115440580459045B045C205D205F01870292029A04D9
:400200009F02A203A302AB01AE01B004B603B703B980BE40D201D301D610D824D904DB04DC08DF110102032109040A240B420D060E100F0812A6158119841A041C401E0285
:400240002080210823042680281029202A822C402F0830A031023306348039883E0849404A026194681069906B806F01714072027F088140870488409342944096309701C4
:4002800099139A849B049D089E01A001A180A220A324A420A708A914AB82AD01B004B204B382B608C00DC25FC49FCAAFCC1FCE4AD80EDE20E003EE54B908BF04D904DF01C7
:4002C000220483018A048B808F029110950197019B809CC09D089E09A011A480A70AA984AA10AD24B030B108B501B601E2B1EA88EC04EE423840398082108A048C048D04BD
:400300008E10919093929508968098209A809B019C809D109F56A088A226A402A544A610A788AB01AF0AB114B390E230E420E640E810EAA0EC20050407108008830186109D
:400340009190939095209680972198209A809B019C809D149F46A080A226A302A402A544A708AB80AD80AE84B020B201B301B404B580E003E428E820EA9AEE70920C97010E
:400380009C039E04A401A608AA03AC02AE08B60FB701BE40D608D804D924DB04DC80DD90DF01055407400A800B010D040E86100811981580171618021E0821802404264011
:4003C0002F18320434183C053D20441846544C244E014F025608578259806D206E026F11748075407880814082208404870289048A088B408C058E0490019208931095205E
:40040000970198209A549C04A008A202A402A504AB04AE06AF10B204B320B520C0F0C2F9C4F7CA60CC62CEE0D0E0D230D608DE08E010E221E610E801EE200005020A040923
:400440000606070108020A0D0B010D01162018031A0C1E102E30300F320F343037013A0A3E103F405608580459045B045C025D905F0180988152820283A48402850286981B
:40048000870D881389428A648B988C9A8D0D910D940295319742989899E09A029C9AA021A10DA2D8A4FCA50DA603A838A90DAAC0B213B3F0B4E0B50FB60FB908BAA0BB20C4
:4004C000D602D72CD804D904DB04DC22DD20DF0100110210040A0604070209040B090C840E08100216501720181019221C011D041E041F442240240427102CA02F083420B6
:400500003504371239203A743B883C053D403E205980650269046A406B046CA56D406E086F0877028009824085808702888089048C018E448F08C0FEC2E7C471CAE0CCE013
:40054000CEFED608D880E259E69088409C40A880AA01AC10B708E080E818EA05EC03EE808080851088018E0891109CC09E09A011A480A708AD01B108E010E204E408E640FF
:40058000EA08EE08000104040502070808060F031101130816081A081B101C021F0C240129032B04300E32013310350F38083E053F10580459245B045C805F018002820869
:4005C00089018B089203950397049B0C9E0CA401A502A608A708A803AA04AF03B30FB60FBE40BF04D804D904DB04DF01034005260A020B800C080D800E0410081108121442
:40060000142018021CA0210426182A802B202C0830283540362037023A103C403D085C9A670268206A826B086D806E406F78700271407228759077027C8083088511870412
:4006400089028C028D048F0290409110920493929409950896B098209A809B019C809D109E209F52A088A226A402A544A690A788AE20B280B401B704C078C2E9C426CA2A98
:40068000CCB6CE54D6F0D810DE10E092E402E640EA80EE080703170118021B02260128012A02350336033E403F10580459045B045F01870488018A028C048E088F08920C96
:4006C00093019610971099029C01A108A202A401A502A808A902AA04AB04AF08B003B210B318B506B60CB701B802B928BE41BF14D824D924DC88DF01060407010B080D8008
:400700000E400F101018141015111B801C011E101F02221024082504268027102C982D803008331036163A083C403E04584059145B0260026122620869AA704171087308CE
:4007400078087A107C80817484428508860889068A108C418F0A9040911192449318940995229630989099809A0C9B019C08A088A180A206A504A680A782A810A980AA085E
:40078000AC10AD01B050B481B520C0C0C2B2C476CAF0CCE6CE52D60FD80FDE10E083E20CE60FE810EA01EE80028206210A080B100E42310833803480534057405B105F817D
:4007C0006240630466086C4082018620C0F0C2F0CC70D4E0D6E0D8C0DC40E030090152085480560259205B085E01650182018390864087048A018D01948097859C809E487E
:400800009F90A201A508A7C0AAC0AE06AF10C210D4E0D6E0D880E2F0E480E870EC303E10804094809C809D209E029F08A480A608A780AA08AB41AF40B509CE20E280EAB047
:40084000EE8088808B048D2096109A209C809D209F08A480A608A780B202B620070409200B400C010F01110114201640531056205B206980830486408B108E20C001C20FC6
:40088000C40CD407DA02E004E402532254405C42601062806502830189208F2090109101934195809821A120AB20B410D407D607D803E002E601E808814086828840910118
:4008C00093409440958098209C029D02A440A510A680A702AC01AD01B510E404EE08080809100F408B408D029101944098209D02A202A510B342B402C20EE002E204E808C6
:40090000EA04EC01220853048C90930896109A209F08A480A608AF80C840D420EE10001008200E020F2011045620670888209308941095049A20A601A710AA11AD04B30872
:40094000B710C040C2E0C410D440D880EA80ECC0104013201480620279017C208788910194409820A202AC08C40ED802DE030002012004120A010B200C020F045080570856
:4009800059015B205C015F8061026510682078407C80800381208320840185028601871088808B048C118D1198C09B80A020A308AB20B020B440C00FC20FD407D607D803AF
:4009C000DA02DC01DE04E002E208E40BE604E802EC040005010108040A050E040F01002A03C00000C356FFFF000000000000060C00001808000120020000010000004000FF
:400A0000040402001000080C020004000000010000028001080010030100000000000000FF0C000300000000000010404302500006BE0FCD37FFFFFF2200F00804000000FD
:400A40000000000004040404200200010000C00040011011C00100114001400100000000000000000000000000000000100000FFEF00EF0000000000310008013000300046
:400A8000000000004000110202000200E000000000ABAB002000000000FFFF00FF000000E50000FF1A0012000000000000FFFF00FFFF0000FF0000FF0000FFFF0000000084
:400AC0000700F807000007070000000000000000000000000000000000000000000000000000000000000000000000000000000000000000000000000000000000000000E2
:400B000000000000000000000000000000000000000000000000000000000000000000000000000000000000000000000000000000000000000000000000000000000000B5
:400B40000000000000000000000000000000000000000000000000000000000000000000000000000000000000000000000000000000000000000000000000000000000075
:400B80000000000000000000000000000000000000000000000000000000000000000000000000000000000000000000000000000000000000000000000000000000000035
:400BC00000000000000000000000000000000000000000000000000000000000000000000000000000000000000000000000000000000000000000000000000000000000F5
:0200000490006A
:0400000000004005B7
:0200000490105A
:04000000BC90ACAF55
:0200000490303A
:020000001BA43F
:0200000490402A
:4000000000000000000000000000000000000000000000000000000000000000000000000000000000000000000000000000000000000000000000000000000000000000C0
:400040000000000000000000000000000000000000000000000000000000000000000000000000000000000000000000000000000000000000000000000000000000000080
:0200000490501A
:0C00000000012E13306900012E3C4C0D55
:00000001FF