:020000040000FA
:100000000C9476020C949E020C949E020C949E0218
:100010000C949E020C949E020C949E020C949E02E0
:100020000C949E020C949E020C949E020C94051D4E
:100030000C949E020C94BC1F0C94EE1F0C949E0218
:100040000C949E020C949E020C949E020C94ED1B48
:100050000C949E02494F533A20436865636B2053CA
:100060004420616E642070726573732061206B653B
:100070007920746F207265706561740D0A00494FB4
:10008000533A2043757272656E7420002020202040
:10009000202020202020202020202020200D000DA6
:1000A0000A507265737320435220746F206163633A
:1000B0006570742C2045534320746F2065786974F3
:1000C000206F7220616E79206F74686572206B6595
:1000D0007920746F206368616E67650020363A206E
:1000E0004368616E6765205A383020636C6F636BBC
:1000F00020737065656420282D3E0020353A206904
:100100004C6F6164000D0A20343A204175746F62AF
:100110006F6F740020333A204C6F6164204F53207E
:1001200066726F6D200020323A20466F727468004C
:1001300020313A2042617369630020303A204E6FCB
:10014000206368616E6765202800494F533A205349
:10015000656C65637420626F6F74206D6F646520D9
:100160006F722073797374656D20706172616D6553
:10017000746572733A00494F533A2043502F4D2013
:100180004175746F657865632069732000494F532A
:100190003A20466F756E6420475045204F70746951
:1001A0006F6E00494F533A205A383020636C6F63AA
:1001B0006B2073657420617420000D0A0A5A383070
:1001C0002D4D424332202D20413034303631380D10
:1001D0000A494F53202D20492F4F205375627379C0
:1001E0007374656D202D20533232303731382D52E3
:1001F0003234303632300D0A00FB013110FD21520D
:10020000FDCDC6FECD3EFFCDF4FD3EFFBC2010BDB2
:10021000200D21D9FDCDC6FE2188FDCDC6FE76E597
:1002200021D9FDCDC6FE2175FDCDC6FEE1CD4BFF2A
:10023000CD3EFFCD3EFFDB01FEFF20FAE9694C6FAA
:100240006164202D20496E74656C2D486578204CC2
:100250006F61646572202D205332303037313800A1
:100260005374617274696E6720416464726573735C
:100270003A20004C6F6164206572726F72202D20ED
:1002800053797374656D2068616C7465640057619F
:100290006974696E6720696E707574207374726515
:1002A000616D2E2E2E0053796E7461782065727206
:1002B0006F722100436865636B73756D20657272A0
:1002C0006F722100694C6F61643A2000416464726E
:1002D0006573732076696F6C6174696F6E2100F5C8
:1002E000D5C501FFFF21A3FDCDC6FECD3EFFCD72DA
:1002F000FFFE0D28F9FE0A28F5FE2028F1CD1AFF91
:10030000CD69FFFE3AC2A3FECDE1FE571E00CDBE71
:10031000FECDD6FE3EFFB82005B92002444D7CCD6F
:10032000BEFE7DCDBEFECDE1FECDBEFEFE01201E99
:10033000CDE1FECDBEFE7BA72866CD3EFF21D9FDD7
:10034000CDC6FE21C9FDCDC6FE01FFFF18527AA71A
:10035000282CCDE1FECDBEFEE5C5A701F0FCED42A7
:10036000C1E1DA8EFECD3EFF21D9FDCDC6FE21E1F1
:10037000FDCDC6FE01FFFF182777231518D0CDE16C
:10038000FECDBEFE7BA720B2CD3EFFC303FECD3E19
:10039000FF21D9FDCDC6FE21BBFDCDC6FE01FFFF6D
:1003A000CD3EFF6069C1D1F1C9C54F7B915F79C175
:1003B000C9F5E57EFE002806CD69FF2318F5E1F1B9
:1003C000C9F5CDE1FE67CDE1FE6FF1C9C5CDF4FE03
:1003D000CB07CB07CB07CB0747CDF4FEB0C1C9CDC8
:1003E00072FFCD1AFFCD06FF30F5CD23FFCD2EFFD6
:1003F000C9FE47D0FE3030023FC9FE3AD8FE413038
:10040000023FC937C9FE61D8FE7BD0E65FC9FE3A1C
:100410003802D607D630E60FC9F5E60FC630FE3AE9
:100420003802C607CD69FFF1C9F53E0DCD69FF3E23
:100430000ACD69FFF1C9E5F57CCD58FF7DCD58FFA8
:10044000F1E1C9F5C5470F0F0F0FCD2EFF78CD2E67
:10045000FFC1F1C9F53E01D301F1D300C9DB01FEB3
:10046000FFCA72FFC9000000020000000000000087
:10047000000504000700000000000000000000006C
:100480000000000000010204081020408001020466
:10049000081020408001020408102040800102045E
:1004A0000810204080020202020202020204040438
:1004B000040404040403030303030303030101010D
:1004C0000101010101000039003600330030000055
:1004D000003B0038003500320000003A003700349D
:1004E000003100009204EF1A1E209E0411241FBE4A
:1004F000CFE5D8E0DEBFCDBF14E0A0E6B0E0E6E691
:10050000FBE402C005900D92AA30B107D9F725E0AF
:10051000AAE0B4E001C01D92AB3FB207E1F712E0E0
:10052000C5E7D2E004C02197FE010E94F822C2373D
:10053000D107C9F70E94A6220C94A6250C940000AE
:100540001F93CF93DF93EC01162F0E945A251817A3
:1005500039F0612FCE01DF91CF911F910C9462256C
:10056000DF91CF911F9108950C945A25DC01ED91F4
:10057000FC910190F081E02D09940F931F93CF938C
:10058000DF93EC010E944F1D088119812A813B8174
:10059000601B710B820B930B693C71058105910502
:1005A00080F080E00E94671E61E0892B09F060E026
:1005B00080E00E94391E0E944F1D688379838A83E0
:1005C0009B83DF91CF911F910F9108956AE00E9464
:1005D000B6228295807F890F0895982F92959F70FB
:1005E0008F702AE0929F800D11240895CF93C82F19
:1005F0008A3030F46EE770E08AE595E00E94A92029
:100600004AE050E06C2F8AE595E0CF910C949F2151
:10061000CF93DF93D82FC0E0CD1751F061E08FE08A
:100620000E94391E60E08FE00E94391ECF5FF4CF38
:10063000DF91CF910895CF93DF93D82F81E00E946F
:10064000080360E082E00E94391ECFEFCABB86E358
:100650008BBB82E00E9408031ABACBBB82E00E94E7
:100660000803CABBDBBB82E00E9408031ABACBBBFB
:1006700061E082E00E94391E83E00E94080381E06D
:100680000E94080360E082E00E94391ECABB83E238
:100690008BBB82E00E9408031ABACBBB61E082E008
:1006A0000E94391E83E0DF91CF910C9408031F93C1
:1006B000CF93DF93182FD92F81E00E94080360E0C9
:1006C00082E00E94391ECFEFCABB81E28BBB82E081
:1006D0000E9408031ABACBBB82E00E940803CABB7F
:1006E0001BBB83E00E940803DBBB82E00E9408037F
:1006F0001ABACBBB61E082E0DF91CF911F910C94DD
:10070000391E60E086E10E94391E86E00E940803DF
:1007100061E086E10E94391E82E00C9408030E9489
:10072000FC1308950E940A1508950F931F93CF9309
:10073000DF9300D0CDB7DEB78B01AE014F5F5F4FC7
:1007400060E270E00E9491169981F80190830F9009
:100750000F90DF91CF911F910F9108950F931F93E9
:10076000CF93DF9300D0CDB7DEB78B01AE014F5FE3
:100770005F4F60E270E0009721F470E060E090E08D
:1007800080E00E9463179981F80190830F900F9089
:10079000DF91CF911F910F910895B0E0A0E0BC01CF
:1007A000CD0129E0660F771F881F991F2A95D1F781
:1007B0000E94671808950F931F93CF93DF936623CA
:1007C00009F476C08A01C62FD82F60E870E08AE568
:1007D00095E00E94A9204AE050E06C2F8AE595E060
:1007E0000E949F216DEE71E08AE595E00E94A920AC
:1007F00064EA70E0C330C1F058F461E970E0C130E0
:1008000099F06AE970E0C23079F061ED70E00CC0F7
:1008100067EB70E0C53041F06CEA70E0C53020F065
:1008200063EC70E0C63089F78AE595E00E94A92064
:1008300069ED70E08AE595E00E94A92069EE70E01C
:10084000D230A1F058F46EED70E0DD2379F064EE63
:1008500070E0D13059F061ED70E008C06EEE70E0EC
:10086000D33021F064EF70E0D430A9F78AE595E049
:100870000E94A92069EF70E08AE595E00E94A92016
:100880000115110559F064E071E08AE595E00E94D8
:10089000A920B8018AE595E00E94A9206BEB72E0DF
:1008A0008AE595E0DF91CF911F910F910C94CE20B6
:1008B000DF91CF911F910F910895CF93C82F6EE0D4
:1008C00071E08AE595E00E94A9204AE050E06C2F93
:1008D0008AE595E00E949F21C05DC093690087E68C
:1008E00090E00E9492036FE074E084E194E00E9443
:1008F000950380910F04882399F06DEE71E08AE5ED
:1009000095E00E94A92064E174E08AE595E00E94E8
:10091000A9206BEB72E08AE595E0CF910C94A920B9
:10092000CF91089568E171E082E894E00E94152279
:1009300061E271E08CE794E00C9415228CE794E07E
:100940000E94A62182E894E00C94A6218AE595E015
:100950000E94901E892B41F080916E04882321F023
:1009600060E081E00C94391E08958AE595E00E94CC
:10097000901E181619062CF48AE595E00E94AA1E0E
:10098000F4CF64E570E08AE595E00E94BC208AE53A
:1009900095E00E94901E18161906CCF70895EF9264
:1009A0000F93CF93C22F68E670E08DE894E00E9429
:1009B000711A70E060E08DE894E00E94B6028091C8
:1009C00064040E94E602682F8DE894E00E94F91901
:1009D000809163040E94E602682F8DE894E00E94F3
:1009E000F919809162040E94E602682F8DE894E074
:1009F0000E94F91961E070E08DE894E00E94B6026F
:100A00008C2F0E94E602682F8DE894E00E94F9196D
:100A1000802F0E94E602682F8DE894E00E94F91969
:100A20008E2D0E94E602682F8DE894E00E94F9194D
:100A30008DE894E0CF910F91EF900C94EC1A6F92A7
:100A40007F928F929F92AF92BF92CF92DF92EF925E
:100A5000FF920F931F93CF93DF934C015B01EA0149
:100A6000390168E670E08DE894E00E94711A70E048
:100A700060E08DE894E00E94B6028DE894E00E9468
:100A8000EC1A42E150E068E670E08DE894E00E94E4
:100A9000E91A8DE894E00E94A0198F770E94ED0278
:100AA000F40180838DE894E00E94A0190E94ED0279
:100AB000F50180838DE894E00E94A0198F730E9455
:100AC000ED0288838DE894E00E94A0198DE894E0FF
:100AD0000E94A0190E94ED02F30180838DE894E04A
:100AE0000E94A0190E94ED02F80180838DE894E035
:100AF0000E94A0190E94ED02F7018083CAE08DE8F0
:100B000094E00E94A019C150D1F78DE894E00E94B2
:100B1000A019F6018083DF91CF911F910F91FF9073
:100B2000EF90DF90CF90BF90AF909F908F907F908D
:100B30006F900895CF92DF92EF92FF920F931F93E1
:100B40008823A1F08EE5C82E84E0D82E9FE5E92EFB
:100B500094E0F92E00E614E021E634E042E654E0A9
:100B600063E674E084E694E00E941F0580916104CE
:100B70000E94F6026DE271E08AE595E00E94A920EC
:100B8000809160040E94F6026DE271E08AE595E0D2
:100B90000E94A92080915F040E94F60267E971E03B
:100BA0008AE595E00E94A920809162040E94F602E5
:100BB00067E471E08AE595E00E94A92080916304D2
:100BC0000E94F60267E471E08AE595E00E94A920A0
:100BD000809164041F910F91FF90EF90DF90CF9070
:100BE0000C94F602CF92DF92EF92FF920F931F9335
:100BF000CF93DF938EE5C82E84E0D82E9FE5E92EB3
:100C000094E0F92E00E614E021E634E042E654E0F8
:100C100063E674E084E694E00E941F051092770476
:100C20006FE271E08AE595E00E94CE2069E471E010
:100C30008AE595E00E94CE20CAE0D6EF11E067E990
:100C400071E08AE595E00E94A920809177048230C6
:100C500009F489C008F064C0882309F470C08130A9
:100C600009F478C00E944F1D60936A0470936B046E
:100C700080936C0490936D048AE694E00E94BD0218
:100C80008AE595E00E94AA1E80936904853709F4DD
:100C900090C0853509F48DC0843709F496C0843539
:100CA00009F493C08D3041F76DE08AE595E00E942C
:100CB0001C1F809169048D3011F6809177048F5F3D
:100CC00080937704863008F4BACFE0905F040091F7
:100CD00060042091610440916204609163048091FA
:100CE00064040E94CF0464EC71E08AE595E00E9400
:100CF000CE2063ED71E08AE595E00E94A92081E0B5
:100D00000E949A056BEB72E08AE595E0DF91CF9146
:100D10001F910F91FF90EF90DF90CF900C94CE2019
:100D20008430F1F1A0F1853009F09CCF68EB71E0DF
:100D30008AE595E00E94A9208091640408C068E7D4
:100D400071E08AE595E00E94A92080915F040E94ED
:100D5000F60288CF61E871E08AE595E00E94A9205B
:100D600080916004F4CF6BE871E08AE595E00E9421
:100D7000A9206DE08AE595E00E941C1F69E971E0F9
:100D80008AE595E00E94A92080916104E0CF62EAA3
:100D900071E08AE595E00E94A92080916204D7CF96
:100DA0006CEA71E08AE595E00E94A92080916304D5
:100DB000CECF909177049230F1F1E8F4992351F17C
:100DC000913089F1843709F06FCF809177048230B8
:100DD00009F48AC008F062C0882309F470C0813029
:100DE00009F062CF809160048B3008F478C08A509B
:100DF0008093600459CF943009F447C0E8F19530EE
:100E000009F7809164048F5F8C3308F4C7C0109297
:100E100064044ACF80915F048F5F843608F4BBC0BE
:100E200010925F0441CF809160048F5F8D3000F39A
:100E30009093600439CF809161048F5F8093610447
:100E4000E0916004E23089F490E020915F04237027
:100E500049F42DE130E0281739070CF025CF109325
:100E6000610422CF2CE130E0F6CFF0E0EA52FC4FF3
:100E700090819817A0F318CF809162048F5F88311A
:100E800008F483C0109262040FCF809163048F5FD7
:100E90008C3308F47DC01092630406CF843009F4CB
:100EA0005CC008F44AC0853009F0FECE209164048D
:100EB000265F2C3308F061C020936404F5CE2091A6
:100EC0005F04265F243618F420935F04EDCE822F52
:100ED0006C2F0E94B6228D9F200D1124F5CF8330F8
:100EE00008F0E2CE865F84CF20916104265F2093D4
:100EF0006104422F50E0E0916004F0E0EA52FC4FC0
:100F0000808190E030915F04337061E070E011F017
:100F100070E060E0860F971F841795074CF4822FCE
:100F20006C2F0E94B6228D9F200D11242093610406
:100F3000809161048111B8CE92CF20916204265F26
:100F4000283118F420936204AFCE822F6C2F0E94B8
:100F5000B6228D9F200D1124F5CF20916304265FCA
:100F60002C3318F4209363049FCE822F6C2F0E94A1
:100F7000B6228D9F200D1124F5CF822F6C2F0E9459
:100F8000B6228D9F200D112497CF809362048CCEC2
:100F90008093630489CE80935F0486CE809364043B
:100FA00083CECF92DF92EF92FF920F931F93CF9356
:100FB00083E00E94671E892B09F001C383E10E9430
:100FC000671E892B09F086C182E10E94671E80930B
:100FD0007B0429B320937A048823E9F020937D00D1
:100FE000109279041092780460E08EE00E94391E1D
:100FF00060E080E00E94391E61E080E00E94391EBE
:1010000061E08EE0CF911F910F91FF90EF90DF9004
:10101000CF900C94391EE0917D00EE30F8F4F0E0B2
:10102000EC5EF74F0C94F822220829082E083A08A3
:10103000550862086F087D088B089908B808E5080C
:10104000F908550960E020FF61E08DE00E94391E3B
:1010500005C0622F8AE595E00E941C1F80917D00EB
:101060008A3009F4C1CF8C3009F4BECF8FEF809362
:101070007D00BACF80917604882381F360E270E02E
:101080008DE894E00E94711A62E170E08DE894E0CE
:101090000E94B60260917A048DE894E00E94F919EA
:1010A0008DE894E00E94EC1AD9CF809176048823D1
:1010B000A9F260E270E08DE894E00E94711A63E1A9
:1010C00070E0E4CF80917604882341F260E270E022
:1010D0008DE894E00E94711A70E060E0D7CF8091B3
:1010E0007604882309F4BACF60E270E08DE894E0DA
:1010F0000E94711A61E070E0C9CF80917604882364
:1011000009F4ACCF60E270E08DE894E00E94711ABF
:101110006CE070E0BBCF80917604882309F49ECF09
:1011200060E270E08DE894E00E94711A6DE070E07A
:10113000ADCF80E12436C8F480910A04805D8093AD
:101140007400822F6AE00E94B62290E3980F909379
:10115000760060E3620F26EF829F600D112460939A
:10116000770082E790E00E940A158093660076CFB0
:101170008091780490917904622F70E0009751F487
:1011800070930E0460930D040196909379048093FC
:10119000780464CF20910D04362F30930E042093F1
:1011A0000D0440910C042115324040F4403248F4C3
:1011B000109266002FEF20937D00E6CF21E14032B0
:1011C00008F022E120936600F5CF20930C04809173
:1011D0000D0490910E048115924028F4203238F4C9
:1011E000109266003BCF81E1203208F4BECF82E14D
:1011F000BCCF8091780490917904892BD1F48091AF
:101200000D0490910E04811552E0950790F4209101
:101210000C04203270F43091660031110AC065E090
:10122000880F991F6A95E1F7822B0E94CD03809366
:10123000660080916600811133C0809178048F71BF
:1012400080937704E82FF0E0EC5EFB4F90917A04F6
:1012500090838F3129F56BE074E084E194E00E9483
:10126000AE038093660080910B04803218F483E112
:101270008093660080917804909179048F3F91402B
:1012800078F080916600811108C06BE074E090E016
:1012900080E00E94AE03809366008FEF80937D0014
:1012A00080917804909179046FCF213069F028F013
:1012B000223009F0D3CE60E008C061E08CE00E94EB
:1012C000391E60E08BE0C2CE61E08CE00E94391EE6
:1012D00061E0F8CF84E10E94671E892B09F084CE7B
:1012E00082E10E94671E80937B0410927A04882317
:1012F00071F18FEF80937A048AE595E00E94901E49
:101300001816190604F58AE595E00E94AA1E809336
:101310007A041092660461E081E00E94391ECFEFEA
:10132000CABB80917A048BBB60E08EE00E94391EBC
:1013300060E080E00E94391E82E090E00E94BA1DC9
:101340001ABACBBB59CE81E080936604E4CFE0911A
:101350007D00E058E83040F5F0E0EF54F64F0C9493
:10136000F822B909DE09070A140A300A840A870A32
:10137000DA0A8DE00E94671E8093770462E08DE0B8
:101380000E94FD1D8DE00E94671E21E0892B09F05F
:1013900020E020937A0461E08DE00E94FD1D6091C1
:1013A00077048DE00E94391E80917D008D7F843806
:1013B00009F4B5CF8FEF80937D00B1CF8091760493
:1013C000882391F360E270E08DE894E00E94711A46
:1013D00062E170E08DE894E00E94B6028DE894E04E
:1013E0000E94EC1A60E270E08DE894E00E94711AAD
:1013F00041E050E060E270E08DE894E00E94E91A7C
:101400008DE894E00E94A01980937A04CDCF80915A
:101410007604882349F260E270E08DE894E00E944F
:10142000711A63E170E0D6CFC0916504CC0F809152
:101430001104C82B8AE595E00E94901E1816190623
:101440005CF484E0C82B80916604882339F088E03E
:10145000C82BC0937A04A8CF80E0F4CF80E0F8CF07
:1014600080916504882309F44BC0809178049091A1
:101470007904892BA1F44EE5C42E44E0D42E5FE517
:10148000E52E54E0F52E00E614E021E634E042E6D5
:1014900054E063E674E084E694E00E941F058091C6
:1014A0007804909179048730910550F5209161047A
:1014B00083309105E9F068F420916304813091054F
:1014C000B9F0209162048230910591F0209164047A
:1014D0000FC020915F048530910551F02091600488
:1014E0008530910528F020915E048630910571F7D2
:1014F00020937A040196909379048093780454CFD2
:101500008FEF80937D0050CF809166007DCF8091DA
:10151000780490917904892BD1F480910D049091F5
:101520000E04811532E0930790F420910C042032D0
:1015300070F43091660031110AC035E0880F991FB0
:101540003A95E1F7822B0E94CD038093660080914B
:101550006600811122C0809178048F718093770496
:10156000811113C06FE074E084E194E00E94950360
:101570008093660080910F04803218F483E1809399
:10158000660080916600811108C0E0917704F0E068
:10159000EC5EFB4F808180937A0480917804909177
:1015A00079048F3F51E0950708F4A4CF2FEF2093E3
:1015B0007D00A0CF84E394E00E94FC1325CFCF915F
:1015C0001F910F91FF90EF90DF90CF900895EF92D1
:1015D0000F93CF93DF9300D000D000D0CDB7DEB70C
:1015E00068E670E08DE894E00E94711A8DE894E05E
:1015F0000E94EC1A811176C160EF71E08AE595E0F6
:101600000E94A92081E00E949A056BEB72E08AE5B6
:1016100095E00E94CE206FE072E08AE595E00E949E
:10162000A92060915E04062E000C770B4AE050E082
:101630008AE595E00E948B2164E372E08AE595E0FB
:101640000E94CE2068E670E08DE894E00E94711A56
:101650006FE070E08DE894E00E94B6028DE894E0BF
:101660000E94EC1A41E050E068E670E08DE894E0FA
:101670000E94E91A8DE894E00E94A01987FF0AC130
:1016800028E030E046E050E062E874E0CE010196E8
:101690000E945422CE0101960E949A226093640413
:1016A000CE0101960E94A62125E030E043E050E003
:1016B00062E874E0CE0101960E945422CE010196A8
:1016C0000E949A2260936304CE0101960E94A62193
:1016D00022E030E050E040E062E874E0CE010196A4
:1016E0000E945422CE0101960E949A2260936204C5
:1016F000CE0101960E94A62126E030E044E050E0B1
:101700006CE774E0CE0101960E945422CE0101964E
:101710000E949A2260936104CE0101960E94A62144
:1017200070E060E08CE794E00E944322EFEBE80F6A
:10173000E33108F02FC00E2E000CFF0BEE55F44FD6
:101740000C94F822520CCA0BCA0B700CCA0B500C2A
:10175000CA0BCA0BCA0BB50BCA0BCA0B5E0C6E0CBC
:101760006C0CCA0BCA0BCA0B6A0C61E070E08CE708
:1017700094E00E944322813609F48EC062E070E05A
:101780008CE794E00E9443228E3609F487C087E0FC
:10179000809360042BE030E049E050E06CE774E0B7
:1017A000CE0101960E945422CE0101960E949A22F7
:1017B00060935F04CE0101960E94A62166E372E069
:1017C0008AE595E00E94CE206EE472E08AE595E01D
:1017D0000E94A92080E00E949A0569E772E08AE5EC
:1017E00095E00E94A9200E944F1D60936A047093A7
:1017F0006B0480936C0490936D048AE694E00E94DD
:10180000BD028AE595E00E94AA1E8093690489378B
:1018100031F0893521F08E3611F08E3471F7682F52
:101820008AE595E00E94E520809169048F7D8935E5
:10183000D9F4E0905F04009160042091610440912C
:10184000620460916304809164040E94CF0464E8A0
:1018500072E08AE595E00E94A92081E00E949A0545
:101860008AE595E00E94B82068E670E08DE894E093
:101870000E94711A6FE070E08DE894E00E94B60259
:1018800068E070E08DE894E00E94B6028DE894E094
:101890000E94EC1A81E027C081E07ACF86E078CF01
:1018A00082E076CF62E070E08CE794E00E94432211
:1018B000823711F088E06CCF84E06ACF62E070E09C
:1018C0008CE794E00E944322823711F085E060CFDC
:1018D00083E05ECF89E05CCF8AE05ACF8BE058CFBF
:1018E0008CE056CF80E026960FB6F894DEBF0FBE90
:1018F000CDBFDF91CF910F91EF900895CF93DF93FC
:1019000061E086E10E94FD1D60E086E10E94391ED3
:1019100061E080E00E94FD1D60E080E00E94391ED1
:1019200062E08DE00E94FD1D8DE00E94671EEC01CB
:1019300061E08DE00E94FD1D61E08DE00E94391E96
:1019400062E081E00E94FD1D61E081E00E94FD1DDA
:1019500061E081E00E94391E61E082E00E94FD1D8D
:1019600061E082E00E94391E60E083E00E94FD1D7C
:1019700062E08EE00E94FD1D61E08EE00E94FD1D90
:1019800061E08EE00E94391E1ABA8FEF8BBB62E0D5
:1019900085E10E94FD1D62E084E10E94FD1D62E080
:1019A00083E10E94FD1D62E082E10E94FD1D61E075
:1019B0008CE00E94FD1D61E08CE00E94391E61E018
:1019C0008BE00E94FD1D60E08BE00E94391E61E00B
:1019D0008FE00E94FD1D0E94810362E08AE00E9468
:1019E000FD1D61E087E10E94FD1D60E087E10E942E
:1019F000391E64E670E080E090E00E94811D61E0A5
:101A000087E10E94391E64EF71E080E090E00E945F
:101A1000811D8DE090E00E94B402823028F061E0E8
:101A20008DE090E00E94A0028DE090E00E94B40260
:101A3000809367048EE090E00E94B40280930A04D1
:101A4000853038F060E08EE090E00E94A0021092B5
:101A50000A048DE894E00E94551A60E270E08DE877
:101A600094E00E94711A8DE894E00E94EC1A8111B2
:101A700003C081E08093760426E040E052EC61E010
:101A800070E08AE595E00E94631F6AEB71E08AE5E9
:101A900095E00E94BC2063EA71E08AE595E00E942F
:101AA00085208091670469EA72E0811102C06BEAC7
:101AB00072E08AE595E00E94A9206DEA72E08AE56D
:101AC00095E00E94CE200E94E70A809365048091F1
:101AD0007604882331F06DE871E08AE595E00E9494
:101AE000BC2066E771E08AE595E00E9485208CE0E5
:101AF00090E00E94B402823028F060E08CE090E038
:101B00000E94A0028CE090E00E94B4028093110435
:101B100061EB72E0811102C064EB72E08AE595E04E
:101B20000E94CE2084E394E00E948F0384E394E03B
:101B30000E948F038AE090E00E94B40280937504B3
:101B4000CD2B19F0853008F4E6C08AE595E00E94B7
:101B5000901E181619062CF48AE595E00E94AA1E1C
:101B6000F4CF8AE595E00E94B8206AE471E08AE546
:101B700095E00E94BC208AE595E00E94B820809103
:101B80007504D1E38530C0F46AE371E08AE595E03D
:101B90000E9485206091750470E06F5F7F4F4AE07E
:101BA00050E08AE595E00E948B216BEB72E08AE5BC
:101BB00095E00E94CE20D0E360E371E08AE595E0F5
:101BC0000E94BC2066E271E08AE595E00E94BC209C
:101BD00064E171E08AE595E00E94852080910A0425
:101BE0000E945D0465E071E08AE595E00E94BC20FA
:101BF0006BEF70E08AE595E00E94BC206CED70E030
:101C00008AE595E00E948520809167046BEA72E086
:101C1000811102C069EA72E08AE595E00E94A9207C
:101C200068EB72E08AE595E00E94CE206DEB72E0F1
:101C30008AE595E00E94A9208091110461EB72E091
:101C4000882311F064EB72E08AE595E00E94A920F8
:101C50006BEB72E08AE595E00E94CE206AED72E0BF
:101C60008AE595E00E94A92080910A040E945D0403
:101C70008AE595E00E94B82080916504C8E3882336
:101C800039F066EE72E08AE595E00E94CE20C9E365
:101C90008AE595E00E94B8200E944F1D60936A0477
:101CA00070936B0480936C0490936D046FEF72E0FB
:101CB0008AE595E00E94A9208AE694E00E94BD0290
:101CC0008AE595E00E94AA1E809369048D17A4F30B
:101CD000C81794F3682F8AE595E00E94B12063E16C
:101CE00073E08AE595E00E94CE20809169048733F5
:101CF00009F486C00CF070C0863309F475C0609199
:101D000069046153609375048AE090E0653008F0DF
:101D1000DCC00E94A00280917504823071F46EE7ED
:101D200070E08AE595E00E94852080910A040E9477
:101D30005D048AE595E00E94B820809175048230A8
:101D400009F4F6C008F0C6C0882309F4DAC081306F
:101D500009F4E5C061E080E00E94391E80916F04C3
:101D600090917004892B79F090E080E00E945703F5
:101D700083EC0E941B0380916F040E941B038091DF
:101D800070040E941B0380916F04909170040E9464
:101D9000570380917504843008F0BBC184E394E05C
:101DA0000E94FC13882309F4FCC084E394E00E94A1
:101DB000FC1380931004882309F4F3C050E040E042
:101DC0006091100480E00E94DB030E94B50484E36C
:101DD00094E00E948F03E9CF8833E1F0893309F062
:101DE0008ECF0E94F2058BCF61E080916704811154
:101DF00060E0609367048DE090E00E94A0027FCFD6
:101E000061E080911104811160E0609311048CE025
:101E100090E0F3CF6FE970E08AE595E00E94BC2086
:101E200080910A0480936804C5E0D0E08091680442
:101E300090E00196BE010E94C2228093680468E18E
:101E400073E08AE595E00E94A920809168040E94D1
:101E50005D046CE870E08AE595E00E9485208AE5E3
:101E600095E00E94901E181619062CF48AE595E05C
:101E70000E94AA1EF4CF8AE595E00E94901E1816D3
:101E800019062CF08AE694E00E94BD02F4CF8AE5A0
:101E900095E00E94AA1E809369048D3011F08B3169
:101EA00029F68AE595E00E94B8208AE595E00E942F
:101EB000B820809169048D3009F021CF60916804C9
:101EC00060930A048EE090E098CF0E94B402809361
:101ED000750421CF833009F461C0843009F03ACF12
:101EE000E9EFF1E0859194919093740480937304E9
:101EF0008AE692E0909372048093710480E19DEFF2
:101F00003AC08DE193E090931304809312041092F1
:101F1000700410926F0481E080936E041BCF89E2FD
:101F200093E0909313048093120480E091E023C027
:101F300080910A04823021F170F48823A1F081306D
:101F400009F008CF8FE393E0909313048093120479
:101F500080E890E010C08330B1F0843009F0FACE10
:101F600081E693E012C085E393E09093130480939D
:101F7000120480EE91ED9093700480936F04EACE8A
:101F80008AE493E0CECF85E593E0909313048093A9
:101F900012041092700410926F04DCCE89E693E074
:101FA000F4CF80911204909113040E940A1580933B
:101FB0001004882341F14091120450911304609160
:101FC000100481E00E94DB030E94B504809112049A
:101FD000909113040E940A1580931004833081F0BD
:101FE00084E394E00E948F0384E394E00E948F03D3
:101FF00080911204909113040E940A15809310049A
:1020000080911004D6CF66E773E08AE595E00E94E0
:10201000A92060911204709113048AE595E00E9452
:10202000A92062E973E08AE595E00E94A9206FE0AB
:1020300074E084E194E00E94950380931004109270
:102040006804E091680480910F04E81760F4F0E000
:10205000EC5EFB4F80810E941B03809168048F5FC0
:1020600080936804EECF60911004803281F466237F
:10207000F1F2409112045091130482E00E94DB03BC
:102080000E94B50490E080E00E94CD0302C061117F
:10209000F0CF809110048111CACF64EB73E08AE520
:1020A00095E00E94CE2060E086E10E94391E82B554
:1020B000877F82BD85B5816085BD85B5897F85BDFA
:1020C00085B5886085BD85B58F7B85BD85B580610B
:1020D00085BD85B58F7D85BD8091670483BD61E039
:1020E0008FE00E94FD1D6AEB73E08AE595E00E9497
:1020F000CE208AE595E00E94B8208AE595E00E940E
:10210000901E1816190604F58AE595E00E94AA1E8D
:10211000F4CF67E973E08AE595E00E94A920D0E05A
:10212000C0E08091710490917204C817D90708F03B
:10213000B4CFE0917304F0917404EC0FFD1F84910F
:102140000E941B032196EDCF61E070E080E090E0FB
:102150000E94811D61E086E1DF91CF910C94391ED0
:102160008FB9779BFECF08958FEF0E94B0108FB18B
:102170000895FF920F931F93CF93DF93C82FD42F0F
:10218000152F062FF72E80918A0481113FC083E519
:102190008DB91EB8C7FF09C040E050E0BA0187E71B
:1021A0000E94B910823060F5CF7761E084E00E9430
:1021B000391E0E94B41060E084E00E94391E0E9423
:1021C000B4108C2F0E94B0108F2D0E94B010802F61
:1021D0000E94B010812F0E94B0108D2F0E94B0106D
:1021E00085E9C03421F087E8C83409F081E00E9415
:1021F000B010CAE00E94B41087FF02C0C150D1F7EE
:10220000DF91CF911F910F91FF90089580E58DB9D7
:1022100081E08EB9BFCF0F931F93CF93DF93C0910F
:102220008804D09189042197CD3F8FEFD80721F002
:1022300080E00E94B010F7CF0E94B4108F718530FB
:1022400079F0D1E0C0E061E084E00E94391E0E9494
:10225000B4108D2F9C2FDF91CF911F910F91089576
:1022600008E813E1C0E9D1E00E94B4108F3F49F0C3
:102270000115110531F3CE010197F1F70150110954
:10228000F3CFD1E0C0E0012BF1F2D0E0DCCFAF9290
:10229000BF92CF92DF92EF92FF920F931F93CF9353
:1022A000DF9300D000D0CDB7DEB780918A048823B9
:1022B00039F084E00E94671E892B11F40E940B11F3
:1022C00061E084E00E94391E61E084E00E94FD1D0F
:1022D00061E085E00E94FD1D61E087E00E94FD1D38
:1022E00061E084E00E94FD1D83E58DB91EB861E0C8
:1022F00084E00E94391E1AE00E94B4101150E1F7E8
:1023000040E050E0BA0180E40E94B910182F8130FB
:10231000D9F010E010938A0461E084E00E94391E35
:102320000E94B41081E0111180E00F900F900F9087
:102330000F90DF91CF911F910F91FF90EF90DF9061
:10234000CF90BF90AF9008954AEA51E060E070E00E
:1023500088E40E94B910813079F5CE0101967C01A4
:102360006E0195E0C90ED11C87010E94B410F801DE
:1023700081938F01CE16DF06C1F78B81813049F63C
:102380008C818A3A31F620E1C22E27E2D22E30E942
:10239000A32EBB24B39440E050E060E070E489EEEB
:1023A0000E94B910882359F1C5010197F1F7F1E0B6
:1023B000CF1AD10881F7ADCF40E050E0BA0189EEE5
:1023C0000E94B91001E4823010F412E009EE80E1BD
:1023D000E82E87E2F82E90E9C92EDD24D39440E060
:1023E00050E0BA01802F0E94B9108823F1F0C60195
:1023F0000197F1F7F1E0EF1AF10889F78ACF40E091
:1024000050E0BA018AE70E94B910811182CF0E9480
:10241000B410F70181937F010E171F07C1F789815F
:102420001CE086FD77CF14E075CF40E052E060E01D
:1024300070E080E50E94B910882309F46BCF69CF62
:10244000CF92DF92EF92FF920F931F93CF93DF9380
:102450007C01690180918A0483FD07C089E0440FF3
:10246000551F661F771F8A95D1F781E50E94B91025
:10247000811108C0C0E4DCE90E94B4108F3F29F448
:102480002197D1F7C1E0D0E022C08E3FD9F7C2E05A
:10249000D2E0C01BD10BCC19DD0981E0C81AD108EC
:1024A00018F00E94B410F9CFE114F10401F10E0DFF
:1024B0001F1D0E94B410F70181937F010E171F07A3
:1024C000C1F70E94B4102197E1F7D0E0C0E061E0CD
:1024D00084E00E94391E0E94B410CE01DF91CF919A
:1024E0001F910F91FF90EF90DF90CF9008950E9481
:1024F000B41001501109D9F7E4CFEF92FF920F9376
:102500001F93CF93DF930097C9F0EA018C012097C6
:10251000B1F1E0908804F0908904E114F10479F1BC
:10252000F80181918F010E94B010F1E0EF1AF108DB
:10253000F0928904E09288042197E9CF4115510572
:102540006105710529F180918A0483FD07C089E046
:10255000440F551F661F771F8A95D1F788E50E94A3
:10256000B91081111DC08FEF0E94B0108EEF0E9434
:10257000B01080E092E0909389048093880490E00A
:1025800080E0DF91CF911F910F91FF90EF90089520
:10259000DF91CF911F910F91FF90EF900C940B1151
:1025A00081E090E0EECF0F931F93E0918B04F091C8
:1025B0008C049B01AC0122503109410951098681EB
:1025C0009781A085B1850297A109B109281739071C
:1025D0004A075B0778F4A281B0E00E94FE220289DC
:1025E000138924893589600F711F821F931F1F91E2
:1025F0000F91089560E070E0CB01F9CF0F931F9326
:10260000CF93DF93EC01E0918B04F0918C0419825D
:1026100018826C817D818E819F8161307105810579
:10262000910581F106811781208531856017710739
:102630008207930738F5611571058105910539F415
:102640002081233021F46685778580899189688788
:1026500079878A879B87611571058105910569F0E6
:102660000E94D3126C877D878E879F8790E080E0E1
:10267000DF91CF911F910F910895668577858089AD
:102680009189F0CF81E090E0F3CF0F931F93CF9328
:10269000DF9300D000D0CDB7DEB762307105810581
:1026A000910528F461E070E080E090E055C0E09191
:1026B0008B04F0918C040681178120853185601789
:1026C00071078207930770F7AB01BC0180818230EC
:1026D00031F1833039F79A012F773327220F331FD7
:1026E000220F331F97E076956795579547959A95F2
:1026F000D1F782859385A485B585480F591F6A1F38
:102700007B1F04E010E0CE0101960E942012892B6D
:1027100049F669817A818B819C819F701DC09A01E5
:102720003327220F331F452F562F672F7727828598
:102730009385A485B585480F591F6A1F7B1F02E04A
:1027400010E0CE0101960E942012892B09F0AACF39
:1027500069817A8190E080E00F900F900F900F9048
:10276000DF91CF911F910F910895CF92DF92EF9259
:10277000FF920F931F93CF93DF93EC016A017B01CC
:1027800002E010E02EEF31E00E942012892B31F59B
:102790008881998185359A4A59F526E330E0B70159
:1027A000A601CE010E942012892B29F488819981EB
:1027B0008634914489F002E010E022E530E0B70170
:1027C000A601CE010E942012892BA1F481E028816C
:1027D00039812634314419F480E001C083E0DF916F
:1027E000CF911F910F91FF90EF90DF90CF900895C0
:1027F00082E0F5CF81E0F3CF2F923F924F925F922C
:102800006F927F928F929F92AF92BF92CF92DF9200
:10281000EF92FF920F931F93CF93DF93CDB7DEB765
:10282000A4970FB6F894DEBF0FBECDBF1C01109267
:102830008C0410928B040E94471180FDC3C040E0BD
:1028400050E0BA01CE0101960E94B513412C512CE3
:1028500032018130C1F500E110E02EEB31E040E0C3
:1028600050E0BA01CE0101960E942012892BD9F0C6
:1028700081E090E0A4960FB6F894DEBF0FBECDBF06
:10288000DF91CF911F910F91FF90EF90DF90CF904C
:10289000BF90AF909F908F907F906F905F904F9080
:1028A0003F902F9008958D81811103C086E090E0C4
:1028B000E1CF49845A846B847C84B301A201CE01A8
:1028C00001960E94B513833099F28111EFCF04E293
:1028D00010E02DE030E0B301A201CE0101960E948C
:1028E0002012892B29F62A853B8550E040E02115EE
:1028F00031054105510521F4288D398D4A8D5B8DB7
:10290000AC81B0E00E94FE224B015C014A815B81F8
:1029100070E060E0440E551E661E771EF10142868F
:1029200053866486758629812283CD80DE80D58298
:10293000C4828F819885B0E0A0E00097A105B10521
:1029400021F48C899D89AE89BF8934E0D694C794DF
:102950003A95E1F7F12CE12C841B950BA60BB70BF4
:10296000BC01CD01681979098A099B096C197D0997
:102970008E099F0930E050E040E00E94D622DA0143
:10298000C9010296A11DB11DF10186839783A0871D
:10299000B187265F3F40410951092F3F3F4E410516
:1029A000510598F0873F9F4FA105B10598F47ECF60
:1029B00082E0F1018083D301C201880D991DAA1D17
:1029C000BB1D0FC082E090E055CF873F9F4FA10510
:1029D000B10570F383E0F101808388A199A1AAA1D8
:1029E000BBA186879787A08BB18BC40CD51CE61C36
:1029F000F71CC80CD91CEA1CFB1CF101C28AD38A43
:102A0000E48AF58A118230928C0420928B0490E043
:102A100080E030CF4F925F926F927F928F929F9221
:102A2000BF92CF92DF92EF92FF920F931F93CF93BB
:102A3000DF93CDB7DEB7EC970FB6F894DEBF0FBECD
:102A4000CDBFC0908B04D0908C04C114D10409F484
:102A50000DC1F60111829E012F5C3F4F3CA32BA3B9
:102A60009C017901F90180812F5F3F4F8032C9F3CA
:102A70008F3209F479011DA21EA21FA218A6F70128
:102A80008081A0E2BA2E803208F0DDC0CE018196AE
:102A90000E94FE121982009709F410C1EC960FB63D
:102AA000F894DEBF0FBECDBFDF91CF911F910F9184
:102AB000FF90EF90DF90CF90BF909F908F907F908E
:102AC0006F905F904F90089520E0E0E088E0D8C0DC
:102AD000E30EF11C81E0913208F080E01B968C93AC
:102AE000CE0181960E94FE120097C1F629A13AA15B
:102AF0002F703327F5E0220F331FFA95E1F74DA52C
:102B00005EA56FA578A900E210E0CE0101960E94B3
:102B10002012892B19F081E090E0C0CF89818111CA
:102B200003C083E090E0BACF8C8583FD13C00BA176
:102B30001CA19E012F5F3F4FD801B801655F7F4FF9
:102B40006A177B0709F4B5C0F90141919F019D9176
:102B50004917B1F309A11AA10F5F1F4F11F38DA5FA
:102B60009EA5AFA5B8A90097A105B105D1F298011E
:102B70002F703327232BD9F480908B0490908C04F2
:102B80000196A11DB11D8DA79EA7AFA7B8AB69A5E2
:102B90007AA58BA59CA5F4016115710581059105A8
:102BA00049F4848195810817190708F0BACF1AA350
:102BB00009A39CCF2281E22FE150FF0BAF019801C6
:102BC000E4E036952795EA95E1F724233523232B76
:102BD00071F70E944513623071058105910508F473
:102BE0009ACFF4014680578060847184641575051E
:102BF0008605970508F095CF69A77AA78BA79CA7AC
:102C00000E94D3126DA77EA78FA798ABD0CF84FF69
:102C100088CFE0918B04F0918C0480818330F1F4B3
:102C20008D899E89B0E0A0E0DC01992788274B8D33
:102C30005C8D70E060E0842B952BA62BB72B8DA3C9
:102C40009EA3AFA3B8A7ABA1BCA1FD01CD010B967C
:102C50008E179F0709F438CFB192FACF80E090E049
:102C6000DC01E5CF80E090E0DC013DC085E090E054
:102C700015CF883009F02CCF9BE0282FE32F892F28
:102C800031E03E0FEE0DFF2DF11D9081913208F4E1
:102C90001FCF9F3209F41CCF9E3259F3281708F03A
:102CA00017CFFD01E20FF11D9083982F81E0820F75
:102CB000E4CFF8019385992309F4A9CF898188236A
:102CC00009F42FCF8C8584FD2CCFE0918B04F091FB
:102CD0008C048081833031F68D899E89B0E0A0E03C
:102CE000DC01992788274B8D5C8D70E060E0842B98
:102CF000952BA62BB72BF601868F978FA0A3B1A398
:102D00008D8D9E8DAF8DB8A1828F938FA48FB58F3F
:102D1000168A178A108E118E81E0818390E080E000
:102D2000BDCE4F925F926F927F928F929F92AF92A1
:102D3000BF92CF92DF92EF92FF920F931F93CF93A8
:102D4000DF934C017B013A01C0918B04D0918C043C
:102D5000FA011182108285E090E0209709F44BC0BF
:102D6000898180FFAAC08A8D9B8DAC8DBD8D4E89D7
:102D70005F89688D798D841B950BA60BB70BA70116
:102D800070E060E084179507A607B70708F47C0198
:102D90005401412C32E0532EE114F10409F490C0A7
:102DA0008E899F89A88DB98DAC01BD0151706627B0
:102DB0007727452B462B472B09F04CC0DA80DA9455
:102DC000AC01BD0129E076956795579547952A9501
:102DD000D1F7D42261F5892B8A2B8B2BE9F46E8DE8
:102DE0007F8D88A199A16230710581059105D8F484
:102DF000198281E090E0DF91CF911F910F91FF90B8
:102E0000EF90DF90CF90BF90AF909F908F907F908A
:102E10006F905F904F9008956AA17BA18CA19DA1B6
:102E20000E944513E0CF6AA37BA38CA39DA36AA154
:102E30007BA18CA19DA10E94D31261157105810512
:102E40009105B1F26D0D711D811D911D6EA37FA3C2
:102E500088A799A72E893F893170C201821B930BE5
:102E600067018E159F0508F46C014EA15FA168A54E
:102E700079A5C5018114910411F480E090E08601E8
:102E80000E942012892B09F0B3CF8E899F89A88DCB
:102E9000B98D8C0D9D1DA11DB11D8E8B9F8BA88F93
:102EA000B98FAC0CBD1CEC18FD08F3018081918139
:102EB000C80ED91ED182C0826FCF84E090E09BCF34
:102EC00090E080E098CF4F925F926F927F928F92C6
:102ED0009F92AF92BF92CF92DF92EF92FF920F93A9
:102EE0001F93CF93DF936C018B015A01C0918B0428
:102EF000D0918C04FA011182108285E090E0209735
:102F0000A1F0898180FFE0C08074672B29F58823B8
:102F1000E9F040E050E0BA0190E080E00E947D12CC
:102F2000892BA1F0198281E090E0DF91CF911F9170
:102F30000F91FF90EF90DF90CF90BF90AF909F9058
:102F40008F907F906F905F904F90089589818F7BD5
:102F5000898390E080E0E9CF81110AC08E899F8942
:102F6000A88DB98D88279E7F8E8B9F8BA88FB98F58
:102F70008A8D9B8DAC8DBD8D4E895F89688D798DD5
:102F8000841B950BA60BB70BA80170E060E08417BB
:102F90009507A607B70708F48C01812C32E0932E21
:102FA00001151105B1F28E899F89A88DB98D9C01FB
:102FB0003170232B09F040C0FA80FA94AC01BD01B6
:102FC00029E076956795579547952A95D1F7F4228C
:102FD00099F4892B8A2B8B2B09F06FC06E8D7F8D16
:102FE00088A199A1623071058105910508F49ACFF5
:102FF0006AA37BA38CA39DA36AA17BA18CA19DA1A5
:103000000E94D312611571058105910509F48ACFDB
:10301000AB01BC014F0D511D611D711D4EA35FA37E
:1030200068A779A790E080E00E947D12892B09F0C3
:1030300079CF8981806489838E899F899170940179
:10304000281B390B78012017310708F47901270173
:10305000712C612CB301A701C6010E947D12892B3E
:1030600009F060CF8E899F89A88DB98D840D951D3B
:10307000A61DB71D8E8B9F8BA88FB98FCE0CDF1C22
:103080000E191F09F50120813181E20EF31EF18234
:10309000E0822C01F1E05F22452809F081CF40E079
:1030A00050E0BA0190E080E00E947D12892B09F087
:1030B00039CF89818F7B898373CF6AA17BA18CA152
:1030C0009DA10E9445138ECF84E090E02ECF4F92B9
:1030D0005F926F927F928F929F92AF92BF92CF92A8
:1030E000DF92EF92FF92CF93DF9300D000D000D019
:1030F000CDB7DEB720918B0430918C043E832D83B5
:103100002115310509F40CC1D90111962C911197A3
:1031100020FF09C15A96CD90DD90ED90FC905D970F
:103120006C157D058E059F0510F46B017C01ED810A
:10313000FE8146885788608C718C168A178A108E9B
:10314000118EC114D104E104F10409F4E6C08280B7
:10315000912CB12CA12C39E0880C991CAA1CBB1C09
:103160003A95D1F7411451046104710409F470C017
:10317000B1E04B1A510861087108C701B6016150EE
:10318000710981099109A50194010E94D622298320
:103190003A834B835C83C301B201A50194010E9471
:1031A000D62289819A81AB81BC8182179307A407BB
:1031B000B50708F44DC088279927DC0188199909BB
:1031C000AA09BB0984219521A621B721ED81FE81A1
:1031D000868B978BA08FB18FC81AD90AEA0AFB0A8F
:1031E00062A173A184A195A18C149D04AE04BF04B7
:1031F00008F058C00E9445136230710581059105A1
:1032000068F0AD81BE8116964D905D906D907C907A
:103210001997641575058605970540F1ED81FE81C6
:10322000118281E090E026960FB6F894DEBF0FBEC3
:10323000CDBFDF91CF91FF90EF90DF90CF90BF9007
:10324000AF909F908F907F906F905F904F90089578
:10325000AD81BE815E966D917D918D919C9191978E
:10326000FD0162A373A384A395A3BECFAD81BE81EC
:1032700092966D937D938D939C93959756964D90D2
:103280005D906D907C905997480C591C6A1C7B1C72
:10329000FD01468A578A608E718EC818D908EA08DF
:1032A000FB08A2CFAD81BE8156968D909D90AD90CA
:1032B000BC905997C80CD91CEA1CFB1CFD01C68A9E
:1032C000D78AE08EF18E0E94D312AB01BC0141156A
:1032D00051056105710529F4AD81BE8111961C92DD
:1032E000A0CFED81FE8182818150990B092E000CC7
:1032F000AA0BBB0B29E0F694E794D794C7942A95C0
:10330000D1F78C219D21AE21BF21480F591F6A1F83
:103310007B1F46A357A360A771A790E080E083CFEF
:1033200085E090E080CF84E090E07DCF90E080E089
:1033300008958091C1049091C204891B990B08954E
:103340009091C2048091C1042FEF3FEF981748F489
:10335000E92FF0E0ED53FB4F208130E09F5F909329
:10336000C204C9010895E091C2048091C104E81724
:1033700030F4F0E0ED53FB4F808190E008958FEF43
:103380009FEF08950895CF93DF93EC01E0919904A6
:10339000F0919A043097F1F09091C2048091C104A9
:1033A0009817C0F090E0292F30E02617370754F423
:1033B000DE01A20FB31F4C912D533B4FD9014C930B
:1033C0009F5FF1CF1092C2046093C104CB01DF91E3
:1033D000CF910994DF91CF910895E0919B04F091F2
:1033E0009C04309729F010929F0410929E04099437
:1033F0000895CF93DF931F92CDB7DEB769832091F5
:103400009D042223F9F020919E04203258F021E0FF
:1034100030E0FC013383228390E080E00F90DF9165
:10342000CF91089580919F04E82FF0E0E056FB4F84
:10343000998190838F5F80939F0480939E0481E0A5
:1034400090E0ECCF61E0CE0101960E94AF1BF7CF78
:10345000CF92DF92EF92FF920F931F93CF93DF9360
:103460007C01CB018A0120919D04222389F0EB018C
:103470006B01C40ED51ECC15DD0569F06991D7012D
:10348000ED91FC910190F081E02DC7010995F3CFFA
:10349000642F0E94AF1BC801DF91CF911F910F9144
:1034A000FF90EF90DF90CF9008951092C204109299
:1034B000C10410929F0410929E040E94001B8DEE86
:1034C00099E10E94DB1B83EC99E10C94D61B81E00F
:1034D00080939D046093C00410929F0410929E04F8
:1034E00008950C94671A0F93062F21E040919E04D3
:1034F00060EA74E08091C0040E945B1B10929F04FC
:1035000010929E0410929D040F9108954F925F9225
:103510006F927F92AF92BF92CF92EF92FF920F93F2
:103520001F93CF93DF935C01F62ED42F280139012E
:10353000EE2019F10E94671ACE2DC43008F0C3E0C6
:10354000C150B8F028E0C29FC0011124A30192012C
:1035500004C056954795379527958A95D2F7B901B6
:10356000D501ED91FC910190F081E02DC501099507
:10357000E7CF60E0C5010E94731A4D2FD13208F0E9
:1035800040E22C2D63EC74E08F2D0E94161B1092EC
:10359000C2048093C104DF91CF911F910F91FF90DE
:1035A000EF90CF90BF90AF907F906F905F904F90D3
:1035B0000895CF92EF920F931F93C22EE12C00E05B
:1035C00010E098010E94861A1F910F91EF90CF9002
:1035D000089521E00C94D91A61E00C94731AEDE877
:1035E000F4E01382128288EE93E0A0E0B0E08483DE
:1035F0009583A683B78387EE93E0918380830895B4
:103600001092500581E080934E0510924D0561E0C7
:1036100081E10E94391E61E080E10E94391E089814
:10362000099888E480B985E486BF0895413208F09E
:1036300040C0909150059111FCCF91E090935005BE
:1036400020934E052FEF2093E30410922805240FBA
:103650002093270590934F0590914F05880F892B54
:1036600080934F0580914D058130F1F410924D0506
:1036700080914F0583B906B603FCFACF85EC86BF6F
:10368000809150058130E1F380912805841710F472
:1036900040912805A9E2B5E0962FFB018E2F891BEA
:1036A000841720F0842F089585EEE9CF8D918193C2
:1036B000F5CF40E0F7CF0F93413208F048C090912A
:1036C00050059111FCCF92E09093500500934E0568
:1036D0009FEF9093E3041092280540932705362F1F
:1036E000A9E2B5E0FB019E2F931B941758F11092AD
:1036F0004F0590914F05880F892B80934F0580913E
:103700004D05813011F510924D0580914F0583B91B
:1037100006B603FCFACF85EC86BF222321F0809108
:1037200050058230D1F38091E3048F3F91F0809176
:10373000E304803281F08091E304803371F084E00F
:103740000F91089591919D93CECF85EEE5CF81E0C5
:10375000F7CF80E0F5CF82E0F3CF83E0F1CF209187
:103760000505260F3327331F21323105ECF4209154
:103770005005FC0190E080E0243069F082E008957B
:10378000A09105052191AC01495F5A4FA40FB52FB7
:10379000B11D2C930196861798F380910505680F4B
:1037A0006093050580E0089581E0089590934A05AF
:1037B00080934905089590934C0580934B05089597
:1037C00085ED86BF06B604FCFDCF10925005089526
:1037D00085EC86BF1092500508951F920F920FB688
:1037E0000F9211242F933F934F935F936F937F9387
:1037F0008F939F93AF93BF93EF93FF9381B1887F94
:10380000803609F44CC008F03FC0883209F4A4C0E7
:1038100018F5803109F49AC0B8F4882309F4F2C08D
:10382000883009F493C0FF91EF91BF91AF919F91C0
:103830008F917F916F915F914F913F912F910F9059
:103840000FBE0F901F901895883109F485C0803203
:1038500051F78093E30415C0803409F499C048F40B
:103860008033B9F38833F9F68093E3040E94E81BB0
:10387000DACF803509F481C0883509F491C08834E5
:1038800091F60E94E01BCFCF883909F487C030F54C
:10389000883729F050F4883611F0803721F683E01C
:1038A000809350051092E40454C0883809F476C01F
:1038B000803919F0803809F0B6CF8091E404803265
:1038C00008F06CC0E091E40481E08E0F8093E40482
:1038D00083B1F0E0EB51FB4F80833BC0803B39F07C
:1038E000E0F4803A09F473C0883A09F09CCF84E090
:1038F000809350051092060510920505E0914B0546
:10390000F0914C0509958091050581110FC081E06A
:10391000809305051092070509C0803C09F470C02A
:10392000883C09F46DC0883B09F07DCFE091060525
:1039300081E08E0F80930605F0E0E95FFA4F808109
:1039400083B9909106058091050526C080914F05A9
:1039500083B985EC86BF67CF9091280580912705B4
:10396000981748F5E091280581E08E0F809328058F
:10397000F0E0E75DFA4F8081EBCFE091280581E030
:103980008E0F8093280583B1F0E0E75DFA4F8083C6
:1039900090912805809127059817D8F285E8DACF0D
:1039A000E091280581E08E0F8093280583B1F0E037
:1039B000E75DFA4F808380914E05811162CF81E0EF
:1039C00080934D0584EA86BF109250052CCF0E944B
:1039D000E81B8091E404803230F4E091E404F0E0EC
:1039E000EB51FB4F10826091E40470E0E0914905D7
:1039F000F0914A0585EE94E009951092E40413CF06
:103A000085ECE1CF1092E3043CCF1F920F920FB6EA
:103A10000F9211242F933F938F939F93AF93BF9354
:103A20008091560590915705A0915805B091590580
:103A30003091550523E0230F2D3768F126E8230F39
:103A40000296A11DB11D20935505809356059093B4
:103A50005705A0935805B093590580915105909151
:103A60005205A0915305B09154050196A11DB11DB9
:103A70008093510590935205A0935305B09354053C
:103A8000BF91AF919F918F913F912F910F900FBE5A
:103A90000F901F9018950196A11DB11DD4CF2FB77F
:103AA000F894609156057091570580915805909152
:103AB00059052FBF08953FB7F89480915105909113
:103AC0005205A0915305B091540522B708B600FEE7
:103AD00005C02F3F19F00196A11DB11D3FBFBA2FA0
:103AE000A92F982F8827BC01CD01620F711D811D60
:103AF000911D42E0660F771F881F991F4A95D1F7E5
:103B000008958F929F92AF92BF92CF92DF92EF92E1
:103B1000FF926B017C010E945B1D4B015C01C11493
:103B2000D104E104F104E9F00E94B5220E945B1D7A
:103B3000681979098A099B09683E734081059105D6
:103B400070F321E0C21AD108E108F10888EE880E6E
:103B500083E0981EA11CB11CC114D104E104F1043E
:103B600029F7FF90EF90DF90CF90BF90AF909F909C
:103B70008F9008958230910538F0880F991F880F33
:103B8000991F05970197F1F70895789483B783609B
:103B900083BF83B7886483BF89B7816089BF82E0B0
:103BA0008EBD8EB581608EBD8FB581608FBD85B5B0
:103BB000846085BD85B5806485BD87E886B91AB8FF
:103BC0000895843059F028F4813099F0823089F0DA
:103BD0000895853039F0873041F008958FB58F779B
:103BE0008FBD08958FB58F7DFBCF85B58F7D85BD4A
:103BF000089583B78F7D83BF0895CF93DF9390E0BF
:103C0000FC01EB57FB4F24918B559B4FFC0184919A
:103C10008823C9F090E0880F991FFC01E752FB4F01
:103C2000A591B491FC01E153FB4FC591D491611171
:103C30000DC09FB7F8948C91209582238C93888136
:103C4000282328839FBFDF91CF910895623051F4DC
:103C50009FB7F8943C91822F809583238C93E881C1
:103C60002E2BEFCF8FB7F894EC912E2B2C938FBF88
:103C7000EACF1F93CF93DF93282F30E0F901EB5960
:103C8000FB4F8491F901EB57FB4FD491F901EB55B0
:103C9000FB4FC491CC23A9F0162F81110E94E11D86
:103CA000EC2FF0E0EE0FFF1FE153FB4FA591B49115
:103CB0008FB7F894EC91111108C0D095DE23DC93F6
:103CC0008FBFDF91CF911F910895DE2BF8CFCF9357
:103CD000DF93282F30E0F901EB59FB4F8491F90174
:103CE000EB57FB4FD491F901EB55FB4FC491CC231B
:103CF000A1F081110E94E11DEC2FF0E0EE0FFF1FFB
:103D0000EB53FB4FA591B491EC91ED2381E090E052
:103D100009F480E0DF91CF91089580E090E0FACF40
:103D2000FC01918D228D892F90E0805C9F4F821B3A
:103D300091098F7399270895FC01918D828D9817B1
:103D400031F0828DE80FF11D858D90E008958FEFA1
:103D50009FEF0895FC01918D828D981761F0A28DDF
:103D6000AE0FBF2FB11D5D968C91928D9F5F9F739B
:103D7000928F90E008958FEF9FEF0895FC01538D8F
:103D8000448D252F30E0842F90E0821B930B541735
:103D900010F0CF9608950197089584E190E2892B61
:103DA00049F086EA94E0892B29F00E9414208111C1
:103DB0000C94A6040895FC01A48DA80FB92FB11D81
:103DC000A35ABF4F2C91848D90E001968F73992751
:103DD000848FA689B7892C93A089B1898C9180643E
:103DE0008C93938D848D981306C00288F389E02DFF
:103DF00080818F7D80830895CF93DF93EC01888D40
:103E00008823B9F0AA89BB89E889F9898C9185FD55
:103E100003C0808186FD0DC00FB607FCF7CF8C91E3
:103E200085FFF2CF808185FFEDCFCE010E94DB1EA2
:103E3000E9CFDF91CF910895EF92FF920F931F93F7
:103E4000CF93DF93EC0181E0888F9B8D8C8D98134D
:103E500016C0E889F989808185FF11C0EE89FF8944
:103E60006083E889F98980818064808381E090E0C3
:103E7000DF91CF911F910F91FF90EF900895F62E53
:103E80000B8D10E00F5F1F4F0F731127E02E8C8DED
:103E90008E110CC00FB607FCFACFE889F989808132
:103EA00085FFF5CFCE010E94DB1EF1CFEB8DEC0F2D
:103EB000FD2FF11DE35AFF4FF0820B8FEA89FB893A
:103EC00080818062D2CFCF92DF92EF92FF921F93D8
:103ED000CF93DF93EC016A017B01122FE889F98906
:103EE00082E08083C11481EED806E104F104A1F0E0
:103EF00060E079E08DE390E0A70196010E94D62270
:103F00002150310941095109569547953795279513
:103F1000211580E1380798F0E889F989108260E876
:103F200074E88EE190E0A70196010E94D62221500C
:103F30003109410951095695479537952795EC85E3
:103F4000FD853083EE85FF852083188E1068EC890F
:103F5000FD891083EA89FB89808188698083EA89E9
:103F6000FB8980818F7D8083DF91CF911F91FF90AE
:103F7000EF90DF90CF9008951F920F920FB60F929F
:103F800011242F938F939F93EF93FF93E0916A05F2
:103F9000F0916B058081E0917005F091710582FDD3
:103FA0001BC09081809173058F5F8F732091740582
:103FB000821741F0E0917305F0E0E65AFA4F958FD1
:103FC00080937305FF91EF919F918F912F910F90A7
:103FD0000FBE0F901F9018958081F4CF1F920F9203
:103FE0000FB60F9211242F933F934F935F936F93CC
:103FF0007F938F939F93AF93BF93EF93FF938AE544
:1040000095E00E94DB1EFF91EF91BF91AF919F91D0
:104010008F917F916F915F914F913F912F910F9071
:104020000FBE0F901F9018958AE595E00E94901E94
:1040300021E0892B09F420E0822F0895EAE5F5E0DC
:104040001382128288EE93E0A0E0B0E0848395832F
:10405000A683B78389EF93E09183808380E490E027
:104060009587848729E230E0378726872BE230E086
:10407000318B208B2AE230E0338B228B958B848B23
:104080008CE290E0978B868B118E128E138E148E9D
:104090000895AF92BF92CF92DF92EF92FF920F936B
:1040A0001F93CF93DF936C017B018B01040F151FCE
:1040B000EB015E01AE18BF08C017D10759F0699136
:1040C000D601ED91FC910190F081E02DC60109959A
:1040D000892B79F7C501DF91CF911F910F91FF9047
:1040E000EF90DF90CF90BF90AF900895FB010190CB
:1040F0000020E9F73197AF01461B570BDC01ED912A
:10410000FC910280F381E02D0994EF92FF920F93CE
:104110001F93CF93DF938C017B01D0E0C0E0F701C8
:10412000EC0FFD1F6491662361F0D801ED91FC91C5
:104130000190F081E02DC8010995892B11F021969D
:10414000EECFCE01DF91CF911F910F91FF90EF90B5
:1041500008956115710511F00C94762090E080E0CF
:104160000895DC01ED91FC910190F081E02D09941E
:1041700067E074E00C9476200F931F93CF93DF9346
:10418000EC010E9485208C01CE010E94B820800F96
:10419000911FDF91CF911F910F9108950F931F935E
:1041A000CF93DF938C01D0E0C0E06115710519F069
:1041B0000E947620EC01C8010E94B8208C0F9D1F40
:1041C000DF91CF911F910F9108950F931F93CF937C
:1041D000DF93EC010E94B1208C01CE010E94B82037
:1041E000800F911FDF91CF911F910F9108958F92B2
:1041F0009F92AF92BF92EF92FF920F931F93CF9334
:10420000DF93CDB7DEB7A1970FB6F894DEBF0FBE30
:10421000CDBF7C01FA01CB0119A2223008F42AE0BB
:104220008E010F5D1F4F822E912CB12CA12CBF014E
:10423000A50194010E94D622F901CA016A300CF549
:10424000605DD8016E938D01232B242B252B79F7EC
:1042500090E080E0109721F0BD01C7010E94762018
:10426000A1960FB6F894DEBF0FBECDBFDF91CF9100
:104270001F910F91FF90EF90BF90AF909F908F9004
:104280000895695CDECFCF92DF92EF92FF920F9399
:104290001F93CF93DF932115310581F4DC01ED915C
:1042A000FC910190F081E02D642FDF91CF911F915F
:1042B0000F91FF90EF90DF90CF9009942A30310555
:1042C00001F52AE077FF1DC06A017B01EC016DE278
:1042D0000E94B1208C0144275527BA014C195D0971
:1042E0006E097F092AE0CE010E94F720800F911FFE
:1042F000DF91CF911F910F91FF90EF90DF90CF90C2
:104300000895DF91CF911F910F91FF90EF90DF9073
:10431000CF900C94F7209A01AB01770F660B770BC7
:104320000C9443212115310541F4DC01ED91FC9100
:104330000190F081E02D642F09940C94F7209A01EC
:10434000462F50E070E060E00C949221FC018081E7
:1043500091810C94C823CF93DF93EC0188819981DC
:10436000009711F00E94C823198218821D821C82B6
:104370001B821A82DF91CF9108950F931F93CF93E1
:10438000DF93EC018B016F5F7F4F888199810E94E1
:104390005124009751F0998388831B830A8381E01D
:1043A000DF91CF911F910F91089580E0F9CFCF93C6
:1043B000DF93EC0188819981892B49F08A819B8167
:1043C0008617970720F081E0DF91CF910895CE0105
:1043D0000E94BD218823C1F38C819D81892B99F78F
:1043E000E881F9811082EFCFEF92FF920F931F9334
:1043F000CF93DF93EC017B018A01BA010E94D721A0
:1044000081110BC0CE010E94AB21CE01DF91CF9173
:104410001F910F91FF90EF9008951D830C83B701BA
:10442000888199810E943E25F0CFFC011182108283
:1044300013821282158214826115710551F0FB01FD
:1044400001900020E9F73197AF01461B570B0C9400
:10445000F4210895FB0101900020E9F73197AF01A5
:10446000461B570B0C94F421CF93DF93EC0161159D
:10447000710531F00E942A22CE01DF91CF9108957B
:104480000E94AB21F9CFFC012481358162177307AB
:1044900048F480819181009729F0860F971FFC01D5
:1044A0008081089580E00895AF92BF92CF92DF920D
:1044B000EF92FF920F931F93CF93DF935C016B01F9
:1044C0007A0189012417350720F48F2D7901042FF3
:1044D000182F69E074E0C5010E941522D6011496D8
:1044E000CD91DC91EC16FD06C8F40C171D0708F4FD
:1044F000E801D601ED91FC911197EC0FFD1F1081A1
:1045000010826D917C916E0D7F1DC5010E94342239
:10451000F60180819181C80FD91F1883C501DF91F1
:10452000CF911F910F91FF90EF90DF90CF90BF90B0
:10453000AF900895FC0180819181009711F00C9457
:104540000E2560E070E0CB01089508950E94C51D1E
:104550000E94A5220E947E0CCDECDEE10E94D107D4
:104560002097E1F30E94CD1EF9CF0895991B79E0C1
:1045700004C0991F961708F0961B881F7A95C9F7F3
:104580008095089597FB072E16F4009407D077FDC9
:1045900009D00E94092307FC05D03EF4909581952F
:1045A0009F4F0895709561957F4F0895A1E21A2E4F
:1045B000AA1BBB1BFD010DC0AA1FBB1FEE1FFF1FC7
:1045C000A217B307E407F50720F0A21BB30BE40B17
:1045D000F50B661F771F881F991F1A9469F760955E
:1045E0007095809590959B01AC01BD01CF01089518
:1045F000EE0FFF1F0590F491E02D09940E941D23FA
:10460000A59F900DB49F900DA49F800D911D112426
:104610000895AA1BBB1B51E107C0AA1FBB1FA61709
:10462000B70710F0A61BB70B881F991F5A95A9F75B
:1046300080959095BC01CD010895A29FB001B39FD4
:10464000C001A39F700D811D1124911DB29F700D9B
:10465000811D1124911D08950F931F93CF93DF9314
:104660008230910510F482E090E0E091F905F0913C
:10467000FA0530E020E0B0E0A0E0309799F4211591
:10468000310509F44AC0281B390B24303105D8F50F
:104690008A819B816115710589F1FB019383828376
:1046A000FE0111C0408151810281138148175907D1
:1046B000E0F04817590799F4109761F012960C939F
:1046C000129713961C933296CF01DF91CF911F91D1
:1046D0000F9108950093F9051093FA05F4CF211571
:1046E000310551F04217530738F0A901DB019A0157
:1046F000BD01DF01F801C1CFEF01F9CF9093FA05B9
:104700008093F905CDCFFE01E20FF31F81939193C2
:104710002250310939832883D7CF2091F705309172
:10472000F805232B41F4209162003091630030930F
:10473000F8052093F7052091600030916100211564
:10474000310541F42DB73EB74091640050916500AA
:10475000241B350BE091F705F091F805E217F307FC
:10476000A0F42E1B3F0B2817390778F0AC014E5FE1
:104770005F4F2417350748F04E0F5F1F5093F80521
:104780004093F705819391939FCFF0E0E0E09CCFB9
:10479000CF93DF930097E9F0FC01329713821282E6
:1047A000A091F905B091FA05ED0130E020E01097F5
:1047B000A1F420813181820F931F2091F705309160
:1047C000F8052817390709F061C0F093F805E09360
:1047D000F705DF91CF910895EA01CE17DF07E8F5DD
:1047E0004A815B819E0141155105B1F7E901FB83C7
:1047F000EA8349915991C40FD51FEC17FD0761F465
:10480000808191810296840F951FE90199838883A5
:10481000828193819B838A83F0E0E0E012968D9100
:104820009C9113970097B9F52D913C911197CD016B
:104830000296820F931F2091F7053091F8052817F3
:10484000390739F6309751F51092FA051092F905AB
:10485000B093F805A093F705BCCFD383C283408102
:104860005181840F951FC817D90761F44E5F5F4FC0
:1048700088819981480F591F518340838A819B8188
:10488000938382832115310509F0B0CFF093FA05A7
:10489000E093F9059ECFFD01DC01C0CF13821282A7
:1048A000D7CFB0E0A0E0E7E5F4E20C9471258C01ED
:1048B000009751F4CB010E942C238C01C801CDB785
:1048C000DEB7E0E10C948D25FC01E60FF71F9C019B
:1048D00022503109E217F30708F49DC0D901CD91A8
:1048E000DC911197C617D70798F0C530D10530F382
:1048F000CE0104978617970708F3C61BD70B22979C
:10490000C193D1936D937C93CF010E94C823D6CFDE
:104910005B01AC1ABD0A4C018C0E9D1EA091F905DD
:10492000B091FA05512C412CF12CE12C109731F566
:104930008091F7059091F8058815990509F05CC0FC
:104940004616570608F058C08091600090916100AB
:10495000009741F48DB79EB7409164005091650077
:10496000841B950BE817F90708F055C0F093F8057C
:10497000E093F705F90171836083A0CF8D919C913D
:10498000119712966C90129713967C901397A81516
:10499000B90559F56C0142E0C40ED11CCA14DB0400
:1049A00020F1AC014A195B09DA011296159780F0E3
:1049B0006282738251834083D9016D937C93E114A9
:1049C000F10471F0D7011396FC93EE93129776CF12
:1049D00022968C0F9D1FF90191838083F301EFCF05
:1049E000F093FA05E093F90569CF4816590608F4E3
:1049F0002C017D01D3019ACFCB010E942C237C0195
:104A0000009749F0AE01B8010E943525C8010E9407
:104A1000C823870153CF10E000E050CF1F93FC0163
:104A200099278827BC01E89411911032E9F31930D5
:104A300010F01E30C8F31B3251F01D3249F4689457
:104A400006C00E944525610F711D811D911D1191A8
:104A500010531A30B0F33EF490958095709561959F
:104A60007F4F8F4F9F4F1F910895FB01DC0102C0C4
:104A700001900D9241505040D8F70895FB01DC01A0
:104A800001900D920020E1F70895592F482F372FFC
:104A9000262F660F771F881F991F660F771F881FA5
:104AA000991F620F731F841F951F660F771F881F42
:104AB000991F0895E199FECF9FBB8EBBE09A99277D
:104AC0008DB30895262FE199FECF9FBB8EBB2DBBE2
:104AD0000FB6F894E29AE19A0FBE019608952F92CC
:104AE0003F924F925F926F927F928F929F92AF927E
:104AF000BF92CF92DF92EF92FF920F931F93CF93CB
:104B0000DF93CDB7DEB7CA1BDB0B0FB6F894DEBF61
:104B10000FBECDBF09942A88398848885F846E8487
:104B20007D848C849B84AA84B984C884DF80EE80D1
:104B3000FD800C811B81AA81B981CE0FD11D0FB6DA
:104B4000F894DEBF0FBECDBFED01089512E0C5E7BA
:104B5000D2E004C0FE010E94F8222196C637D10798
:104B6000C9F7F894FFCF0000FB0580001344537889
:104B70004E414D2E444154004453784E79792E4491
:104B8000534B00FF30000D0A494F533A2053442045
:104B90006572726F7220004449534B5F4552520058
:104BA0004E4F545F5245414459004E4F5F46494C69
:104BB00045004E4F545F4F50454E4544004E4F54B4
:104BC0005F454E41424C4544004E4F5F46494C457F
:104BD00053595354454D00554E4B4E4F574E0020A0
:104BE0006F6E20004D4F554E54004F50454E0052B1
:104BF000454144005752495445005345454B002018
:104C00006F7065726174696F6E00202D2046696C4B
:104C1000653A20004469736B205365742000313578
:104C20003A32303A3339004A756C20323320323010
:104C30003231002F000A494F533A20525443206D1D
:104C4000616E75616C2073657474696E673A000AF1
:104C5000507265737320542F5520746F20696E63F2
:104C600072656D656E74202B31302F2B31206F7281
:104C700020435220746F206163636570740059652E
:104C80006172202D3E20004D6F6E7468202D3E20F5
:104C90000020202020202020202020202020002054
:104CA000446179202D3E2000486F757273202D3E9F
:104CB00020004D696E75746573202D3E200053658C
:104CC000636F6E6473202D3E2000202E2E2E646FA5
:104CD0006E6520202020202000494F533A20525456
:104CE0004320646174652F74696D6520757064611B
:104CF000746564202800494F533A20466F756E64EE
:104D00002052544320445333323331204D6F647565
:104D10006C65202800494F533A2052544320445395
:104D2000333233312074656D7065726174757265EC
:104D30002073656E736F723A20004300494F533AF7
:104D40002052544320636C6F636B206661696C75FD
:104D5000726521000A446F20796F752077616E7447
:104D6000207365742052544320617420494F5320AE
:104D7000636F6D70696C652074696D65202800290A
:104D80003F205B592F4E5D203E00494F533A205241
:104D900054432073657420617420636F6D70696C77
:104DA000652074696D65202D204E6F773A200034A0
:104DB0000038004D487A004F4E004F4646004D489F
:104DC0007A290020373A20546F67676C652043507A
:104DD0002F4D204175746F6578656320282D3E0046
:104DE00020383A204368616E6765200020393A20F8
:104DF0004368616E6765205254432074696D652F66
:104E00006461746500456E74657220796F757220F7
:104E100063686F696365203E0020204F6B000D20A2
:104E20002D3E00424153494334372E42494E0046FD
:104E30004F52544831332E42494E0043504D323286
:104E40002E42494E0051504D4C44522E42494E0084
:104E500043504D4C44522E434F4D00554353444C08
:104E600044522E42494E00434F532E42494E004178
:104E700055544F424F4F542E42494E00494F533ADA
:104E8000204C6F6164696E6720626F6F742070726E
:104E90006F6772616D202800292E2E2E00494F5316
:104EA0003A204C6F6164696E6720626F6F74207086
:104EB000726F6772616D2E2E2E0020446F6E65003A
:104EC000494F533A205A38302069732072756E6EFC
:104ED000696E672066726F6D206E6F77001F1C1FF2
:104EE0001E1F1E1F1F1E1F1E1F00000000F9192875
:104EF0001A9619C2199919A019B319000000001CBB
:104F00001F4920BE1EFC1E901EAA1E9C1E0D0A00DC
:107E000001C0B2C011248FE598E09EBF8DBF84B73A
:107E1000882361F0982F9A70923041F081FF02C060
:107E200097EF94BF282E80E0BAD0EAC085E08EBDDF
:107E300082E08BB988E18AB986E880BD80E189B9A2
:107E40008EE0ADD0B89A84E020E33CEF44E051E00E
:107E50003DBD2CBD48BF08B602FEFDCF98B39527A7
:107E600098BBA8955F9902C0815091F791D0813459
:107E700079F48ED0182F97D0123811F480E004C016
:107E800088E0113809F083E07FD080E17DD0EECF2B
:107E9000823419F484E18FD0F8CF853411F485E071
:107EA000FACF853541F474D0C82F72D0D82FCC0FBB
:107EB000DD1F79D0EACF863519F484E07CD0DECF9F
:107EC000843699F565D064D0182F62D0D82E012F52
:107ED00090E6E92EF12C57018FEFA81AB80A58D076
:107EE000F701808301507501B1F75DD0F5E4DF1231
:107EF00001C0FFCF50E040E063E0CE0135D07E010D
:107F000080E6C82ED12CF601419151916F0161E0BC
:107F1000C7012AD0F2E0EF0EF11C1250A1F750E099
:107F200040E065E0CE0120D0B0CF843771F430D08E
:107F30002FD0F82E2DD037D08E01F80185918F01EA
:107F400023D0FA94F110F9CFA0CF853739F42BD094
:107F50008EE11AD085E918D082E096CF813509F0FC
:107F6000A8CF88E01CD0A5CFFC010A0167BFE89527
:107F7000112407B600FCFDCF667029F0452B19F4DB
:107F800081E187BFE89508955D9BFECF8CB9089588
:107F90005F9BFECF5C9901C0A8958CB1089598E1D4
:107FA00091BD81BD0895F4DF803219F088E0F7DFDC
:107FB000FFCF84E1E9CFCF93C82FEADFC150E9F7C3
:047FC000CF91F1CF9D
:027FFE00000879
:00000001FF
