:4000000000400020110000003D0300003D03000008B5044B1A6803F53F5302331A6000F095F900BFFA46004010B5054C237833B9044B13B10448AFF300800123237010BDA9
:4000400030C1FF1F00000000A0040000084B10B51BB108490848AFF300800848036803B910BD074B002BFBD0BDE81040184700BF0000000034C1FF1FA0040000C8C0FF1F2A
:400080000000000062B6FEE7FEE700BFF0B40022174611E050F82760F3B226F0FF0608E001EB420511F812406D78A5550132013BDBB2002BF4D10137112FEBD9F0BC70471C
:4000C000064B1B78DBB203F00701054A11701B09013213704422034B1A707047CF0100496E5800407658004008B50A46002100F0CEF908BD38B53A4B1D78EDB208223949CC
:400100000A801821384801700A2402300480023001700220354908704FF040210A70F321334A117003221A708422A3F28F331A700522013B1A702F4C04E04FF4F07000F02B
:400140005FF9013C24B12C4B1B7813F0200FF4D0234B1D7040F21B12A3F276431A800A224FF040231A7041F2512203F508731A80002419250CE0214B1B7803F0010343EA57
:40018000440404F003044FF4F07000F039F9013D0DB1032CEFD115B90320FFF775FF184A4FF4807313805221164B1970164B1B78DBB216490B70072313700023A1F29B61AF
:4001C0000B7048200231087013700532137002220F4B1A700F4A137843F00303137038BD984600408040004082400040004300400A430040A086010008430040254200400E
:4002000004400040004200400F010049A146004001400040A243004008B500F02DF908BD38B572B6314A137843F00403137000240CE02F4D630019194A0011462A440846A4
:4002400091882858FFF750FF0134E4B2062CF0D928494FF09040FFF719FF274A137843F0020313701032137843F002031370234C237843F040032370A2F58632513A137895
:4002800043F01003137008221D491E48FFF7C4FF08221D491D48FFF7BFFF08221C491D48FFF7BAFF08221C491C48FFF7B5FF08221B491C48FFF7B0FF08221B491B48FFF75F
:4002C000ABFF1B4A137843F008031370194D61232B70FFF70FFF01232B70FFF7F1FE0E2221461548FFF798FF38BD00BFE8460040A40400004800004803500140A0430040E4
:40030000C801004802510040D0010048C2510040D8010048F2510040E001004812510040E801004822510040F0010048425100402243004000480040B043004008B500F040
:400340006FF803680C2B00D1FEE7FEE708B5104E104D16E029686B68AC68002204E051F8040B43F8040B0432A242F8D1E868002203E0002143F8041B04328242F9D110358F
:40038000013E002EE6D100F051F8FFF77BFEFEE701000000F404000008B5104A104B1A60104A136843F40073136000230AE0032B03D80D4A52F8231000E00C490C4A42F806
:4003C000231001332F2BF2D90A4B1A780A4B1A70074A0A4B1A60FFF723FF08BD0004FA050CED00E014ED00E0000000003D03000000C0FF1FBC760040C0C0FF1F08ED00E0EE
:400400000230800803D000BF01380046FCD17047EFF3108072B6704780F31088704700BF014B1868704700BF2CC1FF1F0E4B70B51E460E4C0025E41AA410A54204D056F832
:40044000253098470135F8E700F042F8084B094C1E46E41AA4100025A54204D056F8253098470135F8E770BDDC040000DC040000DC040000E404000010B5431E0A449142D8
:4004800004D011F8014B03F8014FF8E710BD03460244934202D003F8011BFAE770470000000000003051004010005051004020000000014000100014014000080040014036
:4004C000000A004C014000020050014020004300F8B500BFF8BC08BC9E4670474D00000099030000F8B500BFF8BC08BC9E4670472900000008050000C8C0FF1F6800000044
:400500002000000000000000000000000000000000000000000000000000000000000000000000000000000000000000CE04000000000000000000000000000000000000C9
:400540000000000000000000000000000000000000000000000000000000000000000000000000000000000000000000CCC0FF1F00000000000000000000000000000000D1
:40058000000000000000000000000000000000000000000000000000000000000000000000000000000000000000000000000000000000000000000000000000000000003B
:4005C00000000000000000000000000000000000000000000000000000000000000000000000000000000000000000000000000000000000000000000000000000000000FB
:4006000000000000000000000000000000000000000000000000000000000000000000000000000000000000000000000000000000000000000000000000000000000000BA
:40064000000000000000000000000000000000000000000000000000000000000000000000000000000000000000000000000000000000000000000000000000000000007A
:020000040001F9
:0200000480007A
:4000000005520040010301402E040140340501400707014003090140030B0140024001400C4101400B420140054301400B4501401146014005470140044801400349014014
:40004000034C01400250014008401006111361047810860102010401080A0A040E01101C11011401150119011A011C041E1020012101241C29012A012D012E023018320391
:4000800033013404382A39083E113F04580459045B045F018001840288019202960198019C01A801B002B601B882BE41D804DF0100100102020203100522065008010A80F5
:4000C0000B260C610D080E01104A12101404173018901A081D011F802208284029202A40302432026806810882028420860C8704880C8C40928199029A109B20A902AE10F7
:40010000B640B720C07FC2FFC44FCA0DCC07E008E203E428E810EC10AC02AD20AF90B501B701E848EE02E808EC40EE02E028E203E4180A20C21002100301060209880F1859
:40014000520887109220C0D0C2F0D420E01053208A109A12A304A608AA10AF01B588D420E840EC20A304A608AF20B602EE1005200D405408570258406004C001C201D40381
:40018000D604D8020780540481408440878288048C089180940499209C40A408A702C004D402E004E4089201AD20AE01B404EC022208A304A608C8404F08A304D2805E0116
:4001C0009201D60100010A01FD0202000200000000040400040000002010100010000000004B4B004000000088171700170000001000000000000000000000000000000077
:4002000000000000000000000000000000000000000000000000000000000000000000000000000000000000000000000000000000000000000000000000000000000000BE
:40024000000000000000000000000000000000000000000000000000000000000000000000000000000000000000000000000000000000000000000000000000000000007E
:40028000000000000000000000000000000000000000000000000000000000000000000000000000000000000000000000000000000000000000000000000000000000003E
:4002C00000000000000000000000000000000000000000000000000000000000000000000000000000000000000000000000000000000000000000000000000000000000FE
:0200000490006A
:0400000000004005B7
:0200000490105A
:04000000BC90ACAF55
:0200000490303A
:02000000233BA0
:0200000490402A
:4000000000000000000000000000000000000000000000000000000000000000000000000000000000000000000000000000000000000000000000000000000000000000C0
:400040000000000000000000000000000000000000000000000000000000000000000000000000000000000000000000000000000000000000000000000000000000000080
:0200000490501A
:0C00000000012E13306900012E1553A4DE
:00000001FF