:400000000080002011000000250400002504000008B5044B1A6803F53F5302331A6000F009FA00BFFA46004010B5054C237833B9044B13B10448AFF300800123237010BD22
:400040004081FF1F0000000018060000084B10B51BB108490848AFF300800848036803B910BD074B002BFBD0BDE81040184700BF000000004481FF1F18060000C880FF1FD6
:400080000000000010B504460CE0012000F048FAFA2000F029FA002000F042FAFA2000F023FA013C002CF0D110BD00BF08B562B600F040F8012802D10220FFF7E3FFFEE7C4
:4000C00010B50446C0B200F025FAC4F3022000F03FFAC4F3473000F041FA10BD10B5FFF7EFFF052000F040FA072000F03DFA032000F03AFA00F026FA0446072000F034FA1C
:40010000052000F031FA204610BD00BF10B50C46FFF7D6FF042000F027FA062000F024FA204600F009FA022000F01EFA052000F01BFA10BD08B555210020FFF7E7FF002079
:40014000FFF7CCFF552801D0012008BD002008BDFEE700BFF0B40022174611E050F82760F3B226F0FF0608E001EB420511F812406D78A5550132013BDBB2002BF4D10137E5
:40018000282FEBD9F0BC70470A4B1B78DBB203F00701094A11701B09013213702022074B1A70022203F683031A704422A3F20A231A707047CF0100496E580040FD51004042
:4001C00038B500242B4B1C80582202331A70092202331A801823284A137040210232118002321370952102321180023213700622224B1A705222A3F580731A70204B1B78C4
:40020000DBB2204A137040F214721F4B1A8041F25122023B1A8019250CE01C4B1B7803F0010343EA440404F003044FF4F07000F0A3F9013D0DB1032CEFD115B90320FFF77F
:4002400087FF134A4FF48073138007231370002310490B7048200231087013700532137002220D4B1A700D4A137843F00F03137038BD00BF804000408640004000430040F1
:400280000F010049A14600402242004025420040044000400640004001400040A243004008B50A46002100F0AEF908BD08B500F09FF908BD38B572B6404C61232370FFF781
:4002C0007FFF012323703E4A137843F00403137000240CE03B4D630019194A0011462A44084691882858FFF7DBFF0134E4B2062CF0D900240BE03348A20011194B00034458
:400300009A8E196BD86AFFF7D1FF0134E4B2032CF1D92D494FF09040FFF71CFF2B4A137843F0020313701032137843F002031370274C237843F040032370A2F58632513A7B
:40034000137843F0100313700A2222492248FFF7ADFF0A2221492248FFF7A8FF0A2221492148FFF7A3FF082220492148FFF79EFF082220492048FFF799FF08221F49204840
:40038000FFF794FF08221F491F48FFF78FFF0A221E491F48FFF78AFF0A221E491E48FFF785FF1E4A137843F008031370FFF7ECFE0E2221461A48FFF779FF38BD00480040D3
:4003C000E84600401C060000A400004803500140A0430040B810004800510040C4100048C0510040D0100048F0510040DC10004812510040E410004822510040EC10004809
:4004000032510040F410004842510040FC10004850510040081100486051004022430040B043004008B500F0B7F803680C2B00D1FEE7FEE708B5104E104D16E029686B6810
:40044000AC68002204E051F8040B43F8040B0432A242F8D1E868002203E0002143F8041B04328242F9D11035013E002EE6D100F099F8FFF71BFEFEE70100000098060000CC
:4004800008B5104A104B1A60104A136843F40073136000230AE0032B03D80D4A52F8231000E00C490C4A42F8231001332F2BF2D90A4B1A780A4B1A70074A0A4B1A60FFF747
:4004C000F9FE08BD0004FA050CED00E014ED00E000000000250400000080FF1FBC760040C080FF1F08ED00E010B5044605E0084B186800F041F8A4F50044B4F5004FF6D884
:40050000034B586800FB04F000F036F810BD00BFCC80FF1F014B1870704700BF76650040044A137803F07F03C001C0B218431070704700BF10510040014B1870704700BF88
:400540007A640040014B1878704700BF67650040014B1870704700BF74640040014B1870704700BF7D640040014B1870704700BF75640040000000000230800803D000BF83
:4005800001380046FCD17047EFF3108072B6704780F31088704700BF014B1868704700BF3C81FF1F0E4B70B51E460E4C0025E41AA410A54204D056F8253098470135F8E7E4
:4005C00000F058F8084B094C1E46E41AA4100025A54204D056F8253098470135F8E770BD8006000080060000800600008806000010B5431E0A44914204D011F8014B03F8CE
:40060000014FF8E710BD03460244934202D003F8011BFAE7704700000000000000000140800E000F0140000100140140800000150140000700400140000A004C014000026D
:40064000105001401000000028520040A00F00480700800E0140A80F004880008014014028100048800000500140A8100048100043000000F8B500BFF8BC08BC9E4670478B
:400680004D00000081040000F8B500BFF8BC08BC9E46704729000000A8060000C880FF1F7800000020000000000000000000307560EA00003C0000000087930300000000CC
:4006C0000000000000000000000000000000000000000000000000000000000070060000000000000000000000000000000000000000000000000000000000000000000084
:4007000000000000000000000000000000000000000000000000000000000000DC80FF1F00000000000000000000000000000000000000000000000000000000000000003F
:400740000000000000000000000000000000000000000000000000000000000000000000000000000000000000000000000000000000000000000000000000000000000079
:400780000000000000000000000000000000000000000000000000000000000000000000000000000000000000000000000000000000000000000000000000000000000039
:4007C00000000000000000000000000000000000000000000000000000000000000000000000000000000000000000000000000000000000000000000000000000000000F9
:4008000000000000000000000000000000000000000000000000000000000000000000000000000000000000000000000000000000000000000000000000000000000000B8
:020000040003F7
:0200000480007A
:40000000014500400F52004007640040540001403F0101405002014054030140420401405A050140510601405B0701404E080140580901403E0A0140560B0140410C014059
:400040004F0D0140080E01403C0F01401B1401405215014033160140591701404E1801404B190140041A0140181B0140224001401A4101400E420140104301401444014091
:400080001E450140144601400F4701401B4801401E490140124C01402B4D014005500140025101407E020006011A08801033116A181B1912206A213323FF30013103601082
:4000C00079027C4023042F0F3F087504850F88728B3C00900146020B040107200A010B420C400E0B0F80104F1105130A1442150116091702180319011A201B421C031DEFC6
:40010000201F21082305244825E0260228012B102C402D412E142F0432E0331F341F3560378038083E04580459045C335F01811785178601884689128AA98B058C808D1620
:400140008E568F019120942A95019654970E98339A0CA0FFA101A308A440A513A613A704AB10AC0EAE30B30FB4FFB730B980BB08BF40D804D904DC33DF0100400104020879
:4001800003800510062108020B190E040F1010A512401402165019041A141D10202021402240231525402604280929042A812B802CA02E202F0C30823110330835083604AE
:4001C000370139813A183B043C603D013E058040811082088304842085108611881289088A8C8D208F81C0EFC26FC4BFCAEFCCCFCEFFE206E404E6400104050408020F0886
:40020000110414021601180119011B021C041D011F02200129082B0430033404350C3703380239203E113F104026410545E046C0470B481A49FF4AFF4BFF4EF04F44500CA2
:40024000580459045A045C305D025F0166C06A406B028A018F02920293019604AA08B002B201B302B408B501B604C036C404C5BDC803C9FFCA7FCBFFCC42CDA0CE70D00C8E
:40028000D824D924DA04DB04DC88DD03DF31E109E240E309E430E5090304042009010B200C880F0811101501180419441A401C801E082120220827092C08320134203502D6
:4002C000368039403C023D813F0841024210451049204B0E4C804F515608571059055A605C025E015F026040616062087B8080208444881489048C048D0191589292932044
:40030000950496019708984199309A039B049C0E9E409F01A010A101A941AD04AE02AF10B040B140B504C042C2ECC412CA20CCB1CED8D023D234D60FD80FDE01E402E60CE3
:400340000001021E0301041C0622070208010C3F1006142A16101A401C0420222422261828322A082C182E063101321F3460350238085608580459245B045C835D905F3175
:40038000830188058B348F03910C933396049702990C9A059B709C059D0C9F10A54BA730A802AA04AB43AD0CAF20B004B203B57FB808BB20BE01D401D804D904DB04DC2206
:4003C000DD20DF0100100362070808080A880B020E160F20108112181604181019281B201E401F04204022102510261027082A402B022E842F0434803504361139083A0247
:400400003C803D013F1049104A0858405E585F01628063026604671068046B216C186D807B80810585018B018F20910892809307946096209750985599109ACB9B409D0AF4
:400440009F02A010A204A310A40DA552A680A784AB40AC08AE40B308B508B680C04FC2EFC44FCA70CCF0CEB3D6F8D808DE01E20CE601EA0CEC10EE89041C050406030A202D
:400480000C080D080E02108511011405166A185F19061A201C0A1D041E3520132103220C29082A102B042E5F300F330C34803503367039083A823E103F04580459045C02F8
:4004C0005F018105822C83788403850389228A108B058C108D7F8E40903391019208943C95019603981399109A249B079C3F9D03A003A140A307A402A501A801A908AB0770
:40050000AC03AD3AAF04B01FB240B37FB623BA02BF04D804D904DC02DF010108020203480440050C0604088009200A400B100D020E261101120813881501160217201880DC
:4005400019801A401B081C401E0A1F012204271428192A012C082FC0300431113240356239123A503B043D803F084A014B4059105A20780879088080811084408602872CF0
:400580008A088B808E068F1091239280930C960D9740981599559A499C089D029E14A018A144A210A321A4C0A601A784A880A906AB10AC09AD71AE01AF02C0EFC2FFC4DFF8
:4005C000CAAFCCBFCE5FE249E641E80AEA05EC02014003300502060209060A010D1E0E040FE11166139915F9170619FF1A041E021FF9210425B827402B702F7031703204A9
:4006000033073403350E360337803B2A3E54403441064202440545CE480349FF4AFF4BFF4C624DA04EF04F41500C56025711580459045A045B045C205D225F016640670239
:4006400069106A306B106D106E106F1282018402860496069C049E02AF01B001B406B701BE10D804D904DB04DC33DF010009055809800A200F091A801B101E031F1420016E
:400680002140242025012620270E28022C802D802F1834A0360237083D023E283F804480452047084E014F1A5A035E20602061046310680169016A286C246E4872027490F5
:4006C000762877207801790180208104848088108B208F019040915092049302940495A096119748980699849A159C809D219F46A180A308A403A620A741A940AA01AB1806
:40070000AC04AD04B320B405C0ECC2C5CAF8CCF0CEF0D0E0D230D620E6B0E802020C0C080E04100112021A011E022C042E08300C34033E1158045B045F018024821283049F
:40074000843F8704883F8B038C368E098F039009910292369301943695039609988099039A409C1B9E249F03A23FA303A407A6F8A840AA80AC38AD01AEC7AF02B104B303B4
:40078000B4C0B63FBAA8BF01D21CD41CD804D904DB04DC22DD20DF01000203020545070408200B410E150F801002148015401620171018481D441E041F40250226042D8043
:4007C0002F40300131023480350436213C043E103F82442046105E085F026401670869126A406B206D026E026F10700971107202758079407A017E027F0181058408858181
:4008000086228D108E4093019524974098229A059C049D209F40A184A202A302A701A804AD81AE01AF80B205B414C0F9C2FBC4F1CA90CCF0CEF0D6C0D830E002E43AE840DA
:40084000EA04EC02020104CC05100613070108040B080D0F0E0411101202130214A51544164A17081AB51B181CFF1D7F20A92254241A26602720284D2A922B142C02313F5A
:40088000354036FF39223E40580459045C305F0182208D0A8E108F059011922E930296089B049F08A602AA01AB01AE04B008B10CB230B306B404B501B603BE55BF15D80420
:4008C000D904DB04DF01008001010202050A0601071809080B400E890F101020120C138015B417011A8A1B041F8020142101244829102D102F1031803210330235803604DD
:4009000037113B403D843F10682069016A207118738180408302870188748A408B088E408F0491809330944095249802998A9A019B019C049D209F40A014A1C4A20CA84024
:40094000A980AE08B080B102B608C0F9C2FCC4F7CA64CCFDCE78E224E402E680E810EA88EC24EE0114013601560858045B045C035D905F010450050807400A100C050E09D2
:4009800014121534164019801A011C101D401F102401264527042C802D102F1034113508364037013E093F10450247044C80554058805C195F40600265616D086E107414DB
:4009C00075027601810C851088098A408B508D418E05C0F0C2F4C4F0CAE0CCF0CEE0D0C0D6F8D8B8E0A0E250E4B0E640041F05010D0314201705180A1A111B021C011E0694
:400A000024142609281F302033043418350336073E01520153015610580459045B045C025F010220056407800A290C400E66102011201501161418021A091B021D481E0417
:400A40001F80212422102308260829082B102D202E042F853120330434403504361239483C803D013E484508544056045820598868086940800987088BC28C249101930AF9
:400A80009404960C9740982099849A189B049E04A110A233A310A440A608A940AB20AD80AE02AF40B148B204B310B488B620C0F4C2F7C476CAF0CCF6CEDAD040D60EE001EE
:400AC000E404E688EA0103030702130117041E01290131073601580459045B045C235F0180E2843D86C288048AE08B108D088EFF92089301949296609703980D9B019C40A9
:400B00009D089E1DA202A301A401A704A801AB10AC5DAEA2AF02B2FFB307B518BB08BE04BF10D804D904DB04DC30DF01002001100241032009400AA00B040F0210951908CF
:400B40001E01210C23082503260229282A412D022F843001310833A0360939203A203B803D023E044504461058485B22600463516C206D406F4875107602779080208110AC
:400B8000835084408640878888208A208B828D208F19912192A0930E951896059780981599049A499B049D229E04A010A114A211A321A4C0A502A920AB40AF10B440B58081
:400BC000B704C00FC28FC40FCA2FCCCFCECCD60FD80FE098E420E608E840EA8EEE0100040201046F082F0A400C030E0C1010142A1645170118101C051E0A20102465260A05
:400C00002A0F2C0C2E03300F310132203410364038803A023E045608580459045B045C325D905F01800A8108820183048520871089FF8E0B8F8090019101922A930294017C
:400C40009606973099109B209C019D049E049F08A303A740A902AA0BAB01AE1BAF0CB010B1FFB207B408B620B902BA08BE10BF01D804D904DB04DC03DF01038204200585B9
:400C80000A910D080E4A1004120215401608170619201A101B821D411E201F1023402602274028012A122B10308032053310340438403A043B125F80670168866B10718011
:400CC000860189108B909068915092CC930295209741980599849A179B049C809D799F40A108A205A310A406A610A890AB40AF08B404B528B612C0F9C2FDC4F3CA0FCC4F88
:400D0000CE0FD610D810E220E4E0E618EA82EC50B820BE10D804DF011F20811087208A048F01920493019D10AD80AE01B080B118B208B310B404B601B702E001E220E6701B
:400D4000E880EA51EC20EEC002040340054006400B420E800F0230883502371038205040560859105B015D205F086008660273048204854086408F10C0F0C2F0CCF0CE103E
:400D8000D4E0D6E0D8C0DC20E080E4500C200D08520A5742602063028602870194A097049C089D329E0A9F09A488AB41AE40AF41C2A0D4E0D660D840E240E610E810ECF09E
:400DC000948097049C289D329E0A9F09A108A488A608A740A810B302B420EA208C208F40948095109C289D329E0A9F09A108A488A608A740AD10AF04EA40EC1005800941C6
:400E00000D040F0210401410520459205F206B0170017D40C001C20FC40CD405D604DA02DC01DE045311571059045C025F40602066018180852089408B018D048F019402C6
:400E400099809D209E049F21A140A301A941AD04B050D407D607D803E00AE201E604EA05840987088B208D088E059C029E049F21A520A920AF40B020B310B401B601B710AF
:400E8000E002E40EE80FEC0209280E20980999189A019B80A308A520AF01B380B402B510C20EE80AEC04220858408040820A83088520870189088B018D80948095109C0845
:400EC0009D309E0A9F09A108A480A688AC08B102B680C840D480E2E0E6E0EA40011009800F12128054025720644084C087208802951097109C40A480A580A680A701A91004
:400F0000AC08AF10C040C2E0C410D440D620D880E210E610E810EE305F01868089208B808D82980999189A019B80A308AD08B210D601E001E204E402E608EA0100400280F6
:400F40000520072009220C100E4053805601570858015B805D08600865107580830188108E4094409701980999989A019B809D209F20A388A522A680AB20B120B440C00FCB
:400F8000C20FD407D607D803DC02E204E602EA02EE01100D11011A0D1C0C1D0100AF0102A995FFFF00000000008178088301400201040601000078008025134078040001FC
:400FC000782503400101040E8090430080900B008305200002000100007007807810800F802A088000005011340000000020050006FFFFFF42A070000810F6002000040063
:40100000040404043333000100484048804880480000000000000000000000000000000000000000000000000103001C04A00300000026000180021F0005060ACA0C30131C
:40104000A69F1860C860369F0410030000F5010000405895000A00050000C0FF3C0003000800A00000000404030000000000040000FF07FF4020F005080000000000000056
:40108000040404000202000140A84020000000000000000000000000000000000000000000000000000000000D010000000000000C000D010C0008011000A05F5F005F00CD
:4010C000000000003000010030003000000000004000000202000200E0000000008B8B008000000000FFFF00FF000000E41B1B001B00000000FFFF00FFFF0000FF0000FF77
:401100000000FFFF000000000700F807000007070000000000000000000000000000000000000000000000000000000000000000000000000000000000000000000000009D
:40114000000000000000000000000000000000000000000000000000000000000000000000000000000000000000000000000000000000000000000000000000000000006F
:40118000000000000000000000000000000000000000000000000000000000000000000000000000000000000000000000000000000000000000000000000000000000002F
:4011C00000000000000000000000000000000000000000000000000000000000000000000000000000000000000000000000000000000000000000000000000000000000EF
:4012000000000000000000000000000000000000000000000000000000000000000000000000000000000000000000000000000000000000000000000000000000000000AE
:0200000490006A
:0400000000004005B7
:0200000490105A
:04000000BC90ACAF55
:0200000490303A
:02000000435665
:0200000490402A
:4000000000000000000000000000000000000000000000000000000000000000000000000000000000000000000000000000000000000000000000000000000000000000C0
:400040000000000000000000000000000000000000000000000000000000000000000000000000000000000000000000000000000000000000000000000000000000000080
:400080000000000000000000000000000000000000000000000000000000000000000000000000000000000000000000000000000000000000000000000000000000000040
:4000C0000000000000000000000000000000000000000000000000000000000000000000000000000000000000000000000000000000000000000000000000000000000000
:0200000490501A
:0C00000000012E15F06900012E1D33BF19
:00000001FF