:400000000080002011000000390400003904000008B5044B1A6803F53F5302331A6000F013FA00BFFA46004010B5054C237833B9044B13B10448AFF300800123237010BDF0
:400040004081FF1F0000000028060000084B10B51BB108490848AFF300800848036803B910BD074B002BFBD0BDE81040184700BF000000004481FF1F28060000C880FF1FB6
:400080000000000010B504460DE0012000F052FA4FF4FA7000F032FA002000F04BFAFA2000F02CFA013C002CEFD110BD08B562B600F044F818B90120FFF7E4FF02E00130C4
:4000C000FFF7E0FFFEE700BF10B50446C0B200F02BFAC4F3022000F045FAC4F3473000F047FA10BD10B5FFF7EFFF052000F046FA072000F043FA032000F040FA00F02CFA08
:400100000446072000F03AFA052000F037FA204610BD00BF10B50C46FFF7D6FF042000F02DFA062000F02AFA204600F00FFA022000F024FA052000F021FA10BD10B55521D4
:400140000020FFF7E7FF0020FFF7CCFF552807D1012421460020FFF7DDFF0134E4B2F8E7012010BDFEE700BFF0B40022174611E050F82760F3B226F0FF0608E001EB4205D5
:4001800011F812406D78A5550132013BDBB2002BF4D10137272FEBD9F0BC70470A4B1B78DBB203F00701094A11701B09013213702022074B1A70022203F683031A70442295
:4001C000A3F20A231A707047CF0100496E580040FD51004038B500242B4B1C80582202331A70092202331A801823284A13704021023211800232137095210232118002323D
:4002000013700622224B1A705222A3F580731A70204B1B78DBB2204A137040F214721F4B1A8041F25122023B1A8019250CE01C4B1B7803F0010343EA440404F003044FF414
:40024000F07000F0A1F9013D0DB1032CEFD115B90320FFF787FF134A4FF48073138007231370002310490B7048200231087013700532137002220D4B1A700D4A137843F007
:400280000F03137038BD00BF8040004086400040004300400F010049A14600402242004025420040044000400640004001400040A243004008B50A46002100F0ACF908BD69
:4002C00008B500F09DF908BD38B572B6404C61232370FFF77FFF012323703E4A137843F00403137000240CE03B4D630019194A0011462A44084691882858FFF7DBFF01341B
:40030000E4B2062CF0D900240BE03348A20011194B0003449A8E196BD86AFFF7D1FF0134E4B2032CF1D92D494FF09040FFF71CFF2B4A137843F0020313701032137843F07B
:4003400002031370274C237843F040032370A2F58632513A137843F0100313700A2222492248FFF7ADFF0A2221492248FFF7A8FF0A2221492148FFF7A3FF082220492148DD
:40038000FFF79EFF082220492048FFF799FF08221F492048FFF794FF08221F491F48FFF78FFF0A221E491F48FFF78AFF0A221E491E48FFF785FF1E4A137843F00803137081
:4003C000FFF7ECFE0E2221461A48FFF779FF38BD00480040E84600402C060000A000004803500140A0430040381000480051004044100048C051004050100048F0510040C3
:400400005C1000481251004064100048225100406C1000483251004074100048425100407C10004850510040881000486051004022430040B043004008B500F0B5F80368AD
:400440000C2B00D1FEE7FEE708B5104E104D16E029686B68AC68002204E051F8040B43F8040B0432A242F8D1E868002203E0002143F8041B04328242F9D11035013E002EF3
:40048000E6D100F097F8FFF711FEFEE701000000A806000008B5104A104B1A60104A136843F40073136000230AE0032B03D80D4A52F8231000E00C490C4A42F82310013379
:4004C0002F2BF2D90A4B1A780A4B1A70074A0A4B1A60FFF7F9FE08BD0004FA050CED00E014ED00E000000000390400000080FF1FBC760040C080FF1F08ED00E010B50446F3
:4005000005E0084B186800F03FF8A4F50044B4F5004FF6D8034B586800FB04F000F034F810BD00BFCC80FF1F014B1870704700BF71640040044A137803F07F03C001C0B24A
:4005400018431070704700BF10510040014B1870704700BF79640040014B1878704700BF6A640040014B1870704700BF70640040014B1870704700BF78640040014B18702A
:40058000704700BF756400400230800803D000BF01380046FCD17047EFF3108072B6704780F31088704700BF014B1868704700BF3C81FF1F0E4B70B51E460E4C0025E41A0F
:4005C000A410A54204D056F8253098470135F8E700F058F8084B094C1E46E41AA4100025A54204D056F8253098470135F8E770BD90060000900600009006000098060000F3
:4006000010B5431E0A44914204D011F8014B03F8014FF8E710BD03460244934202D003F8011BFAE7704700000000000000000140800200030140000D00140140800200176C
:400640000140000500400140000A004C01400002105001401000000020520040200F0048070080020140280F0048800080160140A80F004880000050014028100048100000
:4006800043000000F8B500BFF8BC08BC9E4670474D00000095040000F8B500BFF8BC08BC9E46704729000000B8060000C880FF1F7800000020000000000000000000307589
:4006C00060EA00003C0000000087930300000000000000000000000000000000000000000000000000000000000000008006000000000000000000000000000000000000D1
:400700000000000000000000000000000000000000000000000000000000000000000000000000000000000000000000DC80FF1F000000000000000000000000000000003F
:400740000000000000000000000000000000000000000000000000000000000000000000000000000000000000000000000000000000000000000000000000000000000079
:400780000000000000000000000000000000000000000000000000000000000000000000000000000000000000000000000000000000000000000000000000000000000039
:4007C00000000000000000000000000000000000000000000000000000000000000000000000000000000000000000000000000000000000000000000000000000000000F9
:4008000000000000000000000000000000000000000000000000000000000000000000000000000000000000000000000000000000000000000000000000000000000000B8
:020000040003F7
:0200000480007A
:4000000001450040105200400564004002650040440001404101014015020140590301404F040140590501405906014062070140470801404E090140480A01405D0B01406A
:40004000580C0140520D0140530E01403A0F01404E1401405B150140101601405917014018190140131B0140254001401F4101400D420140094301401B4401401B4501401D
:40008000134601401E4701400F48014016490140154C0140244D014002500140025101407E02004A011C088009801039116A18191910289A29C330043101330760107802FF
:4000C0007C40230F290433087504853C8472870F014003130410050E0601073008040A080C100D330E020F0C12081301140F15FF18C01A201D461E181FA920C0287F29807B
:400100002B562D2A2E142F5430803440363F37FF38A23E01580459045B045C335F0180338248840388018E1090039301947C9603987F9C10A22CA403A702A813AA64AC02E0
:40014000B040B101B223B41FB702B802BA20D804D924DB04DC82DF2101240202044005140680080209080B050D200E400F1210081102120114801520162219201B421D010C
:400180001E24224023012782280229202F10300831023240370139063A013B804A024B805FC0680469406A086D806FA87482771479047B107E2082018334848085408680E1
:4001C000870888048A848D428E40C0F7C2FFC4FBCA4CCC8BCE0BDE40E608070208071304140116061C041E09240728022A012F01300831023207330135043A205804592415
:400200005C825F21000A0190070408180A440B020E100F021002129815081710180619821A201C601D201E101F202204241827802806290A2E80308032113308360138A0A2
:4002400039053F08420843024503510A58015B0264086620680269146A0270407E20824483408528868088408C248F0892849340944095229640979499219A109B2A9C8079
:400280009D149E22A291A356A408A529A620A701A802AB34AF99B002B214C04FC2ADC46FCA1FCC8FCE4FD005DE40E084E210E403E648EA40EE010012020804080630078002
:4002C0000B040F211343170219F01E1A1F80221A23F0261E2711280829F02A202B012C082E132FF8300131073238340235F0360437083A083B023E103F1056085804590470
:400300005B045C335D905F018447850286B888FF89058C368D048EC990B89108924794FF98249A129D05A2FFA436A6C9A809A90AAAF6AB05AC1BAE24B03FB103B30CB4C0CF
:40034000B90ABA02BF05D41CD804D904DB04DC02DD20DF01010A0203044006280A010E440F101028114012801490152016011804194A1A011C401E082101229123042506AB
:4003800029602B502F083028324136403701388039103B883C803D2458405E085F016302640866806D046E026F098201854086058C108D40901A9180928893489420952BDA
:4003C00096409796985199219A049BA89C829D149E229F14A038A210A370A485A504A628A709A940AC04B008B304B506B608C0ECC271C4FFCA2FCC9FCE7ED6C8D838E208DC
:40040000E40BEA08EE40010803060504070A0B01150C2602290C2E01330C3402360137033F40406441024203440545E0460C480649FF4AFF4BFF4C624DA04EF04F41500C89
:40044000582459045A045B045C285D025F216640670269106A306B106D106E106F1281B88340848C85FF8670891E8A438BE18E018F70914092029330948C95069633984BE7
:4004800099F99AB09B069FF9A00CA104A290A566A6B4A799A80CA902AA20AE03AF70B080B170B30EB47FB507B780BA20BB2ABE01D804D904DC22DF01000401A004080508FB
:4004C00009080A400B04102012851580170818041A801E0A211022112311240125042710281029902A022D402E60304031243201342036103704380139603A083C203D0882
:400500003F0241044228432044E046084C424E024F1055405A0C5C105E0A5F806405650867407E20880289048A108E40901A91809340952996449713981199019A049BA97C
:400540009C8A9D949E8A9F14A010A210A329A4C5A550A66AA840A980AA30AD02B110B404C007C20EC4AFCA2FCC4FCEEFD0E0D230D6F0D8F0DE40E208EA01EC04061007047B
:4005800008350A0A0C2F13081403160C1701183A19011A051B0E1E0F20052302240C260328082A02300F310833043430350338203A023E103F15580459045B045C025F010C
:4005C000840286058D0397029901A202A604AA01AF05B001B303B406B504BE11C064C401C5D0C70BC812C9FFCA7FCBFFCC42CDA0CE70D00CD804D904DA04DB04DD03DF0101
:40060000E109E240E309E430E5090220061007090C040D9010A8144016201720184019101C801F1021282510260127102B022D013128350A363039803E0842404380490143
:400640004A08530469046A826B046C206D1172107385740875027609804082018314860188408B208E70918092409510962097089D019E01A080A218A380A980AA02AB208A
:40068000AE01AF84B041B660C0E4C2E0C47ECA88CCE6CE48D009D204E005E208E447E620EA80EC40EE03014203090401070109010C020D400E040F141002114F12041401E6
:4006C0001590170B19401B0B1D03210323202501291F2D482F023007311F33E0380239083E013F04520153015610580459045B045C305F018127850287058D2792049310C9
:40070000940195069602972199309D019F0EA531A601A708AD03AE02AF24B003B10FB404B730BB02BE01D420D604D804D904DB04DC33DD30DF0102020320080209010A1081
:400740000C200E200F881508160117041A401C801E08220A2320264027C1280129012A882B042C202E8032A0330A3504376139463A103C083D424080428059085AA25D2268
:400780005E805F046008618A6620678269806B0879407A02810A8308848086108740880889088C808E048F0491069210930295589708980299269A189C819D019F20A02538
:4007C000A2A0A3CAA610AD04B020B108B360B410B650C005C23CC4A0CA5FCCFFCEDFD6FFD8BFE004E241E401E644EA90EC10EE2000010242046106020C600E021065120AF0
:40080000140F19011E101F0120662104230824082501260528802C612D042E042F0A302032C0330C341F35023701380A3E055608580459045B045C335D905F01801082E0FD
:400840008302844385018610880189018A068C108D5D8E208FA29053910D941195E29684984099049A139BE09C029E099F08A050A140A203A31DA592A603A760ABFFAC5005
:40088000AD3DAE03AFC2B0F0B407B608B7FFBA22BF40D608D804D904DB04DC03DD90DF0101220220030105050601080109880A040D090E0210101140124014101540164026
:4008C000171019221BC01C181D101E041F212002251026802710288229042A412B0A2CA02D803109328233203680372039403A1A5A405F40618065808080810482208410FF
:400900008708880489018B218D1091049550970898029A1A9C119D109E40A108A201A404A692A812A940B004B204C0BFC2BFC4FDCADFCC3FCE0FD618D818E014E618E88166
:40094000EA60EE2000030122040105040822091C0A050B220C3A0D010E0410081207134014FF1532170818C019221A071B181C101D061E07200521182278230624012501B6
:40098000271E2801293F2C032D2A2F10307F33603480371F382039803E01580459045C335F01800284CC8613870488A589088A4A8CA98E54920194FF99059AB59B029E0467
:4009C000A01AA260A301A404AA02AB02AC4DAE92B308B506B6FFB703BE40BF50D2F6D804D904DB04DC30DD30DF0101460280030505160705081909880C920D08100412424D
:400A0000130814051640171819011B101E02201021402528264028092B502D102F80311532803610381039803A023B083D083E144D404F806D046E107482761A7718810482
:400A40008380864087808DA48E02C0FFC2FFC4FFCAAFCC2FCE6FE070E204E402E6140408059F07600820090A0B050D100E04101011F5140815601601179F180119A01D0CCB
:400A80001F1320202180231F24202505270A29402A032B952D032E0A2F1C302031FF3207341838203F014001460449FF4A074BFF4C404D204EF04F0550085602571358042D
:400AC00059045A045B045C025D225F01604061A862406320810282018E018F019B01AA02B002B401B502B701BE10BF50D21CD824D904DB04DC08DD20DF210084030404801B
:400B00000501090A0A081104120E13021720184019281A081F2220802510270129A82A052B803128320233403610380439803A103D803F01400246804701511053805A42C3
:400B40005B405E145F40690C6B066E086F507114720275807E2081308508880D8BA28E148F8190849180920693419440952896409702980299019A109B209C0D9DB49E832B
:400B80009F54A16AA232A608A830A910AB80AC10AD12AE01B108B220B340C097C20EC44FCA0FCC2FCE9ED008D671DE40E429E82609010D080F101302190C1D0129022B1182
:400BC0002D05330C3503371439203F5059045F0100200180032008800A680C200D101012131019081A0A1B02214823042420270A29A02A092C012F083108335036603701BF
:400C0000380239A03B043C803D204004410A42084810512052805380582059085A816805690570807CC0830284028602870488408A448F0B908692A09310950D96489706F1
:400C4000981099019A109B219C8C9DB49E839F04A002A140A210A328A4E5A518A6E8A805AA02AD20AF10B180C007C20FC407CA3FCCBECE3FD007D60FE022E420E652E804BC
:400C8000EA0287118D0891049210932595209B809C409E109F01A108A580A702A910AB08AD08B004B510E010E610E801EA02EC80EE08818083808440850487048F01910403
:400CC00093059B809C40A580AA10AB02AE10B110E003E402E801EC20028003020480061008800B400E100F04302033013404358039405102532057805B085E8162086604DA
:400D0000760880808204838885028641C0F0C2F0CCF0CE10D4E0D6E0D8C0DC40E2F0E480E6600D400E20520855205A405F8062016680814086108A108E0990809A109C04D2
:400D40009D809E089F01A420AA98AF66B540C2A0D4E0D6A0D840E0C0E8D0EA20EC60EE10858086809C049D809E809F81A420A520A608A840B640E250E88084049C049F0133
:400D8000A420A520A608AF80E210EA40044008400A400B080F81130217085310572058207008718076208040824087088B108C208D80C001C20FC40CD407DC05DE04E00668
:400DC000E4025380570859885E10632064016601822087048D8093099702984099809B0A9E20A348A580A808B320B701D407D607D803E008E801EA02806281018A148F410D
:400E000093019610970298409C019D089E01A340A790B302B708E201E60EEA04EE0209080B020C02810882018330840286088D028F40944096149702984299019D289E0197
:400E4000A420A501A630A790A901AD20B001B620C20EE008E202EA08EC0422085620822089408A208C208D20A420A520A608AF01C840D440E220EA40020209400D111220A5
:400E80005020562066208020891095029A20A540A622AA02B101C040C2E0C410D460D880E280E880580265018E4094409604980299019A089B609D22A420A501A630AA10DF
:400EC000AC40AD08B780D602D801E008E80200400220052209010A040C200E20531056085B415C015F20610266046A80820487118C019280944096049A089B609D22A10282
:400F0000A420A501A630A902C00FC20FD407D607D803DA02E40810051A0500AF0102000036A3FFFF000000000000600C0010062002200410100108020004180800FF1800E0
:400F4000000000400800100340002080040802040102000120004030600006FF010018000008800000001504420000000000002530FFFFFF42A07000081000000000000073
:400F800004040404020300010048404880488048000000000000000000000000000000000000000000000000000100002F6600181000001803010C020C0003002F08003657
:400FC0000400010100040F03000000062A0A057025000A6605040A03000010540F3C2003020020A80000450024030000000EBC000DFFFFFF0000F0440C000000010000005E
:401000000404040422220001000000000000C0000000400200000000000000000000000000000000000000000D010000000000000C000C010D0008011000A05F5F005F004F
:40104000000000003000010030003000000000004000000202000200E000000000ABAB00A000000000FFFF00FF000000E41B1B001B00000000FFFF00FFFF0000FF0000FF97
:401080000000FFFF000000000700F807000007070000000000000000000000000000000000000000000000000000000000000000000000000000000000000000000000001E
:4010C00000000000000000000000000000000000000000000000000000000000000000000000000000000000000000000000000000000000000000000000000000000000F0
:4011000000000000000000000000000000000000000000000000000000000000000000000000000000000000000000000000000000000000000000000000000000000000AF
:40114000000000000000000000000000000000000000000000000000000000000000000000000000000000000000000000000000000000000000000000000000000000006F
:40118000000000000000000000000000000000000000000000000000000000000000000000000000000000000000000000000000000000000000000000000000000000002F
:0200000490006A
:0400000000004005B7
:0200000490105A
:04000000BC90ACAF55
:0200000490303A
:020000001A20C4
:0200000490402A
:4000000000000000000000000000000000000000000000000000000000000000000000000000000000000000000000000000000000000000000000000000000000000000C0
:400040000000000000000000000000000000000000000000000000000000000000000000000000000000000000000000000000000000000000000000000000000000000080
:400080000000000000000000000000000000000000000000000000000000000000000000000000000000000000000000000000000000000000000000000000000000000040
:4000C0000000000000000000000000000000000000000000000000000000000000000000000000000000000000000000000000000000000000000000000000000000000000
:0200000490501A
:0C00000000012E15F06900012E1D0A8978
:00000001FF