:400000000080002011000000010600000106000008B5044B1A6803F53F5302331A6000F0F7FA00BFFA46004010B5054C237833B9044B13B10448AFF300800123237010BD78
:400040004081FF1F00000000F80A0000084B10B51BB108490848AFF300800848036803B910BD074B002BFBD0BDE81040184700BF000000004481FF1FF80A0000C880FF1F0E
:400080000000000010B504460DE0012000F036FB4FF4FA7000F016FB002000F02FFBFA2000F010FB013C002CEFD110BD08B562B600F046F8012802D00130FFF7E3FF00F018
:4000C000CBF800F0A3F800F017F9FAE710B50446C0B200F00DFBC4F3022000F027FBC4F3473000F029FB10BD10B5FFF7EFFF052000F028FB072000F025FB032000F022FB16
:4001000000F00EFB0446072000F01CFB052000F019FB204610BD00BF10B50C46FFF7D6FF042000F00FFB062000F00CFB204600F0F1FA022000F006FB052000F003FB10BDE2
:4001400038B5052000F0FEFA55210020FFF7E4FF0020FFF7C9FF552820D10024254606E021462846FFF7D8FF0134E4B20135FF2DF6D90024254607E02846FFF7B5FF844263
:400180000ED10134E4B20135FF2DF5D9012421460020FFF7C1FF0134E4B2F8E7012038BD022038BD38B504460D4600F045FC0021204600F03BFB284600F0AAFB00F080FB56
:4001C0000121204600F032FB002000F0D7FB044600F076FB00F030FC204638BD10B512212420FFF7DFFF040212212520FFF7DAFF2043040212212620FFF7D4FF20430402E5
:4002000012212720FFF7CEFF204310BD08B5002303E0FFF7E3FF034618B9002BF9D0002008BD08BD70B582B004460E46154600F003FC8DF804608DF805500023022201A90B
:40024000204600F085FA00F0DDFB10F0020FFAD000F0F2FB02B070BD10B5242437E0FF2200212046FFF7DEFF002201212046FFF7D9FFFF2202212046FFF7D4FFFF2204217A
:400280002046FFF7CFFF002205212046FFF7CAFFFF2206212046FFF7C5FF002208212046FFF7C0FF04220A212046FFF7BBFF04220B212046FFF7B6FFFF220C212046FFF765
:4002C000B1FF10212046FFF76DFF0134E4B2272CC5D90023044A1370044A1380044A1370044A136010BD00BF5F81FF1F5C81FF1F5E81FF1F6081FF1F10B50446020E15215C
:400300002420FFF78FFFC4F3074215212520FFF789FFC4F3072215212620FFF783FFE2B215212720FFF77EFF10BD00BFFEE700BFF0B40022174611E050F82760F3B226F0D6
:40034000FF0608E001EB420511F812406D78A5550132013BDBB2002BF4D10137282FEBD9F0BC70470A4B1B78DBB203F00701094A11701B09013213702022074B1A70022221
:4003800003F683031A704422A3F20A231A707047CF0100496E580040FD51004038B500242B4B1C80582202331A70092202331A801823284A137040210232118002321370BB
:4003C000952102321180023213700622224B1A705222A3F580731A70204B1B78DBB2204A137040F214721F4B1A8041F25122023B1A8019250CE01C4B1B7803F0010343EA2A
:40040000440404F003044FF4F07000F025FB013D0DB1032CEFD115B90320FFF787FF134A4FF48073138007231370002310490B7048200231087013700532137002220D4BD8
:400440001A700D4A137843F00F03137038BD00BF8040004086400040004300400F010049A14600402242004025420040044000400640004001400040A243004008B50A4683
:40048000002100F030FB08BD08B500F021FB08BD38B572B6404C61232370FFF77FFF012323703E4A137843F00403137000240CE03B4D630019194A0011462A440846918857
:4004C0002858FFF7DBFF0134E4B2052CF0D900240BE03348A20011194B0003449A8D996A586AFFF7D1FF0134E4B2032CF1D92D494FF09040FFF71CFF2B4A137843F00203BB
:4005000013701032137843F002031370274C237843F040032370A2F58632513A137843F0100313700A2222492248FFF7ADFF0A2221492248FFF7A8FF0A2221492148FFF736
:40054000A3FF082220492148FFF79EFF082220492048FFF799FF08221F492048FFF794FF08221F491F48FFF78FFF0A221E491F48FFF78AFF0A221E491E48FFF785FF1E4A6D
:40058000137843F008031370FFF7ECFE0E2221461A48FFF779FF38BD00480040E8460040FC0A0000A400004803500140A043004000100048005100400C100048C051004076
:4005C00018100048F051004024100048125100402C1000482251004034100048325100403C100048425100404410004850510040501000486051004022430040B043004010
:4006000008B500F039FA03680C2B00D1FEE7FEE708B5104E104D16E029686B68AC68002204E051F8040B43F8040B0432A242F8D1E868002203E0002143F8041B0432824262
:40064000F9D11035013E002EE6D100F01BFAFFF72DFDFEE701000000700B000008B5104A104B1A60104A136843F40073136000230AE0032B03D80D4A52F8231000E00C49C4
:400680000C4A42F8231001332F2BF2D90A4B1A780A4B1A70074A0A4B1A60FFF7F9FE08BD0004FA050CED00E014ED00E000000000010600000080FF1FBC760040C080FF1F54
:4006C00008ED00E010B5044605E0084B186800F0C3F9A4F50044B4F5004FF6D8034B586800FB04F000F0B8F910BD00BFCC80FF1F014B1870704700BF71640040044A137843
:4007000003F07F03C001C0B218431070704700BF10510040014B1870704700BF79640040014B1878704700BF64650040014B1870704700BF7D640040014B1870704700BFA8
:400740007A640040014B1870704700BF7564004000294ED070B40C4629490978C9B2102906D12849097811F0100F10D1002111E023490978C9B260290BD1022522490D60EC
:40078000224D297801F0F7012970002102E0012100E0022181BB4526194D2E7000261C4D2E701C4D2A701C4A14601C4A1370174C227802F0FD0222704200D2B218480270C9
:4007C00013F0010F08D03222164B1A70FF22643B1A7040331E7008E08222124B1A70FF22643B1A70002240331A7002220E4B1A6002E0022108467047084670BC704700BFB7
:400800007481FF1F6364004080E200E06681FF1F6481FF1F6581FF1F7081FF1F6C81FF1F086400407C64004000E100E01F4B1B78DBB2102B33D11E4B1B7813F0100F30D1C1
:4008400002221C4B1A604000C0B229B140F001004922164B1A7002E04522144B1A70164B1870822274331A70FF22643B1A70002240331A70114B1B7813F0FF0FFAD10C4BE5
:400880001B7813F0010FFAD0094B1B7803F00A030A2B08D11022054B1A700320704702207047012070470020704700BF7481FF1F6364004080E100E00864004018640040E3
:4008C0000F4B1B7813F0040F17D052220D4B1A70FF22643B1A70002240331A700A4B1B7813F0FF0FFAD11022084B1A70044B1B7813F0210FFAD0002070470220704700BF2E
:40090000636400407C640040186400407481FF1F164B1B7813F0040F26D0154B1870062274331A70FF22643B1A70002240331A70104B1B7813F0FF0FFAD146220E4B1A7002
:400940000A4B1B7813F0010FFAD0084B1B7813F0020F04D16022084B1A70002070476022054B1A7003207047022070476364004008640040186400407481FF1F1C4B1B7822
:4009800013F0040F31D01B4B1B78DBB2492B10D10222194B1A70FF22643B1A70002240331A70164B1B7813F0FF0FFAD14A22114B1A700F4B1B7813F0010FFAD0104B1A78F1
:4009C000D2B270B1022174331970FF21643B1970002140331970094B1B7813F0FF0FFAD104E06021034B197000E0002210467047636400407481FF1F7C6400401864004096
:400A0000086400400222084B1A60084B1878C0B2074B1B7813F0400F01D040F004000222044B1A60704700BF80E100E06681FF1F7481FF1F00E100E00223044A1360044AD7
:400A4000107800211170034A1360704780E100E06681FF1F00E100E00230800803D000BF01380046FCD17047EFF3108072B6704780F31088704700BF014B1868704700BF6B
:400A80003C81FF1F0E4B70B51E460E4C0025E41AA410A54204D056F8253098470135F8E700F054F8084B094C1E46E41AA4100025A54204D056F8253098470135F8E770BD58
:400AC000580B0000580B0000580B0000600B000010B5431E0A44914204D011F8014B03F8014FF8E710BD03460244934202D003F8011BFAE7704700000000000000000140D5
:400B0000001000140140800000150140000700400140000A004C0140000210500140100020520040600F0048070028520040680F0048070080140140700F0048800000504C
:400B40000140F00F0048100043000000F8B500BFF8BC08BC9E4670474D0000005D060000F8B500BFF8BC08BC9E46704729000000800B0000C880FF1F780000003800000022
:400B8000000000000000307560EA00003C000000008793030000000000000000000000000000000000000000000000000000000000000000480B000000000000000000009A
:400BC00000000000000000000000000000000000000000000000000000000000000000000000000000000000000000000000000000000000DC80FF1F00000000000000007B
:400C000000000000000000000000000000000000000000000000000000000000000000000000000000000000000000000000000000000000000000000000000000000000B4
:400C40000000000000000000000000000000000000000000000000000000000000000000000000000000000000000000000000000000000000000000000000000000000074
:400C80000000000000000000000000000000000000000000000000000000000000000000000000000000000000000000000000000000000000000000000000000000000034
:400CC00000000000000000000000000000000000000000000000000000000000000000000000000000000000000000000000000000000000000000000000000000000000F4
:020000040003F7
:0200000480007A
:40000000014500400D52004006640040016500404C0001403F0101404F020140510301405A0401405E0501404D060140570701405508014054090140560A01405E0B014019
:400040003D0C01404B0D0140410E0140380F014011140140581501405D1601405017014004180140171901400A1B014024400140214101400D4201400E4301401C44014096
:400080001F4501400F46014011470140104801401C4901400F4C01402C4D014004500140025101407E02004A015C08200920105311951819300231066030612079027C404B
:4000C00028042A0F3A087504810F8772863C0C0112041A0228012E02300332043E01521C58245B045C085D205F118040820A8302850C87908880898C8B708C018FB494289E
:40010000958C961397339828990C9A169B209C159D4B9E2A9FB0A201A303A743AA15AC01AF01B060B207B480B57FB61BB780B802BA88BB20BE10BF40C024C103C50EC6B08E
:40014000C70CC819C9FFCAFFCBFFCEF0CF44D00CD401D804D904DA04DB04DC22DD22DF01E6C0EA40EB02008004200580068209010B080DA8120A1501160C174019081B0272
:400180001DCE1E24253026402D812E08342035443C083D203E814518468048044B104C30540456205C015E845F1068106A016B406D946E0272027480750277147A08810216
:4001C000820183148480855488608D0A8E04C0D1C2EAC4D3CAD0CC70CEF0D0E0D6F0DE04E080E420020403020401070209040B090C080F0F11011302140C15091704180CC3
:400200001D02230F250226022B023001320C330C3402370338083B883E054003454049FF4A074BFF4C404D204EF04F055008582459045A045B045C285D025F11604061A86D
:4002400062406320813583408401852487518A018C018D018F0E951097E099759D649F11A501A702A911AB88AD75B201B3F0B70FBB88D420D604D804D904DB04DC33DD307D
:40028000DF01001001400320054406400C280D200E20170818301D091E0421402204230225802604270128022B242C282E023284331035403604370139843A013C203D818B
:4002C0003E08454847404D0156C059105A885B025D085E405F20608863027E088310844087208A088D118E028F049501970899409A2E9B489E80A050A120A210A302A60A63
:40030000A901AF08B208B421C0B7C260C420CAEECCDECEFBD040D67FD80DDE20E480E653E807EC0E0001013A0304044F05220705080309030C900D010E0B104211C0120976
:400340001307140315031620180119051B781C401D101E141F0720402108220B2307244825012602281F29FF2D012E013040321F338034E0357F382239083E113F10520125
:4003800053015610580459045B045C335F01800C82138405860A8CF58D01900A91089205930294609505969F970A989F9A609C10A080A105A21FA4A0A840A904AA95AC0345
:4003C000AD05AE1CB10CB4FFB503B922BE10BF11D804D904DB04DF010018024003120480054407400810090A0A020B010DA00E601005110A12A01501162619101B291E08C0
:40040000202021102601270828152A012B142E802F443108328033123705383039043A483B413C80460847205A205B1069506E046F858080812082018540874288148910C2
:400440008B048F8890209101950496809708980199409A269B409C0A9D049E019F14A040A1A0A210A314A680A721AA48AC01AF02B080B108B204B304B410B540B704C0BF8F
:40048000C2FFC4FFCABFCCCFCE1FE080E20AE642E808EA22001001040280047C0502060308010B300C030D08110E12101331147F1739187319061A081C021D201F10205377
:4004C000213F22242506262C2739280329392B062C032D102F2030803223330E341F3530364037073A203B883E405608580459045B045C225D905F0181018306853F893FDB
:400500008D0A8F119002912092059C029E04AD14AF09B001B118B406B520B707BB08D602D710D804D904DB04DC23DD20DF01002001200580066A0710080109800D220E0117
:400540000F101769180819011A801C201D621F2022252359240427112A402C402D802E202F203002376939243B413C103E093F8059405C80640168026924720973207D0270
:400580007F808380874088408A048D088F019080914092249640978098029A079B449C089D049E80A080A150A216A302A509A914AA41AD02AF20B002B110B203B308B5100C
:4005C000B620C0F0C2F9C4F0CAF8CCF1CEFFD618D810E240E60CE804EA03EE010001011A036005040640081809A90A060B540C1C0D4D0E220F92102A11A51210134A142201
:4006000015FF1618183F19CC1B131C061F04202221022432260827B528012A1E2B022C042F01326035FF361F38803F104051440646D047B0482849FF4A7F4BFF4C424DA0B6
:400640004E70500C580459045A045C035D035F016109624063096430650981FF8580875689408B13912A9354950E97309A019D469FA9A701A933AB0CB201B7FFD804D904B8
:40068000DB04DC33DF0104010520061007010A080B080C800D080E481454160219081A101C011D042280261029202B202C802D042EA030013104328034513590360439040F
:4006C0003B123D123E48458147014D404E045510560257206816690170047120720173408110828088108C068D10915492C0931895809610980499A09AB89C019D149E0199
:40070000A080A181A204A510A810AA42AC01B120B204B404B540C0F0C2F2C4F0CAF6CCFBCEF7D010D230E618E8E0EA10EE2005F00B400D0213F015021A031B801FF021F042
:4007400023012504271829042A022B282E012F8030013101320233F03502370E39A03E053F54402146024705481449FF4AFF4BFF4C424DA04E705008511056085804590449
:400780005A045B045C305D935F01614862406348648065486680674881028301850387708B088D189204938095199602974499039B109D019E019F06A110A323A723A910D9
:4007C000AB23AF03B004B201B318B402B5E0B707BBA0D804D904DC33DF010130080209050A080B900D010E100F0210081380182019021C801E041F0421A92203241A264096
:40080000281129242A012C012D242F4031183241351036443701390C3A403B103C103D483F0241604C044F1052445380588063026820692170087389801084408504860864
:40084000881689028A10910892889402952596409711988099809AA89B019C039D309E049F08A080A204A420A518A780A804A940AE04B34DB4D0B604C2B2C403CAFFCCFFAE
:40088000CEFED00CD608D808E044E220E4A0E808EA40EC61EE0403020501090D0D400F1D113D13C2140115E219921B601D01230827FF295D2BA22D042FE0340137FF3F40F4
:4008C00052F6580459045B045C035D305F0182108508860187108B288D7F8E089310950197409B309D019E02A120A302A51EA604A809A920AA16AB04B018B203B301B404FC
:40090000B77EB988BE15D804D904DB04DC30DF01014102100B010E101208130818181B011E0821042240270129212A042C812D2430013118338034023511360437403840CE
:4009400039083B103D203E4A4E0C5C085E225F806766681469806E14758476AA8144834088148C018D02920893229560968098889A109B80A211A308A420A502A90AAB1066
:40098000AD90AF04B080B360B440B701C00DC221C406CAF7CCFFCEFED6F0D8F0E001E240E410E602EC8000040120020803400402060107010A300B080C010E020F1010FF8E
:4009C0001360141015151620170A1A801B021E402203260C282029402A102B242C082E04310C331834FF3560370338203E103F55580459045B045F01810482088302870676
:400A00009502960497049A029B019E01AB08B004B101B201B402B508B608B706BF40D824D924DB04DC88DF31002002110380050209660D880F041140122413021A081E025C
:400A40001F192120228223202540261027802B042D103020320433013714388239283A043C083F0168146A026B016C016D086F84730276017F408240830485048AB18C0811
:400A80008E02C01FC2EFC40FCA24CC67CECFDE80E040E208E401E60404010C030D0115031A051C081E022D0232083404350336033E04580459045B045F01014003200480FD
:400AC00005040740080409240A010B020C800E281480160619081A011B201D041E402120240225062B012D042E802F403011310232283521370439803E043F014080424005
:400B0000445047104D254F815BA95F406044618063106640800183208508870989808B918C448D4090809140920493C0950196409702984099219A869B549C159D049E40A4
:400B4000A080A23CA340B208B340C0B5C2E3C4D0CAD8CCE2CEC8D0E0D230D61FD81FE080E20BE410E820EC80EE04000C010702E3033804F50536060A0749088009360A6015
:400B80000B090C040D5B0E010F2410651109128A137618CA197F1A351CFF1D381F07202F217F22D026EF277F2C032D242EEC2F1230103140333F34E0360F38023AA03B080A
:400BC000541C580459045B045C225D205F018220840185408604880189258A068B0A8C0A8E019108920B930594019501960A972299269D219E209F02A120A210A302A7101E
:400C0000A90FAA0BAD21AE0BAF04B008B160B207B51FB630B902BA08BE41BF01D804D904DC33DF0101080252030805D0075008080A820C400D200F8411A0130114101602B0
:400C4000170119021B481D5121122410260128022A112B202C502D803108321033823751380839203C103E023F845C045E02640580088501872089108D02908C914092A63E
:400C80009381941096409702984299289A879B559D069E40A080A178A236A382A740A981AC08AD02B080B508B680C0FFC2DDC4BBCADFCCBFCEF6D6C0D830E60CE804EA02D6
:400CC000EC10EE01B980BF40D904DF01228081088610880189088D40900191019340958099089C01A004A210A508AA41AE01B120B604B701E430E808EA6287409340A801B0
:400D0000AA80AD01B004E26BE402E6E0E8090004030805120A100B040D800F1032103301340236203910538056805A805B085E81630866046C408244830C86C18780882066
:400D40008B01C0F0C2F0CCF0CE10D4E0D6E0D8C0DC40E2F0E6F00E800F02520854805A805C4062016780840288028C408E019480951096209C029F01A420A620A701A804A2
:400D8000A910AA10AB08AD82AF14C2A0D4E0D620D8C0E640E8F0ECF0824088408C809440951096A097809F01A240A4A2A608B220E680848085108E10944095109620978016
:400DC0009C409F01A240A422A608E010E610044009080B020D100F1013021410520453025F406B047740804083408710882089108F20C001C20FC40CD405D604DA02DE0417
:400E0000E001E408E60453805610582059045F20612065406608820486408B428F049302974098209A109B229E049F04A702B010B210B508D407D607D803E004E409EA0424
:400E4000EC04EE08812089408E0291019B029D40A520A640A904AB01AD01B380B608E003E80909080B080E80870488808E208F0291019A029B02A301A640B301C20EE008CA
:400E8000E403E801220853018740944097809C409F04A240A4A2A608AF01B704C840D480E210EA40030408600C220F0110805280572067028040868088208F0193029440A4
:400EC0009C409F04A320A4A2AB21B002B240C040C2E0C410D460D680E630EE206302660291019A429B08A080A220A303AD08AE40B30AD602D801EA04EC01002002100680CC
:400F0000070109200B400E485080530257085B085D80622066486D017720828084108608870189208A108B408E44910199809A409B28A080A220A30AAB20AD80B308C00F01
:400F4000C20FD407D607D803DC02DE04E206E607E804100D11011A0D1B0100AF0102000035ACFFFF000000009AC9FFFF000000000C00030205083000000000000F002000AB
:400F8000000000010A0415080000400205000A00080402000000000110000F0003040C000F0270010000000C00800200000000452304060005CE000003FFFFFF62A0F041EB
:400FC0000C00000000000800040404040292000100000000000040020010301000101012000000000000000000000000000000000D010000000000000C000D01080108003B
:401000001000A05F5F005F00000000003000010030003000000000004000000202000200E000000000ABAB00A000000000FFFF00FF000000E41B1B001B00000000FFFF0006
:40104000FFFF0000FF0000FF0000FFFF000000000700F807000007070000000000000000000000000000000000000000000000000000000000000000000000000000000062
:401080000000000000000000000000000000000000000000000000000000000000000000000000000000000000000000000000000000000000000000000000000000000030
:4010C00000000000000000000000000000000000000000000000000000000000000000000000000000000000000000000000000000000000000000000000000000000000F0
:4011000000000000000000000000000000000000000000000000000000000000000000000000000000000000000000000000000000000000000000000000000000000000AF
:40114000000000000000000000000000000000000000000000000000000000000000000000000000000000000000000000000000000000000000000000000000000000006F
:0200000490006A
:0400000000004005B7
:0200000490105A
:04000000BC90ACAF55
:0200000490303A
:02000000E82CEA
:0200000490402A
:4000000000000000000000000000000000000000000000000000000000000000000000000000000000000000000000000000000000000000000000000000000000000000C0
:400040000000000000000000000000000000000000000000000000000000000000000000000000000000000000000000000000000000000000000000000000000000000080
:400080000000000000000000000000000000000000000000000000000000000000000000000000000000000000000000000000000000000000000000000000000000000040
:4000C0000000000000000000000000000000000000000000000000000000000000000000000000000000000000000000000000000000000000000000000000000000000000
:0200000490501A
:0C00000000012E15F06900012E1ED8959D
:00000001FF