S1133210302920496E64657820746F207363726569
S1233220656E7320696E2052414D206469736B202020202020202020202020202020202062
S1233240202020202020202020202020202020203129202020202020202020202020202050
S123326020202020202020202020202020202020202020202020202020202020202020204A
S123328020202020202020202020202020202020322920202020202020202020202020200F
S12332A020202020202020202020202020202020202020202020202020202020202020200A
S12332C02020202020202020202020202020202033292020202020202020202020202020CE
S12332E02020202020202020202020202020202020202020202020202020202020202020CA
S1233300202020202020202020202020202020203429204552524F52204D4553534147457D
S123332053202028206669672D464F5254482064656661756C742C2031205741524E494E57
S12333404720212020746F2075736520292020203429204552524F52204D4553534147457C
S123336053202028206669672D464F5254482064656661756C742C2031205741524E494E17
S12333804720212020746F2075736520292020203629202020202020202020202020202049
S12333A0202020202020202020202020202020202020202020202020202020202020202009
S12333C02020202020202020202020202020202037292020202020202020202020202020C9
S12333E02020202020202020202020202020202020202020202020202020202020202020C9
S1233400202020202020202020202020202020203829202020202020202020202020202087
S1233420202020202020202020202020202020202020202020202020202020202020202088
S1233440202020202020202020202020202020203929202020202020202020202020202046
S1233460202020202020202020202020202020202020202020202020202020202020202048
S12334802020202020202020202020202020202031302920202020202020202020202020FE
S12334A0202020202020202020202020202020202020202020202020202020202020202008
S12334C02020202020202020202020202020202031312920202020202020202020202020BD
S12334E02020202020202020202020202020202020202020202020202020202020202020C8
S123350020202020202020202020202020202020313229202020202020202020202020207B
S1233520202020202020202020202020202020202020202020202020202020202020202087
S123354020202020202020202020202020202020313329202020202020202020202020203A
S1233560202020202020202020202020202020202020202020202020202020202020202047
S12335802020202020202020202020202020202031342920202020202020202020202020F9
S12335A0202020202020202020202020202020202020202020202020202020202020202007
S12335C02020202020202020202020202020202031352920202020202020202020202020B8
S12335E02020202020202020202020202020202020202020202020202020202020202020C7
S1233600202020202020202020202020202020202031205741524E494E472021202020205E
S1233620202020202020202020202020202020202020202020202020202020202020202086
S1233640202020202020202020202020202020202020202020202020202020202020202066
S1233660202020202020202020202020202020202020202020202020202020202020202046
S12336802020202020202020202020202020202020564F434142554C4152592044454255CE
S12336A04720444546494E4954494F4E532020202020202020202020202020202020202003
S12336C02020202020202020202020202020202020202020202020202020202020202020E6
S12336E02020202020202020202020202020202020202020202020202020202020202020C6
S12337002020202020202020202020202020202020282061646472206E202D2D2029202011
S1233720202020202020202020202020202020202020202020202020202020202020202085
S123374020202020202020202020202020202020203A2044554D5048455820424153452075
S123376040203E522048455820202020202020202020202020202020202020202020202050
S12337802020202020202020202020202020202020202020202020202020203020444F20C2
S12337A04455502049202B2043402030203C232023202320233E2054595045205350414346
S12337C045204C4F4F5020202020202020202020202020202020202020202044524F502051
S12337E0523E20424153452021203B202020202020202020202020202020202020202020BE
S12338002020202020202020202020202020202020202020202020202020202020202020A4
S1233820202020202020202020202020202020202020202020202020202020202020202084
S12338402020202020202020202020202020202020464F52544820444546494E4954494F06
S12338604E53202020202020202020202020202020202020202020202020202020202020E3
S1233880202020202020202020202020202020202020202020202020202020202020202024
S12338A0202020202020202020202020202020202020202020202020202020202020202004
S12338C02020202020202020202020202020202020202020202020202020202020202020E4
S12338E02020202020202020202020202020202020202020202020202020202020202020C4
S12339002020202020202020202020202020202020202020202020202020202020202020A3
S1233920202020202020202020202020202020202020202020202020202020202020202083
S1233940202020202020202020202020202020202020202020202020202020202020202063
S1233960202020202020202020202020202020202020202020202020202020202020202043
S1233980202020202020202020202020202020202020202020202020202020202020202023
S12339A0202020202020202020202020202020202020202020202020202020202020202003
S12339C020202020202020202020202020202020203B532020202020202020202020202095
S12339E02020202020202020202020202020202020202020202020202020202020202020C3
S1233A002020202020202020202020202020202020202020202020202020202020202020A2
S1233A20202020202020202020202020202020202020202020202020202020202020202082
S1233A40202020202020202020202020202020202020202020202020202020202020202062
S12342002020202020202020202020202020202028204552524F52204D4553534147455350
S1234220202920202020202020202020202020202020202020202020202020202020202071
S1234240202020202020202020202020202020204441544120535441434B20554E4445520C
S1234260464C4F572020202020202020202020202020202020202020202020202020202082
S12342802020202020202020202020202020202044494354494F4E4152592046554C4C20B1
S12342A02020202020202020202020202020202020202020202020202020202020202020FA
S12342C02020202020202020202020202020202041444452455353205245534F4C5554493D
S12342E04F4E204552524F5220202020202020202020202020202020202020202020202073
S123430020202020202020202020202020202020484944455320444546494E4954494F4E23
S123432020494E202020202020202020202020202020202020202020202020202020202022
S1234340202020202020202020202020202020204E554C4C20564543544F522057524954C5
S123436054454E2020202020202020202020202020202020202020202020202020202020B2
S123438020202020202020202020202020202020444953432052414E47453F20202020208A
S12343A02020202020202020202020202020202020202020202020202020202020202020F9
S12343C0202020202020202020202020202020204441544120535441434B204F5645524687
S12343E04C4F57202020202020202020202020202020202020202020202020202020202027
S12344002020202020202020202020202020202044495343204552524F522120202020200A
S1234420202020202020202020202020202020202020202020202020202020202020202078
S12344402020202020202020202020202020202043414E2754204558454355544520412057
S12344604E554C4C212020202020202020202020202020202020202020202020202020207C
S123448020202020202020202020202020202020434F4E54524F4C20535441434B20554E9E
S12344A0444552464C4F5720202020202020202020202020202020202020202020202020C5
S12344C020202020202020202020202020202020434F4E54524F4C20535441434B204F565C
S12344E04552464C4F572020202020202020202020202020202020202020202020202020A9
S1234500202020202020202020202020202020204152524159205245464552454E43452049
S12345204F5554204F4620424F554E4453202020202020202020202020202020202020207F
S12345402020202020202020202020202020202041525241592044494D454E53494F4E20F2
S12345604E4F542056414C49442020202020202020202020202020202020202020202020D6
S1234580202020202020202020202020202020204E4F2050524F43454455524520544F20CE
S12345A0454E54455220202020202020202020202020202020202020202020202020202019
S12345C02020202020202020202020202020202020202020202020202020202020202028CF
S12345E02057415320524547495354455220292020202020202020202020202020202020BE
S1234600202020202020202020202020202020202020202020202020202020202020202096
S1234620202020202020202020202020202020202020202020202020202020202020202076
S123464020202020202020202020202020202020434F4D50494C4154494F4E204F4E4C59B5
S12346602C2055534520494E204445462020202020202020202020202020202020202020D7
S123468020202020202020202020202020202020455845435554494F4E204F4E4C592020C0
S12346A02020202020202020202020202020202020202020202020202020202020202020F6
S12346C020202020202020202020202020202020434F4E444954494F4E414C53204E4F543E
S12346E02050414952454420202020202020202020202020202020202020202020202020C1
S123470020202020202020202020202020202020444546494E4954494F4E20494E434F4D16
S1234720504C4554452020202020202020202020202020202020202020202020202020209B
S123474020202020202020202020202020202020494E2050524F5445435445442044494304
S123476054494F4E41525920202020202020202020202020202020202020202020202020EF
S123478020202020202020202020202020202020555345204F4E4C59205748454E204C4FB9
S12347A04144494E4720202020202020202020202020202020202020202020202020202032
S12347C0202020202020202020202020202020204F46462043555252454E54204544495471
S12347E0494E472053435245454E2020202020202020202020202020202020202020202037
S1234800202020202020202020202020202020204445434C41524520564F434142554C4137
S1234820525920202020202020202020202020202020202020202020202020202020202009
S123484020202020202020202020202020202020444546494E4954494F4E204E4F542049F1
S12348604E20564F434142554C41525920202020202020202020202020202020202020204E
S123488020202020202020202020202020202020494E20464F525741524420424C4F434BBD
S12348A02020202020202020202020202020202020202020202020202020202020202020F4
S12348C020202020202020202020202020202020414C4C4F434154494F4E204C4953542072
S12348E0434F525255505445443A204C4F5354202020202020202020202020202020202040
S12349002020202020202020202020202020202043414E2754205245444546494E45206E56
S1234920756C212020202020202020202020202020202020202020202020202020202020D1
S1234940202020202020202020202020202020204E4F5420464F52574152442052454645EB
S123496052454E434520202020202020202020202020202020202020202020202020202066
S123498020202020202020202020202020202020202020202020202020202020202028200B
S12349A057415320494D4D45444941544520292020202020202020202020202020202020F0
S12349C02020202020202020202020202020202020202020202020202020202020202020D3
S12349E02020202020202020202020202020202020202020202020202020202020202020B3
S1234A00202020202020202020202020202020202020202020202020202020202020202092
S1234A20202020202020202020202020202020202020202020202020202020202020202072
S5030101FA
