:400000000040002011000000390F0000390F000008B5044B1A6803F53F5302331A6000F093FF00BFFA46004010B5054C237833B9044B13B10448AFF300800123237010BD95
:4000400060C1FF1F00000000302D0000084B10B51BB108490848AFF300800848036803B910BD074B002BFBD0BDE81040184700BF0000000064C1FF1F302D0000C8C0FF1F58
:400080000000000010B504460DE0022001F042F84FF4FA7000F0B4FF002001F03BF8FA2000F0AEFF013C002CEFD110BD30B591B00121002001F052FC01F090F862B600F08E
:4000C00075F804460130FFF7DDFF04B1FEE700F0F7F800F041FA00252C4601F07DFC20B101F074FC08B101F095FD01F06FFC98B101F004FE003018BF0120002C18BF002050
:4001000050B1684601F012FE0446012804D19DF8000000F0F7FA002474B100F033FB58B910AB2B4413F8400C00F0ECFA0135ADB2013CA4B204B9002500F0F8FF10F0100F72
:40014000CBD000F0B9FCC8E7C2B2054B1A70C0F302220D331A70C0F3C7200133187070477164004008B5FFF7EFFF054B15221A7017221A70034A107811221A7008BD00BFF4
:40018000746400406A65004010B50C46FFF7DCFF044B19221A70044A14701B221A7011221A7010BD746400407A65004000B583B01122424B1A7055210020FFF7E5FF002000
:4001C000FFF7D0FF552870D101238DF8033001930DE001989DF80310FFF7D6FF9DF803300133DBB28DF80330019B5B000193019BB3F5002FEDD301238DF80330019315E0AF
:400200000198FFF7AFFF8DF802009DF80220D2B29DF80330DBB29A4249D19DF803300133DBB28DF80330019B5B000193019BB3F5002FE5D300238DF8033001930DE0019888
:400240009DF80310FFF7A0FF9DF803300133DBB28DF80330019B01330193019BB3F5002FEDD300238DF80330019315E00198FFF779FF8DF802009DF80220D2B29DF8033074
:40028000DBB29A4215D19DF803300133DBB28DF80330019B01330193019BB3F5002FE5D31022064B1A70002004E0012002E0022000E0032003B05DF804FB00BF7464004008
:4002C00030B583B000252C460AE0084B1B5D8DF807309DF807102846FFF756FF01350134B4F5804FF1D303B030BD00BF442D000038B504460D4601F023FA0021204601F0F2
:400300004FF9284601F0A8F901F08AF90121204601F046F9002001F0CBF9044601F080F901F00EFA204638BD10B512212420FFF7DFFF040212212520FFF7DAFF20430402A6
:4003400012212620FFF7D4FF2043040212212720FFF7CEFF204310BD10B50446FFF7E4FF04F00303032B0DD8DFE803F00204070AC0B208E0C0F3072005E0C0F3074002E0AA
:40038000000E00E0002000F0D7FE00F039FC10BD70B5FFF7C9FF88B10026344608E016B90CB105B165B90A2000F02AFE26462C46FFF7BAFF05460028F1D170BD002070BDF6
:4003C000204670BD10B5FFF7E3FF0028FBD10446002303E0FFF7DCFF034610B9002BF9D000E00446204610BD70B582B004460E46154601F0A5F98DF804608DF80550002390
:40040000022201A9204601F065F801F07DF910F0020FFAD001F094F902B070BD10B5242437E0FF2200212046FFF7DEFF002201212046FFF7D9FFFF2202212046FFF7D4FF11
:40044000FF2204212046FFF7CFFF002205212046FFF7CAFFFF2206212046FFF7C5FF002208212046FFF7C0FF04220A212046FFF7BBFF04220B212046FFF7B6FFFF220C21B9
:400480002046FFF7B1FF10212046FFF731FF0134E4B2272CC5D90023044A1370044A1380044A1370044A136010BD00BF8CC1FF1F84C1FF1F86C1FF1F90C1FF1F10B5044613
:4004C000020E15212420FFF78FFFC4F3074215212520FFF789FFC4F3072215212620FFF783FFE2B215212720FFF77EFF10BD00BF10B5044600F026FE04F00303032B21D8CD
:40050000DFE803F00209111960F0FF00114B1A681040186016E0000260F47F400D4B1A68104018600EE0000460F47F00094B1A681040186006E0000660F07F40054B1A68FA
:4005400010401860034B1878FFF7B8FF00F058FB10BD00BF88C1FF1F10B5684C0023236000F03CFEFFF75AFF0123236008E0FFF7A5FF322000F044FD604A13685B001360BB
:400580005E4B18680028F2D1FFF7ECFD5B4A136818431060FFF792FFFFF714FF10F07F4F00F0A58010F0807F17D0544C206840F080702060FFF782FF206800F5807020F048
:4005C0007F4020F0FF002060000AFFF7CBFD236818432060FFF772FFDEE710F0007F1DD0464C206840F000702060FFF767FF2068C1B2C0F30F20FFF7C7FD206800F580704D
:4006000020F07F4020F0FF002060000AFFF7AAFD236818432060FFF751FFBDE710F0806F15D0364C206840F080602060FFF746FF206820F07F4020F0FF002060000AFFF7D6
:4006400091FD236818432060FFF738FFA4E710F0006F09D000222A4B1A704FF00060274B1860FFF72BFF10BD10F0805F0FD0234C4FF080502060FFF721FFFA2000F0C0FC57
:40068000206820F07F402060FFF718FF84E710F0005F0FD0194C4FF000502060FFF70EFFFA2000F0ADFC206820F07F402060FFF705FF71E710F0804F0FD0104C4FF0804051
:4006C0002060FFF7FBFEFA2000F09AFC206820F07F402060FFF7F2FE5EE70028BFF65CAF4FF00040054B1860FFF7E8FE10BD034A136858401060FFF7E1FE4DE788C1FF1FD1
:400700007464004008B5074B1870074A137843F00103137000F004FD40F00400C0B200F0F9FC08BD99C1FF1FB1C1FF1F08B5064B187800F001FD054A137803F0FE0313704E
:4007400000F05EFA08BD00BF99C1FF1FB1C1FF1F00B591B001F0DEFA0028FBD000F0F2FC10AB03F8400D0121184601F09FFA00F047FA0122024B1A7011B05DF804FB00BF09
:40078000A7C1FF1F024B187800F00100704700BFB1C1FF1F08B501280AD010B102280ED008BD0A4B187800F0C7FC00F029FA08BD074B187800F0C0FC00F022FA08BD054B72
:4007C000187800F0B9FC00F01BFA08BDB1C1FF1FA3C1FF1FA1C1FF1F10B500F0B3FC374C207000F00DFA247804F0070400F012FA00F09CFC1C2803D12046FFF7CBFF10BDD0
:4008000000F0A0FC2E4B187000F0FAF9072C53D8DFE804F004292F353B41474D284B1B78DBB2284A1370137803F01803182B43D100231370244A1370244A1370244A13709D
:40084000244A1370244A1370244A1370244A13704421244A11700121234A1170234A1370234A137010BD164B1B78DBB2164A137010BD134B1B78DBB2144A137010BD104BEB
:400880001B78DBB2124A137010BD0D4B1B78DBB2104A137010BD0A4B1B78DBB20E4A137010BD074B1B78DBB20C4A137010BD044B1B78DBB20A4A137010BD00BF98C1FF1FCC
:4008C000B5C1FF1F9FC1FF1FA5C1FF1F94C1FF1FA2C1FF1FAFC1FF1F9AC1FF1FB8C1FF1FB7C1FF1FB1C1FF1FA3C1FF1FA1C1FF1FA7C1FF1F08B5064B187800F01DFC054A2C
:40090000137803F0FE03137000F07AF908BD00BFB4C1FF1FAAC1FF1F08B50022024B1A7000F06EF908BD00BFB2C1FF1F08B501280AD010B102280ED014E00C4B187800F03C
:40094000FBFB00F05DF908BD094B187800F0F4FB00F056F906E0074B187800F0EDFB00F04FF908BD00F04CF908BD00BFAAC1FF1FA9C1FF1F9BC1FF1F08B5064B187800F005
:40098000DBFB00F0CDFB00F0FB0000F0C3FB00F037F908BDB0C1FF1F10B500F0D3FB374C207000F02DF9247804F0070400F032F9334B1B78DBB21C2B03D12046FFF7B6FF70
:4009C00010BD00F0BFFB2F4B187000F019F9072C53D8DFE804F004292F353B41474D294B1B78DBB2284A1370137803F01803182B43D100231370254A1370254A1370254A50
:400A00001370254A1370254A1370254A1370254A13704421244A11700121244A1170244A1370244A137010BD164B1B78DBB2174A137010BD134B1B78DBB2154A137010BDF8
:400A4000104B1B78DBB2134A137010BD0D4B1B78DBB2114A137010BD0A4B1B78DBB20F4A137010BD074B1B78DBB20D4A137010BD044B1B78DBB20B4A137010BDA8C1FF1F59
:400A80006764004095C1FF1FB6C1FF1FABC1FF1FB0C1FF1FB9C1FF1F9CC1FF1FA6C1FF1FACC1FF1FAEC1FF1FAAC1FF1FA9C1FF1F9BC1FF1FADC1FF1F00B583B000F036FB39
:400AC0008DF807009DF8073003F01903102B02D1FFF752FF90E000F017FB8DF806009DF80630DBB21B2B00F28780DFE803F00E261E3685858585858585858585858585851E
:400B00008585858585853E5062749DF80730DBB21C2B02D1FFF70AFE6EE09DF80730DBB21A2B69D1FFF714FE66E09DF80730DBB21A2B61D1FFF750FE5EE09DF80730DBB2A3
:400B40001C2B02D1FFF7D6FE56E09DF80730DBB21A2B51D1FFF7E0FE4EE09DF80730DBB21A2B49D1FFF718FF46E09DF80730DBB21C2B03D10020FFF7EFFB3DE09DF8073051
:400B8000DBB21A2B38D10020FFF7B2FC34E09DF80730DBB21C2B03D10020FFF7DDFB2BE09DF80730DBB21A2B26D10020FFF7A0FC22E09DF80730DBB21C2B03D10020FFF742
:400BC000CBFB19E09DF80730DBB21A2B14D10020FFF78EFC10E09DF80730DBB21C2B03D10020FFF7B9FB07E09DF80730DBB21A2B02D10020FFF77CFC03B05DF804FB00BF39
:400C000008B500F08DFA40F00100C0B200F082FA08BD00BF08B500F089FA10F0100FFAD008BD00BFFEE700BFF0B40022174611E050F82760F3B226F0FF0608E001EB4205EE
:400C400011F812406D78A5550132013BDBB2002BF4D10137212FEBD9F0BC70470A4B1B78DBB203F00701094A11701B09013213702022074B1A70022203F683031A704422D0
:400C8000A3F20A231A707047CF0100496E580040FD51004008B50A46002102F040F808BD38B5394B1D78EDB20021384A1180582102321170092102321180182234490A7040
:400CC00095200231088002310A700621314A1170F3210A32117003221A708422A3F28F331A700522013B1A702B4C04E04FF4F07001F09EFF013C24B1284B1B7813F0200FEA
:400D0000F4D0214B1D705222A3F593631A70244B1B78DBB2234A137040F21472224B1A8041F25122023B1A80002419250CE01F4B1B7803F0010343EA440404F003044FF4BA
:400D4000F07001F075FF013D0DB1032CEFD115B90320FFF767FF164A4FF48073138007231370002313490B704820023108701370053213700222104B1A70104A137843F035
:400D80000703137038BD00BF98460040804000408640004000430040A0860100084300400F010049A14600402242004025420040044000400640004001400040A24300401E
:400DC00008B501F0A1FF08BD38B572B6404A137843F00403137000240CE03E4D630019194A0011462A44084691882858FFF752FF0134E4B2052CF0D900240BE03548A20099
:400E000011194B0003449A8D996A586AFFF7D8FF0134E4B2012CF1D92F494FF09040FFF703FF2E4A137843F0020313701032137843F0020313702A4C237843F0400323709C
:400E4000A2F58632513A137843F010031370082224492548FFF7B4FF0A2224492448FFF7AFFF0A2223492448FFF7AAFF082223492348FFF7A5FF082222492348FFF7A0FF1B
:400E80000A2222492248FFF79BFF082221492248FFF796FF0A2221492148FFF791FF0A2220492148FFF78CFF204A137843F0080313701F4D61232B70FFF7F2FE01232B702E
:400EC000FFF7CCFE0E2221461A48FFF779FF38BDE8460040446D00008800004803500140A04300407C0700480251004084070048C051004090070048F05100409C07004863
:400F000012510040A407004822510040AC07004830510040B807004842510040C007004850510040CC070048605100402243004000480040B043004008B501F0B9FE0368A6
:400F40000C2B00D1FEE7FEE708B5104E104D16E029686B68AC68002204E051F8040B43F8040B0432A242F8D1E868002203E0002143F8041B04328242F9D11035013E002EE8
:400F8000E6D101F09BFEFFF791F8FEE701000000146F000008B5104A104B1A60104A136843F40073136000230AE0032B03D80D4A52F8231000E00C490C4A42F82310013314
:400FC0002F2BF2D90A4B1A780A4B1A70074A0A4B1A60FFF7F9FE08BD0004FA050CED00E014ED00E000000000390F000000C0FF1FBC760040C0C0FF1F08ED00E001BE7047F6
:4010000010B5044605E0084B186801F011FEA4F50044B4F5004FF6D8034B586800FB04F001F006FE10BD00BFCCC0FF1F08B5034B1B7A00FB03F001F0FBFD08BDCCC0FF1F38
:4010400070B504460E46074B1D681F2802D90020FFF7D4FF04F01F04103455F8240045F8246070BD08ED00E038B504460D46072902D90020FFF7C2FF1F2C02D90020FFF794
:40108000BDFF04F01F0000F1604000F564406D01EDB2057038BD00BF134B1B78DBB20360124A127843EA02230360114A127843EA024303600F4A127843EA026303600E4B9A
:4010C0001B78DBB243600D4A127843EA022343600B4A127843EA024343600A4A127843EA02634360704700BF0301004904010049EC460040020100490101004900010049EC
:401100000501004906010049014B1878704700BF61640040014B1870704700BF75640040014B1878704700BF75640040014B1878704700BF67640040014B1870704700BF44
:401140007A650040014B1878704700BF6A65004010B50222114B1A7081220E3B1A70082202331A700A2211331A70002401331C704FF400420A4B1A6007210F20FFF774FFCF
:4011800008490F20FFF75CFF1022074B1A70074B1C70074B1C70074B1C7010BDD649004080E100E005120000BAC1FF1FBEC1FF1FC6C1FF1FBCC1FF1F08B501F041FD064A80
:4011C000137843F0040313701032137843F00403137001F039FD08BDA543004008B5074B1B7823B9FFF7B4FF0122044B1A70FFF7E3FF4FF40042024B1A6008BD7CC1FF1FA2
:4012000000E100E038B5A54B1C78A54B1B7813F0400F00F03A81E4B214F0010F00F01D819F4B1B78453B052B00F21481DFE813F006008200120112010600DF0004F0DF05DB
:4012400004F00A04082C42D1954B1B78DBB2452B35D1944B1B7813F0FF0F10D0924B1B681B78DBB2914A137004228C4B1A7001228F4B1A7046228A4B1A702C46EDE08D4B82
:401280001B7813F0020F0DD08B4A137843F00A0313706022824B1A704FF40042874B1A602C46DAE0864A137843F0100313701022844B1A700422023B1A702C46CDE00022D4
:4012C000764B1A704A22764B1A702C46C5E00A2C2BD1794A137843F0A0031370754B1B7813F0020F14D06E4B1B7813F0080F01D0092300E00A23704A11780B4313706022AB
:40130000674B1A704FF400426C4B1A602C46A4E06B4A137843F0100313701022694B1A700422023B1A702C4697E00020FFF766FE2C4692E014F0020F36D15D4B1A78D2B23E
:40134000584B1B78DBB29A4210D2594A1378DBB255490968CB5CDBB254490B7004214F4B197013780133DBB2137076E0514B1B7813F0020F0CD0504A137843F00A031370E2
:401380006022474B1A704FF400424C4B1A6064E04B4A137843F0100313701022494B1A700422023B1A7058E0424B1B7813F0020F0CD0414A137843F09A0313706022384BD9
:4013C0001A704FF400423D4B1A6046E03C4A137843F01003137010223A4B1A700422023B1A70354A137843F09003137035E0364A1378DBB2354908682C490978C9B2C1543A
:4014000013780133DBB213701278D2B2304B1B78DBB29A4203D21022204B1A701DE0254B1B7813F0020F0CD0234A137843F00903137060221A4B1A704FF400421F4B1A60D8
:401440000BE01F4A137843F0100313700022134B1A7002E00020FFF7D1FD14F0200F1CD00F4B1B7813F0080F01D0012300E00223114A11780B431370114A137803F0EF0354
:4014800013701022064B1A7038BD054B1B7813F0100F02D11022024B1A7038BDD7490040BAC1FF1FBDC1FF1FC8C1FF1FD8490040BCC1FF1FC4C1FF1FBEC1FF1F80E100E018
:4014C000D6490040D9490040C6C1FF1FC0C1FF1FC5C1FF1F002948D070B40C4626490978C9B2102906D12549097811F0080F11D1002112E020490978C9B260290CD14FF407
:4015000000451F490D601F4D297801F0F7012970002102E0012100E0022149BB4526164D2E700026184D2E70184D2A70184A1460184A1370134C227802F0FD0222704200C9
:40154000D2B21548027013F0010F06D012220B4B1A700422023B1A7002E00122074B1A704FF400420D4B1A6002E0022108467047084670BC704700BFBAC1FF1FD949004001
:4015800080E200E0BEC1FF1FBCC1FF1FBDC1FF1FC8C1FF1FC4C1FF1FD849004000E100E01A4B1B78DBB2102B29D1194B1B7813F0080F26D14FF40042164B1A604000C0B2D5
:4015C00029B140F001004922104B1A7002E045220E4B1A70104B1870012201331A700F4B1B7813F0010FFAD00C4B1B7803F00A030A2B08D11022054B1A70032070470220D6
:401600007047012070470020704700BFBAC1FF1FD949004080E100E0D8490040D74900400A4B1B7813F0040F0ED01023074A13700421023A1170064A1370064B1B7813F009
:40164000210FFAD00020704702207047D9490040BAC1FF1FD7490040114B1B7813F0040F1BD0104B18700422013B1A7046220E4B1A700E4B1B7813F0010FFAD00B4B1B78A9
:4016800013F0020F04D16022074B1A70002070476022054B1A70032070470220704700BFD9490040D8490040BAC1FF1FD7490040114B1B7813F0040F1BD0104B1B78DBB217
:4016C000492B05D100220E4B1A704A220B4B1A700B4B1B7813F0010FFAD00A4B1B78DBB218B11021064A117004E06021034A117000E0002318467047D9490040BAC1FF1F03
:40170000D7490040D84900404FF40042084B1A60084B1878C0B2084B1B7813F0400F01D040F004004FF40042044B1A60704700BF80E100E0BEC1FF1FBAC1FF1F00E100E008
:401740004FF40043044A1360044A107800211170034A1360704700BF80E100E0BEC1FF1F00E100E0F8B501F06BFA0746404A137843F0010313701032137843F0010313702F
:4017800001263C4B1E700225943B1D7002F5E2521B32137803F07F0313700020FFF746FC354C237803F0F9032370344A137803F0DF0313702378334323703046FFF736FCD6
:4017C0002820FFF733FC2E4B1A7802F07F021A701A7802F0BF021A7023782B4323702846FFF724FC237843F0040323700024254B1C7001331C70384601F026FA072117204F
:40180000FFF732FC20491720FFF71AFC07211820FFF72AFC1D491820FFF712FC07211520FFF722FC1A491520FFF70AFC07212046FFF71AFC17492046FFF702FC07213046C3
:40184000FFF712FC14493046FFF7FAFB07212846FFF70AFC11492846FFF7F2FB07210C20FFF702FC0E490C20FFF7EAFBF8BD00BFA54300409D600040944300401260004021
:40188000F851004084600040C5220000AD200000C1220000212200005122000085220000CD22000008B5214B18700023204A1370204A1370204A1370204A1370204A137023
:4018C000204A1370204A1370204B4FF400021A604FF080721A604FF400121A6001221A6002221A6004221A6011B1012906D00BE0174A137803F0FE0313700AE0144A1378AC
:4019000043F00103137004E0114A137843F00103137003220F4B1A708022203B1A70012001F086F904220C4B1A7008BDE5C1FF1FE8C1FF1F04C2FF1F07C2FF1FFCC1FF1F4B
:4019400006C2FF1F09C2FF1FE4C1FF1F00E100E009600040286000401260004038B504460D46064B1B7823B9FFF7FCFE0122034B1A7029462046FFF795FF38BD7DC1FF1F0C
:4019800000230A4A13700A4A13700A4A13700A4A13700A4A13700A4A13700A4A13700322094B1A708022203B1A707047E8C1FF1F04C2FF1F07C2FF1FFCC1FF1F06C2FF1F8F
:4019C00009C2FF1FE4C1FF1F28600040014B1878704700BF07C2FF1F064B1B7813F0FF0F05D0044B1878C0B200221A7070470020704700BF04C2FF1F00EB40008300024A48
:401A000013445878704700BF0CC2FF1F431EDBB2072B0BD8064B00011A18185C00F00F00537843EA0020023880B2704700207047FC5F0040431EDBB2072B3CD8F0B4074651
:401A400000EB4004A3001C4C2344DB889BB2C3F500739A4208D900EB400293002344DA8892B2C2F5007292B200EB4004A300124C2344DB7843EA1223104D04012E192B557E
:401A8000D3B2737039B909E0CE5C3D010C4C665501339BB200E000239A42F5D8420002449300054A134400225A705A79D2B20001044B1A54F0BC70470CC2FF1FFC5F00408F
:401AC00078600040FE5F0040431EDBB2072B0BD8420002449300054A134400225A705A79D2B20001024B1A54704700BF0CC2FF1FFE5F004070B5D9B1054614460E46C8B14E
:401B0000082819D8FFF782FFA04203D22846FFF77DFF0446002305E02901094A525CF25401339BB2A342F7D32846FFF7CDFF04E0002402E0002400E00024204670BD00BFEF
:401B40007860004010B4FF2400230EE0094AD25C02EB42029100084A11448A7AD2B2824201D11C4602230133DBB2012BEED9204610BC7047D4C1FF1F0CC2FF1F10B5204C59
:401B80002079FFF7DFFF237813F0800F0ED06378DBB2212B2FD11B4B07221A80C0EBC000194A1044586000F0EFFA10BD144B5B78DBB2202B02D0222B10D01EE0114A0723C4
:401BC0001380C0EBC00310490B4453600F4A135C43F00103135400F0FFFA10BD084B9B780B4A22F81030094A135C43F00203135400F088F910BD002010BD002010BD00BF20
:401C000000600040F0C1FF1FDCC0FF1FCCC1FF1FE0C1FF1F10B500241F4B1C701F4B1C705C700AE01E4B185DC0B2431EDBB2072B01D8FFF749FF0134E4B2012CF2D9194BD8
:401C40001B7813F0FF0F1AD0154B1B7813F0FF0F17D0154B1B7813F0FF0F14D0114B1B78DBB2082B11D80E4B1B78DBB2082B0ED80D4B1B78DBB2082B0BD8002010BD01203D
:401C800010BD012010BD012010BD012010BD012010BD012010BD00BF7EC1FF1FCCC1FF1FD8C1FF1FD0C1FF1FD4C1FF1F70B506460D460F4B1B780F4AD45CE4B204EB4402CC
:401CC00093000D4A13441B899BB28B4209D204EB44029300084A13441D89ADB20020FFF78DF92A4631462046FFF7A4FE70BD00BF7EC1FF1FD0C1FF1F0CC2FF1F08B5034B24
:401D00001B78034AD05CFFF777FE08BD7EC1FF1FD8C1FF1F08B5034B1B78034AD05CFFF76BFE08BD7EC1FF1FD0C1FF1F08B5084B1B78084AD35CDBB203EB43018A00064950
:401D40000A44128992B201461846FFF7D3FE08BD7EC1FF1FD8C1FF1F0CC2FF1FC37803F0030390F9020000280FDA032B06D002F001030B48C15442F001020EE0C2F3800378
:401D80000848C15442F0040207E0032B05D0C2F340030548C15442F002021046704700BFD0C1FF1FD4C1FF1FD8C1FF1F1D4B19781D4A13889BB20B449BB2138000220FE09F
:401DC0001A494B681B78DBB2194883544B6801334B600132D2B20B889BB2013B9BB20B80124B1B889BB20BB1072AE9D90D4B1B78DBB2082B00D05AB10E490B7883F08003E6
:401E00000B700F210C4B197002210C4B197004E0022309490B7009490B70094B1A70014B1A707047E4C1FF1FE6C1FF1FF0C1FF1F006000407AC2FF1F05C2FF1FE8C1FF1F09
:401E400008C2FF1F0222074B1A708022064B1A700F22064B1A700023054A1370054A137001207047E8C1FF1F7AC2FF1F05C2FF1FE4C1FF1F08C2FF1F08B5FFF797FF08BD93
:401E800010B4194B197801F00F010239C9B2174A13889BB20B449BB21380002011E0144A5468144B1B5CDBB223705368013353600130C0B20139C9B213889BB2013B9BB2AE
:401EC00013800B4B1B889BB20BB10029E7D10A4B19700A4A137883F0800313700B22084B1A7010BC704700BF29600040E6C1FF1FF0C1FF1F0060004008C2FF1F7AC2FF1FAB
:401F000005C2FF1F0623064A1370064A13708022054B1A700022054B1A700120704700BFE8C1FF1F05C2FF1F7AC2FF1F08C2FF1F064B9B6843B1054B9A6810709A68044987
:401F40000988518000229A60704700BFF0C1FF1FE6C1FF1F08B5134B1A78D2B21A701B78DBB213F0800F02D00F4A137008BD0220FFF7DEFF0D4B1B7803F06003202B05D0A3
:401F8000402B06D043B900F093FC06E000F060FE03E000F037FE00E0002010B90322024B1A7008BD2860004005C2FF1F0060004008B5094B1978094A13889BB20B449BB2D9
:401FC00013800022064B1A700120FFF7B1FF0322044B1A7008BD00BFE4C1FF1FE6C1FF1FE8C1FF1F05C2FF1F08B50B4B1B78DBB2042B06D0062B07D0022B0BD1FFF7D8FFBE
:4020000008BDFFF73DFF08BD0320FFF791FF0322024B1A7008BD00BFE8C1FF1F05C2FF1F08B50022044B1A700120FFF781FF0322024B1A7008BD00BFE8C1FF1F05C2FF1F94
:4020400008B50B4B1B7813F0FF0F07D0084A137843F0800307490B70002313700022064B1A700120FFF764FF0322044B1A7008BD06C2FF1F08600040E8C1FF1F05C2FF1F5A
:4020800008B5094B1B78DBB2042B06D0062B07D0022B07D1FFF7F0FE08BDFFF7C1FF08BDFFF7CEFF08BD00BFE8C1FF1F08B5284B1B78DBB213F0100F48D013F0800F0CD0B3
:4020C00003F00F03012B16D1FFF744FF214B1B7813F0800F11D1012312E013F0400F03D0FFF7CEFF01230BE013F0200F07D0FFF77BFF012304E0002302E0002300E0002363
:4021000023B3134B1B7813F0800F1FD1124B1B78124A12781343124A13701278D2B2934214D10C4B1B78DBB2094A127812F0800F07D1084B1B78DBB2054A1370137803F003
:402140000F03044A1278D2B29342EAD108BD00BF2860004005C2FF1F7AC2FF1F08C2FF1F296000400022064B1A80064B9B682BB1044A916800230B7092685380704700BFC0
:40218000E6C1FF1FF0C1FF1F08B50F4B1B889BB213B9FFF757FE15E002220C4B1A7000220B4B1A70FFF7DEFF0A4AD179937943EA0123054A128892B2934201D2024A1380EF
:4021C000FFF7F4FD012008BDF0C1FF1FE8C1FF1F7AC2FF1F0060004008B504220B4B1A7080220B4B1A70FFF7BDFF0A4AD179937943EA0123084A128892B2934201D2064A68
:4022000013800B22054B1A70012008BDE8C1FF1F7AC2FF1F00600040F0C1FF1F05C2FF1F0122094B1A700F3B9B7C084B1B7B03F00303934204D0054AD37B83F08003D373E3
:402240000122024B5A7370470B6000400CC2FF1F02220A4B1A700F3B93F82230084B1B7E03F00303012B04D0054AD37E83F08003D3760122024B5A76704700BF0B60004084
:402280000CC2FF1F04220C4B1A700F3B93F832300A4B93F8243003F00303012B06D0074A92F8273083F0800382F827300122034B83F82520704700BF0B6000400CC2FF1F8E
:4022C000704700BF08B5FFF75BFB08BD08B500F0A5FC08BD70B588B0054603AC174E0FCE0FC43368237035B322232B7003236B7001A8FEF7D1FE002402231AE008AA22445C
:4023000012F81C2C08A901EB121111F8141CE954581C00212954981C02F00F0208AE324412F8142C2A54DA1CA9540134E4B20433DBB2212BE2D908B070BD00BF7C6D000042
:4023400010B401233EE019461A010C242148845403EB4300820020480244527912F0FF0F13D003EB430082001B480244127912F0800F04D01801194A024494700AE0180138
:40238000164A02440820907004E01801134A0244802090704800084482000F480244D488E4B208010B4901448C71D088C0F30720C871D088C0B20871D288C2F307224A712A
:4023C0000133DBB2082BBED9FF22054B1A7010BC704700BF706000400CC2FF1FFC5F00400A600040074B1A78074B03EBC2035B681A7C824204D9C000103018444068704736
:4024000000207047E5C1FF1F906D0000F8B5404B1B7813F0FF0F79D03D4B18780138C0B2FFF7E0FF047AC2683A4B1878C0B200236AE01178884264D13749095CC9B25578F6
:40244000A9425ED1917801F07F01D67806F00306DFF8C8E04D000D44AF000EEB07054FF0000C85F803C092F802C085F804C092F803C00EF807C097882F8192F90250002D9F
:402480000DDA012E01D1072700E00D274E000E44B500224E35446F7101266E700CE0012E01D1052700E009274E000E44B5001B4E35446F7100266E70DFF868E00F010EEB63
:4024C00007060125B57001FA05F529448D00134929440D89C5F307250EF807500D89EDB27570CE88F6B20E4D3D44AE71CE88C6F30726EE71CE88F6B22E71C988C1F307217D
:40250000697108320133DBB2A34292D3F8BD00BF07C2FF1FFCC1FF1F78C2FF1F0CC2FF1F70600040FC5F0040034B1A78034B03EBC2035868704700BFE5C1FF1F906D00007F
:4025400008B5084B18780138C0B2FFF74BFF30B142681279023200EBC203586808BD002008BD00BF07C2FF1F2DE9F047002310E0724D5900CA189600AC190022AA55A270DE
:40258000E2702281A272627034462C4462710133DBB2082BECD940B90AE000226849CA546849CA540133DBB200E00023012BF4D9654B1B7813F0FF0F00F0BD80624B1878AC
:4025C0000138C0B2FFF70EFF80464368DB7913F0400F05D05D4A137843F00103137004E05A4A137803F0FE03137098F808704FF0000A01266FE0D8F80C50002467E0AB784A
:4026000003F07F039E425FD1314606EB460083004A4803441B899BB2A888834206D206EB460E4FEA8E03454A134418812B784448C35CDBB26878834246D195F802C0DFF802
:40264000FCE04B000B4498000EEB000383F804C0EB780EF80030EB7803F0030395F90200002813DA012B02D14FF0070901E04FF00D09DFF8C8E04B0003EB010C4FEA8C0069
:40268000704480F805900121417012E0012B02D14FF0050901E04FF00909DFF8A0E04B0003EB010C4FEA8C00704480F8059000214170AB790A2B01D0022B05D152463146E5
:4026C0002846FFF74BFB824608350134E4B2BC4295D30136F6B2082E8DD9D8F80C0000220CE0837803F07F0310F8084B03EB43039900124B19448C720132D2B2BA42F0D3CF
:40270000FFF71EFF124B1860002301210FE00B4D4A00501884002C44E380228992B213449BB203F0010213449BB20131C9B20829EDD9FFF705FEBDE8F08700BF0CC2FF1F8B
:4027400078C2FF1FECC1FF1F07C2FF1F09C2FF1F00C2FF1F08B5154B1B7903F07F035A1ED2B2072A20D8590019448A0010490A44917841F0010191700021D170517841F0BB
:4027800002015170127912F0800F05D01B01094A1A448D23937004E01B01064A1A4489239370FFF7AFFB08BD002008BD006000400CC2FF1FFC5F0040274B1B7903F07F039B
:4027C0005A1ED2B2072A44D810B5590019448A0022490A44917801F0FE0191700021D1701F4C1801215C01F07F012154517801F0FD015170127912F0800F13D003EB4301E5
:402800008A0016490A445278D2B2012A04D1224602440C23937019E01B01114A1A440D23937013E003EB43018A000C490A445278D2B2012A05D11B01094A1A440823937096
:4028400004E01B01064A1A4409239370FFF75AFB10BD0020704700BF006000400CC2FF1FFC5F004010B50E4B1C79E4B20D4B18780138C0B2FFF7B6FD43681B799C4201D92A
:40288000022C0AD8084A135DDBB208490B55044B9B78DBB21355012010BD002010BD00BF0060004007C2FF1F78C2FF1FECC1FF1F10B59C4B1B78DBB200219B4A118013F007
:4028C000800F00F0AD80974A5278D2B20A2A00F27481DFE812F06900720172017201720172010B007201920072019A008D4BDB78DBB2012B09D1FFF717FE42688A4B5A6052
:4029000012221A80FFF740FC10BD864BDB78DBB2022B13D1834B9878FFF764FD002800F04E814268804B5A605A68D1785A68927842EA01221A80FFF727FC10BD794BDB7800
:40294000DBB2032B05D02CE00A7811440133DBB201E000237549734A9278D2B2934203D20A7812F0FF0FEFD16E4B9B7813F0FF0F0BD06C4B9B78DBB26D4A127C934204D11C
:402980006C4C2046FFF7A6FC21460B7813F0FF0F00F017810B78644A13805160FFF7F4FB10BD00F055F910BD13F0030317D0022B40F009815C490B805A4B1B7903F07F03F7
:4029C00003EB43039A005C4B1A449278D2B25B4B1A7000225A704B60FFF7D6FB10BD524902230B80564B1A78D2B2544B1A7000225A704B60FFF7C8FB10BD4B4B01221A8080
:402A0000504A5A60FFF7C0FB10BD474A01231380444B1B794C490B445360FFF7B5FB10BD404A5278013A0A2A00F2CF80DFE812F04C00CD009800CD000B00CD00CD00CD0092
:402A40001300CD003000374B9B78DBB23F4A1370FFF758FA10BD334B9B7803F0FF041BB1601EC0B2FFF7BEFC04B110B9002C40F0AE80344B1B78DBB29C4206D0314B1C70AD
:402A80000120334B1870FFF76FFDFFF73BFA10BDFFF7E8FE002800F09C80224A1379DBB21279D2B22B490A702B4AD25CD2B22649CB5CDBB29A4204D00122254B1A70FFF7F6
:402AC000A5FCFFF71FFA10BD03F00303012B17D04BB1022B7FD1134B9B7813F0FF0F7CD1FFF76AFE10BD0F4B9B78DBB2012B76D1134A137803F0FD031370FFF703FA10BD4F
:402B0000084B1B79DBB2012B6BD8064B98781B79DBB21249CA5C22EA0002CA54FFF7F2F910BD00BF00600040F0C1FF1FF86D0000DC6E000080C2FF1F0CC2FF1F80C1FF1F4D
:402B400009C2FF1F07C2FF1F78C2FF1F06C2FF1F04C2FF1FFCC1FF1FECC1FF1F7CC2FF1F03F00303012B17D04BB1022B3BD1224B9B7813F0FF0F38D1FFF7ECFD10BD1E4B71
:402B80009B78DBB2012B32D11C4A137843F002031370FFF7B7F910BD174B1B79DBB2012B27D8154B98781B79DBB21549CA5C22EA0002CA54FFF7A6F910BD002010BD0020C9
:402BC00010BD002010BD002010BD002010BD002010BD002010BD002010BD002010BD002010BD002010BD002010BD002010BD002010BD002010BD00BF0060004009C2FF1FB7
:402C00007CC2FF1F044B1B7813F0800F01D0024B5B780020704700BF00600040024B1878C0F38010704700BF8F450040000000000230800803D000BF01380046FCD17047A4
:402C4000EFF3108072B6704780F31088704700BF08B5144B1B7803F00303012B02D0022B04D00FE00F4B1B79DBB20CE00D4B1B7903F07F0303EB43039A000B4B1A44937A95
:402C8000DBB200E00023022B07D8084A1268D35C022B04D1FEF772FF08BD002008BD002008BD00BF006000400CC2FF1F00C2FF1F014B1868704700BF58C1FF1F0E4B70B564
:402CC0001E460E4C0025E41AA410A54204D056F8253098470135F8E704F00AF9084B094C1E46E41AA4100025A54204D056F8253098470135F8E770BDFC6E0000FC6E0000C0
:402D0000FC6E0000046F000010B5431E0A44914204D011F8014B03F8014FF8E710BD03460244934202D003F8011BFAE77047000000000000004000000040000000000000EA
:402D400000000000F3C38A0100000000C324010000000000C3C0000000000000C35401FFFFFFFFFFFFFFFFFFFFFFFFFFFFFFFFFFFFFFFFFFFFFFFFFFFFFFFFFFFFFFFFFFB0
:402D8000FFFFFFFFFFFFFFFFFFFFFFFFFFFFFFFFFFFFFFFFFFFFFFFFFFFFFFFFFFFFFFFFFFFFFFFF6200F5E597D302DB020F302A2A4040237DFE402003210040224040DBC0
:402DC00000773A44403C324440FE3038083E05D3023EE8D302E1F1FBED4D2A8540237DFE852003214540228540DB01773A89403C328940FE3038083E05D3033EE8D303E171
:402E0000F1FBED4DE53A8A40FE00202E3A4440FE0028F92A4240237DFE402003210040F32242403A44403D324440FE0530083E05D3023EEAD3027EFBE1C93A8940FE002868
:402E4000F92A8740237DFE852003214540F32287403A89403D328940FE0530083E05D3033EEAD3037EFBE1C9F53A8A40FE00200D1801F5CD420128FBF1D300C9F5CD4B01F0
:402E800028FBF1D301C997D302DB020FCB4FC997D303DB030FCB4FC93A8A40FE0020063A4440FE00C93A8940FE00C9D7FE0A28FBFE1B20023E03C9FE0D280AFE0C2804FEBA
:402EC000203801CFC93E0DCF3E0ACF3E0DC931AE40210040224040224240214540228540228740AF3244403289403E00D3023E18D3023E04D3023EC4D3023E01D3023E186A
:402F0000D3023E03D3023EE1D3023E05D3023EEAD3023E00D3033E18D3033E04D3033EC4D3033E01D3033E18D3033E02D3033E60D3033E03D3033EE1D3033E05D3033EEA55
:402F4000D3033E00ED47ED5EFB3E00328A40218504CD8D023E01328A40218504CD8D02CD5B01280F3E00328A40CDC000FE20C21B021814CD610128E73E01328A40CDC000EC
:402F8000FE20C21B0218003E0CCD2E01CD3801CD9402212904CD8D02215402E5CD94023E3ECFCD6701FE2038F9FE3ACA0B03CD7301FE3FCA6303E65FFE52CA0000FE42CAEE
:402FC0004C03FE47CA0503FE58CA6A033E3FCF18CB7EB7C8CF2318F93E0DCF3E0ACFC9CD6701FE03C8FE2038F6C9CD9B0247CD9B024FCDE5024F7B915F79C9210000CDFE9C
:4030000002FE0D200E37C9210000CDFE02FE0DC8FE2CC8FE0328EE29292929D630FE0A3802D607E60F856F18E178D630FE0A3802D607070707074779D630FE0A3802D60742
:4030400080C9CD6701CD7301C9CDB702D8E5C91E00CDA60257CDA60267CDA6026FCDA602FE012009CDA6027BA7281E18157AA7280BCDA60277233E2ECF1518F1CDA6027BBF
:40308000A7C8217404CD8D02C921AA04CD8D02C9216104CD8D02CD9B02C8E65FFE43CA0020FE57CA0320C921BB04CD8D02C9217C03CD8D02CD9B02C8E65FFE59CA9D03C95E
:4030C0000D0A426F6F742043502F4D3F000D0A4C6F6164696E672043502F4D2E2E2E0D0A00218903CD8D02CD1E043E01D3113EEFD317CD1E043E82D3113EEFD31706183EDA
:4031000000328B402100D0228C40CD1E043A8B40D3133E00D314D3153EE0D3163E01D312CDFA031100022A8C4019228C403A8B403C328B4010D43A8A40F52AFEFFE9F5C5E2
:40314000E5CD1E043E20D317CD1E040E042A8C4006800000DB1077230520F70D20F2E1C1F1C9F5DB17E680FE8028F8F1C95A38302053424320426F6F7420524F4D20312EFA
:403180003120627920472E20536561726C650D0A54797065203F20666F72206F7074696F6E730D0A000D0A436F6C64206F72205761726D203F0D0A00436865636B73756D16
:4031C000206572726F720D0A000C5072657373205B53504143455D20746F20616374697661746520636F6E736F6C650D0A004C6F616420636F6D706C6574652E0D0A000D28
:403200000A5220202020202020202020202D2052657365740D0A4243206F72204257202020202D20524F4D20424153494320436F6C64206F72205761726D0D0A58202020C6
:4032400020202020202020202D20426F6F742043502F4D20286C6F61642024443030302D24464646462066726F6D206469736B290D0A3A6E6E6E6E6E6E2E2E2E20202D2011
:403280004C6F616420496E74656C2D4865782066696C65207265636F72640D0A00FFFFFFFFFFFFFFFFFFFFFFFFFFFFFFFFFFFFFFFFFFFFFFFFFFFFFFFFFFFFFFFFFFFFFFCD
:4032C000FFFFFFFFFFFFFFFFFFFFFFFFFFFFFFFFFFFFFFFFFFFFFFFFFFFFFFFFFFFFFFFFFFFFFFFFFFFFFFFFFFFFFFFFFFFFFFFFFFFFFFFFFFFFFFFFFFFFFFFFFFFFFFFF0E
:40330000FFFFFFFFFFFFFFFFFFFFFFFFFFFFFFFFFFFFFFFFFFFFFFFFFFFFFFFFFFFFFFFFFFFFFFFFFFFFFFFFFFFFFFFFFFFFFFFFFFFFFFFFFFFFFFFFFFFFFFFFFFFFFFFFCD
:40334000FFFFFFFFFFFFFFFFFFFFFFFFFFFFFFFFFFFFFFFFFFFFFFFFFFFFFFFFFFFFFFFFFFFFFFFFFFFFFFFFFFFFFFFFFFFFFFFFFFFFFFFFFFFFFFFFFFFFFFFFFFFFFFFF8D
:40338000FFFFFFFFFFFFFFFFFFFFFFFFFFFFFFFFFFFFFFFFFFFFFFFFFFFFFFFFFFFFFFFFFFFFFFFFFFFFFFFFFFFFFFFFFFFFFFFFFFFFFFFFFFFFFFFFFFFFFFFFFFFFFFFF4D
:404D4000FFFFFFFFC30620C3A420DD210000C31120B7282D3021B040F9C34C3C11DE22066321B0401A77231305C22020F9CDDF24CDAD2A325A4132A94121F320CD4B31CD4B
:404D8000FC24CD0528B7C25A20210D42237CB5CA6C207E472F77BE70CA4820C36C20CDD128B7C2AD23EB2B3ED94677BE70C235202B110C42CD7526DA352011CEFF225F41B3
:404DC00019220A41CDBA242A0A4111EFFF1911A9417D936F7C9A67E521BC20CD4B31E1CDEE3721AD20CD4B31311641CDDF24C3F82320427974657320667265650D0A000093
:404E00005A38302042415349432056657220342E37620D0A436F70797269676874202843292031393738206279204D6963726F736F66740D0A00004D656D6F727920746FE5
:404E40007000633627377936B3400B3090333930ED38CC3908353B39413A473AA83ABD3AE433283B0141BD32D5305733CC32DD324A3BDD3BED321D332733C54E44C64F52A7
:404E8000CE455854C4415441C94E505554C4494DD2454144CC4554C74F544FD2554EC946D24553544F5245C74F535542D2455455524ED2454DD3544F50CF5554CF4ECE550B
:404EC0004C4CD7414954C44546D04F4B45C44F4B45D3435245454ECC494E4553C34C53D749445448CD4F4E49544F52D34554D245534554D052494E54C34F4E54CC49535493
:404F0000C34C454152C34C4F4144C353415645CE4557D4414228D44FC64ED3504328D448454ECE4F54D3544550ABADAAAFDEC14E44CF52BEBDBCD3474EC94E54C14253D5F3
:404F40005352C65245C94E50D04F53D35152D24E44CC4F47C55850C34F53D3494ED4414EC1544ED045454BC445454BD04F494E54CC454ED3545224D6414CC15343C34852BD
:404F800024C8455824C2494E24CC45465424D24947485424CD494424804F284C27272C9C292E2B632E5D2BB32959293C292B2A1528482977299E294D289C330D2A8E28A264
:404FC000334130EB33333B9E29193B0C3B113B493C044107414F2A7B28C126F6289E299E29B92479D5377909347C47357CA8357FF63850BC2D46BB2D4E46534E52474F4434
:4050000046434F564F4D554C425344442F304944544D4F534C535354434E55464D4F4858424EC3A420C3CC28D300C9D6006F7CDE006778DE00473E00C9000000354ACA9915
:40504000391C76982295B3980ADD479853D199990A1A9F9865BCCD98D6773E9852C74F80DB00C901FF1C00001400140000000000C3F225C30000C30000C300000D42FEFF6C
:40508000AA41204572726F720020696E20004F6B0D0A0000427265616B00210400397E23FE81C04E234623E569607AB3EBCA7023EBCD7526010D00E1C809C35A23CD9323FD
:4050C000C5E3C1CD75267E02C80B2BC37F23E52A8A41060009093EE53ED0956F3EFF9CDAA2236739E1D81E0CC3C1232A7941220C411E02011E14011E00011E12011E2201FB
:405100001E0A011E18CDDF2432F540CDA02A21B422573E3FCD8626197ECD8626CD0528CD8626213E23CD4B312A0C4111FEFFCD7526CA11207CA53CC4E6373EC1AF32F54075
:40514000CDA02A214A23CD4B3121FFFF220C41CDF225DA0524CD05283C3DCA0524F5CDD128D5CD092547D1F1D2E527D5C5AF327C41CD0528B7F5CD9924DA3E24F1F5CA72AE
:4051800029B7C5D25524EB2A86411A020313CD7526C246246069228641D1F1CA7C242A8641E3C109E5CD7923E1228641EB74D12323732372231111411A772313B7C27424ED
:4051C000CDC52423EB626B7E23B6CA0524232323AFBE23C28D24EB732372C381242A0E41444D7E23B62BC823237E23666FCD752660697E23666F3FC83FD0C39C24C02A0EC5
:4052000041AF772377232286412A0E412B227E412A5F41227341AFCD15282A8641228841228A41C12A0A41F9216341226141AF6F67228441327B41228E41E5C52A7E41C95B
:405240003E3FCD86263E20CD8626C3FE40AF325E410E051111417EFE20CA912547FE22CAB125B7CAB8253A5E41B77EC29125FE3F3E9ECA91257EFE30DA3C25FE3CDA912519
:40528000D5113521C5018D25C5067F7EFE61DA5525FE7BD25525E65F774EEB23B6F25725047EE67FC8B9C25725EBE5131AB7FA89254F78FE88C27825CD05282B237EFE61EB
:4052C000DA8125E65FB9CA6725E1C3552548F1EBC9EB79C1D12312130CD63ACA9F25FE49C2A225325E41D654C21225477EB7CAB825B8CA912523120C13C3A8252110411260
:4053000013121312C93AF440B73E0032F440C2D52505CAF225CD86263E052BCAE9257ECD8626C3FB25052BCD8626C2FB25CD8626CDAD2AC3F2252111410601AF32F440CD78
:40534000B0264FFE7FCAC1253AF440B7CA14263E00CD8626AF32F44079FE07CA5826FE03CCAD2A37C8FE0DCAA82AFE15CAEC25FE40CAE925FE5FCAE125FE08CAE125FE12BF
:40538000C25326C5D5E53600CD5D3C211141CD4B31E1D1C1C3FB25FE20DAFB2578FE493E07D26D267971327C412304CD8626C3FB25CD86263E08C367267C92C07D93C97E74
:4053C000E3BE23E3CA0528C3AD23F53AF540B7C28031F1C5F5FE20DAAA263AF240473A5B4104CAA62605B8CCAD2A3C325B41F1C1CD463CC9CD0A3BE67FFE0FC03AF5402F42
:4054000032F540AFC9CDD128C0C1CD9924C5CD1727E14E23462378B1CAF823CD2027CD3028C5CDAD2A5E235623E5EBCDEE373E20E1CD86267EB723CACD26F2ED26D67F4F4F
:405440001136211A13B7F2FF260DC2FF26E67FCD86261A13B7F20927C3F026E52AF84022F640E1C9E5D52AF64011FFFFED5A22F640D1E1F0E52AF84022F640CD0A3BFE03B3
:40548000CA4327E1C320272AF84022F640C3A7203E64327B41CDB329C1E5CD9C2922774121020039CD5A23D1C27C2709D52B562B5E2323E52A7741CD7526E1C26027D1F911
:4054C000EB0E08CD8A23E52A7741E3E52A0C41E3CD752CCD7B26A6CD722CE5CDA036E1C5D5010081515A7EFEAB3E01C2B827CD0528CD722CE5CDA036CD5436E1C5D5F5333D
:40550000E52A7E41E30681C533CD3028227E417EFE3ACAE527B7C2AD23237E23B6CA5728235E2356EB220C41EBCD052811C527D5C8D680DAB329FE25D2AD23074F0600EBB2
:40554000215522094E2346C5EB237EFE3AD0FE20CA0528FE303F3C3DC9EB2A0E41CA2A28EBCDD128E5CD99246069D1D272292B228C41EBC9DFC8D7FE1B2811FE03280DFE3D
:4055800013C0D7FE11C8FE03280718F63EFF32FD40C0F6C0227E4121F6FFC12A0C41F57DA43CCA6A282282412A7E41228441AF32F540CDA02AF1215023C2E123C3F8232A78
:4055C00084417CB51E20CAC123EB2A8241220C41EBC9CDD333C032F140C9E52AFA4006004F0922FA40E1C97EFE41D8FE5B3FC9CD0528CD722CCD5436FACC283A9741FE9022
:40560000DAFC36018090110000E5CDCF36E151C81E08C3C1232B110000CD0528D0E5F5219819CD7526DAAD23626B19291929F1D6305F160019EBE1C3D528CAC924CDAE283E
:405640002BCD0528E52A5F41CA1929E1CD7B262CD5CDAE282BCD0528C2AD23E3EB7D935F7C9A57DAA223E52A864101280009CD7526D2A223EB220A41E1225F41E1C3C924C4
:40568000CAC524CDC92401C527C358290E03CD8A23C1E5E52A0C41E33E8CF533C5CDD128CD9E29E52A0C41CD7526E123DC9C24D4992460692BD81E0EC3C123C016FFCD563F
:4056C00023F9FE8C1E04C2C123E1220C41237CB5C296293A7C41B7C2F72321C527E33EE1013A0E0006007948477EB7C8B8C823FE22CAA229C3A529CD682ECD7B26B4D53AAD
:405700005D41F5CD842CF1E3227E411FCD772CCA062AE52A9441E523235E23562A0E41CD7526D2F5292A0A41CD7526D1D2FD29216F41CD7526D2FD293ED1CDAC32EBCDE536
:4057400030CDAC32E1CDAF36E1C9E5CDAC36D1E1C9CDD3337E47FE8CCA1C2ACD7B26882B4B0D78CAED27CDD228FE2CC0C31D2ACD842C7EFE88CA392ACD7B26A92BCD752CE8
:40578000CD5436CA9E29CD0528DA5929C3EC272BCD0528CAAD2AC8FEA5CAE02AFEA8CAE02AE5FE2CCAC92AFE3BCA032BC1CD842CE53A5D41B7C2992ACDF937CD09313620C8
:4057C0002A9441342A94413AF2404704CA952A043A5B41863DB8D4AD2ACD4E31AFC44E31E1C34B2A3A5B41B7C8C3AD2A36002110413E0DCD86263E0ACD8626AF325B413A0D
:40580000F1403DC8F5AFCD8626F1C3BE2A3AF340473A5B41B8D4AD2AD2032BD60ED2D72A2FC3F82AF5CDD033CD7B26292BF1D6A8E5CAF32A3A5B412F83D2032B3C473E2096
:40584000CD862605C2FC2AE1CD0528C3522A3F5265646F2066726F6D2073746172740D0A003A7D41B7C2A723C1210A2BCD4B31C3F824CDB6307EFE223E0032F540C2482B01
:40588000CD0A31CD7B263BE5CD4E313EE5CDFC24C1DA5428237EB72BC5CA9B29362CC3622BE52A8C41F6AF327D41E3C36E2BCD7B262CCD682EE3D57EFE2CCA962B3A7D41C7
:4058C000B7C2032C3E3FCD8626CDFC24D1C1DA5428237EB72BC5CA9B29D53A5D41B7CAC02BCD05285747FE22CAB42B3A7D41B757CAB12B163A062C2BCD0D31EB21CB2BE39C
:40590000D5C3CE29CD0528CD5B37E3CDAC36E12BCD0528CAD72BFE2CC21D2BE32BCD0528C26A2BD13A7D41B7EBC22B28D5B621F22BC44B31E1C93F45787472612069676EB4
:405940006F7265640D0A00CD9C29B7C21C2C237E23B61E06CAC123235E2356EB227941EBCD0528FE83C2032CC3962B110000C4682E227E41CD5623C2B323F9D57E23F5D5C8
:40598000CD9236E3E5CDFF33E1CDAC36E1CDA336E5CDCF36E1C190CDA336CA622CEB220C416960C3C127F92A7E417EFE2CC2C527CD0528CD2A2CCD842CF6373A5D418FB7A2
:4059C000E8C3BF23CD7B26282B1600D50E01CD8A23CDFB2C2280412A8041C178FE78D4752C7E1600D6B3DABC2CFE03D2BC2CFE0117AABA57DAAD23227541CD0528C3A02C89
:405A00007AB7C2E32D7E227541D6ACD8FE07D05F3A5D413DB37BCA413207835F219F22197856BAD023CD752CC501932CC5434ACD853658514E234623C52A7541C3872CAF86
:405A4000325D41CD05281E24CAC123DA5B37CDA328D2622DFE262012CD0528FE48CA9F3BFE42CA0F3C1E02CAC123FEACCAFB2CFE2ECA5B37FEADCA512DFE22CA0A31FEAAC7
:405A8000CA432EFEA7CA6E30D6B6D2732DCD802CCD7B2629C9167DCD872C2A8041E5CD7D36CD752CE1C9CD682EE5EB2294413A5D41B7CC9236E1C90600074FC5CD052879C1
:405AC000FE31DA9A2DCD802CCD7B262CCD762CEB2A9441E3E5EBCDD333EBE3C3A22DCD492DE3115D2DD501FE20094E236669E915FEADC8FE2DC814FE2BC8FEACC82BC9F6C1
:405B0000AFF5CD752CCDB728F1EBC1E3EBCD9536F5CDB728F1C179212C30C2DE2DA34F78A2E9B34F78B2E921F52D3A5D411F7A175F166478BAD0C3E42CF72D79B71FC1D106
:405B4000F5CD772C21392EE5CACF36AF325D41D5CD8E327E23234E2346D1C5F5CD9232CDA336F157E17BB2C87AD601D8AFBB3CD0151D0ABE2303CA212E3FC35F363C8FC14D
:405B8000A0C6FF9FC36636165ACD872CCD752CCDB7287B2F4F7A2FCD2C30C1C3932C2BCD0528C8CD7B262C015A2EC5F6AF325C4146CDA328DAAD23AF4F325D41CD0528DAF7
:405BC000842ECDA328DA912E4FCD0528DA852ECDA328D2852ED624C2A02E3C325D410F814FCD05283A7B413DCA4D2FF2B02E7ED628CA252FAF327B41E550592A8E41CD7517
:405C000026119041CA95352A8841EB2A8641CD7526CAE32E799623C2D82E789623CA172F23232323C3CA2EE1E3D511652DCD7526D1CA1A2FE3E5C50106002A8A41E509C174
:405C4000E5CD7923E1228A4160692288412B3600CD7526C2092FD173237223EBE1C9329741214923229441E1C9E52A5C41E357D5C5CDAB28C1F1EBE3E5EB3C577EFE2CCA53
:405C80002B2FCD7B2629228041E1225C411E00D511E5F52A88413E19EB2A8A41EBCD7526CA852F7EB923C2672F7EB8235E235623C2532F3A5C41B7C2B623F1444DCA95350F
:405CC00096CAE32F1E10C3C123110400F1CACC28712370234FCD8A23232322754171233A5C411779010B00D2A82FC10371237023F5E5CD4037EBE1F13DC2A02FF5424BEBDA
:405D000019DAA223CD9323228A412B3600CD7526C2C62F03572A75415EEB2909EB2B2B73237223F1DA0730474F7E2316E15E235623E3F5CD7526D2802FE5CD4037D119F1AB
:405D40003D444DC2E82F2929C109EB2A8041C92A8A41EB210000393A5D41B7CA2730CD8E32CD8E312A0A41EB2A73417D934F7C9A41501E00215D41730690C36B363A5B415A
:405D800047AFC32D30CDC430CDB630019C29C5D5CD7B2628CD682EE5EB2B562B5EE1CD752CCD7B2629CD7B26B4444DE3712370C30331CDC430D5CD492DCD752CE35E2356AE
:405DC000237AB3CAB9237E23666FE52A8E41E3228E412A9241E52A9041E5219041D5CDAC36E1CD722C2BCD0528C2AD23E1229041E1229241E1228E41E1C9E52A0C41237C29
:405E0000B5E1C01E16C3C123CD7B26A73E80327B41B647CD6D2EC3752CCD752CCDF937CD0931CD8E3201E932C57E2323E5CD6431E14E2346CDFD30E56FCD8132D1C9CD648B
:405E400031216F41E5772323732372E1C92B062250E50EFF237E0CB7CA1F31BACA1F31B8C21031FE22CC0528E323EB79CDFD30116F412A61412294413E01325D41CDAF3668
:405E8000CD7526226141E17EC01E1EC3C12323CD0931CD8E32CDA3361C1DC80ACD8626FE0DCCB72A03C35531B70EF1F52A0A41EB2A73412F4F06FF0923CD7526DA82312220
:405EC000734123EBF1C9F11E1ACAC123BFF5016631C52A5F41227341210000E52A0A41E5216341EB2A6141EBCD7526019F31C2F3312A8641EB2A8841EBCD7526CAC6317E57
:405F00002323B7CDF631C3B031C1EB2A8A41EBCD7526CA1C32CDA3367BE509B7F2C531227541E14E0600090923EB2A7541EBCD7526CAC63101E531C5F6807E23235E235604
:405F400023F0B7C8444D2A7341CD75266069D8E1E3CD7526E3E56069D0C1F1F1E5D5C5C9D1E17DB4C82B462B4EE52B2B6E26000950592B444D2A7341CD7C23E17123706935
:405F8000602BC39131C5E52A9441E3CDFB2CE3CD762C7EE52A9441E5861E1CDAC123CDFA30D1CD9232E3CD9132E52A7141EBCD7832CD783221902CE3E5C32B31E1E37E23AB
:405FC000234E23466F2C2DC80A120313C38232CD762C2A9441EBCDAC32EBC0D550591B4E2A7341CD7526C2AA324709227341E1C92A61412B462B4E2B2BCD7526C02261414C
:40600000C9013C30C5CD8B32AF57325D417EB7C9013C30C5CDC132CACC2823235E23561AC93E01CDFA30CDD6332A714173C1C32B31CD8633AFE34FE57EB8DAFB3278110EFC
:4060400000C5CD6431C1E1E5232346236668060009444DCDFD306FCD8132D1CD9232C32B31CD8633D1D51A90C3F132EB7ECD8B330405CACC28C51EFFFE29CA4033CD7B26C0
:406080002CCDD333CD7B2629F1E301F332C53DBE0600D04F7E91BB47D843C9CDC132CA74345F23237E23666FE5194672E3C57EFE24C27533CD9F3B180DFE25C27F33CD0F82
:4060C0003C1803CD5B37C1E170C9EBCD7B2629C1D1C543C9CDD63332EF40CDEE40C33C30CDC033C3B640CDC033F51E002BCD0528CAB633CD7B262CCDD333C1CDEE40ABA031
:40610000CAB733C9CDD33332EF4032B740CD7B262CC3D333CD0528CD722CCDB1287AB7C2CC282BCD05287BC9CDB7281AC33C30CD722CCDB728D5CD7B262CCDD333D112C9CD
:4061400021D238CDA336C30E34CDA33621C1D1CD7D3678B7C83A9741B7CA953690D228342F3CEBCD8536EBCD9536C1D1FE19D0F5CDBA3667F1CDD334B4219441F24E34CDBA
:40618000B334D294342334CABC232E01CDE934C39434AF90477E9B5F237E9A57237E994FDCBF346863AF4779B7C281344A54656F78D608FEE0C26234AF329741C905297A42
:4061C0001757798F4FF27934785C45B7CA94342197418677D27434C878219741B7FCA63446237EE680A94FC395361CC014C00CC00E8034C0C3BC237E835F237E8A57237EAD
:40620000894FC92198417E2F77AF6F90477D9B5F7D9A577D994FC90600D608DAE234435A510E00C3D534C6096FAF2DC8791F4F7A1F577B1F5F781F47C3E53400000081030B
:40624000AA561980F122768045AA3882CD5436B7EACC282197417E01358011F30490F570D5C5CD0E34C1D104CDAA3521F734CD053421FB34CD9C39018080110000CD0E346D
:40628000F1CDCF3701318011187221C1D1CD5436C82E00CD12367932A641EB22A7410100005058215F34E5216B35E5E52194417E23B7CA9735E52E081F6779D28535E52ACB
:4062C000A74119EBE13AA641891F4F7A1F577B1F5F781F472D7CC27435E1C9435A514FC9CD8536012084110000CD9536C1D1CD5436CAB0232EFFCD123634342B7E32C2404B
:406300002B7E32BE402B7E32BA4041EBAF4F575F32C540E5C57DCDB940DE003FD2E23532C540F1F137D2C1E1793C3D1FFA9534177B175F7A175779174F297817473AC54000
:406340001732C54079B2B3C2CF35E521974135E1C2CF35C3BC2378B7CA36367D219741AE80471FA878F23536C68077CA9535CDBA36772BC9CD54362FE1B7E1F27434C3BC52
:4063800023CDA03678B7C8C602DABC2347CD0E3421974134C0C3BC233A9741B7C83A9641FE2F179FC03CC9CD543606881100002197414F70060023368017C35C34CD543622
:4063C000F02196417EEE8077C9EB2A9441E3E52A9641E3E5EBC9CDA336EB2294416069229641EBC92194415E2356234E234623C911944106041A77132305C2B136C92196E4
:40640000417E07371F773F1F2323777907371F4F1FAEC978B7CA5436215D36E5CD543679C8219641AE79F8CDE9361FA9C92378BEC02B79BEC02B7ABEC02B7B96C0E1E1C9C6
:40644000474F575FB7C8E5CDA036CDBA36AE67FC20373E9890CDD3347C17DCA6340600DCBF34E1C91B7AA33CC00BC92197417EFE983A9441D07ECDFC3636987BF57917CD96
:406480005C34F1C921000078B1C83E1029DA802FEB29EBD2563709DA802F3DC24837C9FE2DF5CA6737FE2BCA67372BCD743447575F2F4FCD0528DAB837FE2ECA9337FE454F
:4064C000C29737CD0528CDAB2DCD0528DADA3714C29737AF935F0C0CCA6F37E57B90F4B037F2A637F5CD9C35F13CC29A37D1F1CC7D36EBC9C8F5CD3D36F13DC9D5577889B8
:4065000047C5E5D5CD3D36F1D630CDCF37E1C1D1C36F37CD8536CD6636C1D1C30E347B0707830786D6305FC38537E5214523CD4B31E1EBAF0698CD6B36214A31E5219941F0
:40654000E5CD54363620F20738362D233630CABD38E5FC7D36AFF5CDC33801439111F84FCDCF36B7E23438F1CDB137F5C31638CD9C35F13CF5CDC338CDFC333CCDFC36CD71
:406580009536010603F1813CFA5038FE08D250383C473E023D3DE1F511D63805C26138362E2336302305362ECCAA36C5E5D5CDA036E1062F047B965F237A9E5723799E4FF8
:4065C0002B2BD27038CDB33423CD9536EBE17023C10DC2613805CAA1382B7EFE30CA9538FE2EC4AA36F1CAC038364523362BF2B138362D2F3C062F04D60AD2B338C63A239A
:406600007023772371E1C901749411F723CDCF36B7E1E22B38E900000080A08601102700E803006400000A0000010000217D36E3E9CD853621D238CD9236C1D1CD543678C5
:40664000CA3B39F20639B7CAB023B7CA7534D5C579F67FCDA036F22339D5C5CD2737C1D1F5CDCF36E17C1FE1229641E1229441DCE838CC7D36D5C5CD0835C1D1CD4935CD9F
:406680008536013881113BAACD49353A9741FE88D23036CD2737C680C602DA3036F521F734CDFF33CD4035F1C1D1F5CD0B34CD7D36217B39CDAB39110000C14AC34935086A
:4066C000402E9474704F2E776E02887AE6A02A7C50AAAA7EFFFF7F7F0000808100000081CD8536114735D5E5CDA036CD4935E1CD85367E23CD923606F1C1D13DC8D5C5F509
:40670000E5CD4935E1CDA336E5CD0E34E1C3B439CD543621C940FA2D3A21EA40CD923621C940C886E6070600772387874F09CDA336CD49353AC8403CE6030600FE018832D9
:40674000C84021313A87874F09CDFF33CDA0367B59EE4F4F36802B46368021C740347ED6ABC2243A770C151CCD5F3421EA40C3AC36772B772B77C3083A68B1466899E99226
:406780006910D17568218B3ACDFF33CD853601498311DB0FCD9536C1D1CDAA35CD8536CD2737C1D1CD0B34218F3ACD0534CD543637F2773ACDFC33CD5436B7F5F47D36216E
:4067C0008F3ACDFF33F1D47D3621933AC39C39DB0F49810000007F05BAD71E866426998758342387E05DA586DA0F4983CD8536CD473AC1E1CD8536EBCD9536CD413AC3A833
:4068000035CD5436FCE838FC7D363A9741FE81DADA3A0100815159CDAA35210534E521E43ACD9C39218B3AC9094AD73B78026E847BFEC12F7C74319A7D843D5A7DC87F91F9
:406840007EE4BB4C7E6CAAAA7F00000081C9D7C93E0CC3463CCDD3337B32F240C9CD722CCDB728ED53F640ED53F840C9CDB728D5E146237EC32D30CD722CCDB728D5CD7B93
:40688000262CCD722CCDB728E3732372E1C9CD752CCDB728C52199417AFE00280CCD823B78FE302802702371237BCD823B7AFE00200578FE30280270237123AF772377C1B9
:4068C000219941C3DB3047E60FFE0A3802C607C6304F780F0F0F0FE60FFE0A3802C607C63047C9EB210000CDB83BDAD83B1805CDB83B381F29292929B56F18F3131AFE2076
:40690000CAB83BD630D8FE0A3805D607FE0AD8FE103FC9EB7A4BE5CD2C30E1C91E26C3C123CD752CCDB728C521994106110578FE012808CB13CB1230F41804CB13CB123EC0
:4069400030CE0077230520F3AF772377C1219941C3DB30EB210000CD2C3CDA3A3CD63029B56FCD2C3C30F6EB7A4BE5CD2C30E1C9131AFE20CA2C3CFE30D8FE323FC91E2875
:40698000C3C123DD21FFFFC31120C30800C300003E0032FD40C31820ED45F5A0C1B83E00C9CD8626C3AD2AFFFFFFFFFFFFFFFFFFFFFFFFFFFFFFFFFFFFFFFFFFFFFFFFFFC9
:4069C000FFFFFFFFFFFFFFFFFFFFFFFFFFFFFFFFFFFFFFFFFFFFFFFFFFFFFFFFFFFFFFFFFFFFFFFFFFFFFFFFFFFFFFFFFFFFFFFFFFFFFFFFFFFFFFFFFFFFFFFFFFFFFFFFD7
:406A0000FFFFFFFFFFFFFFFFFFFFFFFFFFFFFFFFFFFFFFFFFFFFFFFFFFFFFFFFFFFFFFFFFFFFFFFFFFFFFFFFFFFFFFFFFFFFFFFFFFFFFFFFFFFFFFFFFFFFFFFFFFFFFFFF96
:406A4000FFFFFFFFFFFFFFFFFFFFFFFFFFFFFFFFFFFFFFFFFFFFFFFFFFFFFFFFFFFFFFFFFFFFFFFFFFFFFFFFFFFFFFFFFFFFFFFFFFFFFFFFFFFFFFFFFFFFFFFFFFFFFFFF56
:406A8000FFFFFFFFFFFFFFFFFFFFFFFFFFFFFFFFFFFFFFFFFFFFFFFFFFFFFFFFFFFFFFFFFFFFFFFFFFFFFFFFFFFFFFFFFFFFFFFFFFFFFFFFFFFFFFFFFFFFFFFFFFFFFFFF16
:406AC000FFFFFFFFFFFFFFFFFFFFFFFFFFFFFFFFFFFFFFFFFFFFFFFFFFFFFFFFFFFFFFFFFFFFFFFFFFFFFFFFFFFFFFFFFFFFFFFFFFFFFFFFFFFFFFFFFFFFFFFFFFFFFFFFD6
:406B0000FFFFFFFFFFFFFFFFFFFFFFFFFFFFFFFFFFFFFFFFFFFFFFFFFFFFFFFFFFFFFFFFFFFFFFFFFFFFFFFFFFFFFFFFFFFFFFFFFFFFFFFFFFFFFFFFFFFFFFFFFFFFFFFF95
:406B4000FFFFFFFFFFFFFFFFFFFFFFFFFFFFFFFFFFFFFFFFFFFFFFFFFFFFFFFFFFFFFFFFFFFFFFFFFFFFFFFFFFFFFFFFFFFFFFFFFFFFFFFFFFFFFFFFFFFFFFFFFFFFFFFF55
:406B8000FFFFFFFFFFFFFFFFFFFFFFFFFFFFFFFFFFFFFFFFFFFFFFFFFFFFFFFFFFFFFFFFFFFFFFFFFFFFFFFFFFFFFFFFFFFFFFFFFFFFFFFFFFFFFFFFFFFFFFFFFFFFFFFF15
:406BC000FFFFFFFFFFFFFFFFFFFFFFFFFFFFFFFFFFFFFFFFFFFFFFFFFFFFFFFFFFFFFFFFFFFFFFFFFFFFFFFFFFFFFFFFFFFFFFFFFFFFFFFFFFFFFFFFFFFFFFFFFFFFFFFFD5
:406C0000FFFFFFFFFFFFFFFFFFFFFFFFFFFFFFFFFFFFFFFFFFFFFFFFFFFFFFFFFFFFFFFFFFFFFFFFFFFFFFFFFFFFFFFFFFFFFFFFFFFFFFFFFFFFFFFFFFFFFFFFFFFFFFFF94
:406C4000FFFFFFFFFFFFFFFFFFFFFFFFFFFFFFFFFFFFFFFFFFFFFFFFFFFFFFFFFFFFFFFFFFFFFFFFFFFFFFFFFFFFFFFFFFFFFFFFFFFFFFFFFFFFFFFFFFFFFFFFFFFFFFFF54
:406C8000FFFFFFFFFFFFFFFFFFFFFFFFFFFFFFFFFFFFFFFFFFFFFFFFFFFFFFFFFFFFFFFFFFFFFFFFFFFFFFFFFFFFFFFFFFFFFFFFFFFFFFFFFFFFFFFFFFFFFFFFFFFFFFFF14
:406CC000FFFFFFFFFFFFFFFFFFFFFFFFFFFFFFFFFFFFFFFFFFFFFFFFFFFFFFFFFFFFFFFFFFFFFFFFFFFFFFFFFFFFFFFFFFFFFFFFFFFFFFFFFFFFFFFFFFFFFFFFFFFFFFFFD4
:406D0000FFFFFFFFFFFFFFFFFFFFFFFFFFFFFFFFFFFFFFFFFFFFFFFFFFFFFFFFFFFFFFFFFFFFFFFFFFFFFFFFFFFFFFFFFFFFFFFFFFFFFFFFFFFFFFFFFFFFFFFFFFFFFFFF93
:406D4000FFFFFFFFC8490040190000000140001000140140000800400140000A004C01400002005001402000205200406C0700480700285200407407004807003031323376
:406D80003435363738394142434445460000000001000000986D000001000000DC6E0000000000000000000001000000B06D000001000000986E000003000000DC6D000035
:406DC0000000000000000000000000000000000000000000D86D0000020A000000008103080002000100820240000A000100030240000A0002030000040309042C0343000A
:406E00007900700072006500730073002000530065006D00690063006F006E0064007500630074006F007200100355005300420055004100520054003803430044004300EF
:406E4000200043006F006D006D0075006E00690063006100740069006F006E00200049006E00740065007200660061006300650026034300440043002000440061007400BF
:406E80006100200049006E00740065007200660061006300650000000902430002010180320904000001020201030524001001042402020524060001052401000107058158
:406EC0000308000A09040100020A0000040705820240000007050302400000001201000202000008B40432F20100010280014300F8B500BFF8BC08BC9E4670474D000000AF
:406F0000950F0000F8B500BFF8BC08BC9E46704729000000286F0000C8C0FF1F980000004801000000000000000000000000307560EA00003C0000000087930300C20100DC
:406F400000000800C201000000080000A120000000000200000000000000000000000000000000000000000000000000000000000000000000000000EE6E0000000000001F
:406F80000000000000000000000000000000000000000000000000000000000000000000000000000000000000000000000000000000000000000000F8C0FF1F00000000FB
:406FC0000000000000000000000000000000000000000000000000000000000000000000000000000000000000000000000000000000000000000000000000000000000091
:407000000000000000000000000000000000000000000000000000000000000000000000000000000000000000000000000000000000000000000000000000000000000050
:407040000000000000000000000000000000000000000000000000000000000000000000000000000000000000000000000000000000000000000000000000000000000010
:4070800000000000000000000000000000000000000000000000000000000000000000000000000000000000000000000000000000000000000000000000000000000000D0
:020000040001F9
:0200000480007A
:40000000014500400E520040026400401D00014027010140180301403104014039050140260601403F0701400C090140090B0140100D01402D0E0140350F0140091501407F
:400040001A1701400E190140211A0140421B0140204001401F410140114201400B4301401C4401401A4501400D4601400C4701400F48014019490140134C01402F4D014026
:4000800004500140025101407E02003A015C08A00920109611CC18181910300131026020613078027C40741077200604160417021A011E0227022C012F01310232033501F1
:4000C0003604380839083E443F05580459245C805F118E01AB01B001B301D824D924DB04DC88DF110108060109600A20100219481E802354241029882F0430085C105E8ABF
:40010000650167266D406F6874807510779078107A087E0881108350848087A8880889088E10C084C207C401CA2ACC02D6F0D8F0DE247E027F018110831085409341972248
:4001400099409A089B019C109D01A402A560A605A940AA09AB01AD80AF05B310E408E602EE80010307020D031602171019011A011F052310270828042B102C022E0430018B
:40018000330335043606371839803E40582459045B045C085F1181028B019B04A202A401A902AD02AF04B101B201B306B402B908BE04BF04D201D301D610D824D924DB047F
:4001C000DC88DF2108040910100A1504170119411C101F10218C22102609281029122C06318432103710388239083C023F20680A6A016B106C016D046F04704078107D0887
:4002000083208940930197209A089B019C109D01A110A310A402A561A60FAE08AF40B402B501C206C433CA37CC2ECEABDE44E280EA30EC02EE40030124012A023001310104
:4002400034023E01520153015610582459245B045C885F2180018D019102930494089D029E04A002A304A403A902AE04B008B106B301B407B902BE11BF05D804D904DB0419
:40028000DF010002084009080A0110921108122013021608170418081B011C401E0821022310260228443002314038803F015820591E5B42600169206A846B806C016D222F
:4002C0006F2071A07D0880018110824088048B808C409090920193019A089B049C149D16A002A108A401A565A606A720C008C205C46DCA05CC09CE88D60FD808DE40E48148
:400300008308891090809B05A108A640A708AB04AD08E040E420EA0390809B01A508A640A708AB10B120EA20EC438301908093029B01A120A310A508A640A708AB04AE01AA
:40034000B008E40CE602EA01EC02070209050B0A130116011704260228012A022F083103330C34033E103F055608580459045B045D905F01830289018B0293019508970487
:400380009C019D049E069F08A604AA01AB0CAE02B003B10CB204B503BE05BF11D804D904DB04DF0109080F0210201110140417481B101E201F0120102201248025202B0233
:4003C0002F08330536423704380839103D103E0258805A20680869046A406C246F427502761277088210848086108701880489148A108B018C108D028E42C284C4E6CA284D
:40040000CCD3CEA6D60CE080E242E408E6268C109010A802AC21AD10B311E210E806EA81848085C089488D049010912093109C209D48A002A180A301A481A544A801A908BD
:40044000AA20AB40B204B404B502E080E202E442EA02EE10800885018604908091209A109B05A108A640B210E001E810EA02EC205B045F0180088204863087038802890168
:400480008A018B028E8090FF910293019420961098109A209C049E08A203A640AA0CAC01AE02B4FFB503BE10BF10D804D904DB04DF010480065007040D080E4915221601A1
:4004C00017081E04270837013E103F04584059085B22600462826320681869806B406E997182722876018004814082808340844085808642881089028A088D088E208F221F
:40050000908091229240930496049A109B05A108A310A408A640AA40AF04B710C0F0C2F0C4F0CC80CE60D60FD80FE001E20EE403E60CEA01EC800318041005020A100B049D
:400540000D400F10301033013620532057805A845D205F08630867806C808240830C8520860487C0C0F0C2F0CC70D4E0D6E0D8C0DC40E270E6F0520A541059045C015D1069
:4005800063086510801081408410901091809A209C109F01A480A620AA10AB38AD02AF14B220D4E0D6E0D8C0E080E480E640E8F0EC90EE203E1083048910940195109A2044
:4005C0009D109F01A60AA704AC10B220B480B504CE20E620EA10800181108B08940196109A209D109F01A60AE280E620048008010A010C080F011280150452025310562057
:400600006B0882808401850487018A018B108C048E208F01C001C20FC40CD407DA02E00CE402E609500556085C106020630265806740800184208710900891049201930141
:400640009A089F08A008A280A301A840AE08B202D407D607D803EC0491049201930195029720A008A280A810AF40B181B708EA04EC030B240D018E04910492019502972060
:40068000A280AB01AC08C20EE0022208562084108A048E4096109A209F08A608AF01B602C840D440E010EA4000200A080C400E4013085304571066208F10930896489A2026
:4006C0009C409F08A410AA10AC40B304C040C2E0C410D460D880EA80EC101040132014805E0867107A807D04810891049201A101A284AF04B501C40ED601D801DE03E8085A
:4007000000400380041109800A200E040F80508055085A025B205D205F02620866106D0278407C808120821083608605878288808A118C518E08920198C0A109A580AB2063
:40074000B310B580C00FC20FD407D607D803DC03DE04E004E20AE407E608EA08EC01000101010A010F01002A03C00000563AFFFF000000009AC9FFFF0000000000FFFF000D
:40078000FF0000003100080130003000000000004000110202000200E000000000ABAB00A000000000FFFF00FF000000E50000FF1A001A000000000000FFFF00FFFF000062
:4007C000FF0000FF0000FFFF000000000700F807000007070000000000000000000000000000000000000000000000000000000000000000000000000000000000000000E9
:4008000000000000000000000000000000000000000000000000000000000000000000000000000000000000000000000000000000000000000000000000000000000000B8
:400840000000000000000000000000000000000000000000000000000000000000000000000000000000000000000000000000000000000000000000000000000000000078
:400880000000000000000000000000000000000000000000000000000000000000000000000000000000000000000000000000000000000000000000000000000000000038
:4008C00000000000000000000000000000000000000000000000000000000000000000000000000000000000000000000000000000000000000000000000000000000000F8
:0200000490006A
:0400000000004005B7
:0200000490105A
:04000000BC90ACAF55
:0200000490303A
:02000000603965
:0200000490402A
:4000000000000000000000000000000000000000000000000000000000000000000000000000000000000000000000000000000000000000000000000000000000000000C0
:400040000000000000000000000000000000000000000000000000000000000000000000000000000000000000000000000000000000000000000000000000000000000080
:0200000490501A
:0C00000000012E13306900012E5490A264
:00000001FF